{
  "contractName": "BaseSafe",
  "abi": [
    {
      "anonymous": false,
      "inputs": [
        {
          "indexed": false,
          "internalType": "address",
          "name": "owner",
          "type": "address"
        }
      ],
      "name": "AddedOwner",
      "type": "event"
    },
    {
      "anonymous": false,
      "inputs": [
        {
          "indexed": false,
          "internalType": "uint256",
          "name": "threshold",
          "type": "uint256"
        }
      ],
      "name": "ChangedThreshold",
      "type": "event"
    },
    {
      "anonymous": false,
      "inputs": [
        {
          "indexed": false,
          "internalType": "address",
          "name": "newContract",
          "type": "address"
        }
      ],
      "name": "ContractCreation",
      "type": "event"
    },
    {
      "anonymous": false,
      "inputs": [
        {
          "indexed": false,
          "internalType": "contract Module",
          "name": "module",
          "type": "address"
        }
      ],
      "name": "DisabledModule",
      "type": "event"
    },
    {
      "anonymous": false,
      "inputs": [
        {
          "indexed": false,
          "internalType": "contract Module",
          "name": "module",
          "type": "address"
        }
      ],
      "name": "EnabledModule",
      "type": "event"
    },
    {
      "anonymous": false,
      "inputs": [
        {
          "indexed": false,
          "internalType": "address",
          "name": "owner",
          "type": "address"
        }
      ],
      "name": "RemovedOwner",
      "type": "event"
    },
    {
      "payable": true,
      "stateMutability": "payable",
      "type": "fallback"
    },
    {
      "constant": true,
      "inputs": [],
      "name": "SENTINEL_MODULES",
      "outputs": [
        {
          "internalType": "address",
          "name": "",
          "type": "address"
        }
      ],
      "payable": false,
      "stateMutability": "view",
      "type": "function"
    },
    {
      "constant": true,
      "inputs": [],
      "name": "SENTINEL_OWNERS",
      "outputs": [
        {
          "internalType": "address",
          "name": "",
          "type": "address"
        }
      ],
      "payable": false,
      "stateMutability": "view",
      "type": "function"
    },
    {
      "constant": false,
      "inputs": [
        {
          "internalType": "address",
          "name": "owner",
          "type": "address"
        },
        {
          "internalType": "uint256",
          "name": "_threshold",
          "type": "uint256"
        }
      ],
      "name": "addOwnerWithThreshold",
      "outputs": [],
      "payable": false,
      "stateMutability": "nonpayable",
      "type": "function"
    },
    {
      "constant": false,
      "inputs": [
        {
          "internalType": "uint256",
          "name": "_threshold",
          "type": "uint256"
        }
      ],
      "name": "changeThreshold",
      "outputs": [],
      "payable": false,
      "stateMutability": "nonpayable",
      "type": "function"
    },
    {
      "constant": false,
      "inputs": [
        {
          "internalType": "contract Module",
          "name": "prevModule",
          "type": "address"
        },
        {
          "internalType": "contract Module",
          "name": "module",
          "type": "address"
        }
      ],
      "name": "disableModule",
      "outputs": [],
      "payable": false,
      "stateMutability": "nonpayable",
      "type": "function"
    },
    {
      "constant": false,
      "inputs": [
        {
          "internalType": "contract Module",
          "name": "module",
          "type": "address"
        }
      ],
      "name": "enableModule",
      "outputs": [],
      "payable": false,
      "stateMutability": "nonpayable",
      "type": "function"
    },
    {
      "constant": false,
      "inputs": [
        {
          "internalType": "address",
          "name": "to",
          "type": "address"
        },
        {
          "internalType": "uint256",
          "name": "value",
          "type": "uint256"
        },
        {
          "internalType": "bytes",
          "name": "data",
          "type": "bytes"
        },
        {
          "internalType": "enum Enum.Operation",
          "name": "operation",
          "type": "uint8"
        }
      ],
      "name": "execTransactionFromModule",
      "outputs": [
        {
          "internalType": "bool",
          "name": "success",
          "type": "bool"
        }
      ],
      "payable": false,
      "stateMutability": "nonpayable",
      "type": "function"
    },
    {
      "constant": true,
      "inputs": [],
      "name": "getModules",
      "outputs": [
        {
          "internalType": "address[]",
          "name": "",
          "type": "address[]"
        }
      ],
      "payable": false,
      "stateMutability": "view",
      "type": "function"
    },
    {
      "constant": true,
      "inputs": [],
      "name": "getOwners",
      "outputs": [
        {
          "internalType": "address[]",
          "name": "",
          "type": "address[]"
        }
      ],
      "payable": false,
      "stateMutability": "view",
      "type": "function"
    },
    {
      "constant": true,
      "inputs": [],
      "name": "getThreshold",
      "outputs": [
        {
          "internalType": "uint256",
          "name": "",
          "type": "uint256"
        }
      ],
      "payable": false,
      "stateMutability": "view",
      "type": "function"
    },
    {
      "constant": true,
      "inputs": [
        {
          "internalType": "address",
          "name": "owner",
          "type": "address"
        }
      ],
      "name": "isOwner",
      "outputs": [
        {
          "internalType": "bool",
          "name": "",
          "type": "bool"
        }
      ],
      "payable": false,
      "stateMutability": "view",
      "type": "function"
    },
    {
      "constant": false,
      "inputs": [
        {
          "internalType": "address",
          "name": "prevOwner",
          "type": "address"
        },
        {
          "internalType": "address",
          "name": "owner",
          "type": "address"
        },
        {
          "internalType": "uint256",
          "name": "_threshold",
          "type": "uint256"
        }
      ],
      "name": "removeOwner",
      "outputs": [],
      "payable": false,
      "stateMutability": "nonpayable",
      "type": "function"
    },
    {
      "constant": false,
      "inputs": [
        {
          "internalType": "address",
          "name": "prevOwner",
          "type": "address"
        },
        {
          "internalType": "address",
          "name": "oldOwner",
          "type": "address"
        },
        {
          "internalType": "address",
          "name": "newOwner",
          "type": "address"
        }
      ],
      "name": "swapOwner",
      "outputs": [],
      "payable": false,
      "stateMutability": "nonpayable",
      "type": "function"
    }
  ],
  "bytecode": "0x608060405234801561001057600080fd5b5061135e806100206000396000f3fe6080604052600436106100c25760003560e01c80638cff63551161007f578063e009cfde11610059578063e009cfde14610319578063e318b52b14610354578063e75235b814610399578063f8dc5dd9146103c0576100c2565b80638cff63551461026e578063a0e67e2b1461029f578063b2494df314610304576100c2565b80630d582f13146100c45780632f54bf6e146100fd578063468721a714610144578063610b592514610211578063694e80c31461024457806385e332cd1461026e575b005b3480156100d057600080fd5b506100c2600480360360408110156100e757600080fd5b506001600160a01b038135169060200135610403565b34801561010957600080fd5b506101306004803603602081101561012057600080fd5b50356001600160a01b03166105c2565b604080519115158252519081900360200190f35b34801561015057600080fd5b506101306004803603608081101561016757600080fd5b6001600160a01b038235169160208101359181019060608101604082013564010000000081111561019757600080fd5b8201836020820111156101a957600080fd5b803590602001918460018302840111640100000000831117156101cb57600080fd5b91908080601f0160208091040260200160405190810160405280939291908181526020018383808284376000920191909152509295505050903560ff1691506105e29050565b34801561021d57600080fd5b506100c26004803603602081101561023457600080fd5b50356001600160a01b031661064c565b34801561025057600080fd5b506100c26004803603602081101561026757600080fd5b50356107fd565b34801561027a57600080fd5b506102836108f7565b604080516001600160a01b039092168252519081900360200190f35b3480156102ab57600080fd5b506102b46108fc565b60408051602080825283518183015283519192839290830191858101910280838360005b838110156102f05781810151838201526020016102d8565b505050509050019250505060405180910390f35b34801561031057600080fd5b506102b46109c7565b34801561032557600080fd5b506100c26004803603604081101561033c57600080fd5b506001600160a01b0381358116916020013516610b08565b34801561036057600080fd5b506100c26004803603606081101561037757600080fd5b506001600160a01b038135811691602081013582169160409091013516610c90565b3480156103a557600080fd5b506103ae610f24565b60408051918252519081900360200190f35b3480156103cc57600080fd5b506100c2600480360360608110156103e357600080fd5b506001600160a01b03813581169160208101359091169060400135610f2a565b3330146104415760405162461bcd60e51b815260040180806020018281038252602c8152602001806112ce602c913960400191505060405180910390fd5b6001600160a01b0382161580159061046357506001600160a01b038216600114155b6104a2576040805162461bcd60e51b815260206004820152601e60248201526000805160206111e4833981519152604482015290519081900360640190fd5b6001600160a01b03828116600090815260016020526040902054161561050f576040805162461bcd60e51b815260206004820152601b60248201527f4164647265737320697320616c726561647920616e206f776e65720000000000604482015290519081900360640190fd5b600160208181527fcc69885fda6bcc1a4ace058b4a62bf5e179ea78fd58a1ccd71c22cc9b688792f80546001600160a01b03868116600081815260408082208054949095166001600160a01b0319948516179094558690528354909116811790925560028054909401909355825190815291517f9465fa0c962cc76958e6373a993326400c1c94f8be2fe3a952adfa7f60b2ea269281900390910190a180600354146105be576105be816107fd565b5050565b6001600160a01b0390811660009081526001602052604090205416151590565b336000908152602081905260408120546001600160a01b03166106365760405162461bcd60e51b81526004018080602001828103825260308152602001806112fa6030913960400191505060405180910390fd5b610643858585855a611103565b95945050505050565b33301461068a5760405162461bcd60e51b815260040180806020018281038252602c8152602001806112ce602c913960400191505060405180910390fd5b6001600160a01b038116158015906106ac57506001600160a01b038116600114155b6106fd576040805162461bcd60e51b815260206004820152601f60248201527f496e76616c6964206d6f64756c6520616464726573732070726f766964656400604482015290519081900360640190fd5b6001600160a01b03818116600090815260208190526040902054161561076a576040805162461bcd60e51b815260206004820152601d60248201527f4d6f64756c652068617320616c7265616479206265656e206164646564000000604482015290519081900360640190fd5b600060208181527fada5013122d395ba3c54772283fb069b10426056ef8ca54750cb9bb552a59e7d80546001600160a01b0385811680865260408087208054939094166001600160a01b031993841617909355600190955282541684179091558051928352517fecdf3a3effea5783a3c4c2140e677577666428d44ed9d474a0b3a4c9943f84409281900390910190a150565b33301461083b5760405162461bcd60e51b815260040180806020018281038252602c8152602001806112ce602c913960400191505060405180910390fd5b60025481111561087c5760405162461bcd60e51b815260040180806020018281038252602381526020018061122c6023913960400191505060405180910390fd5b60018110156108bc5760405162461bcd60e51b81526004018080602001828103825260248152602001806112aa6024913960400191505060405180910390fd5b60038190556040805182815290517f610f7ff2b304ae8903c3de74c60c6ab1f7d6226b3f52c5161905bb5ad4039c939181900360200190a150565b600181565b60608060025460405190808252806020026020018201604052801561092b578160200160208202803883390190505b50600160008181526020919091527fcc69885fda6bcc1a4ace058b4a62bf5e179ea78fd58a1ccd71c22cc9b688792f54919250906001600160a01b03165b6001600160a01b0381166001146109bf578083838151811061098757fe5b6001600160a01b0392831660209182029290920181019190915291811660009081526001928390526040902054929091019116610969565b509091505090565b6001600090815260208190527fada5013122d395ba3c54772283fb069b10426056ef8ca54750cb9bb552a59e7d54606091906001600160a01b03165b6001600160a01b038116600114610a3b576001600160a01b039081166000908152602081905260409020546001929092019116610a03565b606082604051908082528060200260200182016040528015610a67578160200160208202803883390190505b506001600090815260208190527fada5013122d395ba3c54772283fb069b10426056ef8ca54750cb9bb552a59e7d549094506001600160a01b0316925090505b6001600160a01b038216600114610b015781818481518110610ac557fe5b6001600160a01b039283166020918202929092018101919091529281166000908152928390526040909220546001939093019290911690610aa7565b9250505090565b333014610b465760405162461bcd60e51b815260040180806020018281038252602c8152602001806112ce602c913960400191505060405180910390fd5b6001600160a01b03811615801590610b6857506001600160a01b038116600114155b610bb9576040805162461bcd60e51b815260206004820152601f60248201527f496e76616c6964206d6f64756c6520616464726573732070726f766964656400604482015290519081900360640190fd5b6001600160a01b03828116600090815260208190526040902054811690821614610c145760405162461bcd60e51b81526004018080602001828103825260288152602001806112046028913960400191505060405180910390fd5b6001600160a01b03818116600081815260208181526040808320805488871685528285208054919097166001600160a01b031991821617909655928490528254909416909155825191825291517faab4fa2b463f581b2b32cb3b7e3b704b9ce37cc209b5fb4d77e593ace4054276929181900390910190a15050565b333014610cce5760405162461bcd60e51b815260040180806020018281038252602c8152602001806112ce602c913960400191505060405180910390fd5b6001600160a01b03811615801590610cf057506001600160a01b038116600114155b610d2f576040805162461bcd60e51b815260206004820152601e60248201526000805160206111e4833981519152604482015290519081900360640190fd5b6001600160a01b038181166000908152600160205260409020541615610d9c576040805162461bcd60e51b815260206004820152601b60248201527f4164647265737320697320616c726561647920616e206f776e65720000000000604482015290519081900360640190fd5b6001600160a01b03821615801590610dbe57506001600160a01b038216600114155b610dfd576040805162461bcd60e51b815260206004820152601e60248201526000805160206111e4833981519152604482015290519081900360640190fd5b6001600160a01b03838116600090815260016020526040902054811690831614610e585760405162461bcd60e51b81526004018080602001828103825260268152602001806112846026913960400191505060405180910390fd5b6001600160a01b038281166000818152600160209081526040808320805487871680865283862080549289166001600160a01b0319938416179055968a16855282852080548216909717909655928490528254909416909155825191825291517ff8d49fc529812e9a7c5c50e69c20f0dccc0db8fa95c98bc58cc9a4f1c1299eaf929181900390910190a1604080516001600160a01b038316815290517f9465fa0c962cc76958e6373a993326400c1c94f8be2fe3a952adfa7f60b2ea269181900360200190a1505050565b60035490565b333014610f685760405162461bcd60e51b815260040180806020018281038252602c8152602001806112ce602c913960400191505060405180910390fd5b806001600254031015610fac5760405162461bcd60e51b815260040180806020018281038252603581526020018061124f6035913960400191505060405180910390fd5b6001600160a01b03821615801590610fce57506001600160a01b038216600114155b61100d576040805162461bcd60e51b815260206004820152601e60248201526000805160206111e4833981519152604482015290519081900360640190fd5b6001600160a01b038381166000908152600160205260409020548116908316146110685760405162461bcd60e51b81526004018080602001828103825260268152602001806112846026913960400191505060405180910390fd5b6001600160a01b038281166000818152600160209081526040808320805489871685528285208054919097166001600160a01b03199182161790965592849052825490941690915560028054600019019055825191825291517ff8d49fc529812e9a7c5c50e69c20f0dccc0db8fa95c98bc58cc9a4f1c1299eaf929181900390910190a180600354146110fe576110fe816107fd565b505050565b60008083600281111561111257fe5b141561112b57611124868686856111a4565b9050610643565b600183600281111561113957fe5b141561114a576111248685846111bc565b6000611155856111d2565b604080516001600160a01b038316808252915191151594509192507f4db17dd5e4732fb6da34a148104a592783ca119a1e7bb8829eba6cbadef0b5119181900360200190a15095945050505050565b6000806000845160208601878987f195945050505050565b60008060008451602086018786f4949350505050565b60008151602083016000f09291505056fe496e76616c6964206f776e657220616464726573732070726f76696465640000496e76616c696420707265764d6f64756c652c206d6f64756c6520706169722070726f76696465645468726573686f6c642063616e6e6f7420657863656564206f776e657220636f756e744e6577206f776e657220636f756e74206e6565647320746f206265206c6172676572207468616e206e6577207468726573686f6c64496e76616c696420707265764f776e65722c206f776e657220706169722070726f76696465645468726573686f6c64206e6565647320746f2062652067726561746572207468616e20304d6574686f642063616e206f6e6c792062652063616c6c65642066726f6d207468697320636f6e74726163744d6574686f642063616e206f6e6c792062652063616c6c65642066726f6d20616e20656e61626c6564206d6f64756c65a265627a7a72315820afd466b00ccb212b7788e0804f5dc89de7318fa9f269272141a4a6b569d6713364736f6c63430005100032",
  "source": "pragma solidity ^0.5.0;\nimport \"./Module.sol\";\nimport \"./ModuleManager.sol\";\nimport \"./OwnerManager.sol\";\n\n\n/// @title Base Safe - A multisignature wallet with support for modules and owners. This contract needs to be extented to add functionality to execute transactions.\n/// @author Stefan George - <stefan@gnosis.pm>\n/// @author Richard Meissner - <richard@gnosis.pm>\ncontract BaseSafe is ModuleManager, OwnerManager {\n\n    /// @dev Setup function sets initial storage of contract.\n    /// @param _owners List of Safe owners.\n    /// @param _threshold Number of required confirmations for a Safe transaction.\n    /// @param to Contract address for optional delegate call.\n    /// @param data Data payload for optional delegate call.\n    function setupSafe(address[] memory _owners, uint256 _threshold, address to, bytes memory data)\n        internal\n    {\n        setupOwners(_owners, _threshold);\n        // As setupOwners can only be called if the contract has not been initialized we don't need a check for setupModules\n        setupModules(to, data);\n    }\n}\n",
  "sourcePath": "/Users/OST/Documents/dj/ost-opt-contracts/contracts/openst-contracts/external/gnosis/safe-contracts/contracts/base/BaseSafe.sol",
  "compiler": {
    "name": "solc",
    "version": "0.5.16+commit.9c3226ce.Emscripten.clang"
  },
  "schemaVersion": "3.0.21",
  "updatedAt": "2020-01-19T09:48:26.178Z",
  "devdoc": {
    "author": "Stefan George - <stefan@gnosis.pm>Richard Meissner - <richard@gnosis.pm>",
    "methods": {
      "addOwnerWithThreshold(address,uint256)": {
        "details": "Allows to add a new owner to the Safe and update the threshold at the same time.      This can only be done via a Safe transaction.",
        "params": {
          "_threshold": "New threshold.",
          "owner": "New owner address."
        }
      },
      "changeThreshold(uint256)": {
        "details": "Allows to update the number of required confirmations by Safe owners.      This can only be done via a Safe transaction.",
        "params": {
          "_threshold": "New threshold."
        }
      },
      "disableModule(address,address)": {
        "details": "Allows to remove a module from the whitelist.      This can only be done via a Safe transaction.",
        "params": {
          "module": "Module to be removed.",
          "prevModule": "Module that pointed to the module to be removed in the linked list"
        }
      },
      "enableModule(address)": {
        "details": "Allows to add a module to the whitelist.      This can only be done via a Safe transaction.",
        "params": {
          "module": "Module to be whitelisted."
        }
      },
      "execTransactionFromModule(address,uint256,bytes,uint8)": {
        "details": "Allows a Module to execute a Safe transaction without any further confirmations.",
        "params": {
          "data": "Data payload of module transaction.",
          "operation": "Operation type of module transaction.",
          "to": "Destination address of module transaction.",
          "value": "Ether value of module transaction."
        }
      },
      "getModules()": {
        "details": "Returns array of modules.",
        "return": "Array of modules."
      },
      "getOwners()": {
        "details": "Returns array of owners.",
        "return": "Array of Safe owners."
      },
      "removeOwner(address,address,uint256)": {
        "details": "Allows to remove an owner from the Safe and update the threshold at the same time.      This can only be done via a Safe transaction.",
        "params": {
          "_threshold": "New threshold.",
          "owner": "Owner address to be removed.",
          "prevOwner": "Owner that pointed to the owner to be removed in the linked list"
        }
      },
      "swapOwner(address,address,address)": {
        "details": "Allows to swap/replace an owner from the Safe with another address.      This can only be done via a Safe transaction.",
        "params": {
          "newOwner": "New owner address.",
          "oldOwner": "Owner address to be replaced.",
          "prevOwner": "Owner that pointed to the owner to be replaced in the linked list"
        }
      }
    },
    "title": "Base Safe - A multisignature wallet with support for modules and owners. This contract needs to be extented to add functionality to execute transactions."
  },
  "userdoc": {
    "methods": {}
  }
}