{
  "contractName": "BrandedToken",
  "abi": [
    {
      "inputs": [
        {
          "internalType": "contract EIP20Interface",
          "name": "_valueToken",
          "type": "address"
        },
        {
          "internalType": "string",
          "name": "_symbol",
          "type": "string"
        },
        {
          "internalType": "string",
          "name": "_name",
          "type": "string"
        },
        {
          "internalType": "uint8",
          "name": "_decimals",
          "type": "uint8"
        },
        {
          "internalType": "uint256",
          "name": "_conversionRate",
          "type": "uint256"
        },
        {
          "internalType": "uint8",
          "name": "_conversionRateDecimals",
          "type": "uint8"
        },
        {
          "internalType": "contract OrganizationInterface",
          "name": "_organization",
          "type": "address"
        }
      ],
      "payable": false,
      "stateMutability": "nonpayable",
      "type": "constructor"
    },
    {
      "anonymous": false,
      "inputs": [
        {
          "indexed": true,
          "internalType": "address",
          "name": "_owner",
          "type": "address"
        },
        {
          "indexed": true,
          "internalType": "address",
          "name": "_spender",
          "type": "address"
        },
        {
          "indexed": false,
          "internalType": "uint256",
          "name": "_value",
          "type": "uint256"
        }
      ],
      "name": "Approval",
      "type": "event"
    },
    {
      "anonymous": false,
      "inputs": [
        {
          "indexed": false,
          "internalType": "string",
          "name": "_name",
          "type": "string"
        }
      ],
      "name": "NameSet",
      "type": "event"
    },
    {
      "anonymous": false,
      "inputs": [
        {
          "indexed": false,
          "internalType": "address",
          "name": "_redeemer",
          "type": "address"
        },
        {
          "indexed": false,
          "internalType": "uint256",
          "name": "_valueTokens",
          "type": "uint256"
        }
      ],
      "name": "Redeemed",
      "type": "event"
    },
    {
      "anonymous": false,
      "inputs": [
        {
          "indexed": true,
          "internalType": "bytes32",
          "name": "_stakeRequestHash",
          "type": "bytes32"
        },
        {
          "indexed": false,
          "internalType": "address",
          "name": "_staker",
          "type": "address"
        },
        {
          "indexed": false,
          "internalType": "uint256",
          "name": "_stake",
          "type": "uint256"
        }
      ],
      "name": "StakeRequestAccepted",
      "type": "event"
    },
    {
      "anonymous": false,
      "inputs": [
        {
          "indexed": true,
          "internalType": "bytes32",
          "name": "_stakeRequestHash",
          "type": "bytes32"
        },
        {
          "indexed": false,
          "internalType": "address",
          "name": "_staker",
          "type": "address"
        },
        {
          "indexed": false,
          "internalType": "uint256",
          "name": "_stake",
          "type": "uint256"
        }
      ],
      "name": "StakeRequestRejected",
      "type": "event"
    },
    {
      "anonymous": false,
      "inputs": [
        {
          "indexed": true,
          "internalType": "bytes32",
          "name": "_stakeRequestHash",
          "type": "bytes32"
        },
        {
          "indexed": false,
          "internalType": "address",
          "name": "_staker",
          "type": "address"
        },
        {
          "indexed": false,
          "internalType": "uint256",
          "name": "_stake",
          "type": "uint256"
        }
      ],
      "name": "StakeRequestRevoked",
      "type": "event"
    },
    {
      "anonymous": false,
      "inputs": [
        {
          "indexed": true,
          "internalType": "bytes32",
          "name": "_stakeRequestHash",
          "type": "bytes32"
        },
        {
          "indexed": false,
          "internalType": "address",
          "name": "_staker",
          "type": "address"
        },
        {
          "indexed": false,
          "internalType": "uint256",
          "name": "_stake",
          "type": "uint256"
        },
        {
          "indexed": false,
          "internalType": "uint256",
          "name": "_nonce",
          "type": "uint256"
        }
      ],
      "name": "StakeRequested",
      "type": "event"
    },
    {
      "anonymous": false,
      "inputs": [
        {
          "indexed": false,
          "internalType": "string",
          "name": "_symbol",
          "type": "string"
        }
      ],
      "name": "SymbolSet",
      "type": "event"
    },
    {
      "anonymous": false,
      "inputs": [
        {
          "indexed": true,
          "internalType": "address",
          "name": "_from",
          "type": "address"
        },
        {
          "indexed": true,
          "internalType": "address",
          "name": "_to",
          "type": "address"
        },
        {
          "indexed": false,
          "internalType": "uint256",
          "name": "_value",
          "type": "uint256"
        }
      ],
      "name": "Transfer",
      "type": "event"
    },
    {
      "constant": true,
      "inputs": [],
      "name": "allRestrictionsLifted",
      "outputs": [
        {
          "internalType": "bool",
          "name": "",
          "type": "bool"
        }
      ],
      "payable": false,
      "stateMutability": "view",
      "type": "function"
    },
    {
      "constant": true,
      "inputs": [
        {
          "internalType": "address",
          "name": "_owner",
          "type": "address"
        },
        {
          "internalType": "address",
          "name": "_spender",
          "type": "address"
        }
      ],
      "name": "allowance",
      "outputs": [
        {
          "internalType": "uint256",
          "name": "",
          "type": "uint256"
        }
      ],
      "payable": false,
      "stateMutability": "view",
      "type": "function"
    },
    {
      "constant": false,
      "inputs": [
        {
          "internalType": "address",
          "name": "_spender",
          "type": "address"
        },
        {
          "internalType": "uint256",
          "name": "_value",
          "type": "uint256"
        }
      ],
      "name": "approve",
      "outputs": [
        {
          "internalType": "bool",
          "name": "success_",
          "type": "bool"
        }
      ],
      "payable": false,
      "stateMutability": "nonpayable",
      "type": "function"
    },
    {
      "constant": true,
      "inputs": [
        {
          "internalType": "address",
          "name": "_owner",
          "type": "address"
        }
      ],
      "name": "balanceOf",
      "outputs": [
        {
          "internalType": "uint256",
          "name": "",
          "type": "uint256"
        }
      ],
      "payable": false,
      "stateMutability": "view",
      "type": "function"
    },
    {
      "constant": true,
      "inputs": [],
      "name": "conversionRate",
      "outputs": [
        {
          "internalType": "uint256",
          "name": "",
          "type": "uint256"
        }
      ],
      "payable": false,
      "stateMutability": "view",
      "type": "function"
    },
    {
      "constant": true,
      "inputs": [],
      "name": "conversionRateDecimals",
      "outputs": [
        {
          "internalType": "uint8",
          "name": "",
          "type": "uint8"
        }
      ],
      "payable": false,
      "stateMutability": "view",
      "type": "function"
    },
    {
      "constant": true,
      "inputs": [],
      "name": "decimals",
      "outputs": [
        {
          "internalType": "uint8",
          "name": "",
          "type": "uint8"
        }
      ],
      "payable": false,
      "stateMutability": "view",
      "type": "function"
    },
    {
      "constant": true,
      "inputs": [],
      "name": "name",
      "outputs": [
        {
          "internalType": "string",
          "name": "",
          "type": "string"
        }
      ],
      "payable": false,
      "stateMutability": "view",
      "type": "function"
    },
    {
      "constant": true,
      "inputs": [],
      "name": "nonce",
      "outputs": [
        {
          "internalType": "uint256",
          "name": "",
          "type": "uint256"
        }
      ],
      "payable": false,
      "stateMutability": "view",
      "type": "function"
    },
    {
      "constant": true,
      "inputs": [],
      "name": "organization",
      "outputs": [
        {
          "internalType": "contract OrganizationInterface",
          "name": "",
          "type": "address"
        }
      ],
      "payable": false,
      "stateMutability": "view",
      "type": "function"
    },
    {
      "constant": true,
      "inputs": [
        {
          "internalType": "address",
          "name": "",
          "type": "address"
        }
      ],
      "name": "stakeRequestHashes",
      "outputs": [
        {
          "internalType": "bytes32",
          "name": "",
          "type": "bytes32"
        }
      ],
      "payable": false,
      "stateMutability": "view",
      "type": "function"
    },
    {
      "constant": true,
      "inputs": [
        {
          "internalType": "bytes32",
          "name": "",
          "type": "bytes32"
        }
      ],
      "name": "stakeRequests",
      "outputs": [
        {
          "internalType": "address",
          "name": "staker",
          "type": "address"
        },
        {
          "internalType": "uint256",
          "name": "stake",
          "type": "uint256"
        },
        {
          "internalType": "uint256",
          "name": "nonce",
          "type": "uint256"
        }
      ],
      "payable": false,
      "stateMutability": "view",
      "type": "function"
    },
    {
      "constant": true,
      "inputs": [],
      "name": "symbol",
      "outputs": [
        {
          "internalType": "string",
          "name": "",
          "type": "string"
        }
      ],
      "payable": false,
      "stateMutability": "view",
      "type": "function"
    },
    {
      "constant": true,
      "inputs": [],
      "name": "totalSupply",
      "outputs": [
        {
          "internalType": "uint256",
          "name": "",
          "type": "uint256"
        }
      ],
      "payable": false,
      "stateMutability": "view",
      "type": "function"
    },
    {
      "constant": true,
      "inputs": [],
      "name": "valueToken",
      "outputs": [
        {
          "internalType": "contract EIP20Interface",
          "name": "",
          "type": "address"
        }
      ],
      "payable": false,
      "stateMutability": "view",
      "type": "function"
    },
    {
      "constant": false,
      "inputs": [
        {
          "internalType": "uint256",
          "name": "_stake",
          "type": "uint256"
        },
        {
          "internalType": "uint256",
          "name": "_mint",
          "type": "uint256"
        }
      ],
      "name": "requestStake",
      "outputs": [
        {
          "internalType": "bytes32",
          "name": "stakeRequestHash_",
          "type": "bytes32"
        }
      ],
      "payable": false,
      "stateMutability": "nonpayable",
      "type": "function"
    },
    {
      "constant": false,
      "inputs": [
        {
          "internalType": "bytes32",
          "name": "_stakeRequestHash",
          "type": "bytes32"
        },
        {
          "internalType": "bytes32",
          "name": "_r",
          "type": "bytes32"
        },
        {
          "internalType": "bytes32",
          "name": "_s",
          "type": "bytes32"
        },
        {
          "internalType": "uint8",
          "name": "_v",
          "type": "uint8"
        }
      ],
      "name": "acceptStakeRequest",
      "outputs": [
        {
          "internalType": "bool",
          "name": "success_",
          "type": "bool"
        }
      ],
      "payable": false,
      "stateMutability": "nonpayable",
      "type": "function"
    },
    {
      "constant": false,
      "inputs": [
        {
          "internalType": "address[]",
          "name": "_restrictionLifted",
          "type": "address[]"
        }
      ],
      "name": "liftRestriction",
      "outputs": [
        {
          "internalType": "bool",
          "name": "success_",
          "type": "bool"
        }
      ],
      "payable": false,
      "stateMutability": "nonpayable",
      "type": "function"
    },
    {
      "constant": true,
      "inputs": [
        {
          "internalType": "address",
          "name": "_actor",
          "type": "address"
        }
      ],
      "name": "isUnrestricted",
      "outputs": [
        {
          "internalType": "bool",
          "name": "isUnrestricted_",
          "type": "bool"
        }
      ],
      "payable": false,
      "stateMutability": "view",
      "type": "function"
    },
    {
      "constant": false,
      "inputs": [],
      "name": "liftAllRestrictions",
      "outputs": [
        {
          "internalType": "bool",
          "name": "success_",
          "type": "bool"
        }
      ],
      "payable": false,
      "stateMutability": "nonpayable",
      "type": "function"
    },
    {
      "constant": false,
      "inputs": [
        {
          "internalType": "bytes32",
          "name": "_stakeRequestHash",
          "type": "bytes32"
        }
      ],
      "name": "revokeStakeRequest",
      "outputs": [
        {
          "internalType": "bool",
          "name": "success_",
          "type": "bool"
        }
      ],
      "payable": false,
      "stateMutability": "nonpayable",
      "type": "function"
    },
    {
      "constant": false,
      "inputs": [
        {
          "internalType": "uint256",
          "name": "_brandedTokens",
          "type": "uint256"
        }
      ],
      "name": "redeem",
      "outputs": [
        {
          "internalType": "bool",
          "name": "success_",
          "type": "bool"
        }
      ],
      "payable": false,
      "stateMutability": "nonpayable",
      "type": "function"
    },
    {
      "constant": false,
      "inputs": [
        {
          "internalType": "bytes32",
          "name": "_stakeRequestHash",
          "type": "bytes32"
        }
      ],
      "name": "rejectStakeRequest",
      "outputs": [
        {
          "internalType": "bool",
          "name": "success_",
          "type": "bool"
        }
      ],
      "payable": false,
      "stateMutability": "nonpayable",
      "type": "function"
    },
    {
      "constant": false,
      "inputs": [
        {
          "internalType": "string",
          "name": "_symbol",
          "type": "string"
        }
      ],
      "name": "setSymbol",
      "outputs": [
        {
          "internalType": "bool",
          "name": "success_",
          "type": "bool"
        }
      ],
      "payable": false,
      "stateMutability": "nonpayable",
      "type": "function"
    },
    {
      "constant": false,
      "inputs": [
        {
          "internalType": "string",
          "name": "_name",
          "type": "string"
        }
      ],
      "name": "setName",
      "outputs": [
        {
          "internalType": "bool",
          "name": "success_",
          "type": "bool"
        }
      ],
      "payable": false,
      "stateMutability": "nonpayable",
      "type": "function"
    },
    {
      "constant": false,
      "inputs": [
        {
          "internalType": "address",
          "name": "_to",
          "type": "address"
        },
        {
          "internalType": "uint256",
          "name": "_value",
          "type": "uint256"
        }
      ],
      "name": "transfer",
      "outputs": [
        {
          "internalType": "bool",
          "name": "success_",
          "type": "bool"
        }
      ],
      "payable": false,
      "stateMutability": "nonpayable",
      "type": "function"
    },
    {
      "constant": false,
      "inputs": [
        {
          "internalType": "address",
          "name": "_from",
          "type": "address"
        },
        {
          "internalType": "address",
          "name": "_to",
          "type": "address"
        },
        {
          "internalType": "uint256",
          "name": "_value",
          "type": "uint256"
        }
      ],
      "name": "transferFrom",
      "outputs": [
        {
          "internalType": "bool",
          "name": "success_",
          "type": "bool"
        }
      ],
      "payable": false,
      "stateMutability": "nonpayable",
      "type": "function"
    },
    {
      "constant": true,
      "inputs": [
        {
          "internalType": "uint256",
          "name": "_valueTokens",
          "type": "uint256"
        }
      ],
      "name": "convertToBrandedTokens",
      "outputs": [
        {
          "internalType": "uint256",
          "name": "",
          "type": "uint256"
        }
      ],
      "payable": false,
      "stateMutability": "view",
      "type": "function"
    },
    {
      "constant": true,
      "inputs": [
        {
          "internalType": "uint256",
          "name": "_brandedTokens",
          "type": "uint256"
        }
      ],
      "name": "convertToValueTokens",
      "outputs": [
        {
          "internalType": "uint256",
          "name": "",
          "type": "uint256"
        }
      ],
      "payable": false,
      "stateMutability": "view",
      "type": "function"
    }
  ],
  "bytecode": "0x6080604081905280602762002339823960408051918290036027018220602080840191909152308383015281518084038301815260609093019091528151910120600c55503480156200005157600080fd5b50604051620023f1380380620023f1833981810160405260e08110156200007757600080fd5b8151602083018051604051929492938301929190846401000000008211156200009f57600080fd5b908301906020820185811115620000b557600080fd5b8251640100000000811182820188101715620000d057600080fd5b82525081516020918201929091019080838360005b83811015620000ff578181015183820152602001620000e5565b50505050905090810190601f1680156200012d5780820380516001836020036101000a031916815260200191505b50604052602001805160405193929190846401000000008211156200015157600080fd5b9083019060208201858111156200016757600080fd5b82516401000000008111828201881017156200018257600080fd5b82525081516020918201929091019080838360005b83811015620001b157818101518382015260200162000197565b50505050905090810190601f168015620001df5780820380516001836020036101000a031916815260200191505b50604090815260208201519082015160608301516080909301519194509250858585836001600160a01b038116620002495760405162461bcd60e51b815260040180806020018281038252602f81526020018062002360602f913960400191505060405180910390fd5b600080546001600160a01b0319166001600160a01b039290921691909117905582516200027e90600290602086019062000493565b5081516200029490600190602085019062000493565b506003805460ff191660ff92909216919091179055505060006004556001600160a01b0387166200030c576040805162461bcd60e51b815260206004820152601360248201527f56616c7565546f6b656e206973207a65726f2e00000000000000000000000000604482015290519081900360640190fd5b826200035f576040805162461bcd60e51b815260206004820152601760248201527f436f6e76657273696f6e52617465206973207a65726f2e000000000000000000604482015290519081900360640190fd5b60058260ff161115620003a45760405162461bcd60e51b8152600401808060200182810382526029815260200180620023c86029913960400191505060405180910390fd5b600780546001600160a01b0319166001600160a01b03891690811790915560088490556009805460ff191660ff858116919091179091556040805163313ce56760e01b81529051918716929163313ce56791600480820192602092909190829003018186803b1580156200041757600080fd5b505afa1580156200042c573d6000803e3d6000fd5b505050506040513d60208110156200044357600080fd5b505160ff1614620004865760405162461bcd60e51b81526004018080602001828103825260398152602001806200238f6039913960400191505060405180910390fd5b5050505050505062000538565b828054600181600116156101000203166002900490600052602060002090601f016020900481019282601f10620004d657805160ff191683800117855562000506565b8280016001018555821562000506579182015b8281111562000506578251825591602001919060010190620004e9565b506200051492915062000518565b5090565b6200053591905b808211156200051457600081556001016200051f565b90565b611df180620005486000396000f3fe608060405234801561001057600080fd5b50600436106101cf5760003560e01c806395d89b4111610104578063cc3488ab116100a2578063e30ac6c311610071578063e30ac6c314610652578063e62ab86b1461065a578063effff82f1461067d578063f40c288114610685576101cf565b8063cc3488ab146105cd578063d94ade83146105ea578063db006a7514610607578063dd62ed3e14610624576101cf565b8063aed30777116100de578063aed30777146104bf578063affed0e0146104e5578063b84c8246146104ed578063c47f00271461055d576101cf565b806395d89b4114610465578063a3c787d31461046d578063a9059cbb14610493576101cf565b8063486c1585116101715780635c8dc74d1161014b5780635c8dc74d146103fd5780635cd6f6b31461042f57806370a08231146104375780637ffdf53e1461045d576101cf565b8063486c1585146103685780634ec7c973146103855780635c0ed5bf1461038d576101cf565b806318ba31d8116101ad57806318ba31d8146102ab57806323b872dd146102f057806323bd4d7a14610326578063313ce5671461034a576101cf565b806306fdde03146101d4578063095ea7b31461025157806318160ddd14610291575b600080fd5b6101dc6106a2565b6040805160208082528351818301528351919283929083019185019080838360005b838110156102165781810151838201526020016101fe565b50505050905090810190601f1680156102435780820380516001836020036101000a031916815260200191505b509250505060405180910390f35b61027d6004803603604081101561026757600080fd5b506001600160a01b038135169060200135610738565b604080519115158252519081900360200190f35b61029961079f565b60408051918252519081900360200190f35b6102c8600480360360208110156102c157600080fd5b50356107a5565b604080516001600160a01b039094168452602084019290925282820152519081900360600190f35b61027d6004803603606081101561030657600080fd5b506001600160a01b038135811691602081013590911690604001356107d0565b61032e610853565b604080516001600160a01b039092168252519081900360200190f35b610352610862565b6040805160ff9092168252519081900360200190f35b6102996004803603602081101561037e57600080fd5b503561086b565b61027d61089b565b61027d600480360360208110156103a357600080fd5b8101906020810181356401000000008111156103be57600080fd5b8201836020820111156103d057600080fd5b803590602001918460208302840111640100000000831117156103f257600080fd5b5090925090506108a4565b61027d6004803603608081101561041357600080fd5b508035906020810135906040810135906060013560ff166109b7565b61027d610bda565b6102996004803603602081101561044d57600080fd5b50356001600160a01b0316610ca1565b610299610cbc565b6101dc610cc2565b6102996004803603602081101561048357600080fd5b50356001600160a01b0316610d20565b61027d600480360360408110156104a957600080fd5b506001600160a01b038135169060200135610d32565b61027d600480360360208110156104d557600080fd5b50356001600160a01b0316610db3565b610299610dd1565b61027d6004803603602081101561050357600080fd5b81019060208101813564010000000081111561051e57600080fd5b82018360208201111561053057600080fd5b8035906020019184600183028401116401000000008311171561055257600080fd5b509092509050610dd7565b61027d6004803603602081101561057357600080fd5b81019060208101813564010000000081111561058e57600080fd5b8201836020820111156105a057600080fd5b803590602001918460018302840111640100000000831117156105c257600080fd5b509092509050610f4b565b61027d600480360360208110156105e357600080fd5b503561107e565b6102996004803603602081101561060057600080fd5b503561122b565b61027d6004803603602081101561061d57600080fd5b5035611252565b6102996004803603604081101561063a57600080fd5b506001600160a01b038135811691602001351661135b565b610352611386565b6102996004803603604081101561067057600080fd5b508035906020013561138f565b61032e6115f1565b61027d6004803603602081101561069b57600080fd5b5035611600565b60018054604080516020601f6002600019610100878916150201909516949094049384018190048102820181019092528281526060939092909183018282801561072d5780601f106107025761010080835404028352916020019161072d565b820191906000526020600020905b81548152906001019060200180831161071057829003601f168201915b505050505090505b90565b3360008181526006602090815260408083206001600160a01b038716808552908352818420869055815186815291519394909390927f8c5be1e5ebec7d5bd14f71427d1e84f3dd0314c0f7b2291e5b200ac8c7c3b925928290030190a35060015b92915050565b60045490565b600e602052600090815260409020805460018201546002909201546001600160a01b03909116919083565b600b5460009060ff16806107f35750336000908152600f602052604090205460ff165b610840576040805162461bcd60e51b815260206004820152601960248201527826b9b39739b2b73232b91034b9903932b9ba3934b1ba32b21760391b604482015290519081900360640190fd5b61084b848484611827565b949350505050565b6000546001600160a01b031681565b60035460ff1690565b6008546009546000916107999161088f90859060ff16600a0a63ffffffff61192016565b9063ffffffff61194716565b600b5460ff1681565b600080546040805163aa15664560e01b815233600482015290516001600160a01b039092169163aa15664591602480820192602092909190829003018186803b1580156108f057600080fd5b505afa158015610904573d6000803e3d6000fd5b505050506040513d602081101561091a57600080fd5b50516109575760405162461bcd60e51b8152600401808060200182810382526039815260200180611d846039913960400191505060405180910390fd5b60005b828110156109ad576001600f600086868581811061097457fe5b602090810292909201356001600160a01b0316835250810191909152604001600020805460ff191691151591909117905560010161095a565b5060019392505050565b6000848152600e60205260408120546001600160a01b0316610a1b576040805162461bcd60e51b815260206004820152601860248201527729ba30b5b2903932b8bab2b9ba103737ba103337bab7321760411b604482015290519081900360640190fd5b610a23611bea565b506000858152600e60208181526040808420815160608101835281546001600160a01b03168082526001830180548387015260028401805484870152918852600d86529387208790558b87529490935280546001600160a01b0319169055839055919055610a9381868686611969565b610ae4576040805162461bcd60e51b815260206004820152601760248201527f5369676e6572206973206e6f74206120776f726b65722e000000000000000000604482015290519081900360640190fd5b8051602080830151604080516001600160a01b03909416845291830152805188927f48fffa032b3f8cdf2a6982b0975c90054a2b651b9fc7c5e8951f1b512653048f92908290030190a26000610b3d826020015161122b565b82516001600160a01b0316600090815260056020526040902054909150610b6a908263ffffffff611ab816565b82516001600160a01b0316600090815260056020526040902055600454610b97908263ffffffff611ab816565b60045581516040805183815290516001600160a01b0390921691600091600080516020611d2c833981519152919081900360200190a35060019695505050505050565b600080546040805163b1ce8eab60e01b815233600482015290516001600160a01b039092169163b1ce8eab91602480820192602092909190829003018186803b158015610c2657600080fd5b505afa158015610c3a573d6000803e3d6000fd5b505050506040513d6020811015610c5057600080fd5b5051610c8d5760405162461bcd60e51b8152600401808060200182810382526035815260200180611cd46035913960400191505060405180910390fd5b50600b805460ff1916600190811790915590565b6001600160a01b031660009081526005602052604090205490565b60085481565b60028054604080516020601f600019610100600187161502019094168590049384018190048102820181019092528281526060939092909183018282801561072d5780601f106107025761010080835404028352916020019161072d565b600d6020526000908152604090205481565b600b5460009060ff1680610d555750336000908152600f602052604090205460ff165b610da2576040805162461bcd60e51b815260206004820152601960248201527826b9b39739b2b73232b91034b9903932b9ba3934b1ba32b21760391b604482015290519081900360640190fd5b610dac8383611aca565b9392505050565b6001600160a01b03166000908152600f602052604090205460ff1690565b600a5481565b600080546040805163aa15664560e01b815233600482015290516001600160a01b039092169163aa15664591602480820192602092909190829003018186803b158015610e2357600080fd5b505afa158015610e37573d6000803e3d6000fd5b505050506040513d6020811015610e4d57600080fd5b5051610e8a5760405162461bcd60e51b8152600401808060200182810382526039815260200180611d846039913960400191505060405180910390fd5b610e9660028484611c14565b506040805160208082526002805460001961010060018316150201168190049183018290527f3e46ff90086ee29856e77591e82c82ff8ed513379b0fd82e84fc5290dd633c9993909291829182019084908015610f345780601f10610f0957610100808354040283529160200191610f34565b820191906000526020600020905b815481529060010190602001808311610f1757829003601f168201915b50509250505060405180910390a150600192915050565b600080546040805163aa15664560e01b815233600482015290516001600160a01b039092169163aa15664591602480820192602092909190829003018186803b158015610f9757600080fd5b505afa158015610fab573d6000803e3d6000fd5b505050506040513d6020811015610fc157600080fd5b5051610ffe5760405162461bcd60e51b8152600401808060200182810382526039815260200180611d846039913960400191505060405180910390fd5b61100a60018484611c14565b50604080516020808252600180546002600019610100838516150201909116049183018290527f13c98778b0c1a086bb98d7f1986e15788b5d3a1ad4c492e1d78f1c4cc51c20cf93909291829182019084908015610f345780601f10610f0957610100808354040283529160200191610f34565b6000818152600e60205260408120546001600160a01b031633146110e9576040805162461bcd60e51b815260206004820152601960248201527f4d73672e73656e646572206973206e6f74207374616b65722e00000000000000604482015290519081900360640190fd5b6000828152600e6020818152604080842060018101805433808852600d865284882088905589885295855282546001600160a01b0319168355908690556002909101949094558051928352908201839052805185927fba13541266d31486e980eccb471a0b4e22c930b197ee2271141265de5298f71192908290030190a26007546040805163a9059cbb60e01b81523360048201526024810184905290516001600160a01b039092169163a9059cbb916044808201926020929091908290030181600087803b1580156111bb57600080fd5b505af11580156111cf573d6000803e3d6000fd5b505050506040513d60208110156111e557600080fd5b50516112225760405162461bcd60e51b8152600401808060200182810382526023815260200180611d096023913960400191505060405180910390fd5b50600192915050565b6009546008546000916107999160ff909116600a0a9061088f90859063ffffffff61192016565b33600090815260056020526040812054611272908363ffffffff611b6816565b33600090815260056020526040902055600454611295908363ffffffff611b6816565b60045560006112a38361086b565b604080513381526020810183905281519293507f4896181ff8f4543cc00db9fe9b6fb7e6f032b7eb772c72ab1ec1b4d2e03b9369929081900390910190a16040805184815290516000913391600080516020611d2c8339815191529181900360200190a36007546040805163a9059cbb60e01b81523360048201526024810184905290516001600160a01b039092169163a9059cbb916044808201926020929091908290030181600087803b1580156111bb57600080fd5b6001600160a01b03918216600090815260066020908152604080832093909416825291909152205490565b60095460ff1681565b600061139a8361122b565b82146113ed576040805162461bcd60e51b815260206004820181905260248201527f4d696e74206973206e6f74206571756976616c656e7420746f207374616b652e604482015290519081900360640190fd5b336000908152600d60205260409020541561144f576040805162461bcd60e51b815260206004820181905260248201527f5374616b6572206861732061207374616b65207265717565737420686173682e604482015290519081900360640190fd5b611457611bea565b6040518060600160405280336001600160a01b03168152602001858152602001600a54815250905061148881611b7d565b336000908152600d60209081526040808320849055838352600e825291829020845181546001600160a01b0319166001600160a01b039091169081178255858301516001808401829055878601516002909401849055600a8054909101905584519182529281019290925281830152905191935083917fc4d5962941bb76972bb640460d069e062e91c8c69174f05a5567a2913e3dccee916060908290030190a2600754604080516323b872dd60e01b81523360048201523060248201526044810187905290516001600160a01b03909216916323b872dd916064808201926020929091908290030181600087803b15801561158357600080fd5b505af1158015611597573d6000803e3d6000fd5b505050506040513d60208110156115ad57600080fd5b50516115ea5760405162461bcd60e51b8152600401808060200182810382526027815260200180611cad6027913960400191505060405180910390fd5b5092915050565b6007546001600160a01b031681565b600080546040805163aa15664560e01b815233600482015290516001600160a01b039092169163aa15664591602480820192602092909190829003018186803b15801561164c57600080fd5b505afa158015611660573d6000803e3d6000fd5b505050506040513d602081101561167657600080fd5b50516116b35760405162461bcd60e51b8152600401808060200182810382526039815260200180611d846039913960400191505060405180910390fd5b6000828152600e60205260409020546001600160a01b0316611717576040805162461bcd60e51b815260206004820152601860248201527729ba30b5b2903932b8bab2b9ba103737ba103337bab7321760411b604482015290519081900360640190fd5b61171f611bea565b506000828152600e60208181526040808420815160608101835281546001600160a01b0390811680835260018401805484880190815260028601805486890152928a52600d8852868a208a90558b8a5297875284546001600160a01b0319169094559287905595909155805193518251949095168452918301939093528251909285927f03d1d0557a66a4f0c9b486469bf0038433930e5033da77ab6c249da65b29a65f929081900390910190a260075481516020808401516040805163a9059cbb60e01b81526001600160a01b039485166004820152602481019290925251929093169263a9059cbb92604480830193928290030181600087803b1580156111bb57600080fd5b6001600160a01b038316600090815260056020526040812054611850908363ffffffff611b6816565b6001600160a01b038516600090815260056020908152604080832093909355600681528282203383529052205461188d908363ffffffff611b6816565b6001600160a01b0380861660009081526006602090815260408083203384528252808320949094559186168152600590915220546118d1908363ffffffff611ab816565b6001600160a01b038085166000818152600560209081526040918290209490945580518681529051919392881692600080516020611d2c83398151915292918290030190a35060019392505050565b60008261192f57506000610799565b8282028284828161193c57fe5b0414610dac57600080fd5b600080821161195557600080fd5b600082848161196057fe5b04949350505050565b600080601960f81b600160f81b600c5461198289611b7d565b604080516001600160f81b0319958616602080830191909152949095166021860152602285019290925260428085019190915281518085039091018152606284018083528151918401919091206000805492526082850180845281905260ff881660a286015260c285018a905260e2850189905291519194506001600160a01b03169263aa1566459260019261010280840193601f198301929081900390910190855afa158015611a37573d6000803e3d6000fd5b505060408051601f198101516001600160e01b031960e086901b1682526001600160a01b03166004820152905160248083019350602092829003018186803b158015611a8257600080fd5b505afa158015611a96573d6000803e3d6000fd5b505050506040513d6020811015611aac57600080fd5b50519695505050505050565b600082820183811015610dac57600080fd5b33600090815260056020526040812054611aea908363ffffffff611b6816565b33600090815260056020526040808220929092556001600160a01b03851681522054611b1c908363ffffffff611ab816565b6001600160a01b038416600081815260056020908152604091829020939093558051858152905191923392600080516020611d2c8339815191529281900390910190a350600192915050565b600082821115611b7757600080fd5b50900390565b60006040518080611d4c6038913960408051918290036038018220855160208088015188850151828701949094526001600160a01b039092168585015260608501919091526080808501929092528251808503909201825260a09093019091528051910120915050919050565b604051806060016040528060006001600160a01b0316815260200160008152602001600081525090565b828054600181600116156101000203166002900490600052602060002090601f016020900481019282601f10611c555782800160ff19823516178555611c82565b82800160010185558215611c82579182015b82811115611c82578235825591602001919060010190611c67565b50611c8e929150611c92565b5090565b61073591905b80821115611c8e5760008155600101611c9856fe56616c7565546f6b656e2e7472616e7366657246726f6d2072657475726e65642066616c73652e4f6e6c7920746865206f7267616e697a6174696f6e20697320616c6c6f77656420746f2063616c6c2074686973206d6574686f642e56616c7565546f6b656e2e7472616e736665722072657475726e65642066616c73652eddf252ad1be2c89b69c2b068fc378daa952ba7f163c4a11628f55a4df523b3ef5374616b65526571756573742861646472657373207374616b65722c75696e74323536207374616b652c75696e74323536206e6f6e6365294f6e6c792077686974656c697374656420776f726b6572732061726520616c6c6f77656420746f2063616c6c2074686973206d6574686f642ea265627a7a7231582058497f5f02bf13e2f54712e89b1eef92e01d30acb12f8fab7cae8ba0a063ff5b64736f6c63430005100032454950373132446f6d61696e286164647265737320766572696679696e67436f6e7472616374294f7267616e697a6174696f6e20636f6e74726163742061646472657373206d757374206e6f74206265207a65726f2e56616c7565546f6b656e20646563696d616c7320646f6573206e6f7420657175616c206272616e646564546f6b656e20646563696d616c732e436f6e76657273696f6e52617465446563696d616c732069732067726561746572207468616e20352e",
  "source": "pragma solidity ^0.5.0;\n\n\n// Copyright 2019 OpenST Ltd.\n//\n// Licensed under the Apache License, Version 2.0 (the \"License\");\n// you may not use this file except in compliance with the License.\n// You may obtain a copy of the License at\n//\n//    http://www.apache.org/licenses/LICENSE-2.0\n//\n// Unless required by applicable law or agreed to in writing, software\n// distributed under the License is distributed on an \"AS IS\" BASIS,\n// WITHOUT WARRANTIES OR CONDITIONS OF ANY KIND, either express or implied.\n// See the License for the specific language governing permissions and\n// limitations under the License.\n\n\nimport \"./EIP20Token.sol\";\nimport \"./utilitytoken/contracts/organization/contracts/Organized.sol\";\nimport \"openzeppelin-solidity/contracts/math/SafeMath.sol\";\n\n\n/**\n * @title Branded Token.\n *\n * @notice Branded tokens are minted by staking specified value tokens.\n */\ncontract BrandedToken is Organized, EIP20Token {\n\n    /* Usings */\n\n    using SafeMath for uint256;\n\n\n    /* Events */\n\n    event StakeRequested(\n        bytes32 indexed _stakeRequestHash,\n        address _staker,\n        uint256 _stake,\n        uint256 _nonce\n    );\n\n    event StakeRequestAccepted(\n        bytes32 indexed _stakeRequestHash,\n        address _staker,\n        uint256 _stake\n    );\n\n    event StakeRequestRevoked(\n        bytes32 indexed _stakeRequestHash,\n        address _staker,\n        uint256 _stake\n    );\n\n    event Redeemed(\n        address _redeemer,\n        uint256 _valueTokens\n    );\n\n    event StakeRequestRejected(\n        bytes32 indexed _stakeRequestHash,\n        address _staker,\n        uint256 _stake\n    );\n\n    event SymbolSet(string _symbol);\n\n    event NameSet(string _name);\n\n\n    /* Structs */\n\n    struct StakeRequest {\n        address staker;\n        uint256 stake;\n        uint256 nonce;\n    }\n\n\n    /* Storage */\n\n    /** Address for value tokens staked to mint branded tokens. */\n    EIP20Interface public valueToken;\n\n    /** Conversion rate from value tokens to branded tokens. */\n    uint256 public conversionRate;\n\n    /** Number of digits to the right of the decimal point in conversionRate. */\n    uint8 public conversionRateDecimals;\n\n    /** Global nonce for stake requests. */\n    uint256 public nonce;\n\n    /** Flag indicating whether restrictions have been lifted for all actors. */\n    bool public allRestrictionsLifted;\n\n    /** Domain separator encoding per EIP 712. */\n    bytes32 private constant EIP712_DOMAIN_TYPEHASH = keccak256(\n        \"EIP712Domain(address verifyingContract)\"\n    );\n\n    /** StakeRequest struct type encoding per EIP 712. */\n    bytes32 private constant BT_STAKE_REQUEST_TYPEHASH = keccak256(\n        \"StakeRequest(address staker,uint256 stake,uint256 nonce)\"\n    );\n\n    /** Domain separator per EIP 712. */\n    bytes32 private DOMAIN_SEPARATOR = keccak256(\n        abi.encode(\n            EIP712_DOMAIN_TYPEHASH,\n            address(this)\n        )\n    );\n\n    /** Maps staker to stakeRequestHashes. */\n    mapping(address => bytes32) public stakeRequestHashes;\n\n    /** Maps stakeRequestHash to StakeRequests. */\n    mapping(bytes32 => StakeRequest) public stakeRequests;\n\n    /** Maps actor to restriction status. */\n    mapping(address => bool) private unrestricted;\n\n\n    /* Modifiers */\n\n    modifier onlyUnrestricted {\n        require(\n            allRestrictionsLifted || unrestricted[msg.sender],\n            \"Msg.sender is restricted.\"\n        );\n        _;\n    }\n\n\n    /* Constructor */\n\n    /**\n     * @dev Conversion parameters provide the conversion rate and its scale.\n     *      For example, if 1 value token is equivalent to 3.5 branded\n     *      tokens (1:3.5), _conversionRate == 35 and\n     *      _conversionRateDecimals == 1.\n     *\n     *      The value token is expected to have a `decimals` function.\n     *\n     *      Constructor requires:\n     *          - valueToken address is not zero\n     *          - conversionRate is not zero\n     *          - conversionRateDecimals is not greater than 5\n     *          - valueToken.decimals == decimals\n     *\n     * @param _valueToken The value to which valueToken is set.\n     * @param _symbol The value to which tokenSymbol, defined in EIP20Token,\n     *                is set.\n     * @param _name The value to which tokenName, defined in EIP20Token,\n     *              is set.\n     * @param _decimals The value to which tokenDecimals, defined in EIP20Token,\n     *                  is set.\n     * @param _conversionRate The value to which conversionRate is set.\n     * @param _conversionRateDecimals The value to which\n     *                                conversionRateDecimals is set.\n     * @param _organization The value to which organization, defined in Organized,\n     *                      is set.\n     */\n    constructor(\n        EIP20Interface _valueToken,\n        string memory _symbol,\n        string memory _name,\n        uint8 _decimals,\n        uint256 _conversionRate,\n        uint8 _conversionRateDecimals,\n        OrganizationInterface _organization\n    )\n        EIP20Token(_symbol, _name, _decimals)\n        Organized(_organization)\n        public\n    {\n        require(\n            address(_valueToken) != address(0),\n            \"ValueToken is zero.\"\n        );\n        require(\n            _conversionRate != 0,\n            \"ConversionRate is zero.\"\n        );\n        require(\n            _conversionRateDecimals <= 5,\n            \"ConversionRateDecimals is greater than 5.\"\n        );\n\n        valueToken = _valueToken;\n        conversionRate = _conversionRate;\n        conversionRateDecimals = _conversionRateDecimals;\n\n        require(\n            _valueToken.decimals() == _decimals,\n            \"ValueToken decimals does not equal brandedToken decimals.\"\n        );\n    }\n\n\n    /* External Functions */\n\n    /**\n     * @notice Transfers value tokens from msg.sender to itself,\n     *         stores the amount of branded tokens to mint if request\n     *         is accepted, and emits stake request information.\n     *\n     * @dev It is expected that this contract will have a sufficientallowance\n     *      to transfer value tokens from the staker at the time this function\n     *      is executed.\n     *\n     *      Function requires:\n     *          - _mint is equivalent to _stake\n     *          - msg.sender does not have a stake request hash\n     *          - valueToken.transferFrom returns true\n     *\n     * @param _stake Amount of value tokens to stake.\n     * @param _mint Amount of branded tokens to mint.\n     *\n     * @return stakeRequestHash_ Hash of stake request information calculated per\n     *                           EIP 712.\n     */\n    function requestStake(\n        uint256 _stake,\n        uint256 _mint\n    )\n        external\n        returns (bytes32 stakeRequestHash_)\n    {\n        require(\n            _mint == convertToBrandedTokens(_stake),\n            \"Mint is not equivalent to stake.\"\n        );\n        require(\n            stakeRequestHashes[msg.sender] == bytes32(0),\n            \"Staker has a stake request hash.\"\n        );\n\n        StakeRequest memory stakeRequest = StakeRequest({\n            staker: msg.sender,\n            stake: _stake,\n            nonce: nonce\n        });\n        // Calculates hash per EIP 712\n        stakeRequestHash_ = hash(stakeRequest);\n        stakeRequestHashes[msg.sender] = stakeRequestHash_;\n        stakeRequests[stakeRequestHash_] = stakeRequest;\n\n        nonce += 1;\n\n        emit StakeRequested(\n            stakeRequestHash_,\n            stakeRequest.staker,\n            stakeRequest.stake,\n            stakeRequest.nonce\n        );\n\n        require(\n            valueToken.transferFrom(msg.sender, address(this), _stake),\n            \"ValueToken.transferFrom returned false.\"\n        );\n    }\n\n    /**\n     * @notice Mints and transfers branded tokens to a staker,\n     *         increases the total token supply, and\n     *         emits stake request acceptance and transfer information.\n     *\n     * @dev The function has no access controls, but will only accept\n     *      the signature of a worker, as defined in Organization.\n     *\n     *      Function requires:\n     *          - stake request exists\n     *          - signature is from a worker\n     *\n     * @param _stakeRequestHash Stake request hash.\n     * @param _r R of the signature.\n     * @param _s S of the signature.\n     * @param _v V of the signature.\n     *\n     * @return success_ True.\n     */\n    function acceptStakeRequest(\n        bytes32 _stakeRequestHash,\n        bytes32 _r,\n        bytes32 _s,\n        uint8 _v\n    )\n        external\n        returns (bool success_)\n    {\n        require(\n            stakeRequests[_stakeRequestHash].staker != address(0),\n            \"Stake request not found.\"\n        );\n\n        // To prevent a reentrancy the stake request is copied into the memory\n        // and deleted from the storage.\n        StakeRequest memory stakeRequest = stakeRequests[_stakeRequestHash];\n        delete stakeRequestHashes[stakeRequest.staker];\n        delete stakeRequests[_stakeRequestHash];\n\n        require(\n            verifySigner(stakeRequest, _r, _s, _v),\n            \"Signer is not a worker.\"\n        );\n\n        emit StakeRequestAccepted(\n            _stakeRequestHash,\n            stakeRequest.staker,\n            stakeRequest.stake\n        );\n\n        uint256 mint = convertToBrandedTokens(stakeRequest.stake);\n        balances[stakeRequest.staker] = balances[stakeRequest.staker]\n            .add(mint);\n        totalTokenSupply = totalTokenSupply.add(mint);\n\n        // Mint branded tokens\n        emit Transfer(address(0), stakeRequest.staker, mint);\n\n        return true;\n    }\n\n    /**\n     * @notice Maps addresses in _restrictionLifted to true in unrestricted.\n     *\n     * @dev Function requires:\n     *          - msg.sender is a worker\n     *\n     * @param _restrictionLifted Addresses for which to lift restrictions.\n     *\n     * @return success_ True.\n     */\n    function liftRestriction(\n        address[] calldata _restrictionLifted\n    )\n        external\n        onlyWorker\n        returns (bool success_)\n    {\n        for (uint256 i = 0; i < _restrictionLifted.length; i++) {\n            unrestricted[_restrictionLifted[i]] = true;\n        }\n\n        return true;\n    }\n\n    /**\n     * @notice Indicates whether an actor is unrestricted.\n     *\n     * @param _actor Actor.\n     *\n     * @return isUnrestricted_ Whether unrestricted.\n     */\n    function isUnrestricted(address _actor)\n        external\n        view\n        returns (bool isUnrestricted_)\n    {\n        return unrestricted[_actor];\n    }\n\n    /**\n     * @notice Lifts restrictions from all actors.\n     *\n     * @dev Function requires:\n     *          - msg.sender is organization\n     *\n     * @return success_ True.\n     */\n    function liftAllRestrictions()\n        external\n        onlyOrganization\n        returns (bool success_)\n    {\n        allRestrictionsLifted = true;\n\n        return true;\n    }\n\n    /**\n     * @notice Revokes stake request by deleting its information and\n     *         transferring staked value tokens back to staker.\n     *\n     * @dev Function requires:\n     *          - msg.sender is staker\n     *          - valueToken.transfer returns true\n     *\n     * @param _stakeRequestHash Stake request hash.\n     *\n     * @return success_ True.\n     */\n    function revokeStakeRequest(\n        bytes32 _stakeRequestHash\n    )\n        external\n        returns (bool success_)\n    {\n        require(\n            stakeRequests[_stakeRequestHash].staker == msg.sender,\n            \"Msg.sender is not staker.\"\n        );\n\n        uint256 stake = stakeRequests[_stakeRequestHash].stake;\n\n        delete stakeRequestHashes[msg.sender];\n        delete stakeRequests[_stakeRequestHash];\n\n        emit StakeRequestRevoked(\n            _stakeRequestHash,\n            msg.sender,\n            stake\n        );\n\n        require(\n            valueToken.transfer(msg.sender, stake),\n            \"ValueToken.transfer returned false.\"\n        );\n\n        return true;\n    }\n\n    /**\n     * @notice Reduces msg.sender's balance and the total supply by\n     *         _brandedTokens and transfers an equivalent amount of\n     *         value tokens to msg.sender.\n     *\n     * @dev Redemption may risk loss of branded tokens.\n     *      It is possible to redeem branded tokens for 0 value tokens.\n     *\n     *      Function requires:\n     *          - valueToken.transfer returns true\n     *\n     * @param _brandedTokens Amount of branded tokens to redeem.\n     *\n     * @return success_ True.\n     */\n    function redeem(\n        uint256 _brandedTokens\n    )\n        external\n        returns (bool success_)\n    {\n        balances[msg.sender] = balances[msg.sender].sub(_brandedTokens);\n        totalTokenSupply = totalTokenSupply.sub(_brandedTokens);\n        uint256 valueTokens = convertToValueTokens(_brandedTokens);\n\n        emit Redeemed(msg.sender, valueTokens);\n\n        // Burn redeemed branded tokens\n        emit Transfer(msg.sender, address(0), _brandedTokens);\n\n        require(\n            valueToken.transfer(msg.sender, valueTokens),\n            \"ValueToken.transfer returned false.\"\n        );\n\n        return true;\n    }\n\n    /**\n     * @notice Rejects stake request by deleting its information and\n     *         transferring staked value tokens back to staker.\n     *\n     * @dev Function requires:\n     *          - msg.sender is a worker\n     *          - stake request exists\n     *          - valueToken.transfer returns true\n     *\n     * @param _stakeRequestHash Stake request hash.\n     *\n     * @return success_ True.\n     */\n    function rejectStakeRequest(\n        bytes32 _stakeRequestHash\n    )\n        external\n        onlyWorker\n        returns (bool success_)\n    {\n        require(\n            stakeRequests[_stakeRequestHash].staker != address(0),\n            \"Stake request not found.\"\n        );\n\n        StakeRequest memory stakeRequest = stakeRequests[_stakeRequestHash];\n\n        delete stakeRequestHashes[stakeRequest.staker];\n        delete stakeRequests[_stakeRequestHash];\n\n        emit StakeRequestRejected(\n            _stakeRequestHash,\n            stakeRequest.staker,\n            stakeRequest.stake\n        );\n\n        require(\n            valueToken.transfer(stakeRequest.staker, stakeRequest.stake),\n            \"ValueToken.transfer returned false.\"\n        );\n\n        return true;\n    }\n\n    /**\n     * @notice Sets symbol.\n     *\n     * @dev Function requires:\n     *          - msg.sender is a worker\n     *\n     * @param _symbol The value to which symbol is set.\n     *\n     * @return success_ True.\n     */\n    function setSymbol(\n        string calldata _symbol\n    )\n        external\n        onlyWorker\n        returns (bool success_)\n    {\n        tokenSymbol = _symbol;\n\n        emit SymbolSet(tokenSymbol);\n\n        return true;\n    }\n\n    /**\n     * @notice Sets name.\n     *\n     * @dev Function requires:\n     *          - msg.sender is a worker\n     *\n     * @param _name The value to which name is set.\n     *\n     * @return success_ True.\n     */\n    function setName(\n        string calldata _name\n    )\n        external\n        onlyWorker\n        returns (bool success_)\n    {\n        tokenName = _name;\n\n        emit NameSet(tokenName);\n\n        return true;\n    }\n\n\n    /* Public Functions */\n\n    /**\n     * @notice Overrides EIP20Token.transfer by additionally\n     *         requiring msg.sender to be unrestricted.\n     *\n     * @param _to Address to which tokens are transferred.\n     * @param _value Amount of tokens to be transferred.\n     *\n     * @return success_ Result from EIP20Token transfer.\n     */\n    function transfer(\n        address _to,\n        uint256 _value\n    )\n        public\n        onlyUnrestricted\n        returns (bool success_)\n    {\n        return super.transfer(_to, _value);\n    }\n\n    /**\n     * @notice Overrides EIP20Token.transferFrom by additionally\n     *         requiring msg.sender to be unrestricted.\n     *\n     * @param _from Address from which tokens are transferred.\n     * @param _to Address to which tokens are transferred.\n     * @param _value Amount of tokens transferred.\n     *\n     * @return success_ Result from EIP20Token transferFrom.\n     */\n    function transferFrom(\n        address _from,\n        address _to,\n        uint256 _value\n    )\n        public\n        onlyUnrestricted\n        returns (bool success_)\n    {\n        return super.transferFrom(_from, _to, _value);\n    }\n\n    /**\n     * @notice Returns the amount of branded tokens equivalent to a\n     *         given amount of value tokens.\n     *\n     * @dev Please note there may be a loss of up to 1 indivisible unit of\n     *      this token (i.e., assuming 1 value token is equivalent\n     *      to 3.5 branded tokens, convert(1) --> 3, not 3.5).\n     *\n     * @param _valueTokens Amount to convert.\n     *\n     * @return uint256 Converted amount.\n     */\n    function convertToBrandedTokens(\n        uint256 _valueTokens\n    )\n        public\n        view\n        returns (uint256)\n    {\n        return (\n            _valueTokens\n            .mul(conversionRate)\n            .div(10 ** uint256(conversionRateDecimals))\n        );\n    }\n\n    /**\n     * @notice Returns the amount of value tokens equivalent to a\n     *         given amount of branded tokens.\n     *\n     * @dev Please note there may be a loss of up to 1 indivisible unit of\n     *      this token.\n     *\n     * @param _brandedTokens Amount to convert.\n     *\n     * @return uint256 Converted amount.\n     */\n    function convertToValueTokens(\n        uint256 _brandedTokens\n    )\n        public\n        view\n        returns (uint256)\n    {\n        return (\n            _brandedTokens\n            .mul(10 ** uint256(conversionRateDecimals))\n            .div(conversionRate)\n        );\n    }\n\n\n    /* Private Functions */\n\n    /**\n     * @notice Calculates stakeRequestHash according to EIP 712.\n     *\n     * @param _stakeRequest StakeRequest instance to hash.\n     *\n     * @return bytes32 EIP 712 hash of _stakeRequest.\n     */\n    function hash(\n        StakeRequest memory _stakeRequest\n    )\n        private\n        pure\n        returns (bytes32)\n    {\n        return keccak256(\n            abi.encode(\n                BT_STAKE_REQUEST_TYPEHASH,\n                _stakeRequest.staker,\n                _stakeRequest.stake,\n                _stakeRequest.nonce\n            )\n        );\n    }\n\n    /**\n     * @notice Verifies whether signer of stakeRequestHash is a worker.\n     *\n     * @dev Signing the stakeRequestHash consistent with eth_signTypedData,\n     *      as specified by EIP 712, requires signing a hash of encoded data\n     *      comprising:\n     *          - an initial byte\n     *          - the version byte for structured data\n     *          - the domain separator\n     *          - the stakeRequestHash\n     *\n     *      See: https://github.com/ethereum/EIPs/blob/master/EIPS/eip-712.md\n     *\n     * @param _stakeRequest Stake request.\n     * @param _r R of the signature.\n     * @param _s S of the signature.\n     * @param _v V of the signature.\n     *\n     * @return bool True if signer is a worker, false if not.\n     */\n    function verifySigner(\n        StakeRequest memory _stakeRequest,\n        bytes32 _r,\n        bytes32 _s,\n        uint8 _v\n    )\n        private\n        view\n        returns (bool)\n    {\n        // See: https://github.com/ethereum/EIPs/blob/master/assets/eip-712/Example.sol\n        bytes32 typedData = keccak256(\n            abi.encodePacked(\n                byte(0x19), // the initial 0x19 byte\n                byte(0x01), // the version byte for structured data\n                DOMAIN_SEPARATOR,\n                hash(_stakeRequest)\n            )\n        );\n\n        return organization.isWorker(ecrecover(typedData, _v, _r, _s));\n    }\n}\n",
  "sourcePath": "/Users/OST/Documents/dj/ost-opt-contracts/contracts/brandedtoken-contracts/contracts/BrandedToken.sol",
  "compiler": {
    "name": "solc",
    "version": "0.5.16+commit.9c3226ce.Emscripten.clang"
  },
  "schemaVersion": "3.0.21",
  "updatedAt": "2020-01-22T07:47:25.211Z",
  "devdoc": {
    "methods": {
      "acceptStakeRequest(bytes32,bytes32,bytes32,uint8)": {
        "details": "The function has no access controls, but will only accept     the signature of a worker, as defined in Organization.     *      Function requires:         - stake request exists         - signature is from a worker",
        "params": {
          "_r": "R of the signature.",
          "_s": "S of the signature.",
          "_stakeRequestHash": "Stake request hash.",
          "_v": "V of the signature."
        },
        "return": "success_ True."
      },
      "allowance(address,address)": {
        "params": {
          "_owner": "Address of the owner account.",
          "_spender": "Address of the spender account."
        },
        "return": "Remaining allowance for the spender to spend from         owner's account."
      },
      "approve(address,uint256)": {
        "details": "Allows _spender address to withdraw from function caller's      account, multiple times up to the _value amount, if this      function is called again it overwrites the current allowance      with _value.",
        "params": {
          "_spender": "Address authorized to spend from the function caller's                 address.",
          "_value": "Amount up to which spender is authorized to spend."
        },
        "return": "success_ True for a successful approval, false otherwise."
      },
      "balanceOf(address)": {
        "params": {
          "_owner": "Address of the owner account."
        },
        "return": "Account balance of the owner account."
      },
      "constructor": {
        "details": "Conversion parameters provide the conversion rate and its scale.     For example, if 1 value token is equivalent to 3.5 branded     tokens (1:3.5), _conversionRate == 35 and     _conversionRateDecimals == 1.     *      The value token is expected to have a `decimals` function.     *      Constructor requires:         - valueToken address is not zero         - conversionRate is not zero         - conversionRateDecimals is not greater than 5         - valueToken.decimals == decimals",
        "params": {
          "_conversionRate": "The value to which conversionRate is set.",
          "_conversionRateDecimals": "The value to which                               conversionRateDecimals is set.",
          "_decimals": "The value to which tokenDecimals, defined in EIP20Token,                 is set.",
          "_name": "The value to which tokenName, defined in EIP20Token,             is set.",
          "_organization": "The value to which organization, defined in Organized,                     is set.",
          "_symbol": "The value to which tokenSymbol, defined in EIP20Token,               is set.",
          "_valueToken": "The value to which valueToken is set."
        }
      },
      "convertToBrandedTokens(uint256)": {
        "details": "Please note there may be a loss of up to 1 indivisible unit of     this token (i.e., assuming 1 value token is equivalent     to 3.5 branded tokens, convert(1) --> 3, not 3.5).",
        "params": {
          "_valueTokens": "Amount to convert."
        },
        "return": "uint256 Converted amount."
      },
      "convertToValueTokens(uint256)": {
        "details": "Please note there may be a loss of up to 1 indivisible unit of     this token.",
        "params": {
          "_brandedTokens": "Amount to convert."
        },
        "return": "uint256 Converted amount."
      },
      "decimals()": {
        "return": "Decimal places of the token."
      },
      "isUnrestricted(address)": {
        "params": {
          "_actor": "Actor."
        },
        "return": "isUnrestricted_ Whether unrestricted."
      },
      "liftAllRestrictions()": {
        "details": "Function requires:         - msg.sender is organization",
        "return": "success_ True."
      },
      "liftRestriction(address[])": {
        "details": "Function requires:         - msg.sender is a worker",
        "params": {
          "_restrictionLifted": "Addresses for which to lift restrictions."
        },
        "return": "success_ True."
      },
      "name()": {
        "return": "Name of the token."
      },
      "redeem(uint256)": {
        "details": "Redemption may risk loss of branded tokens.     It is possible to redeem branded tokens for 0 value tokens.     *      Function requires:         - valueToken.transfer returns true",
        "params": {
          "_brandedTokens": "Amount of branded tokens to redeem."
        },
        "return": "success_ True."
      },
      "rejectStakeRequest(bytes32)": {
        "details": "Function requires:         - msg.sender is a worker         - stake request exists         - valueToken.transfer returns true",
        "params": {
          "_stakeRequestHash": "Stake request hash."
        },
        "return": "success_ True."
      },
      "requestStake(uint256,uint256)": {
        "details": "It is expected that this contract will have a sufficientallowance     to transfer value tokens from the staker at the time this function     is executed.     *      Function requires:         - _mint is equivalent to _stake         - msg.sender does not have a stake request hash         - valueToken.transferFrom returns true",
        "params": {
          "_mint": "Amount of branded tokens to mint.",
          "_stake": "Amount of value tokens to stake."
        },
        "return": "stakeRequestHash_ Hash of stake request information calculated per                          EIP 712."
      },
      "revokeStakeRequest(bytes32)": {
        "details": "Function requires:         - msg.sender is staker         - valueToken.transfer returns true",
        "params": {
          "_stakeRequestHash": "Stake request hash."
        },
        "return": "success_ True."
      },
      "setName(string)": {
        "details": "Function requires:         - msg.sender is a worker",
        "params": {
          "_name": "The value to which name is set."
        },
        "return": "success_ True."
      },
      "setSymbol(string)": {
        "details": "Function requires:         - msg.sender is a worker",
        "params": {
          "_symbol": "The value to which symbol is set."
        },
        "return": "success_ True."
      },
      "symbol()": {
        "return": "Symbol of the token."
      },
      "totalSupply()": {
        "details": "Get totalTokenSupply as view so that child cannot edit.",
        "return": "Total token supply."
      },
      "transfer(address,uint256)": {
        "params": {
          "_to": "Address to which tokens are transferred.",
          "_value": "Amount of tokens to be transferred."
        },
        "return": "success_ Result from EIP20Token transfer."
      },
      "transferFrom(address,address,uint256)": {
        "params": {
          "_from": "Address from which tokens are transferred.",
          "_to": "Address to which tokens are transferred.",
          "_value": "Amount of tokens transferred."
        },
        "return": "success_ Result from EIP20Token transferFrom."
      }
    },
    "title": "Branded Token."
  },
  "userdoc": {
    "methods": {
      "acceptStakeRequest(bytes32,bytes32,bytes32,uint8)": {
        "notice": "Mints and transfers branded tokens to a staker,        increases the total token supply, and        emits stake request acceptance and transfer information."
      },
      "allowance(address,address)": {
        "notice": "Public view function allowance."
      },
      "approve(address,uint256)": {
        "notice": "Public function approve."
      },
      "balanceOf(address)": {
        "notice": "Public view function balanceOf."
      },
      "convertToBrandedTokens(uint256)": {
        "notice": "Returns the amount of branded tokens equivalent to a        given amount of value tokens."
      },
      "convertToValueTokens(uint256)": {
        "notice": "Returns the amount of value tokens equivalent to a        given amount of branded tokens."
      },
      "decimals()": {
        "notice": "Public view function decimals."
      },
      "isUnrestricted(address)": {
        "notice": "Indicates whether an actor is unrestricted."
      },
      "liftAllRestrictions()": {
        "notice": "Lifts restrictions from all actors."
      },
      "liftRestriction(address[])": {
        "notice": "Maps addresses in _restrictionLifted to true in unrestricted."
      },
      "name()": {
        "notice": "Public view function name."
      },
      "redeem(uint256)": {
        "notice": "Reduces msg.sender's balance and the total supply by        _brandedTokens and transfers an equivalent amount of        value tokens to msg.sender."
      },
      "rejectStakeRequest(bytes32)": {
        "notice": "Rejects stake request by deleting its information and        transferring staked value tokens back to staker."
      },
      "requestStake(uint256,uint256)": {
        "notice": "Transfers value tokens from msg.sender to itself,        stores the amount of branded tokens to mint if request        is accepted, and emits stake request information."
      },
      "revokeStakeRequest(bytes32)": {
        "notice": "Revokes stake request by deleting its information and        transferring staked value tokens back to staker."
      },
      "setName(string)": {
        "notice": "Sets name."
      },
      "setSymbol(string)": {
        "notice": "Sets symbol."
      },
      "symbol()": {
        "notice": "Public view function symbol."
      },
      "totalSupply()": {
        "notice": "Public view function totalSupply."
      },
      "transfer(address,uint256)": {
        "notice": "Overrides EIP20Token.transfer by additionally        requiring msg.sender to be unrestricted."
      },
      "transferFrom(address,address,uint256)": {
        "notice": "Overrides EIP20Token.transferFrom by additionally        requiring msg.sender to be unrestricted."
      }
    },
    "notice": "Branded tokens are minted by staking specified value tokens."
  }
}