{
  "contractName": "CoGatewaySpy",
  "abi": [
    {
      "constant": true,
      "inputs": [],
      "name": "failRedemption",
      "outputs": [
        {
          "internalType": "bool",
          "name": "",
          "type": "bool"
        }
      ],
      "payable": false,
      "stateMutability": "view",
      "type": "function"
    },
    {
      "constant": true,
      "inputs": [],
      "name": "recoerdedHashLock",
      "outputs": [
        {
          "internalType": "bytes32",
          "name": "",
          "type": "bytes32"
        }
      ],
      "payable": false,
      "stateMutability": "view",
      "type": "function"
    },
    {
      "constant": true,
      "inputs": [],
      "name": "recordedAmount",
      "outputs": [
        {
          "internalType": "uint256",
          "name": "",
          "type": "uint256"
        }
      ],
      "payable": false,
      "stateMutability": "view",
      "type": "function"
    },
    {
      "constant": true,
      "inputs": [],
      "name": "recordedBeneficiary",
      "outputs": [
        {
          "internalType": "address",
          "name": "",
          "type": "address"
        }
      ],
      "payable": false,
      "stateMutability": "view",
      "type": "function"
    },
    {
      "constant": true,
      "inputs": [],
      "name": "recordedGasLimit",
      "outputs": [
        {
          "internalType": "uint256",
          "name": "",
          "type": "uint256"
        }
      ],
      "payable": false,
      "stateMutability": "view",
      "type": "function"
    },
    {
      "constant": true,
      "inputs": [],
      "name": "recordedGasPrice",
      "outputs": [
        {
          "internalType": "uint256",
          "name": "",
          "type": "uint256"
        }
      ],
      "payable": false,
      "stateMutability": "view",
      "type": "function"
    },
    {
      "constant": true,
      "inputs": [],
      "name": "recordedNonce",
      "outputs": [
        {
          "internalType": "uint256",
          "name": "",
          "type": "uint256"
        }
      ],
      "payable": false,
      "stateMutability": "view",
      "type": "function"
    },
    {
      "constant": true,
      "inputs": [],
      "name": "recordedPayedAmount",
      "outputs": [
        {
          "internalType": "uint256",
          "name": "",
          "type": "uint256"
        }
      ],
      "payable": false,
      "stateMutability": "view",
      "type": "function"
    },
    {
      "constant": false,
      "inputs": [],
      "name": "makeRedemptionToFail",
      "outputs": [],
      "payable": false,
      "stateMutability": "nonpayable",
      "type": "function"
    },
    {
      "constant": false,
      "inputs": [
        {
          "internalType": "uint256",
          "name": "_amount",
          "type": "uint256"
        },
        {
          "internalType": "address",
          "name": "_beneficiary",
          "type": "address"
        },
        {
          "internalType": "uint256",
          "name": "_gasPrice",
          "type": "uint256"
        },
        {
          "internalType": "uint256",
          "name": "_gasLimit",
          "type": "uint256"
        },
        {
          "internalType": "uint256",
          "name": "_nonce",
          "type": "uint256"
        },
        {
          "internalType": "bytes32",
          "name": "_hashLock",
          "type": "bytes32"
        }
      ],
      "name": "redeem",
      "outputs": [
        {
          "internalType": "bytes32",
          "name": "",
          "type": "bytes32"
        }
      ],
      "payable": true,
      "stateMutability": "payable",
      "type": "function"
    }
  ],
  "bytecode": "0x608060405234801561001057600080fd5b50610300806100206000396000f3fe6080604052600436106100905760003560e01c80634dd98f15116100595780634dd98f15146101405780636f4a9a34146101575780638dd4f87a1461016c578063bf41b9d914610181578063ecc5fed1146101c557610090565b80627d527e146100955780630756bb34146100c65780631cbb95c2146100ed57806341c0cad4146101025780634c56766514610117575b600080fd5b3480156100a157600080fd5b506100aa6101da565b604080516001600160a01b039092168252519081900360200190f35b3480156100d257600080fd5b506100db6101e9565b60408051918252519081900360200190f35b3480156100f957600080fd5b506100db6101ef565b34801561010e57600080fd5b506100db6101f5565b34801561012357600080fd5b5061012c6101fb565b604080519115158252519081900360200190f35b34801561014c57600080fd5b50610155610204565b005b34801561016357600080fd5b506100db610213565b34801561017857600080fd5b506100db610219565b6100db600480360360c081101561019757600080fd5b508035906001600160a01b036020820135169060408101359060608101359060808101359060a0013561021f565b3480156101d157600080fd5b506100db6102a4565b6002546001600160a01b031681565b60055481565b60045481565b60015481565b60075460ff1681565b6007805460ff19166001179055565b60005481565b60065481565b60075460009060ff16156102645760405162461bcd60e51b81526004018080602001828103825260218152602001806102ab6021913960400191505060405180910390fd5b50346000908155600196909655600280546001600160a01b0319166001600160a01b03969096169590951790945560039290925560045560055560065590565b6003548156fe43616c6c7320746f2072656465656d20617265206d61646520746f206661696c2ea265627a7a72315820a0b025f9548588a84250b418a3c7cff7a9de42e76bf8072ffc6f37dec696028e64736f6c63430005100032",
  "source": "pragma solidity ^0.5.0;\n\n\n// Copyright 2019 OpenST Ltd.\n//\n// Licensed under the Apache License, Version 2.0 (the \"License\");\n// you may not use this file except in compliance with the License.\n// You may obtain a copy of the License at\n//\n//    http://www.apache.org/licenses/LICENSE-2.0\n//\n// Unless required by applicable law or agreed to in writing, software\n// distributed under the License is distributed on an \"AS IS\" BASIS,\n// WITHOUT WARRANTIES OR CONDITIONS OF ANY KIND, either express or implied.\n// See the License for the specific language governing permissions and\n// limitations under the License.\n\n/**\n * @notice Spy test double to catch inputs to verify.\n */\ncontract CoGatewaySpy {\n\n    /* Storage */\n\n    uint256 public recordedPayedAmount;\n\n    uint256 public recordedAmount;\n\n    address public recordedBeneficiary;\n\n    uint256 public recordedGasPrice;\n\n    uint256 public recordedGasLimit;\n\n    uint256 public recordedNonce;\n\n    bytes32 public recoerdedHashLock;\n\n    /** @dev If true, redeem() function fails by throwing an exception */\n    bool public failRedemption;\n\n\n    /* External Functions */\n\n    /**\n     * @dev Calling this function makes mocked redeem() function to fail\n     *      by throwing an exception.\n     */\n    function makeRedemptionToFail()\n        external\n    {\n        failRedemption = true;\n    }\n\n    function redeem(\n        uint256 _amount,\n        address _beneficiary,\n        uint256 _gasPrice,\n        uint256 _gasLimit,\n        uint256 _nonce,\n        bytes32 _hashLock\n    )\n        external\n        payable\n        returns (bytes32)\n    {\n        if (failRedemption) {\n            revert(\"Calls to redeem are made to fail.\");\n        }\n\n        recordedPayedAmount = msg.value;\n\n        recordedAmount = _amount;\n\n        recordedBeneficiary = _beneficiary;\n\n        recordedGasPrice = _gasPrice;\n\n        recordedGasLimit = _gasLimit;\n\n        recordedNonce = _nonce;\n\n        recoerdedHashLock = _hashLock;\n\n        return bytes32(0);\n    }\n}\n",
  "sourcePath": "/Users/OST/Documents/dj/ost-opt-contracts/contracts/openst-contracts/contracts/test_doubles/unit_tests/token_holder/execute_redeem/CoGatewaySpy.sol",
  "compiler": {
    "name": "solc",
    "version": "0.5.16+commit.9c3226ce.Emscripten.clang"
  },
  "schemaVersion": "3.0.21",
  "updatedAt": "2020-01-19T09:48:26.151Z",
  "devdoc": {
    "methods": {
      "makeRedemptionToFail()": {
        "details": "Calling this function makes mocked redeem() function to fail     by throwing an exception."
      }
    }
  },
  "userdoc": {
    "methods": {},
    "notice": "Spy test double to catch inputs to verify."
  }
}