{
  "contractName": "CreateAndAddModules",
  "abi": [
    {
      "constant": false,
      "inputs": [
        {
          "internalType": "contract Module",
          "name": "module",
          "type": "address"
        }
      ],
      "name": "enableModule",
      "outputs": [],
      "payable": false,
      "stateMutability": "nonpayable",
      "type": "function"
    },
    {
      "constant": false,
      "inputs": [
        {
          "internalType": "address",
          "name": "proxyFactory",
          "type": "address"
        },
        {
          "internalType": "bytes",
          "name": "data",
          "type": "bytes"
        }
      ],
      "name": "createAndAddModules",
      "outputs": [],
      "payable": false,
      "stateMutability": "nonpayable",
      "type": "function"
    }
  ],
  "bytecode": "0x608060405234801561001057600080fd5b5061021d806100206000396000f3fe608060405234801561001057600080fd5b50600436106100365760003560e01c806360df7f581461003b578063610b5925146100f3575b600080fd5b6100f16004803603604081101561005157600080fd5b6001600160a01b03823516919081019060408101602082013564010000000081111561007c57600080fd5b82018360208201111561008e57600080fd5b803590602001918460018302840111640100000000831117156100b057600080fd5b91908080601f016020809104026020016040519081016040528093929190818152602001838380828437600092019190915250929550610119945050505050565b005b6100f16004803603602081101561010957600080fd5b50356001600160a01b0316610036565b80516000805b828110156101e15780840160200151818501604001604051600060208285858c5af4141561014c57600080fd5b6001600160a01b038151169450602080601f8501040260200184019350505050306001600160a01b031663610b5925836040518263ffffffff1660e01b815260040180826001600160a01b03166001600160a01b03168152602001915050600060405180830381600087803b1580156101c457600080fd5b505af11580156101d8573d6000803e3d6000fd5b5050505061011f565b505050505056fea265627a7a723158206b5cdba5244723070d74bf14d7a3eba1bf8af19a64bdbbe51d48d701425cd61164736f6c63430005100032",
  "source": "pragma solidity ^0.5.0;\nimport \"../base/Module.sol\";\n\n\n/// @title Create and Add Modules - Allows to create and add multiple module in one transaction.\n/// @author Stefan George - <stefan@gnosis.pm>\n/// @author Richard Meissner - <richard@gnosis.pm>\ncontract CreateAndAddModules {\n\n    /// @dev Function required to compile contract. Gnosis Safe function is called instead.\n    /// @param module Not used.\n    function enableModule(Module module)\n        public\n    {\n        revert();\n    }\n\n    /// @dev Allows to create and add multiple module in one transaction.\n    /// @param proxyFactory Module proxy factory contract.\n    /// @param data Modules constructor payload. This is the data for each proxy factory call concatinated. (e.g. <byte_array_len_1><byte_array_data_1><byte_array_len_2><byte_array_data_2>)\n    function createAndAddModules(address proxyFactory, bytes memory data)\n        public\n    {\n        uint256 length = data.length;\n        Module module;\n        uint256 i = 0;\n        while (i < length) {\n            // solium-disable-next-line security/no-inline-assembly\n            assembly {\n                let createBytesLength := mload(add(0x20, add(data, i)))\n                let createBytes := add(0x40, add(data, i))\n\n                let output := mload(0x40)\n                if eq(delegatecall(gas, proxyFactory, createBytes, createBytesLength, output, 0x20), 0) { revert(0, 0) }\n                module := and(mload(output), 0xffffffffffffffffffffffffffffffffffffffff)\n\n                // Data is always padded to 32 bytes\n                i := add(i, add(0x20, mul(div(add(createBytesLength, 0x1f), 0x20), 0x20)))\n            }\n            this.enableModule(module);\n        }\n    }\n}\n",
  "sourcePath": "/Users/OST/Documents/dj/ost-opt-contracts/contracts/openst-contracts/external/gnosis/safe-contracts/contracts/libraries/CreateAndAddModules.sol",
  "compiler": {
    "name": "solc",
    "version": "0.5.16+commit.9c3226ce.Emscripten.clang"
  },
  "schemaVersion": "3.0.21",
  "updatedAt": "2020-01-22T10:54:09.869Z",
  "devdoc": {
    "author": "Stefan George - <stefan@gnosis.pm>Richard Meissner - <richard@gnosis.pm>",
    "methods": {
      "createAndAddModules(address,bytes)": {
        "details": "Allows to create and add multiple module in one transaction.",
        "params": {
          "data": "Modules constructor payload. This is the data for each proxy factory call concatinated. (e.g. <byte_array_len_1><byte_array_data_1><byte_array_len_2><byte_array_data_2>)",
          "proxyFactory": "Module proxy factory contract."
        }
      },
      "enableModule(address)": {
        "details": "Function required to compile contract. Gnosis Safe function is called instead.",
        "params": {
          "module": "Not used."
        }
      }
    },
    "title": "Create and Add Modules - Allows to create and add multiple module in one transaction."
  },
  "userdoc": {
    "methods": {}
  }
}