{
  "contractName": "CustomRuleDouble",
  "abi": [
    {
      "constant": true,
      "inputs": [],
      "name": "FAIL_CALLPREFIX",
      "outputs": [
        {
          "internalType": "bytes4",
          "name": "",
          "type": "bytes4"
        }
      ],
      "payable": false,
      "stateMutability": "view",
      "type": "function"
    },
    {
      "constant": true,
      "inputs": [],
      "name": "PASS_CALLPREFIX",
      "outputs": [
        {
          "internalType": "bytes4",
          "name": "",
          "type": "bytes4"
        }
      ],
      "payable": false,
      "stateMutability": "view",
      "type": "function"
    },
    {
      "constant": true,
      "inputs": [],
      "name": "recordedPayedAmount",
      "outputs": [
        {
          "internalType": "uint256",
          "name": "",
          "type": "uint256"
        }
      ],
      "payable": false,
      "stateMutability": "view",
      "type": "function"
    },
    {
      "constant": true,
      "inputs": [],
      "name": "recordedValue",
      "outputs": [
        {
          "internalType": "address",
          "name": "",
          "type": "address"
        }
      ],
      "payable": false,
      "stateMutability": "view",
      "type": "function"
    },
    {
      "constant": false,
      "inputs": [
        {
          "internalType": "address",
          "name": "_value",
          "type": "address"
        }
      ],
      "name": "fail",
      "outputs": [],
      "payable": false,
      "stateMutability": "nonpayable",
      "type": "function"
    },
    {
      "constant": false,
      "inputs": [
        {
          "internalType": "address",
          "name": "_value",
          "type": "address"
        }
      ],
      "name": "pass",
      "outputs": [],
      "payable": false,
      "stateMutability": "nonpayable",
      "type": "function"
    },
    {
      "constant": false,
      "inputs": [
        {
          "internalType": "address",
          "name": "_value",
          "type": "address"
        }
      ],
      "name": "passPayable",
      "outputs": [],
      "payable": true,
      "stateMutability": "payable",
      "type": "function"
    }
  ],
  "bytecode": "0x608060405234801561001057600080fd5b50610392806100206000396000f3fe6080604052600436106100705760003560e01c80636f4a9a341161004e5780636f4a9a34146100e457806382c4b3b21461010b5780638ed6a1e41461013e578063e81990631461016f57610070565b8063351846fb146100755780633524e95f146100a75780636aa90941146100cf575b600080fd5b34801561008157600080fd5b5061008a6101a2565b604080516001600160e01b03199092168252519081900360200190f35b6100cd600480360360208110156100bd57600080fd5b50356001600160a01b03166101c7565b005b3480156100db57600080fd5b5061008a610239565b3480156100f057600080fd5b506100f961025e565b60408051918252519081900360200190f35b34801561011757600080fd5b506100cd6004803603602081101561012e57600080fd5b50356001600160a01b0316610264565b34801561014a57600080fd5b506101536102d2565b604080516001600160a01b039092168252519081900360200190f35b34801561017b57600080fd5b506100cd6004803603602081101561019257600080fd5b50356001600160a01b03166102e1565b604080516c7061737328616464726573732960981b8152905190819003600d01902081565b6001600160a01b038116610213576040805162461bcd60e51b815260206004820152600e60248201526d2b30b63ab29034b990373ab6361760911b604482015290519081900360640190fd5b600080546001600160a01b0319166001600160a01b039290921691909117905534600155565b604080516c6661696c28616464726573732960981b8152905190819003600d01902081565b60015481565b6001600160a01b0381166102b0576040805162461bcd60e51b815260206004820152600e60248201526d2b30b63ab29034b990373ab6361760911b604482015290519081900360640190fd5b600080546001600160a01b0319166001600160a01b0392909216919091179055565b6000546001600160a01b031681565b600080546001600160a01b0319166001600160a01b03831617905560405162461bcd60e51b815260206004820190815260256024830181905290918291604490910190610339823960400191505060405180910390fdfe5468652066756e6374696f6e2073686f756c64206661696c206279207468726f77696e672ea265627a7a723158205a5619d7378c71c97796a120015d2023c43b23e58c895a0c9ed719974dc69c0b64736f6c63430005100032",
  "source": "pragma solidity ^0.5.0;\n\n\n// Copyright 2019 OpenST Ltd.\n//\n// Licensed under the Apache License, Version 2.0 (the \"License\");\n// you may not use this file except in compliance with the License.\n// You may obtain a copy of the License at\n//\n//    http://www.apache.org/licenses/LICENSE-2.0\n//\n// Unless required by applicable law or agreed to in writing, software\n// distributed under the License is distributed on an \"AS IS\" BASIS,\n// WITHOUT WARRANTIES OR CONDITIONS OF ANY KIND, either express or implied.\n// See the License for the specific language governing permissions and\n// limitations under the License.\n\n\ncontract CustomRuleDouble {\n\n    /* Constants */\n\n    bytes4 constant public FAIL_CALLPREFIX = bytes4(\n        keccak256(\"fail(address)\")\n    );\n\n    bytes4 constant public PASS_CALLPREFIX = bytes4(\n        keccak256(\"pass(address)\")\n    );\n\n\n    /* Storage */\n\n    address public recordedValue;\n    uint256 public recordedPayedAmount;\n\n\n    /* Public Functions */\n\n    function fail(\n        address _value\n    )\n        public\n    {\n        recordedValue = _value;\n        revert(\"The function should fail by throwing.\");\n    }\n\n    function pass(\n        address _value\n    )\n        public\n    {\n        require(_value != address(0), \"Value is null.\");\n        recordedValue = _value;\n    }\n\n    function passPayable(\n        address _value\n    )\n        public\n        payable\n    {\n        require(_value != address(0), \"Value is null.\");\n        recordedValue = _value;\n        recordedPayedAmount = msg.value;\n    }\n\n}\n",
  "sourcePath": "/Users/OST/Documents/dj/ost-opt-contracts/contracts/openst-contracts/contracts/test_doubles/unit_tests/token_holder/execute_rule/CustomRuleDouble.sol",
  "compiler": {
    "name": "solc",
    "version": "0.5.16+commit.9c3226ce.Emscripten.clang"
  },
  "schemaVersion": "3.0.21",
  "updatedAt": "2020-01-22T10:54:09.827Z",
  "devdoc": {
    "methods": {}
  },
  "userdoc": {
    "methods": {}
  }
}