{
  "contractName": "DailyLimitModule",
  "abi": [
    {
      "constant": true,
      "inputs": [],
      "name": "NAME",
      "outputs": [
        {
          "internalType": "string",
          "name": "",
          "type": "string"
        }
      ],
      "payable": false,
      "stateMutability": "view",
      "type": "function"
    },
    {
      "constant": true,
      "inputs": [],
      "name": "VERSION",
      "outputs": [
        {
          "internalType": "string",
          "name": "",
          "type": "string"
        }
      ],
      "payable": false,
      "stateMutability": "view",
      "type": "function"
    },
    {
      "constant": false,
      "inputs": [
        {
          "internalType": "address",
          "name": "_masterCopy",
          "type": "address"
        }
      ],
      "name": "changeMasterCopy",
      "outputs": [],
      "payable": false,
      "stateMutability": "nonpayable",
      "type": "function"
    },
    {
      "constant": true,
      "inputs": [
        {
          "internalType": "address",
          "name": "",
          "type": "address"
        }
      ],
      "name": "dailyLimits",
      "outputs": [
        {
          "internalType": "uint256",
          "name": "dailyLimit",
          "type": "uint256"
        },
        {
          "internalType": "uint256",
          "name": "spentToday",
          "type": "uint256"
        },
        {
          "internalType": "uint256",
          "name": "lastDay",
          "type": "uint256"
        }
      ],
      "payable": false,
      "stateMutability": "view",
      "type": "function"
    },
    {
      "constant": true,
      "inputs": [],
      "name": "manager",
      "outputs": [
        {
          "internalType": "contract ModuleManager",
          "name": "",
          "type": "address"
        }
      ],
      "payable": false,
      "stateMutability": "view",
      "type": "function"
    },
    {
      "constant": false,
      "inputs": [
        {
          "internalType": "address[]",
          "name": "tokens",
          "type": "address[]"
        },
        {
          "internalType": "uint256[]",
          "name": "_dailyLimits",
          "type": "uint256[]"
        }
      ],
      "name": "setup",
      "outputs": [],
      "payable": false,
      "stateMutability": "nonpayable",
      "type": "function"
    },
    {
      "constant": false,
      "inputs": [
        {
          "internalType": "address",
          "name": "token",
          "type": "address"
        },
        {
          "internalType": "uint256",
          "name": "dailyLimit",
          "type": "uint256"
        }
      ],
      "name": "changeDailyLimit",
      "outputs": [],
      "payable": false,
      "stateMutability": "nonpayable",
      "type": "function"
    },
    {
      "constant": false,
      "inputs": [
        {
          "internalType": "address",
          "name": "token",
          "type": "address"
        },
        {
          "internalType": "address",
          "name": "to",
          "type": "address"
        },
        {
          "internalType": "uint256",
          "name": "amount",
          "type": "uint256"
        }
      ],
      "name": "executeDailyLimit",
      "outputs": [],
      "payable": false,
      "stateMutability": "nonpayable",
      "type": "function"
    },
    {
      "constant": true,
      "inputs": [],
      "name": "today",
      "outputs": [
        {
          "internalType": "uint256",
          "name": "",
          "type": "uint256"
        }
      ],
      "payable": false,
      "stateMutability": "view",
      "type": "function"
    }
  ],
  "bytecode": "0x608060405234801561001057600080fd5b50610b43806100206000396000f3fe608060405234801561001057600080fd5b50600436106100935760003560e01c806381c5e03b1161006657806381c5e03b14610241578063a3f4df7e1461026d578063b74e452b146102ea578063d7bffc9214610304578063ffa1ad741461034857610093565b806328814f0314610098578063481c6a75146101c157806363bae7c3146101e55780637de7edef1461021b575b600080fd5b6101bf600480360360408110156100ae57600080fd5b8101906020810181356401000000008111156100c957600080fd5b8201836020820111156100db57600080fd5b803590602001918460208302840111640100000000831117156100fd57600080fd5b919080806020026020016040519081016040528093929190818152602001838360200280828437600092019190915250929594936020810193503591505064010000000081111561014d57600080fd5b82018360208201111561015f57600080fd5b8035906020019184602083028401116401000000008311171561018157600080fd5b919080806020026020016040519081016040528093929190818152602001838360200280828437600092019190915250929550610350945050505050565b005b6101c96103b9565b604080516001600160a01b039092168252519081900360200190f35b6101bf600480360360608110156101fb57600080fd5b506001600160a01b038135811691602081013590911690604001356103c8565b6101bf6004803603602081101561023157600080fd5b50356001600160a01b0316610824565b6101bf6004803603604081101561025757600080fd5b506001600160a01b0381351690602001356108d4565b610275610939565b6040805160208082528351818301528351919283929083019185019080838360005b838110156102af578181015183820152602001610297565b50505050905090810190601f1680156102dc5780820380516001836020036101000a031916815260200191505b509250505060405180910390f35b6102f2610967565b60408051918252519081900360200190f35b61032a6004803603602081101561031a57600080fd5b50356001600160a01b0316610974565b60408051938452602084019290925282820152519081900360600190f35b610275610994565b6103586109b5565b60005b82518110156103b45781818151811061037057fe5b60200260200101516002600085848151811061038857fe5b6020908102919091018101516001600160a01b031682528101919091526040016000205560010161035b565b505050565b6001546001600160a01b031681565b600154604080516317aa5fb760e11b815233600482015290516001600160a01b0390921691632f54bf6e91602480820192602092909190829003018186803b15801561041357600080fd5b505afa158015610427573d6000803e3d6000fd5b505050506040513d602081101561043d57600080fd5b505161047a5760405162461bcd60e51b8152600401808060200182810382526025815260200180610ac46025913960400191505060405180910390fd5b6001600160a01b0382166104d5576040805162461bcd60e51b815260206004820152601b60248201527f496e76616c696420746f20616464726573732070726f76696465640000000000604482015290519081900360640190fd5b6000811161052a576040805162461bcd60e51b815260206004820152601760248201527f496e76616c696420616d6f756e742070726f7669646564000000000000000000604482015290519081900360640190fd5b6105348382610a27565b610585576040805162461bcd60e51b815260206004820152601c60248201527f4461696c79206c696d697420686173206265656e207265616368656400000000604482015290519081900360640190fd5b6001600160a01b0383166000818152600260205260409020600101805483019055610699576001546040805163468721a760e01b81526001600160a01b038581166004830152602482018590526000606483018190526080604484015260848301819052925193169263468721a79260c480840193602093929083900390910190829087803b15801561061757600080fd5b505af115801561062b573d6000803e3d6000fd5b505050506040513d602081101561064157600080fd5b5051610694576040805162461bcd60e51b815260206004820181905260248201527f436f756c64206e6f742065786563757465206574686572207472616e73666572604482015290519081900360640190fd5b6103b4565b604080516001600160a01b038481166024808401919091526044808401869052845180850382018152606494850186526020810180516001600160e01b031663a9059cbb60e01b178152600154965163468721a760e01b81528a8616600482019081526000958201869052968101859052608093810193845282516084820152825192979095169563468721a7958b959489948694919260a4019190808383885b8381101561075257818101518382015260200161073a565b50505050905090810190601f16801561077f5780820380516001836020036101000a031916815260200191505b5095505050505050602060405180830381600087803b1580156107a157600080fd5b505af11580156107b5573d6000803e3d6000fd5b505050506040513d60208110156107cb57600080fd5b505161081e576040805162461bcd60e51b815260206004820181905260248201527f436f756c64206e6f74206578656375746520746f6b656e207472616e73666572604482015290519081900360640190fd5b50505050565b6001546001600160a01b0316331461086d5760405162461bcd60e51b8152600401808060200182810382526026815260200180610ae96026913960400191505060405180910390fd5b6001600160a01b0381166108b25760405162461bcd60e51b8152600401808060200182810382526024815260200180610aa06024913960400191505060405180910390fd5b600080546001600160a01b0319166001600160a01b0392909216919091179055565b6001546001600160a01b0316331461091d5760405162461bcd60e51b8152600401808060200182810382526026815260200180610ae96026913960400191505060405180910390fd5b6001600160a01b03909116600090815260026020526040902055565b604051806040016040528060128152602001714461696c79204c696d6974204d6f64756c6560701b81525081565b6201518042908106900390565b600260208190526000918252604090912080546001820154919092015483565b604051806040016040528060058152602001640302e312e360dc1b81525081565b6001546001600160a01b031615610a13576040805162461bcd60e51b815260206004820152601c60248201527f4d616e616765722068617320616c7265616479206265656e2073657400000000604482015290519081900360640190fd5b600180546001600160a01b03191633179055565b6001600160a01b0382166000908152600260208190526040822090810154610a4d610967565b1115610a6857610a5b610967565b6002820155600060018201555b80546001820154840111801590610a8457506001810154838101115b15610a93576001915050610a99565b60009150505b9291505056fe496e76616c6964206d617374657220636f707920616464726573732070726f76696465644d6574686f642063616e206f6e6c792062652063616c6c656420627920616e206f776e65724d6574686f642063616e206f6e6c792062652063616c6c65642066726f6d206d616e61676572a265627a7a7231582040ba0bee2b4e837b3beb138675284757ee4aadd9513749c40bf3862c1801b07264736f6c63430005100032",
  "source": "pragma solidity ^0.5.0;\nimport \"../base/Module.sol\";\nimport \"../base/ModuleManager.sol\";\nimport \"../base/OwnerManager.sol\";\nimport \"../common/Enum.sol\";\n\n\n/// @title Daily Limit Module - Allows to transfer limited amounts of ERC20 tokens and Ether without confirmations.\n/// @author Stefan George - <stefan@gnosis.pm>\ncontract DailyLimitModule is Module {\n\n    string public constant NAME = \"Daily Limit Module\";\n    string public constant VERSION = \"0.1.0\";\n\n    // dailyLimits mapping maps token address to daily limit settings.\n    mapping (address => DailyLimit) public dailyLimits;\n\n    struct DailyLimit {\n        uint256 dailyLimit;\n        uint256 spentToday;\n        uint256 lastDay;\n    }\n\n    /// @dev Setup function sets initial storage of contract.\n    /// @param tokens List of token addresses. Ether is represented with address 0x0.\n    /// @param _dailyLimits List of daily limits in smalles units (e.g. Wei for Ether).\n    function setup(address[] memory tokens, uint256[] memory _dailyLimits)\n        public\n    {\n        setManager();\n        for (uint256 i = 0; i < tokens.length; i++)\n            dailyLimits[tokens[i]].dailyLimit = _dailyLimits[i];\n    }\n\n    /// @dev Allows to update the daily limit for a specified token. This can only be done via a Safe transaction.\n    /// @param token Token contract address.\n    /// @param dailyLimit Daily limit in smallest token unit.\n    function changeDailyLimit(address token, uint256 dailyLimit)\n        public\n        authorized\n    {\n        dailyLimits[token].dailyLimit = dailyLimit;\n    }\n\n    /// @dev Returns if Safe transaction is a valid daily limit transaction.\n    /// @param token Address of the token that should be transfered (0 for Ether)\n    /// @param to Address to which the tokens should be transfered\n    /// @param amount Amount of tokens (or Ether) that should be transfered\n    /// @return Returns if transaction can be executed.\n    function executeDailyLimit(address token, address to, uint256 amount)\n        public\n    {\n        // Only Safe owners are allowed to execute daily limit transactions.\n        require(OwnerManager(address(manager)).isOwner(msg.sender), \"Method can only be called by an owner\");\n        require(to != address(0), \"Invalid to address provided\");\n        require(amount > 0, \"Invalid amount provided\");\n        // Validate that transfer is not exceeding daily limit.\n        require(isUnderLimit(token, amount), \"Daily limit has been reached\");\n        dailyLimits[token].spentToday += amount;\n        if (token == address(0)) {\n            require(manager.execTransactionFromModule(to, amount, \"\", Enum.Operation.Call), \"Could not execute ether transfer\");\n        } else {\n            bytes memory data = abi.encodeWithSignature(\"transfer(address,uint256)\", to, amount);\n            require(manager.execTransactionFromModule(token, 0, data, Enum.Operation.Call), \"Could not execute token transfer\");\n        }\n    }\n\n    function isUnderLimit(address token, uint256 amount)\n        internal\n        returns (bool)\n    {\n        DailyLimit storage dailyLimit = dailyLimits[token];\n        if (today() > dailyLimit.lastDay) {\n            dailyLimit.lastDay = today();\n            dailyLimit.spentToday = 0;\n        }\n        if (dailyLimit.spentToday + amount <= dailyLimit.dailyLimit && \n            dailyLimit.spentToday + amount > dailyLimit.spentToday)\n            return true;\n        return false;\n    }\n\n    /// @dev Returns last midnight as Unix timestamp.\n    /// @return Unix timestamp.\n    function today()\n        public\n        view\n        returns (uint)\n    {\n        return now - (now % 1 days);\n    }\n}\n",
  "sourcePath": "/Users/OST/Documents/dj/ost-opt-contracts/contracts/openst-contracts/external/gnosis/safe-contracts/contracts/modules/DailyLimitModule.sol",
  "compiler": {
    "name": "solc",
    "version": "0.5.16+commit.9c3226ce.Emscripten.clang"
  },
  "schemaVersion": "3.0.21",
  "updatedAt": "2020-01-22T10:54:09.871Z",
  "devdoc": {
    "author": "Stefan George - <stefan@gnosis.pm>",
    "methods": {
      "changeDailyLimit(address,uint256)": {
        "details": "Allows to update the daily limit for a specified token. This can only be done via a Safe transaction.",
        "params": {
          "dailyLimit": "Daily limit in smallest token unit.",
          "token": "Token contract address."
        }
      },
      "changeMasterCopy(address)": {
        "details": "Allows to upgrade the contract. This can only be done via a Safe transaction.",
        "params": {
          "_masterCopy": "New contract address."
        }
      },
      "executeDailyLimit(address,address,uint256)": {
        "details": "Returns if Safe transaction is a valid daily limit transaction.",
        "params": {
          "amount": "Amount of tokens (or Ether) that should be transfered",
          "to": "Address to which the tokens should be transfered",
          "token": "Address of the token that should be transfered (0 for Ether)"
        },
        "return": "Returns if transaction can be executed."
      },
      "setup(address[],uint256[])": {
        "details": "Setup function sets initial storage of contract.",
        "params": {
          "_dailyLimits": "List of daily limits in smalles units (e.g. Wei for Ether).",
          "tokens": "List of token addresses. Ether is represented with address 0x0."
        }
      },
      "today()": {
        "details": "Returns last midnight as Unix timestamp.",
        "return": "Unix timestamp."
      }
    },
    "title": "Daily Limit Module - Allows to transfer limited amounts of ERC20 tokens and Ether without confirmations."
  },
  "userdoc": {
    "methods": {}
  }
}