{
  "contractName": "DelegateConstructorProxy",
  "abi": [
    {
      "inputs": [
        {
          "internalType": "address",
          "name": "_masterCopy",
          "type": "address"
        },
        {
          "internalType": "bytes",
          "name": "initializer",
          "type": "bytes"
        }
      ],
      "payable": false,
      "stateMutability": "nonpayable",
      "type": "constructor"
    },
    {
      "payable": true,
      "stateMutability": "payable",
      "type": "fallback"
    },
    {
      "constant": true,
      "inputs": [],
      "name": "implementation",
      "outputs": [
        {
          "internalType": "address",
          "name": "",
          "type": "address"
        }
      ],
      "payable": false,
      "stateMutability": "view",
      "type": "function"
    },
    {
      "constant": true,
      "inputs": [],
      "name": "proxyType",
      "outputs": [
        {
          "internalType": "uint256",
          "name": "",
          "type": "uint256"
        }
      ],
      "payable": false,
      "stateMutability": "pure",
      "type": "function"
    }
  ],
  "bytecode": "0x608060405234801561001057600080fd5b506040516102ab3803806102ab8339818101604052604081101561003357600080fd5b81516020830180516040519294929383019291908464010000000082111561005a57600080fd5b90830190602082018581111561006f57600080fd5b825164010000000081118282018810171561008957600080fd5b82525081516020918201929091019080838360005b838110156100b657818101518382015260200161009e565b50505050905090810190601f1680156100e35780820380516001836020036101000a031916815260200191505b5060405250839150506001600160a01b0381166101315760405162461bcd60e51b81526004018080602001828103825260248152602001806102876024913960400191505060405180910390fd5b600080546001600160a01b0319166001600160a01b0392909216919091179055805115610189576001600160a01b0360005416600080835160208501846127105a03f46040513d6000823e81610185573d81fd5b5050505b505060ee806101996000396000f3fe60806040526004361060265760003560e01c80634555d5c91460535780635c60da1b146077575b6001600160a01b03600054163660008037600080366000845af43d6000803e80604e573d6000fd5b3d6000f35b348015605e57600080fd5b50606560a5565b60408051918252519081900360200190f35b348015608257600080fd5b50608960aa565b604080516001600160a01b039092168252519081900360200190f35b600290565b6000546001600160a01b03169056fea265627a7a7231582016e422fbda419a5c47c527bcb5ae2a56b755299db9014d5b727ed1f40b19d76964736f6c63430005100032496e76616c6964206d617374657220636f707920616464726573732070726f7669646564",
  "source": "pragma solidity ^0.5.0;\nimport \"./Proxy.sol\";\n\n\n/// @title Delegate Constructor Proxy - Generic proxy contract allows to execute all transactions applying the code of a master contract. It is possible to send along initialization data with the constructor.\n/// @author Stefan George - <stefan@gnosis.pm>\n/// @author Richard Meissner - <richard@gnosis.pm>\ncontract DelegateConstructorProxy is Proxy {\n\n    /// @dev Constructor function sets address of master copy contract.\n    /// @param _masterCopy Master copy address.\n    /// @param initializer Data used for a delegate call to initialize the contract.\n    constructor(address _masterCopy, bytes memory initializer) Proxy(_masterCopy)\n        public\n    {\n        if (initializer.length > 0) {\n            // solium-disable-next-line security/no-inline-assembly\n            assembly {\n                let masterCopy := and(sload(0), 0xffffffffffffffffffffffffffffffffffffffff)\n                let success := delegatecall(sub(gas, 10000), masterCopy, add(initializer, 0x20), mload(initializer), 0, 0)\n                let ptr := mload(0x40)\n                returndatacopy(ptr, 0, returndatasize)\n                if eq(success, 0) { revert(ptr, returndatasize) }\n            }\n        }\n    }\n}\n",
  "sourcePath": "/Users/OST/Documents/dj/ost-opt-contracts/contracts/openst-contracts/external/gnosis/safe-contracts/contracts/proxies/DelegateConstructorProxy.sol",
  "compiler": {
    "name": "solc",
    "version": "0.5.16+commit.9c3226ce.Emscripten.clang"
  },
  "schemaVersion": "3.0.21",
  "updatedAt": "2020-01-21T06:41:35.331Z",
  "devdoc": {
    "author": "Stefan George - <stefan@gnosis.pm>Richard Meissner - <richard@gnosis.pm>",
    "methods": {
      "constructor": {
        "details": "Constructor function sets address of master copy contract.",
        "params": {
          "_masterCopy": "Master copy address.",
          "initializer": "Data used for a delegate call to initialize the contract."
        }
      }
    },
    "title": "Delegate Constructor Proxy - Generic proxy contract allows to execute all transactions applying the code of a master contract. It is possible to send along initialization data with the constructor."
  },
  "userdoc": {
    "methods": {}
  }
}