{
  "contractName": "EIP20TokenFake",
  "abi": [
    {
      "inputs": [
        {
          "internalType": "string",
          "name": "_symbol",
          "type": "string"
        },
        {
          "internalType": "string",
          "name": "_name",
          "type": "string"
        },
        {
          "internalType": "uint8",
          "name": "_decimals",
          "type": "uint8"
        }
      ],
      "payable": false,
      "stateMutability": "nonpayable",
      "type": "constructor"
    },
    {
      "anonymous": false,
      "inputs": [
        {
          "indexed": true,
          "internalType": "address",
          "name": "_owner",
          "type": "address"
        },
        {
          "indexed": true,
          "internalType": "address",
          "name": "_spender",
          "type": "address"
        },
        {
          "indexed": false,
          "internalType": "uint256",
          "name": "_value",
          "type": "uint256"
        }
      ],
      "name": "Approval",
      "type": "event"
    },
    {
      "anonymous": false,
      "inputs": [
        {
          "indexed": true,
          "internalType": "address",
          "name": "_from",
          "type": "address"
        },
        {
          "indexed": true,
          "internalType": "address",
          "name": "_to",
          "type": "address"
        },
        {
          "indexed": false,
          "internalType": "uint256",
          "name": "_value",
          "type": "uint256"
        }
      ],
      "name": "Transfer",
      "type": "event"
    },
    {
      "constant": true,
      "inputs": [],
      "name": "name",
      "outputs": [
        {
          "internalType": "string",
          "name": "",
          "type": "string"
        }
      ],
      "payable": false,
      "stateMutability": "view",
      "type": "function"
    },
    {
      "constant": true,
      "inputs": [],
      "name": "symbol",
      "outputs": [
        {
          "internalType": "string",
          "name": "",
          "type": "string"
        }
      ],
      "payable": false,
      "stateMutability": "view",
      "type": "function"
    },
    {
      "constant": true,
      "inputs": [],
      "name": "decimals",
      "outputs": [
        {
          "internalType": "uint8",
          "name": "",
          "type": "uint8"
        }
      ],
      "payable": false,
      "stateMutability": "view",
      "type": "function"
    },
    {
      "constant": true,
      "inputs": [],
      "name": "totalSupply",
      "outputs": [
        {
          "internalType": "uint256",
          "name": "",
          "type": "uint256"
        }
      ],
      "payable": false,
      "stateMutability": "view",
      "type": "function"
    },
    {
      "constant": true,
      "inputs": [
        {
          "internalType": "address",
          "name": "_owner",
          "type": "address"
        }
      ],
      "name": "balanceOf",
      "outputs": [
        {
          "internalType": "uint256",
          "name": "",
          "type": "uint256"
        }
      ],
      "payable": false,
      "stateMutability": "view",
      "type": "function"
    },
    {
      "constant": true,
      "inputs": [
        {
          "internalType": "address",
          "name": "_owner",
          "type": "address"
        },
        {
          "internalType": "address",
          "name": "_spender",
          "type": "address"
        }
      ],
      "name": "allowance",
      "outputs": [
        {
          "internalType": "uint256",
          "name": "remaining_",
          "type": "uint256"
        }
      ],
      "payable": false,
      "stateMutability": "view",
      "type": "function"
    },
    {
      "constant": false,
      "inputs": [
        {
          "internalType": "address",
          "name": "_to",
          "type": "address"
        },
        {
          "internalType": "uint256",
          "name": "_value",
          "type": "uint256"
        }
      ],
      "name": "transfer",
      "outputs": [
        {
          "internalType": "bool",
          "name": "success",
          "type": "bool"
        }
      ],
      "payable": false,
      "stateMutability": "nonpayable",
      "type": "function"
    },
    {
      "constant": false,
      "inputs": [
        {
          "internalType": "address",
          "name": "_from",
          "type": "address"
        },
        {
          "internalType": "address",
          "name": "_to",
          "type": "address"
        },
        {
          "internalType": "uint256",
          "name": "_value",
          "type": "uint256"
        }
      ],
      "name": "transferFrom",
      "outputs": [
        {
          "internalType": "bool",
          "name": "success",
          "type": "bool"
        }
      ],
      "payable": false,
      "stateMutability": "nonpayable",
      "type": "function"
    },
    {
      "constant": false,
      "inputs": [
        {
          "internalType": "address",
          "name": "_spender",
          "type": "address"
        },
        {
          "internalType": "uint256",
          "name": "_value",
          "type": "uint256"
        }
      ],
      "name": "approve",
      "outputs": [
        {
          "internalType": "bool",
          "name": "success",
          "type": "bool"
        }
      ],
      "payable": false,
      "stateMutability": "nonpayable",
      "type": "function"
    },
    {
      "constant": false,
      "inputs": [
        {
          "internalType": "address",
          "name": "_owner",
          "type": "address"
        },
        {
          "internalType": "uint256",
          "name": "_value",
          "type": "uint256"
        }
      ],
      "name": "increaseBalance",
      "outputs": [],
      "payable": false,
      "stateMutability": "nonpayable",
      "type": "function"
    }
  ],
  "bytecode": "0x608060405234801561001057600080fd5b5060405161099b38038061099b8339818101604052606081101561003357600080fd5b810190808051604051939291908464010000000082111561005357600080fd5b90830190602082018581111561006857600080fd5b825164010000000081118282018810171561008257600080fd5b82525081516020918201929091019080838360005b838110156100af578181015183820152602001610097565b50505050905090810190601f1680156100dc5780820380516001836020036101000a031916815260200191505b50604052602001805160405193929190846401000000008211156100ff57600080fd5b90830190602082018581111561011457600080fd5b825164010000000081118282018810171561012e57600080fd5b82525081516020918201929091019080838360005b8381101561015b578181015183820152602001610143565b50505050905090810190601f1680156101885780820380516001836020036101000a031916815260200191505b506040526020908101516000805585519093506101ab92506002918601906101dc565b5081516101bf9060019060208501906101dc565b506003805460ff191660ff92909216919091179055506102779050565b828054600181600116156101000203166002900490600052602060002090601f016020900481019282601f1061021d57805160ff191683800117855561024a565b8280016001018555821561024a579182015b8281111561024a57825182559160200191906001019061022f565b5061025692915061025a565b5090565b61027491905b808211156102565760008155600101610260565b90565b610715806102866000396000f3fe608060405234801561001057600080fd5b506004361061009e5760003560e01c80635b86f599116100665780635b86f599146101ce57806370a08231146101fc57806395d89b4114610222578063a9059cbb1461022a578063dd62ed3e146102565761009e565b806306fdde03146100a3578063095ea7b31461012057806318160ddd1461016057806323b872dd1461017a578063313ce567146101b0575b600080fd5b6100ab610284565b6040805160208082528351818301528351919283929083019185019080838360005b838110156100e55781810151838201526020016100cd565b50505050905090810190601f1680156101125780820380516001836020036101000a031916815260200191505b509250505060405180910390f35b61014c6004803603604081101561013657600080fd5b506001600160a01b038135169060200135610319565b604080519115158252519081900360200190f35b61016861037f565b60408051918252519081900360200190f35b61014c6004803603606081101561019057600080fd5b506001600160a01b03813581169160208101359091169060400135610385565b6101b8610490565b6040805160ff9092168252519081900360200190f35b6101fa600480360360408110156101e457600080fd5b506001600160a01b038135169060200135610499565b005b6101686004803603602081101561021257600080fd5b50356001600160a01b031661053b565b6100ab610556565b61014c6004803603604081101561024057600080fd5b506001600160a01b0381351690602001356105b4565b6101686004803603604081101561026c57600080fd5b506001600160a01b0381358116916020013516610664565b60018054604080516020601f6002600019610100878916150201909516949094049384018190048102820181019092528281526060939092909183018282801561030f5780601f106102e45761010080835404028352916020019161030f565b820191906000526020600020905b8154815290600101906020018083116102f257829003601f168201915b5050505050905090565b3360008181526005602090815260408083206001600160a01b038716808552908352818420869055815186815291519394909390927f8c5be1e5ebec7d5bd14f71427d1e84f3dd0314c0f7b2291e5b200ac8c7c3b925928290030190a350600192915050565b60005490565b6001600160a01b0383166000908152600460205260408120546103ae908363ffffffff61068f16565b6001600160a01b03851660009081526004602090815260408083209390935560058152828220338352905220546103eb908363ffffffff61068f16565b6001600160a01b03808616600090815260056020908152604080832033845282528083209490945591861681526004909152205461042f908363ffffffff6106a416565b6001600160a01b0380851660008181526004602090815260409182902094909455805186815290519193928816927fddf252ad1be2c89b69c2b068fc378daa952ba7f163c4a11628f55a4df523b3ef92918290030190a35060019392505050565b60035460ff1690565b6001600160a01b0382166104de5760405162461bcd60e51b81526004018080602001828103825260238152602001806106be6023913960400191505060405180910390fd5b6001600160a01b038216600090815260046020526040902054610507908263ffffffff6106a416565b6001600160a01b03831660009081526004602052604081209190915554610534908263ffffffff6106a416565b6000555050565b6001600160a01b031660009081526004602052604090205490565b60028054604080516020601f600019610100600187161502019094168590049384018190048102820181019092528281526060939092909183018282801561030f5780601f106102e45761010080835404028352916020019161030f565b336000908152600460205260408120546105d4908363ffffffff61068f16565b33600090815260046020526040808220929092556001600160a01b03851681522054610606908363ffffffff6106a416565b6001600160a01b0384166000818152600460209081526040918290209390935580518581529051919233927fddf252ad1be2c89b69c2b068fc378daa952ba7f163c4a11628f55a4df523b3ef9281900390910190a350600192915050565b6001600160a01b03918216600090815260056020908152604080832093909416825291909152205490565b60008282111561069e57600080fd5b50900390565b6000828201838110156106b657600080fd5b939250505056fe546865206163636f756e7420746f207365742062616c616e6365206973206e756c6c2ea265627a7a72315820f5e0230b5455fcef65de0d2d686302178f9cf489809f2f21294c928a407cfb9a64736f6c63430005100032",
  "source": "/* solhint-disable-next-line compiler-fixed */\npragma solidity ^0.5.0;\n\n// Copyright 2019 OpenST Ltd.\n//\n// Licensed under the Apache License, Version 2.0 (the \"License\");\n// you may not use this file except in compliance with the License.\n// You may obtain a copy of the License at\n//\n//    http://www.apache.org/licenses/LICENSE-2.0\n//\n// Unless required by applicable law or agreed to in writing, software\n// distributed under the License is distributed on an \"AS IS\" BASIS,\n// WITHOUT WARRANTIES OR CONDITIONS OF ANY KIND, either express or implied.\n// See the License for the specific language governing permissions and\n// limitations under the License.\n\nimport \"../../token/EIP20TokenInterface.sol\";\nimport \"openzeppelin-solidity/contracts/math/SafeMath.sol\";\n\n\ncontract EIP20TokenFake is EIP20TokenInterface {\n\n    /* Usings */\n\n    using SafeMath for uint256;\n\n\n    /* Storage */\n\n    uint256 tokenTotalSupply;\n\n    string private tokenName;\n\n    string private tokenSymbol;\n\n    uint8  private tokenDecimals;\n\n    mapping(address => uint256) balances;\n    mapping(address => mapping (address => uint256)) allowed;\n\n\n    /* Special Functions */\n\n    /**\n     * @notice Constructs an EIP20 token based on input parameters.\n     *\n     * @param _symbol Symbol of the token.\n     * @param _name Name of the token.\n     * @param _decimals Decimal places of the token.\n     */\n    constructor(string memory _symbol, string memory _name, uint8 _decimals)\n        public\n    {\n        tokenTotalSupply = 0;\n\n        tokenSymbol = _symbol;\n        tokenName = _name;\n        tokenDecimals = _decimals;\n    }\n\n\n    /* External Functions */\n\n    /**\n     * @dev Implements EIP20TokenInterface::name() function.\n     *\n     * @return Name of the EIP20 token.\n     */\n    function name() external view returns (string memory) {\n        return tokenName;\n    }\n\n    /**\n     * @dev Implements EIP20TokenInterface::symbol() function.\n     *\n     * @return Symbol of the EIP20 token.\n     */\n    function symbol() external view returns (string memory) {\n        return tokenSymbol;\n    }\n\n    /**\n     * @dev Implements EIP20TokenInterface::decimals() function.\n     *\n     * @return Decimal places of the EIP20 token.\n     */\n    function decimals() external view returns (uint8) {\n        return tokenDecimals;\n    }\n\n    /**\n     * @dev Implements EIP20TokenInterface::totalSupply() function.\n     *      Function is only overriden and not implemented as it's not used\n     *      during testing.\n     */\n    function totalSupply() external view returns (uint256) {\n        return tokenTotalSupply;\n    }\n\n    /**\n     * @notice Returns balance of the owner account.\n     *\n     * @param _owner Address of the owner account.\n     *\n     * @return Account balance of the owner account.\n     */\n    function balanceOf(address _owner) external view returns (uint256) {\n        return balances[_owner];\n    }\n\n    /**\n     * @notice Returns allowance of a spender for the owner account.\n     *\n     * @param _owner Address of the owner account.\n     * @param _spender Address of the spender account.\n     *\n     * @return remaining_ Remaining allowance for the spender to spend from\n     *                    the owner's account.\n     */\n    function allowance(address _owner, address _spender)\n        external\n        view\n        returns (uint256 remaining_)\n    {\n        remaining_ = allowed[_owner][_spender];\n    }\n\n    /**\n     * @notice Transfers an amount from msg.sender account.\n     *\n     * @dev Fires the \"Transfer\" event, throws if, _from account does not\n     *      have enough tokens to spend.\n     *\n     * @param _to Address to which tokens are transferred.\n     * @param _value Amount of tokens to be transferred.\n     *\n     * @return True for a successful transfer, false otherwise.\n     */\n    function transfer(address _to, uint256 _value)\n        external\n        returns (bool success)\n    {\n        // According to the EIP20 spec, \"transfers of 0 values MUST be treated\n        // as normal transfers and fire the Transfer event\".\n        // Also, should throw if not enough balance.\n        // This is taken care of by SafeMath.\n\n        balances[msg.sender] = balances[msg.sender].sub(_value);\n        balances[_to] = balances[_to].add(_value);\n\n        emit Transfer(msg.sender, _to, _value);\n\n        return true;\n    }\n\n    /**\n     * @notice Transfer the specified amount between accounts.\n     *\n     * @dev Allows a contract to transfer tokens on behalf of _from address\n     *      to _to address, the function caller has to be pre-authorized for\n     *      multiple transfers up to the total of _value amount by the\n     *      _from address.\n     *\n     * @param _from Address from which tokens are transferred.\n     * @param _to Address to which tokens are transferred.\n     * @param _value Amount of tokens transferred.\n     *\n     * @return True for a successful transfer, false otherwise.\n     */\n    function transferFrom(address _from, address _to, uint256 _value)\n        external\n        returns (bool success)\n    {\n        balances[_from] = balances[_from].sub(_value);\n        allowed[_from][msg.sender] = allowed[_from][msg.sender].sub(_value);\n        balances[_to] = balances[_to].add(_value);\n\n        emit Transfer(_from, _to, _value);\n\n        return true;\n    }\n\n    /**\n     * @notice Allows spender to withdraw from function caller's account.\n     *\n     * @dev Allows _spender address to withdraw from function caller's account,\n     *      multiple times up to the _value amount, if this function is called\n     *      again it overwrites the current allowance with _value.\n     *      Emits \"Approval\" event.\n     *\n     * @param _spender Address authorized to spend from the function\n     *                 caller's address.\n     * @param _value Amount up to which spender is authorized to spend.\n     *\n     * @return True for a successful approval, false otherwise.\n     */\n    function approve(address _spender, uint256 _value)\n        external\n        returns (bool success)\n    {\n        allowed[msg.sender][_spender] = _value;\n\n        emit Approval(msg.sender, _spender, _value);\n\n        return true;\n    }\n\n    /**\n     * @notice Increase balance of the account with the specified value.\n     *\n     * @dev The function is not part of EIP20TokenInterface and is here\n     *      to fill the balance of accounts during testing.\n     *\n     * @param _owner Account's address.\n     * @param _value Amount to increase for the account.\n     */\n    function increaseBalance(address _owner, uint256 _value)\n        external\n    {\n        require(\n            _owner != address(0),\n            \"The account to set balance is null.\"\n        );\n\n        balances[_owner] = balances[_owner].add(_value);\n\n        tokenTotalSupply = tokenTotalSupply.add(_value);\n    }\n\n}\n",
  "sourcePath": "/Users/OST/Documents/dj/ost-opt-contracts/contracts/openst-contracts/contracts/test_doubles/unit_tests/EIP20TokenFake.sol",
  "compiler": {
    "name": "solc",
    "version": "0.5.16+commit.9c3226ce.Emscripten.clang"
  },
  "schemaVersion": "3.0.21",
  "updatedAt": "2020-01-19T09:48:26.138Z",
  "devdoc": {
    "methods": {
      "allowance(address,address)": {
        "params": {
          "_owner": "Address of the owner account.",
          "_spender": "Address of the spender account."
        },
        "return": "remaining_ Remaining allowance for the spender to spend from                   the owner's account."
      },
      "approve(address,uint256)": {
        "details": "Allows _spender address to withdraw from function caller's account,     multiple times up to the _value amount, if this function is called     again it overwrites the current allowance with _value.     Emits \"Approval\" event.",
        "params": {
          "_spender": "Address authorized to spend from the function                caller's address.",
          "_value": "Amount up to which spender is authorized to spend."
        },
        "return": "True for a successful approval, false otherwise."
      },
      "balanceOf(address)": {
        "params": {
          "_owner": "Address of the owner account."
        },
        "return": "Account balance of the owner account."
      },
      "constructor": {
        "params": {
          "_decimals": "Decimal places of the token.",
          "_name": "Name of the token.",
          "_symbol": "Symbol of the token."
        }
      },
      "decimals()": {
        "details": "Implements EIP20TokenInterface::decimals() function.",
        "return": "Decimal places of the EIP20 token."
      },
      "increaseBalance(address,uint256)": {
        "details": "The function is not part of EIP20TokenInterface and is here     to fill the balance of accounts during testing.",
        "params": {
          "_owner": "Account's address.",
          "_value": "Amount to increase for the account."
        }
      },
      "name()": {
        "details": "Implements EIP20TokenInterface::name() function.",
        "return": "Name of the EIP20 token."
      },
      "symbol()": {
        "details": "Implements EIP20TokenInterface::symbol() function.",
        "return": "Symbol of the EIP20 token."
      },
      "totalSupply()": {
        "details": "Implements EIP20TokenInterface::totalSupply() function.     Function is only overriden and not implemented as it's not used     during testing."
      },
      "transfer(address,uint256)": {
        "details": "Fires the \"Transfer\" event, throws if, _from account does not     have enough tokens to spend.",
        "params": {
          "_to": "Address to which tokens are transferred.",
          "_value": "Amount of tokens to be transferred."
        },
        "return": "True for a successful transfer, false otherwise."
      },
      "transferFrom(address,address,uint256)": {
        "details": "Allows a contract to transfer tokens on behalf of _from address     to _to address, the function caller has to be pre-authorized for     multiple transfers up to the total of _value amount by the     _from address.",
        "params": {
          "_from": "Address from which tokens are transferred.",
          "_to": "Address to which tokens are transferred.",
          "_value": "Amount of tokens transferred."
        },
        "return": "True for a successful transfer, false otherwise."
      }
    }
  },
  "userdoc": {
    "methods": {
      "allowance(address,address)": {
        "notice": "Returns allowance of a spender for the owner account."
      },
      "approve(address,uint256)": {
        "notice": "Allows spender to withdraw from function caller's account."
      },
      "balanceOf(address)": {
        "notice": "Returns balance of the owner account."
      },
      "constructor": "Constructs an EIP20 token based on input parameters.",
      "increaseBalance(address,uint256)": {
        "notice": "Increase balance of the account with the specified value."
      },
      "transfer(address,uint256)": {
        "notice": "Transfers an amount from msg.sender account."
      },
      "transferFrom(address,address,uint256)": {
        "notice": "Transfer the specified amount between accounts."
      }
    }
  }
}