{
  "contractName": "EIP20TokenMock",
  "abi": [
    {
      "inputs": [
        {
          "internalType": "string",
          "name": "_symbol",
          "type": "string"
        },
        {
          "internalType": "string",
          "name": "_name",
          "type": "string"
        },
        {
          "internalType": "uint8",
          "name": "_decimals",
          "type": "uint8"
        }
      ],
      "payable": false,
      "stateMutability": "nonpayable",
      "type": "constructor"
    },
    {
      "anonymous": false,
      "inputs": [
        {
          "indexed": true,
          "internalType": "address",
          "name": "_owner",
          "type": "address"
        },
        {
          "indexed": true,
          "internalType": "address",
          "name": "_spender",
          "type": "address"
        },
        {
          "indexed": false,
          "internalType": "uint256",
          "name": "_value",
          "type": "uint256"
        }
      ],
      "name": "Approval",
      "type": "event"
    },
    {
      "anonymous": false,
      "inputs": [
        {
          "indexed": true,
          "internalType": "address",
          "name": "_from",
          "type": "address"
        },
        {
          "indexed": true,
          "internalType": "address",
          "name": "_to",
          "type": "address"
        },
        {
          "indexed": false,
          "internalType": "uint256",
          "name": "_value",
          "type": "uint256"
        }
      ],
      "name": "Transfer",
      "type": "event"
    },
    {
      "constant": true,
      "inputs": [
        {
          "internalType": "address",
          "name": "_owner",
          "type": "address"
        },
        {
          "internalType": "address",
          "name": "_spender",
          "type": "address"
        }
      ],
      "name": "allowance",
      "outputs": [
        {
          "internalType": "uint256",
          "name": "",
          "type": "uint256"
        }
      ],
      "payable": false,
      "stateMutability": "view",
      "type": "function"
    },
    {
      "constant": false,
      "inputs": [
        {
          "internalType": "address",
          "name": "_spender",
          "type": "address"
        },
        {
          "internalType": "uint256",
          "name": "_value",
          "type": "uint256"
        }
      ],
      "name": "approve",
      "outputs": [
        {
          "internalType": "bool",
          "name": "success_",
          "type": "bool"
        }
      ],
      "payable": false,
      "stateMutability": "nonpayable",
      "type": "function"
    },
    {
      "constant": true,
      "inputs": [
        {
          "internalType": "address",
          "name": "_owner",
          "type": "address"
        }
      ],
      "name": "balanceOf",
      "outputs": [
        {
          "internalType": "uint256",
          "name": "",
          "type": "uint256"
        }
      ],
      "payable": false,
      "stateMutability": "view",
      "type": "function"
    },
    {
      "constant": true,
      "inputs": [],
      "name": "decimals",
      "outputs": [
        {
          "internalType": "uint8",
          "name": "",
          "type": "uint8"
        }
      ],
      "payable": false,
      "stateMutability": "view",
      "type": "function"
    },
    {
      "constant": true,
      "inputs": [],
      "name": "name",
      "outputs": [
        {
          "internalType": "string",
          "name": "",
          "type": "string"
        }
      ],
      "payable": false,
      "stateMutability": "view",
      "type": "function"
    },
    {
      "constant": true,
      "inputs": [],
      "name": "symbol",
      "outputs": [
        {
          "internalType": "string",
          "name": "",
          "type": "string"
        }
      ],
      "payable": false,
      "stateMutability": "view",
      "type": "function"
    },
    {
      "constant": false,
      "inputs": [
        {
          "internalType": "address",
          "name": "_to",
          "type": "address"
        },
        {
          "internalType": "uint256",
          "name": "_value",
          "type": "uint256"
        }
      ],
      "name": "transfer",
      "outputs": [
        {
          "internalType": "bool",
          "name": "success_",
          "type": "bool"
        }
      ],
      "payable": false,
      "stateMutability": "nonpayable",
      "type": "function"
    },
    {
      "constant": false,
      "inputs": [
        {
          "internalType": "address",
          "name": "_from",
          "type": "address"
        },
        {
          "internalType": "address",
          "name": "_to",
          "type": "address"
        },
        {
          "internalType": "uint256",
          "name": "_value",
          "type": "uint256"
        }
      ],
      "name": "transferFrom",
      "outputs": [
        {
          "internalType": "bool",
          "name": "success_",
          "type": "bool"
        }
      ],
      "payable": false,
      "stateMutability": "nonpayable",
      "type": "function"
    },
    {
      "constant": true,
      "inputs": [],
      "name": "totalSupply",
      "outputs": [
        {
          "internalType": "uint256",
          "name": "",
          "type": "uint256"
        }
      ],
      "payable": false,
      "stateMutability": "view",
      "type": "function"
    },
    {
      "constant": false,
      "inputs": [
        {
          "internalType": "address",
          "name": "_owner",
          "type": "address"
        },
        {
          "internalType": "uint256",
          "name": "_value",
          "type": "uint256"
        }
      ],
      "name": "setBalance",
      "outputs": [
        {
          "internalType": "bool",
          "name": "",
          "type": "bool"
        }
      ],
      "payable": false,
      "stateMutability": "nonpayable",
      "type": "function"
    }
  ],
  "bytecode": "0x608060405234801561001057600080fd5b506040516109013803806109018339818101604052606081101561003357600080fd5b810190808051604051939291908464010000000082111561005357600080fd5b90830190602082018581111561006857600080fd5b825164010000000081118282018810171561008257600080fd5b82525081516020918201929091019080838360005b838110156100af578181015183820152602001610097565b50505050905090810190601f1680156100dc5780820380516001836020036101000a031916815260200191505b50604052602001805160405193929190846401000000008211156100ff57600080fd5b90830190602082018581111561011457600080fd5b825164010000000081118282018810171561012e57600080fd5b82525081516020918201929091019080838360005b8381101561015b578181015183820152602001610143565b50505050905090810190601f1680156101885780820380516001836020036101000a031916815260200191505b506040526020908101518551909350859250849184916101ae91600191908601906101e7565b5081516101c29060009060208501906101e7565b506002805460ff191660ff929092169190911790555050600060035550610282915050565b828054600181600116156101000203166002900490600052602060002090601f016020900481019282601f1061022857805160ff1916838001178555610255565b82800160010185558215610255579182015b8281111561025557825182559160200191906001019061023a565b50610261929150610265565b5090565b61027f91905b80821115610261576000815560010161026b565b90565b610670806102916000396000f3fe608060405234801561001057600080fd5b506004361061009e5760003560e01c806370a082311161006657806370a08231146101ce57806395d89b41146101f4578063a9059cbb146101fc578063dd62ed3e14610228578063e30443bc146102565761009e565b806306fdde03146100a3578063095ea7b31461012057806318160ddd1461016057806323b872dd1461017a578063313ce567146101b0575b600080fd5b6100ab610282565b6040805160208082528351818301528351919283929083019185019080838360005b838110156100e55781810151838201526020016100cd565b50505050905090810190601f1680156101125780820380516001836020036101000a031916815260200191505b509250505060405180910390f35b61014c6004803603604081101561013657600080fd5b506001600160a01b038135169060200135610318565b604080519115158252519081900360200190f35b61016861037e565b60408051918252519081900360200190f35b61014c6004803603606081101561019057600080fd5b506001600160a01b03813581169160208101359091169060400135610383565b6101b861048e565b6040805160ff9092168252519081900360200190f35b610168600480360360208110156101e457600080fd5b50356001600160a01b0316610497565b6100ab6104b2565b61014c6004803603604081101561021257600080fd5b506001600160a01b038135169060200135610512565b6101686004803603604081101561023e57600080fd5b506001600160a01b03813581169160200135166105c2565b61014c6004803603604081101561026c57600080fd5b506001600160a01b0381351690602001356105ed565b60008054604080516020601f600260001961010060018816150201909516949094049384018190048102820181019092528281526060939092909183018282801561030e5780601f106102e35761010080835404028352916020019161030e565b820191906000526020600020905b8154815290600101906020018083116102f157829003601f168201915b5050505050905090565b3360008181526005602090815260408083206001600160a01b038716808552908352818420869055815186815291519394909390927f8c5be1e5ebec7d5bd14f71427d1e84f3dd0314c0f7b2291e5b200ac8c7c3b925928290030190a350600192915050565b600090565b6001600160a01b0383166000908152600460205260408120546103ac908363ffffffff61060d16565b6001600160a01b03851660009081526004602090815260408083209390935560058152828220338352905220546103e9908363ffffffff61060d16565b6001600160a01b03808616600090815260056020908152604080832033845282528083209490945591861681526004909152205461042d908363ffffffff61062216565b6001600160a01b0380851660008181526004602090815260409182902094909455805186815290519193928816927fddf252ad1be2c89b69c2b068fc378daa952ba7f163c4a11628f55a4df523b3ef92918290030190a35060019392505050565b60025460ff1690565b6001600160a01b031660009081526004602052604090205490565b60018054604080516020601f6002600019610100878916150201909516949094049384018190048102820181019092528281526060939092909183018282801561030e5780601f106102e35761010080835404028352916020019161030e565b33600090815260046020526040812054610532908363ffffffff61060d16565b33600090815260046020526040808220929092556001600160a01b03851681522054610564908363ffffffff61062216565b6001600160a01b0384166000818152600460209081526040918290209390935580518581529051919233927fddf252ad1be2c89b69c2b068fc378daa952ba7f163c4a11628f55a4df523b3ef9281900390910190a350600192915050565b6001600160a01b03918216600090815260056020908152604080832093909416825291909152205490565b6001600160a01b0391909116600090815260046020526040902055600190565b60008282111561061c57600080fd5b50900390565b60008282018381101561063457600080fd5b939250505056fea265627a7a723158208598b31dcb6b59018c628739857429ef36c7dd20ca7efad4a93ce35cd1d4b0d664736f6c63430005100032",
  "source": "/* solhint-disable-next-line compiler-fixed */\npragma solidity ^0.5.0;\n\n// Copyright 2018 OpenST Ltd.\n//\n// Licensed under the Apache License, Version 2.0 (the \"License\");\n// you may not use this file except in compliance with the License.\n// You may obtain a copy of the License at\n//\n//    http://www.apache.org/licenses/LICENSE-2.0\n//\n// Unless required by applicable law or agreed to in writing, software\n// distributed under the License is distributed on an \"AS IS\" BASIS,\n// WITHOUT WARRANTIES OR CONDITIONS OF ANY KIND, either express or implied.\n// See the License for the specific language governing permissions and\n// limitations under the License.\n\nimport \"./EIP20Token.sol\";\n\n\n/**\n * @title EIP20TokenMock contract.\n *\n * @notice It provides EIP20Token with mock functionality to facilitate\n *         testing.\n */\ncontract EIP20TokenMock is EIP20Token {\n\n    /* Special functions */\n\n    /**\n     *  @dev Takes _symbol, _name, _decimals.\n     *\n     *  @param _symbol Symbol.\n     *  @param _name Name.\n     *  @param _decimals Decimals.\n     */\n    constructor(\n        string memory _symbol,\n        string memory _name,\n        uint8 _decimals\n    )\n        /* solhint-disable-next-line visibility-modifier-order */\n        EIP20Token(_symbol, _name, _decimals)\n        public\n    { }\n\n\n    /* Public functions */\n\n    /**\n     * @notice Returns 0 as mock total supply.\n     *\n     * @return Returns 0.\n     */\n    function totalSupply()\n        public\n        view\n        returns (uint256)\n    {\n        return 0;\n    }\n\n    /**\n     * @notice Takes _owner, _value; sets balance of _owner to _value.\n     *\n     * @param _owner Owner.\n     * @param _value Value.\n     *\n     * @return True if balances of the _owner is set.\n     */\n    function setBalance(\n        address _owner,\n        uint256 _value\n    )\n        public\n        returns (bool)\n    {\n        balances[_owner] = _value;\n        return true;\n    }\n\n}\n",
  "sourcePath": "/Users/OST/Documents/dj/ost-opt-contracts/contracts/brandedtoken-contracts/contracts/EIP20TokenMock.sol",
  "compiler": {
    "name": "solc",
    "version": "0.5.16+commit.9c3226ce.Emscripten.clang"
  },
  "schemaVersion": "3.0.21",
  "updatedAt": "2020-01-19T12:15:30.066Z",
  "devdoc": {
    "methods": {
      "allowance(address,address)": {
        "params": {
          "_owner": "Address of the owner account.",
          "_spender": "Address of the spender account."
        },
        "return": "Remaining allowance for the spender to spend from         owner's account."
      },
      "approve(address,uint256)": {
        "details": "Allows _spender address to withdraw from function caller's      account, multiple times up to the _value amount, if this      function is called again it overwrites the current allowance      with _value.",
        "params": {
          "_spender": "Address authorized to spend from the function caller's                 address.",
          "_value": "Amount up to which spender is authorized to spend."
        },
        "return": "success_ True for a successful approval, false otherwise."
      },
      "balanceOf(address)": {
        "params": {
          "_owner": "Address of the owner account."
        },
        "return": "Account balance of the owner account."
      },
      "constructor": {
        "details": "Takes _symbol, _name, _decimals.",
        "params": {
          "_decimals": "Decimals.",
          "_name": "Name.",
          "_symbol": "Symbol."
        }
      },
      "decimals()": {
        "return": "Decimal places of the token."
      },
      "name()": {
        "return": "Name of the token."
      },
      "setBalance(address,uint256)": {
        "params": {
          "_owner": "Owner.",
          "_value": "Value."
        },
        "return": "True if balances of the _owner is set."
      },
      "symbol()": {
        "return": "Symbol of the token."
      },
      "totalSupply()": {
        "return": "Returns 0."
      },
      "transfer(address,uint256)": {
        "details": "Fires the transfer event, throws if, _from account does not have      enough tokens to spend.",
        "params": {
          "_to": "Address to which tokens are transferred.",
          "_value": "Amount of tokens to be transferred."
        },
        "return": "success_ True for a successful transfer, false otherwise."
      },
      "transferFrom(address,address,uint256)": {
        "details": "Allows a contract to transfer tokens on behalf of _from address      to _to address, the function caller has to be pre-authorized      for multiple transfers up to the total of _value amount by      the _from address.",
        "params": {
          "_from": "Address from which tokens are transferred.",
          "_to": "Address to which tokens are transferred.",
          "_value": "Amount of tokens transferred."
        },
        "return": "success_ True for a successful transfer, false otherwise."
      }
    },
    "title": "EIP20TokenMock contract."
  },
  "userdoc": {
    "methods": {
      "allowance(address,address)": {
        "notice": "Public view function allowance."
      },
      "approve(address,uint256)": {
        "notice": "Public function approve."
      },
      "balanceOf(address)": {
        "notice": "Public view function balanceOf."
      },
      "decimals()": {
        "notice": "Public view function decimals."
      },
      "name()": {
        "notice": "Public view function name."
      },
      "setBalance(address,uint256)": {
        "notice": "Takes _owner, _value; sets balance of _owner to _value."
      },
      "symbol()": {
        "notice": "Public view function symbol."
      },
      "totalSupply()": {
        "notice": "Returns 0 as mock total supply."
      },
      "transfer(address,uint256)": {
        "notice": "Public function transfer."
      },
      "transferFrom(address,address,uint256)": {
        "notice": "Public function transferFrom."
      }
    },
    "notice": "It provides EIP20Token with mock functionality to facilitate        testing."
  }
}