{
  "contractName": "FirewalledRuleImplementation",
  "abi": [
    {
      "inputs": [
        {
          "internalType": "contract OrganizationInterface",
          "name": "_organization",
          "type": "address"
        }
      ],
      "payable": false,
      "stateMutability": "nonpayable",
      "type": "constructor"
    },
    {
      "anonymous": false,
      "inputs": [],
      "name": "FirewallDisabled",
      "type": "event"
    },
    {
      "constant": false,
      "inputs": [],
      "name": "disableFirewall",
      "outputs": [],
      "payable": false,
      "stateMutability": "nonpayable",
      "type": "function"
    },
    {
      "constant": true,
      "inputs": [],
      "name": "firewallEnabled",
      "outputs": [
        {
          "internalType": "bool",
          "name": "",
          "type": "bool"
        }
      ],
      "payable": false,
      "stateMutability": "view",
      "type": "function"
    },
    {
      "constant": true,
      "inputs": [],
      "name": "organization",
      "outputs": [
        {
          "internalType": "contract OrganizationInterface",
          "name": "",
          "type": "address"
        }
      ],
      "payable": false,
      "stateMutability": "view",
      "type": "function"
    },
    {
      "constant": true,
      "inputs": [],
      "name": "firewalledFn",
      "outputs": [],
      "payable": false,
      "stateMutability": "view",
      "type": "function"
    }
  ],
  "bytecode": "0x608060405234801561001057600080fd5b506040516104163803806104168339818101604052602081101561003357600080fd5b505180806001600160a01b03811661007c5760405162461bcd60e51b815260040180806020018281038252602f8152602001806103e7602f913960400191505060405180910390fd5b6000805460ff60a01b196001600160a01b039093166001600160a01b03199091161791909116600160a01b179055505061032c806100bb6000396000f3fe608060405234801561001057600080fd5b506004361061004c5760003560e01c8063090ee9691461005157806323bd4d7a1461005b5780635c220ba21461007f57806397732d6c14610087575b600080fd5b6100596100a3565b005b61006361018b565b604080516001600160a01b039092168252519081900360200190f35b61005961019a565b61008f610260565b604080519115158252519081900360200190f35b6000546040805163b1ce8eab60e01b815233600482015290516001600160a01b039092169163b1ce8eab91602480820192602092909190829003018186803b1580156100ee57600080fd5b505afa158015610102573d6000803e3d6000fd5b505050506040513d602081101561011857600080fd5b50516101555760405162461bcd60e51b81526004018080602001828103825260358152602001806102c36035913960400191505060405180910390fd5b6000805460ff60a01b191681556040517f8c61b806d365933201f6956f3187a13394061c3da1c6c8bad5ec88d7ee0112a39190a1565b6000546001600160a01b031681565b600054600160a01b900460ff161561025e576000546040805163aa15664560e01b815232600482015290516001600160a01b039092169163aa15664591602480820192602092909190829003018186803b1580156101f757600080fd5b505afa15801561020b573d6000803e3d6000fd5b505050506040513d602081101561022157600080fd5b505161025e5760405162461bcd60e51b81526004018080602001828103825260528152602001806102716052913960600191505060405180910390fd5b565b600054600160a01b900460ff168156fe54686973206d6574686f64206973206669726577616c6c65642e205472616e73616374696f6e206d757374206f726967696e6174652066726f6d20616e206f7267616e697a6174696f6e20776f726b65722e4f6e6c7920746865206f7267616e697a6174696f6e20697320616c6c6f77656420746f2063616c6c2074686973206d6574686f642ea265627a7a723158206ebc1c7352c8a2d07380935a283857617d1cd7cac6cdab2a4a9611aa965a185e64736f6c634300051000324f7267616e697a6174696f6e20636f6e74726163742061646472657373206d757374206e6f74206265207a65726f2e",
  "source": "pragma solidity ^0.5.0;\n\n// Copyright 2019 OpenST Ltd.\n//\n// Licensed under the Apache License, Version 2.0 (the \"License\");\n// you may not use this file except in compliance with the License.\n// You may obtain a copy of the License at\n//\n//    http://www.apache.org/licenses/LICENSE-2.0\n//\n// Unless required by applicable law or agreed to in writing, software\n// distributed under the License is distributed on an \"AS IS\" BASIS,\n// WITHOUT WARRANTIES OR CONDITIONS OF ANY KIND, either express or implied.\n// See the License for the specific language governing permissions and\n// limitations under the License.\n\nimport \"../../../rules/FirewalledRule.sol\";\n\n/**\n * @title Implementation that actually has a firewalled method.\n *\n * @notice As the firewall itself doesn't have any firewalled methods, another\n *         contract that provides a firewalled method is required in order to\n *         test the modifier.\n */\ncontract FirewalledRuleImplementation is FirewalledRule {\n\n    /* Special Functions */\n\n    constructor(\n        OrganizationInterface _organization\n    )\n        FirewalledRule(_organization)\n        public\n    // solium-disable-next-line no-empty-blocks\n    {}\n\n\n    /* External Functions */\n\n\n    // solium-disable-next-line no-empty-blocks\n    function firewalledFn() external view firewalled {}\n}\n",
  "sourcePath": "/Users/OST/Documents/dj/ost-opt-contracts/contracts/openst-contracts/contracts/test_doubles/unit_tests/firewalled_rule/FirewalledRuleImplementation.sol",
  "compiler": {
    "name": "solc",
    "version": "0.5.16+commit.9c3226ce.Emscripten.clang"
  },
  "schemaVersion": "3.0.21",
  "updatedAt": "2020-01-22T10:54:09.821Z",
  "devdoc": {
    "methods": {},
    "title": "Implementation that actually has a firewalled method."
  },
  "userdoc": {
    "methods": {
      "disableFirewall()": {
        "notice": "Disables the firewall so that anyone can use firewalled methods.        Disabling the firewall cannot be done undone. There is no method        to enable the firewall again.        Emits a `FirewallDisabled` event."
      }
    },
    "notice": "As the firewall itself doesn't have any firewalled methods, another        contract that provides a firewalled method is required in order to        test the modifier."
  }
}