{
  "contractName": "FirewalledRule",
  "abi": [
    {
      "inputs": [
        {
          "internalType": "contract OrganizationInterface",
          "name": "_organization",
          "type": "address"
        }
      ],
      "payable": false,
      "stateMutability": "nonpayable",
      "type": "constructor"
    },
    {
      "anonymous": false,
      "inputs": [],
      "name": "FirewallDisabled",
      "type": "event"
    },
    {
      "constant": true,
      "inputs": [],
      "name": "firewallEnabled",
      "outputs": [
        {
          "internalType": "bool",
          "name": "",
          "type": "bool"
        }
      ],
      "payable": false,
      "stateMutability": "view",
      "type": "function"
    },
    {
      "constant": true,
      "inputs": [],
      "name": "organization",
      "outputs": [
        {
          "internalType": "contract OrganizationInterface",
          "name": "",
          "type": "address"
        }
      ],
      "payable": false,
      "stateMutability": "view",
      "type": "function"
    },
    {
      "constant": false,
      "inputs": [],
      "name": "disableFirewall",
      "outputs": [],
      "payable": false,
      "stateMutability": "nonpayable",
      "type": "function"
    }
  ],
  "bytecode": "0x608060405234801561001057600080fd5b506040516102e93803806102e98339818101604052602081101561003357600080fd5b5051806001600160a01b03811661007b5760405162461bcd60e51b815260040180806020018281038252602f8152602001806102ba602f913960400191505060405180910390fd5b6000805460ff60a01b196001600160a01b039093166001600160a01b03199091161791909116600160a01b17905550610201806100b96000396000f3fe608060405234801561001057600080fd5b50600436106100415760003560e01c8063090ee9691461004657806323bd4d7a1461005057806397732d6c14610074575b600080fd5b61004e610090565b005b610058610178565b604080516001600160a01b039092168252519081900360200190f35b61007c610187565b604080519115158252519081900360200190f35b6000546040805163b1ce8eab60e01b815233600482015290516001600160a01b039092169163b1ce8eab91602480820192602092909190829003018186803b1580156100db57600080fd5b505afa1580156100ef573d6000803e3d6000fd5b505050506040513d602081101561010557600080fd5b50516101425760405162461bcd60e51b81526004018080602001828103825260358152602001806101986035913960400191505060405180910390fd5b6000805460ff60a01b191681556040517f8c61b806d365933201f6956f3187a13394061c3da1c6c8bad5ec88d7ee0112a39190a1565b6000546001600160a01b031681565b600054600160a01b900460ff168156fe4f6e6c7920746865206f7267616e697a6174696f6e20697320616c6c6f77656420746f2063616c6c2074686973206d6574686f642ea265627a7a72315820db6224b8189774389535bd98a7e1e4b62a3b9c188581c43e0f0e97c903a13d7b64736f6c634300051000324f7267616e697a6174696f6e20636f6e74726163742061646472657373206d757374206e6f74206265207a65726f2e",
  "source": "pragma solidity ^0.5.0;\n\n// Copyright 2019 OpenST Ltd.\n//\n// Licensed under the Apache License, Version 2.0 (the \"License\");\n// you may not use this file except in compliance with the License.\n// You may obtain a copy of the License at\n//\n//    http://www.apache.org/licenses/LICENSE-2.0\n//\n// Unless required by applicable law or agreed to in writing, software\n// distributed under the License is distributed on an \"AS IS\" BASIS,\n// WITHOUT WARRANTIES OR CONDITIONS OF ANY KIND, either express or implied.\n// See the License for the specific language governing permissions and\n// limitations under the License.\n\nimport \"../organization/contracts/Organized.sol\";\nimport \"../organization/contracts/OrganizationInterface.sol\";\n\n/**\n * @title Extend this rule in order to restrict relayers of a meta-transaction.\n *\n * @notice If you want to restrict the relayers that can relay meta-transactions\n *         to your rule, you can extend this contract with your rule. Your rule\n *         has to include the modifier `firewalled` for all functions that\n *         should be restricted.\n *         The firewall can be disabled, but not enabled again. When it is\n *         disabled, the modifier basically does nothing anymore.\n */\ncontract FirewalledRule is Organized {\n\n    /* Events */\n\n    /**\n     * Emitted when the firewall gets disabled.\n     * It is the only event, because a firewall cannot get re-enabled.\n     */\n    event FirewallDisabled();\n\n\n    /* Storage */\n\n    /**\n     * Records whether the firewall is checked in the relevant modifier.\n     * Is set to `false` when the firewall gets disabled.\n     */\n    bool public firewallEnabled;\n\n\n    /* Modifiers */\n\n    /**\n     * Requires that `tx.origin` is an organization worker, if the firewall is\n     * enabled. Once the firewall has been disabled, this modifier will not\n     * enforce any checks anymore.\n     * The modifier checks `tx.origin` and not `msg.sender`, because\n     * `msg.sender` can be another contract. However, what the firewall is\n     * supposed to check is who relayed the meta-transaction. The relayer is\n     * always `tx.origin`.\n     */\n    modifier firewalled() {\n        if (firewallEnabled) {\n            require(\n                // We deliberately chose `tx.origin` and not `msg.sender`.\n                // See modifier documentation for more details.\n                // solium-disable-next-line security/no-tx-origin\n                organization.isWorker(tx.origin),\n                \"This method is firewalled. Transaction must originate from an organization worker.\"\n            );\n        }\n\n        _;\n    }\n\n\n    /* Special Functions */\n\n    /**\n     * @param _organization The address of an organization contract.\n     */\n    constructor(\n        OrganizationInterface _organization\n    )\n        Organized(_organization)\n        public\n    {\n        // The firewall must be enabled by default, as there is no function to\n        // enable a disabled firewall.\n        firewallEnabled = true;\n    }\n\n\n    /* External Functions */\n\n    /**\n     * @notice Disables the firewall so that anyone can use firewalled methods.\n     *         Disabling the firewall cannot be done undone. There is no method\n     *         to enable the firewall again.\n     *         Emits a `FirewallDisabled` event.\n     */\n    function disableFirewall() external onlyOrganization {\n        firewallEnabled = false;\n        emit FirewallDisabled();\n    }\n}\n",
  "sourcePath": "/Users/OST/Documents/dj/ost-opt-contracts/contracts/openst-contracts/contracts/rules/FirewalledRule.sol",
  "compiler": {
    "name": "solc",
    "version": "0.5.16+commit.9c3226ce.Emscripten.clang"
  },
  "schemaVersion": "3.0.21",
  "updatedAt": "2020-01-22T10:54:09.806Z",
  "devdoc": {
    "methods": {
      "constructor": {
        "params": {
          "_organization": "The address of an organization contract."
        }
      }
    },
    "title": "Extend this rule in order to restrict relayers of a meta-transaction."
  },
  "userdoc": {
    "methods": {
      "disableFirewall()": {
        "notice": "Disables the firewall so that anyone can use firewalled methods.        Disabling the firewall cannot be done undone. There is no method        to enable the firewall again.        Emits a `FirewallDisabled` event."
      }
    },
    "notice": "If you want to restrict the relayers that can relay meta-transactions        to your rule, you can extend this contract with your rule. Your rule        has to include the modifier `firewalled` for all functions that        should be restricted.        The firewall can be disabled, but not enabled again. When it is        disabled, the modifier basically does nothing anymore."
  }
}