{
  "contractName": "FirewalledRuleCaller",
  "abi": [
    {
      "inputs": [
        {
          "internalType": "contract FirewalledRuleImplementation",
          "name": "_rule",
          "type": "address"
        }
      ],
      "payable": false,
      "stateMutability": "nonpayable",
      "type": "constructor"
    },
    {
      "constant": true,
      "inputs": [],
      "name": "callFirewalledFn",
      "outputs": [],
      "payable": false,
      "stateMutability": "view",
      "type": "function"
    }
  ],
  "bytecode": "0x608060405234801561001057600080fd5b506040516101263803806101268339818101604052602081101561003357600080fd5b5051600080546001600160a01b039092166001600160a01b031990921691909117905560c2806100646000396000f3fe6080604052348015600f57600080fd5b506004361060285760003560e01c8063ed32b2f614602d575b600080fd5b60336035565b005b6000805460408051632e1105d160e11b815290516001600160a01b0390921692635c220ba292600480840193829003018186803b158015607457600080fd5b505afa1580156087573d6000803e3d6000fd5b5050505056fea265627a7a723158201ebbb50277a8d2e61a6ae1034bfa9b81f06398a6b06044a05430749d28bc4d6c64736f6c63430005100032",
  "source": "pragma solidity ^0.5.0;\n\n// Copyright 2019 OpenST Ltd.\n//\n// Licensed under the Apache License, Version 2.0 (the \"License\");\n// you may not use this file except in compliance with the License.\n// You may obtain a copy of the License at\n//\n//    http://www.apache.org/licenses/LICENSE-2.0\n//\n// Unless required by applicable law or agreed to in writing, software\n// distributed under the License is distributed on an \"AS IS\" BASIS,\n// WITHOUT WARRANTIES OR CONDITIONS OF ANY KIND, either express or implied.\n// See the License for the specific language governing permissions and\n// limitations under the License.\n\nimport \"./FirewalledRuleImplementation.sol\";\n\n/**\n * @title A contract that calls a method that is firewalled.\n *\n * @notice The firewalled method explicitly checks for `tx.origin` as opposed to\n *         `msg.sender`. In order to test the desired behavior, an indirection\n *         is required. This contract provides exactly that indirection. It\n *         calls a firewalled method to assert that the firewall works on\n *         `tx.origin` and not `msg.sender`, as `msg.sender` is this contract.\n */\ncontract FirewalledRuleCaller {\n\n    /* Storage */\n\n    FirewalledRuleImplementation rule;\n\n\n    /* Special Functions */\n\n    constructor(FirewalledRuleImplementation _rule) public {\n        rule = _rule;\n    }\n\n\n    /* External Functions */\n\n    function callFirewalledFn() external view {\n        rule.firewalledFn();\n    }\n}\n",
  "sourcePath": "/Users/OST/Documents/dj/ost-opt-contracts/contracts/openst-contracts/contracts/test_doubles/unit_tests/firewalled_rule/FirewalledRuleCaller.sol",
  "compiler": {
    "name": "solc",
    "version": "0.5.16+commit.9c3226ce.Emscripten.clang"
  },
  "schemaVersion": "3.0.21",
  "updatedAt": "2020-01-21T06:41:35.304Z",
  "devdoc": {
    "methods": {},
    "title": "A contract that calls a method that is firewalled."
  },
  "userdoc": {
    "methods": {},
    "notice": "The firewalled method explicitly checks for `tx.origin` as opposed to        `msg.sender`. In order to test the desired behavior, an indirection        is required. This contract provides exactly that indirection. It        calls a firewalled method to assert that the firewall works on        `tx.origin` and not `msg.sender`, as `msg.sender` is this contract."
  }
}