{
  "contractName": "GatewayComposer",
  "abi": [
    {
      "inputs": [
        {
          "internalType": "address",
          "name": "_owner",
          "type": "address"
        },
        {
          "internalType": "contract EIP20Interface",
          "name": "_valueToken",
          "type": "address"
        },
        {
          "internalType": "contract BrandedToken",
          "name": "_brandedToken",
          "type": "address"
        }
      ],
      "payable": false,
      "stateMutability": "nonpayable",
      "type": "constructor"
    },
    {
      "constant": true,
      "inputs": [],
      "name": "brandedToken",
      "outputs": [
        {
          "internalType": "contract BrandedToken",
          "name": "",
          "type": "address"
        }
      ],
      "payable": false,
      "stateMutability": "view",
      "type": "function"
    },
    {
      "constant": true,
      "inputs": [],
      "name": "owner",
      "outputs": [
        {
          "internalType": "address",
          "name": "",
          "type": "address"
        }
      ],
      "payable": false,
      "stateMutability": "view",
      "type": "function"
    },
    {
      "constant": true,
      "inputs": [
        {
          "internalType": "bytes32",
          "name": "",
          "type": "bytes32"
        }
      ],
      "name": "stakeRequests",
      "outputs": [
        {
          "internalType": "uint256",
          "name": "stakeVT",
          "type": "uint256"
        },
        {
          "internalType": "address",
          "name": "gateway",
          "type": "address"
        },
        {
          "internalType": "address",
          "name": "beneficiary",
          "type": "address"
        },
        {
          "internalType": "uint256",
          "name": "gasPrice",
          "type": "uint256"
        },
        {
          "internalType": "uint256",
          "name": "gasLimit",
          "type": "uint256"
        },
        {
          "internalType": "uint256",
          "name": "nonce",
          "type": "uint256"
        }
      ],
      "payable": false,
      "stateMutability": "view",
      "type": "function"
    },
    {
      "constant": true,
      "inputs": [],
      "name": "valueToken",
      "outputs": [
        {
          "internalType": "contract EIP20Interface",
          "name": "",
          "type": "address"
        }
      ],
      "payable": false,
      "stateMutability": "view",
      "type": "function"
    },
    {
      "constant": false,
      "inputs": [
        {
          "internalType": "uint256",
          "name": "_stakeVT",
          "type": "uint256"
        },
        {
          "internalType": "uint256",
          "name": "_mintBT",
          "type": "uint256"
        },
        {
          "internalType": "address",
          "name": "_gateway",
          "type": "address"
        },
        {
          "internalType": "address",
          "name": "_beneficiary",
          "type": "address"
        },
        {
          "internalType": "uint256",
          "name": "_gasPrice",
          "type": "uint256"
        },
        {
          "internalType": "uint256",
          "name": "_gasLimit",
          "type": "uint256"
        },
        {
          "internalType": "uint256",
          "name": "_nonce",
          "type": "uint256"
        }
      ],
      "name": "requestStake",
      "outputs": [
        {
          "internalType": "bytes32",
          "name": "stakeRequestHash_",
          "type": "bytes32"
        }
      ],
      "payable": false,
      "stateMutability": "nonpayable",
      "type": "function"
    },
    {
      "constant": false,
      "inputs": [
        {
          "internalType": "bytes32",
          "name": "_stakeRequestHash",
          "type": "bytes32"
        },
        {
          "internalType": "bytes32",
          "name": "_r",
          "type": "bytes32"
        },
        {
          "internalType": "bytes32",
          "name": "_s",
          "type": "bytes32"
        },
        {
          "internalType": "uint8",
          "name": "_v",
          "type": "uint8"
        },
        {
          "internalType": "bytes32",
          "name": "_hashLock",
          "type": "bytes32"
        }
      ],
      "name": "acceptStakeRequest",
      "outputs": [
        {
          "internalType": "bytes32",
          "name": "messageHash_",
          "type": "bytes32"
        }
      ],
      "payable": false,
      "stateMutability": "nonpayable",
      "type": "function"
    },
    {
      "constant": false,
      "inputs": [
        {
          "internalType": "bytes32",
          "name": "_stakeRequestHash",
          "type": "bytes32"
        }
      ],
      "name": "revokeStakeRequest",
      "outputs": [
        {
          "internalType": "bool",
          "name": "success_",
          "type": "bool"
        }
      ],
      "payable": false,
      "stateMutability": "nonpayable",
      "type": "function"
    },
    {
      "constant": false,
      "inputs": [
        {
          "internalType": "contract EIP20Interface",
          "name": "_token",
          "type": "address"
        },
        {
          "internalType": "address",
          "name": "_to",
          "type": "address"
        },
        {
          "internalType": "uint256",
          "name": "_value",
          "type": "uint256"
        }
      ],
      "name": "transferToken",
      "outputs": [
        {
          "internalType": "bool",
          "name": "success_",
          "type": "bool"
        }
      ],
      "payable": false,
      "stateMutability": "nonpayable",
      "type": "function"
    },
    {
      "constant": false,
      "inputs": [
        {
          "internalType": "contract EIP20Interface",
          "name": "_token",
          "type": "address"
        },
        {
          "internalType": "address",
          "name": "_spender",
          "type": "address"
        },
        {
          "internalType": "uint256",
          "name": "_value",
          "type": "uint256"
        }
      ],
      "name": "approveToken",
      "outputs": [
        {
          "internalType": "bool",
          "name": "success_",
          "type": "bool"
        }
      ],
      "payable": false,
      "stateMutability": "nonpayable",
      "type": "function"
    },
    {
      "constant": false,
      "inputs": [],
      "name": "destroy",
      "outputs": [],
      "payable": false,
      "stateMutability": "nonpayable",
      "type": "function"
    },
    {
      "constant": false,
      "inputs": [
        {
          "internalType": "address",
          "name": "_gateway",
          "type": "address"
        },
        {
          "internalType": "uint256",
          "name": "_penalty",
          "type": "uint256"
        },
        {
          "internalType": "bytes32",
          "name": "_messageHash",
          "type": "bytes32"
        }
      ],
      "name": "revertStake",
      "outputs": [
        {
          "internalType": "bool",
          "name": "success_",
          "type": "bool"
        }
      ],
      "payable": false,
      "stateMutability": "nonpayable",
      "type": "function"
    }
  ],
  "bytecode": "0x60806040523480156200001157600080fd5b5060405162001f7f38038062001f7f833981810160405260608110156200003757600080fd5b50805160208201516040909201519091906001600160a01b038316620000a4576040805162461bcd60e51b815260206004820152601660248201527f4f776e65722061646472657373206973207a65726f2e00000000000000000000604482015290519081900360640190fd5b6001600160a01b03821662000100576040805162461bcd60e51b815260206004820152601b60248201527f56616c7565546f6b656e2061646472657373206973207a65726f2e0000000000604482015290519081900360640190fd5b6001600160a01b0381166200015c576040805162461bcd60e51b815260206004820152601d60248201527f4272616e646564546f6b656e2061646472657373206973207a65726f2e000000604482015290519081900360640190fd5b816001600160a01b0316836001600160a01b03161415620001af5760405162461bcd60e51b815260040180806020018281038252602c81526020018062001f53602c913960400191505060405180910390fd5b806001600160a01b0316836001600160a01b03161415620002025760405162461bcd60e51b815260040180806020018281038252602e81526020018062001ef5602e913960400191505060405180910390fd5b806001600160a01b031663effff82f6040518163ffffffff1660e01b815260040160206040518083038186803b1580156200023c57600080fd5b505afa15801562000251573d6000803e3d6000fd5b505050506040513d60208110156200026857600080fd5b50516001600160a01b03838116911614620002b55760405162461bcd60e51b815260040180806020018281038252603081526020018062001f236030913960400191505060405180910390fd5b600080546001600160a01b039485166001600160a01b031991821617909155600180549385169382169390931790925560028054919093169116179055611bf380620003026000396000f3fe608060405234801561001057600080fd5b50600436106100a95760003560e01c8063cc3488ab11610071578063cc3488ab146101de578063d348050c146101fb578063da3e339714610203578063e9b7711314610239578063effff82f14610271578063f5537ede14610279576100a9565b806311272e72146100ae57806318ba31d8146100f457806383197ef0146101505780638da5cb5b1461015a578063bc25c8c51461017e575b600080fd5b6100e0600480360360608110156100c457600080fd5b506001600160a01b0381351690602081013590604001356102af565b604080519115158252519081900360200190f35b6101116004803603602081101561010a57600080fd5b5035610596565b604080519687526001600160a01b03958616602088015293909416858401526060850191909152608084015260a0830191909152519081900360c00190f35b6101586105d9565b005b610162610854565b604080516001600160a01b039092168252519081900360200190f35b6101cc600480360360e081101561019457600080fd5b508035906020810135906001600160a01b03604082013581169160608101359091169060808101359060a08101359060c00135610863565b60408051918252519081900360200190f35b6100e0600480360360208110156101f457600080fd5b5035610dba565b610162611069565b6100e06004803603606081101561021957600080fd5b506001600160a01b03813581169160208101359091169060400135611078565b6101cc600480360360a081101561024f57600080fd5b5080359060208101359060408101359060ff60608201351690608001356111ee565b61016261180e565b6100e06004803603606081101561028f57600080fd5b506001600160a01b0381358116916020810135909116906040013561181d565b600080546001600160a01b031633146102f95760405162461bcd60e51b8152600401808060200182810382526021815260200180611b5b6021913960400191505060405180910390fd5b6001600160a01b03841661034f576040805162461bcd60e51b815260206004820152601860248201527723b0ba32bbb0bc9030b2323932b9b99034b9903d32b9379760411b604482015290519081900360640190fd5b6000546001600160a01b038581169116141561039c5760405162461bcd60e51b8152600401808060200182810382526029815260200180611a6e6029913960400191505060405180910390fd5b600154604080516323b872dd60e01b81523360048201523060248201526044810186905290516001600160a01b03909216916323b872dd916064808201926020929091908290030181600087803b1580156103f657600080fd5b505af115801561040a573d6000803e3d6000fd5b505050506040513d602081101561042057600080fd5b505161045d5760405162461bcd60e51b8152600401808060200182810382526027815260200180611a976027913960400191505060405180910390fd5b6001546040805163095ea7b360e01b81526001600160a01b038781166004830152602482018790529151919092169163095ea7b39160448083019260209291908290030181600087803b1580156104b357600080fd5b505af11580156104c7573d6000803e3d6000fd5b505050506040513d60208110156104dd57600080fd5b505161051a5760405162461bcd60e51b8152600401808060200182810382526022815260200180611a4c6022913960400191505060405180910390fd5b836001600160a01b031663212dbdbe836040518263ffffffff1660e01b815260040180828152602001915050606060405180830381600087803b15801561056057600080fd5b505af1158015610574573d6000803e3d6000fd5b505050506040513d606081101561058a57600080fd5b50600195945050505050565b600360208190526000918252604090912080546001820154600283015493830154600484015460059094015492946001600160a01b039283169492169290919086565b6000546001600160a01b031633146106225760405162461bcd60e51b8152600401808060200182810382526021815260200180611b5b6021913960400191505060405180910390fd5b600154604080516370a0823160e01b815230600482015290516001600160a01b03909216916370a0823191602480820192602092909190829003018186803b15801561066d57600080fd5b505afa158015610681573d6000803e3d6000fd5b505050506040513d602081101561069757600080fd5b5051156106eb576040805162461bcd60e51b815260206004820152601f60248201527f56616c7565546f6b656e2062616c616e63652073686f756c6420626520302e00604482015290519081900360640190fd5b600254604080516370a0823160e01b815230600482015290516001600160a01b03909216916370a0823191602480820192602092909190829003018186803b15801561073657600080fd5b505afa15801561074a573d6000803e3d6000fd5b505050506040513d602081101561076057600080fd5b50511561079e5760405162461bcd60e51b8152600401808060200182810382526021815260200180611b9e6021913960400191505060405180910390fd5b6002546040805163a3c787d360e01b815230600482015290516000926001600160a01b03169163a3c787d3916024808301926020929190829003018186803b1580156107e957600080fd5b505afa1580156107fd573d6000803e3d6000fd5b505050506040513d602081101561081357600080fd5b5051146108515760405162461bcd60e51b8152600401808060200182810382526027815260200180611a256027913960400191505060405180910390fd5b33ff5b6000546001600160a01b031681565b600080546001600160a01b031633146108ad5760405162461bcd60e51b8152600401808060200182810382526021815260200180611b5b6021913960400191505060405180910390fd5b60045460ff1615610905576040805162461bcd60e51b815260206004820152601a60248201527f4d7574657820697320616c72656164792061637175697265642e000000000000604482015290519081900360640190fd5b6004805460ff191660011790558761095c576040805162461bcd60e51b815260206004820152601560248201527429ba30b5b29030b6b7bab73a1034b9903d32b9379760591b604482015290519081900360640190fd5b6002546040805163d94ade8360e01b8152600481018b905290516001600160a01b039092169163d94ade8391602480820192602092909190829003018186803b1580156109a857600080fd5b505afa1580156109bc573d6000803e3d6000fd5b505050506040513d60208110156109d257600080fd5b50518714610a115760405162461bcd60e51b8152600401808060200182810382526028815260200180611b336028913960400191505060405180910390fd5b6001600160a01b038616610a67576040805162461bcd60e51b815260206004820152601860248201527723b0ba32bbb0bc9030b2323932b9b99034b9903d32b9379760411b604482015290519081900360640190fd5b6000546001600160a01b0387811691161415610ab45760405162461bcd60e51b8152600401808060200182810382526029815260200180611a6e6029913960400191505060405180910390fd5b6001600160a01b038516610b0f576040805162461bcd60e51b815260206004820152601c60248201527f42656e65666963696172792061646472657373206973207a65726f2e00000000604482015290519081900360640190fd5b600154604080516323b872dd60e01b8152336004820152306024820152604481018b905290516001600160a01b03909216916323b872dd916064808201926020929091908290030181600087803b158015610b6957600080fd5b505af1158015610b7d573d6000803e3d6000fd5b505050506040513d6020811015610b9357600080fd5b5051610bd05760405162461bcd60e51b8152600401808060200182810382526027815260200180611a976027913960400191505060405180910390fd5b6001546002546040805163095ea7b360e01b81526001600160a01b039283166004820152602481018c90529051919092169163095ea7b39160448083019260209291908290030181600087803b158015610c2957600080fd5b505af1158015610c3d573d6000803e3d6000fd5b505050506040513d6020811015610c5357600080fd5b5051610c905760405162461bcd60e51b8152600401808060200182810382526022815260200180611a4c6022913960400191505060405180910390fd5b6002546040805163e62ab86b60e01b8152600481018b9052602481018a905290516001600160a01b039092169163e62ab86b916044808201926020929091908290030181600087803b158015610ce557600080fd5b505af1158015610cf9573d6000803e3d6000fd5b505050506040513d6020811015610d0f57600080fd5b50516040805160c081018252998a526001600160a01b0397881660208b81019182529789168b830190815260608c0197885260808c0196875260a08c0195865260008481526003998a9052929092209a518b555160018b018054918a166001600160a01b0319928316179055905160028b018054919099169116179096555091519286019290925590516004808601919091559051600590940193909355825460ff19169092555090565b600080546001600160a01b03163314610e045760405162461bcd60e51b8152600401808060200182810382526021815260200180611b5b6021913960400191505060405180910390fd5b610e0c611989565b506000828152600360208181526040808420815160c081018352815481526001820180546001600160a01b03808216848801526002850180549182169685019690965284880180546060860152600486018054608087015260058701805460a08801528d8c5299909852948990556001600160a01b031991821690925516909255849055908390559190558051610ee5576040805162461bcd60e51b815260206004820152601860248201527729ba30b5b2903932b8bab2b9ba103737ba103337bab7321760411b604482015290519081900360640190fd5b6002546040805163cc3488ab60e01b81526004810186905290516001600160a01b039092169163cc3488ab916024808201926020929091908290030181600087803b158015610f3357600080fd5b505af1158015610f47573d6000803e3d6000fd5b505050506040513d6020811015610f5d57600080fd5b5051610f9a5760405162461bcd60e51b815260040180806020018281038252602f815260200180611ae1602f913960400191505060405180910390fd5b6001546000805483516040805163a9059cbb60e01b81526001600160a01b039384166004820152602481019290925251919093169263a9059cbb9260448083019360209390929083900390910190829087803b158015610ff957600080fd5b505af115801561100d573d6000803e3d6000fd5b505050506040513d602081101561102357600080fd5b50516110605760405162461bcd60e51b8152600401808060200182810382526023815260200180611b106023913960400191505060405180910390fd5b50600192915050565b6002546001600160a01b031681565b600080546001600160a01b031633146110c25760405162461bcd60e51b8152600401808060200182810382526021815260200180611b5b6021913960400191505060405180910390fd5b6001600160a01b03841661111d576040805162461bcd60e51b815260206004820152601c60248201527f454950323020746f6b656e2061646472657373206973207a65726f2e00000000604482015290519081900360640190fd5b836001600160a01b031663095ea7b384846040518363ffffffff1660e01b815260040180836001600160a01b03166001600160a01b0316815260200182815260200192505050602060405180830381600087803b15801561117d57600080fd5b505af1158015611191573d6000803e3d6000fd5b505050506040513d60208110156111a757600080fd5b50516111e45760405162461bcd60e51b8152600401808060200182810382526022815260200180611b7c6022913960400191505060405180910390fd5b5060019392505050565b60006111f8611989565b600360008881526020019081526020016000206040518060c0016040529081600082015481526020016001820160009054906101000a90046001600160a01b03166001600160a01b03166001600160a01b031681526020016002820160009054906101000a90046001600160a01b03166001600160a01b03166001600160a01b0316815260200160038201548152602001600482015481526020016005820154815250509050600360008881526020019081526020016000206000808201600090556001820160006101000a8154906001600160a01b0302191690556002820160006101000a8154906001600160a01b0302191690556003820160009055600482016000905560058201600090555050600081600001511161135c576040805162461bcd60e51b815260206004820152601860248201527729ba30b5b2903932b8bab2b9ba103737ba103337bab7321760411b604482015290519081900360640190fd5b600081602001516001600160a01b031663943dfef16040518163ffffffff1660e01b8152600401602060405180830381600087803b15801561139d57600080fd5b505af11580156113b1573d6000803e3d6000fd5b505050506040513d60208110156113c757600080fd5b5051600154604080516323b872dd60e01b81523360048201523060248201526044810184905290519293506001600160a01b03909116916323b872dd916064808201926020929091908290030181600087803b15801561142657600080fd5b505af115801561143a573d6000803e3d6000fd5b505050506040513d602081101561145057600080fd5b505161148d5760405162461bcd60e51b8152600401808060200182810382526027815260200180611a976027913960400191505060405180910390fd5b6001546020808401516040805163095ea7b360e01b81526001600160a01b039283166004820152602481018690529051919093169263095ea7b39260448083019391928290030181600087803b1580156114e657600080fd5b505af11580156114fa573d6000803e3d6000fd5b505050506040513d602081101561151057600080fd5b505161154d5760405162461bcd60e51b8152600401808060200182810382526022815260200180611a4c6022913960400191505060405180910390fd5b60025460408051635c8dc74d60e01b8152600481018b9052602481018a90526044810189905260ff8816606482015290516001600160a01b0390921691635c8dc74d916084808201926020929091908290030181600087803b1580156115b257600080fd5b505af11580156115c6573d6000803e3d6000fd5b505050506040513d60208110156115dc57600080fd5b50516116195760405162461bcd60e51b815260040180806020018281038252602f8152602001806119d2602f913960400191505060405180910390fd5b60025482516040805163d94ade8360e01b81526004810192909252516000926001600160a01b03169163d94ade83916024808301926020929190829003018186803b15801561166757600080fd5b505afa15801561167b573d6000803e3d6000fd5b505050506040513d602081101561169157600080fd5b50516002546020858101516040805163095ea7b360e01b81526001600160a01b03928316600482015260248101869052905194955092169263095ea7b39260448082019392918290030181600087803b1580156116ed57600080fd5b505af1158015611701573d6000803e3d6000fd5b505050506040513d602081101561171757600080fd5b50516117545760405162461bcd60e51b8152600401808060200182810382526024815260200180611a016024913960400191505060405180910390fd5b6020808401516040808601516060870151608088015160a08901518451636bb1204960e01b8152600481018990526001600160a01b03948516602482015260448101939093526064830191909152608482015260a481018a90529151921692636bb120499260c4808401938290030181600087803b1580156117d557600080fd5b505af11580156117e9573d6000803e3d6000fd5b505050506040513d60208110156117ff57600080fd5b50519998505050505050505050565b6001546001600160a01b031681565b600080546001600160a01b031633146118675760405162461bcd60e51b8152600401808060200182810382526021815260200180611b5b6021913960400191505060405180910390fd5b6001600160a01b0384166118c2576040805162461bcd60e51b815260206004820152601c60248201527f454950323020746f6b656e2061646472657373206973207a65726f2e00000000604482015290519081900360640190fd5b836001600160a01b031663a9059cbb84846040518363ffffffff1660e01b815260040180836001600160a01b03166001600160a01b0316815260200182815260200192505050602060405180830381600087803b15801561192257600080fd5b505af1158015611936573d6000803e3d6000fd5b505050506040513d602081101561194c57600080fd5b50516111e45760405162461bcd60e51b8152600401808060200182810382526023815260200180611abe6023913960400191505060405180910390fd5b6040518060c001604052806000815260200160006001600160a01b0316815260200160006001600160a01b03168152602001600081526020016000815260200160008152509056fe4272616e646564546f6b656e206163636570745374616b65526571756573742072657475726e65642066616c73652e4272616e646564546f6b656e20617070726f76652072657475726e65642066616c73652e496e2070726f6772657373207374616b65207265717565737473206172652070726573656e742e56616c7565546f6b656e20617070726f76652072657475726e65642066616c73652e4761746577617920616464726573732069732073616d65206173206f776e657220616464726573732e56616c7565546f6b656e207472616e7366657246726f6d2072657475726e65642066616c73652e4549503230546f6b656e207472616e736665722072657475726e65642066616c73652e4272616e646564546f6b656e207265766f6b655374616b65526571756573742072657475726e65642066616c73652e56616c7565546f6b656e207472616e736665722072657475726e65642066616c73652e5f6d696e7442542073686f756c64206d6174636820636f6e766572746564205f7374616b6556542e4f6e6c79206f776e65722063616e2063616c6c207468652066756e6374696f6e2e4549503230746f6b656e20617070726f76652072657475726e65642066616c73652e4272616e646564546f6b656e2062616c616e63652073686f756c6420626520302ea265627a7a72315820f5641184cac061b0d9e7a3ecbd7d4ee3b3d3faa14023a0fc9682c034d610761e64736f6c634300051000324272616e646564546f6b656e20616464726573732069732073616d65206173206f776e657220616464726573732e56616c7565546f6b656e2073686f756c64206d61746368204272616e646564546f6b656e2e76616c7565546f6b656e2e56616c7565546f6b656e20616464726573732069732073616d65206173206f776e657220616464726573732e",
  "source": "pragma solidity ^0.5.0;\n\n// Copyright 2019 OpenST Ltd.\n//\n// Licensed under the Apache License, Version 2.0 (the \"License\");\n// you may not use this file except in compliance with the License.\n// You may obtain a copy of the License at\n//\n//    http://www.apache.org/licenses/LICENSE-2.0\n//\n// Unless required by applicable law or agreed to in writing, software\n// distributed under the License is distributed on an \"AS IS\" BASIS,\n// WITHOUT WARRANTIES OR CONDITIONS OF ANY KIND, either express or implied.\n// See the License for the specific language governing permissions and\n// limitations under the License.\n\nimport \"./EIP20Interface.sol\";\nimport \"./GatewayInterface.sol\";\nimport \"./BrandedToken.sol\";\n\n\n/**\n * @title GatewayComposer contract.\n *\n * @notice GatewayComposer is a composition contract which can be used to\n *         optimise the UX flow of the user where the user intends to perform\n *         a single combined action.\n */\ncontract GatewayComposer {\n\n    /* Struct */\n\n    struct StakeRequest {\n        uint256 stakeVT;\n        address gateway;\n        address beneficiary;\n        uint256 gasPrice;\n        uint256 gasLimit;\n        uint256 nonce;\n    }\n\n\n    /* Storage */\n\n    address public owner;\n\n    /** EIP20Token value token which is staked on the value chain. */\n    EIP20Interface public valueToken;\n\n    /**\n     * A BrandedToken is an EIP20Token which allows a mainstream application\n     * to create a value-backed token designed specifically for its\n     * application's context.\n     */\n    BrandedToken public brandedToken;\n\n    mapping (bytes32 => StakeRequest) public stakeRequests;\n\n    /** Mutex lock status. */\n    bool private mutexAcquired;\n\n\n    /* Modifiers */\n\n    /** Checks that msg.sender is owner address. */\n    modifier onlyOwner() {\n        require(\n            owner == msg.sender,\n            \"Only owner can call the function.\"\n        );\n        _;\n    }\n\n    /**\n     *  Checks that mutex is acquired or not. If mutex is not acquired,\n     *  mutexAcquired is set to true. At the end of function execution,\n     *  mutexAcquired is set to false.\n     */\n    modifier mutex() {\n        require(\n            !mutexAcquired,\n            \"Mutex is already acquired.\"\n        );\n        mutexAcquired = true;\n        _;\n        mutexAcquired = false;\n    }\n\n\n    /* Special Functions */\n\n    /**\n     * @notice Contract constructor.\n     *\n     * @dev Function requires:\n     *          - owner address should not be zero\n     *          - ValueToken address should not be zero\n     *          - BrandedToken address should not be zero\n     *          - ValueToken address should not be equal to owner address\n     *          - BrandedToken address should not be equal to owner address\n     *          - ValueToken address should be equal to BrandedToken.valueToken()\n     *\n     * @param _owner Address of the staker on the value chain.\n     * @param _valueToken EIP20Token which is staked.\n     * @param _brandedToken It's a value backed minted EIP20Token.\n     */\n    constructor(\n        address _owner,\n        EIP20Interface _valueToken,\n        BrandedToken _brandedToken\n    )\n        public\n    {\n        require(\n            _owner != address(0),\n            \"Owner address is zero.\"\n        );\n        require(\n            address(_valueToken) != address(0),\n            \"ValueToken address is zero.\"\n        );\n        require(\n            address(_brandedToken) != address(0),\n            \"BrandedToken address is zero.\"\n        );\n        require(\n            _owner != address(_valueToken),\n            \"ValueToken address is same as owner address.\"\n        );\n        require(\n            _owner != address(_brandedToken),\n            \"BrandedToken address is same as owner address.\"\n        );\n        require(\n            address(_valueToken) == address(_brandedToken.valueToken()),\n            \"ValueToken should match BrandedToken.valueToken.\"\n        );\n\n        owner = _owner;\n        valueToken = _valueToken;\n        brandedToken = _brandedToken;\n    }\n\n\n    /* External Functions */\n\n    /**\n     * @notice Transfers value tokens from msg.sender to itself after staker\n     *         approves GatewayComposer, approves BrandedToken for value tokens\n     *         and calls BrandedToken.requestStake function.\n     *\n     * @dev Function requires:\n     *          - stakeVT can't be 0\n     *          - mintBT amount and converted stakeVT amount should be equal\n     *          - gateway address can't be zero\n     *          - Gateway address should not be equal to owner address\n     *          - beneficiary address can't be zero\n     *          - successful execution of ValueToken transfer\n     *          - successful execution of ValueToken approve\n     *\n     *      stakeVT can't be 0 because gateway.stake also doesn't allow 0 stake\n     *      amount. This condition also helps in validation of in progress\n     *      stake requests. See acceptStakeRequest for details.\n     *\n     *      mintBT is not stored in StakeRequest struct as there was\n     *      significant gas cost difference between storage vs dynamic\n     *      evaluation from BrandedToken convert function.\n     *\n     * @param _stakeVT ValueToken amount which is staked.\n     * @param _mintBT Amount of BrandedToken amount which will be minted.\n     * @param _gateway Gateway contract address.\n     * @param _beneficiary The address in the auxiliary chain where the utility\n     *                     tokens will be minted.\n     * @param _gasPrice Gas price that staker is ready to pay to get the stake\n     *                  and mint process done.\n     * @param _gasLimit Gas limit that staker is ready to pay.\n     * @param _nonce Nonce of the staker address. It can be obtained from\n     *               Gateway.getNonce() method.\n     *\n     * @return stakeRequestHash_ Hash unique for each stake request.\n     */\n    function requestStake(\n        uint256 _stakeVT,\n        uint256 _mintBT,\n        address _gateway,\n        address _beneficiary,\n        uint256 _gasPrice,\n        uint256 _gasLimit,\n        uint256 _nonce\n    )\n        external\n        onlyOwner\n        mutex\n        returns (bytes32 stakeRequestHash_)\n    {\n        require(\n            _stakeVT > uint256(0),\n            \"Stake amount is zero.\"\n        );\n        require(\n            _mintBT == brandedToken.convertToBrandedTokens(_stakeVT),\n            \"_mintBT should match converted _stakeVT.\"\n        );\n        require(\n            _gateway != address(0),\n            \"Gateway address is zero.\"\n        );\n        require(\n            owner != _gateway,\n            \"Gateway address is same as owner address.\"\n        );\n        require(\n            _beneficiary != address(0),\n            \"Beneficiary address is zero.\"\n        );\n        require(\n            valueToken.transferFrom(msg.sender, address(this), _stakeVT),\n            \"ValueToken transferFrom returned false.\"\n        );\n        require(\n            valueToken.approve(address(brandedToken), _stakeVT),\n            \"ValueToken approve returned false.\"\n        );\n\n        stakeRequestHash_ = brandedToken.requestStake(_stakeVT, _mintBT);\n\n        // mintBT is not stored because that uses significantly more gas than recalculation\n        stakeRequests[stakeRequestHash_] = StakeRequest({\n            stakeVT: _stakeVT,\n            gateway: _gateway,\n            beneficiary: _beneficiary,\n            gasPrice: _gasPrice,\n            gasLimit: _gasLimit,\n            nonce: _nonce\n        });\n    }\n\n    /**\n     * @notice Approves Gateway for the minted BTs, calls Gateway.stake after\n     *         BrandedToken.acceptStakeRequest execution is successful.\n     *\n     * @dev Function requires:\n     *          - stake request hash is valid\n     *          - successful execution of ValueToken transferFrom\n     *          - successful execution of ValueToken approve\n     *          - BrandedToken.acceptStakeRequest execution is successful\n     *          - successful execution of BrandedToken approve\n     *\n     *      As per requirement bounty token currency is same as valueToken.\n     *      Bounty flow:\n     *          - facilitator approves GatewayComposer for base tokens as bounty\n     *          - GatewayComposer approves Gateway for the bounty\n     *\n     * @param _stakeRequestHash Unique hash for each stake request.\n     * @param _r R of the signature.\n     * @param _s S of the signature.\n     * @param _v V of the signature.\n     * @param _hashLock Hash lock provided by the facilitator.\n     *\n     * @return messageHash_ Message hash unique for each stake request.\n     */\n    function acceptStakeRequest(\n        bytes32 _stakeRequestHash,\n        bytes32 _r,\n        bytes32 _s,\n        uint8 _v,\n        bytes32 _hashLock\n    )\n        external\n        returns (bytes32 messageHash_)\n    {\n        StakeRequest memory stakeRequest = stakeRequests[_stakeRequestHash];\n\n        delete stakeRequests[_stakeRequestHash];\n\n        require(\n            stakeRequest.stakeVT > uint256(0),\n            \"Stake request not found.\"\n        );\n\n        uint256 bounty = GatewayInterface(stakeRequest.gateway).bounty();\n        require(\n            valueToken.transferFrom(msg.sender, address(this), bounty),\n            \"ValueToken transferFrom returned false.\"\n        );\n        require(\n            valueToken.approve(stakeRequest.gateway, bounty),\n            \"ValueToken approve returned false.\"\n        );\n\n        require(\n            brandedToken.acceptStakeRequest(\n                _stakeRequestHash,\n                _r,\n                _s,\n                _v\n            ),\n            \"BrandedToken acceptStakeRequest returned false.\"\n        );\n\n        // mintBT is recalculated because that uses significantly less gas than storage\n        uint256 mintBT = brandedToken.convertToBrandedTokens(\n            stakeRequest.stakeVT\n        );\n\n        require(\n            brandedToken.approve(stakeRequest.gateway, mintBT),\n            \"BrandedToken approve returned false.\"\n        );\n\n        messageHash_ = GatewayInterface(stakeRequest.gateway).stake(\n            mintBT,\n            stakeRequest.beneficiary,\n            stakeRequest.gasPrice,\n            stakeRequest.gasLimit,\n            stakeRequest.nonce,\n            _hashLock\n        );\n    }\n\n    /**\n     * @notice Revokes stake request by calling BrandedToken.revokeStakeRequest()\n     *         and deleting information.\n     *\n     * @dev Function requires:\n     *          - stake request hash is valid\n     *          - BrandedToken.revokeStakeRequest() should return true\n     *          - ValueToken.transfer() should return true\n     *\n     *      The method is called after calling requestStake. In this flow\n     *      locked ValueToken is transferred to owner. Transfer is done for\n     *      convenience. This way extra step of calling transferToken is\n     *      avoided.\n     *\n     * @param _stakeRequestHash Stake request hash.\n     *\n     * @return success_ True on successful execution.\n     */\n    function revokeStakeRequest(\n        bytes32 _stakeRequestHash\n    )\n        external\n        onlyOwner\n        returns (bool success_)\n    {\n        StakeRequest memory stakeRequest = stakeRequests[_stakeRequestHash];\n\n        delete stakeRequests[_stakeRequestHash];\n\n        require(\n            stakeRequest.stakeVT > uint256(0),\n            \"Stake request not found.\"\n        );\n        require(\n            brandedToken.revokeStakeRequest(_stakeRequestHash),\n            \"BrandedToken revokeStakeRequest returned false.\"\n        );\n        require(\n            valueToken.transfer(owner, stakeRequest.stakeVT),\n            \"ValueToken transfer returned false.\"\n        );\n\n        success_ = true;\n    }\n\n    /**\n     * @notice Transfers EIP20 token to destination address.\n     *\n     * @dev Function requires:\n     *          - msg.sender should be owner\n     *          - EIP20 token address should not be zero\n     *          - token.transfer() execution should be successful\n     *\n     * @param _token EIP20 token address.\n     * @param _to Address to which tokens are transferred.\n     * @param _value Amount of tokens to be transferred.\n     *\n     * @return success_ True on successful execution.\n     */\n    function transferToken(\n        EIP20Interface _token,\n        address _to,\n        uint256 _value\n    )\n        external\n        onlyOwner\n        returns (bool success_)\n    {\n        require(\n            address(_token) != address(0),\n            \"EIP20 token address is zero.\"\n        );\n        require(\n            _token.transfer(_to, _value),\n            \"EIP20Token transfer returned false.\"\n        );\n\n        success_ = true;\n    }\n\n    /**\n     * @notice Approves EIP20 token to spender address.\n     *\n     * @dev Function requires:\n     *          - msg.sender should be owner\n     *          - EIP20 token address should not be zero\n     *          - token.approve() execution should be successful\n     *\n     * @param _token EIP20 token address.\n     * @param _spender Address authorized to spend from the function caller's\n     *                 address.\n     * @param _value Amount up to which spender is authorized to spend.\n     *\n     * @return success_ True on successful execution.\n     */\n    function approveToken(\n        EIP20Interface _token,\n        address _spender,\n        uint256 _value\n    )\n        external\n        onlyOwner\n        returns (bool success_)\n    {\n        require(\n            address(_token) != address(0),\n            \"EIP20 token address is zero.\"\n        );\n        require(\n            _token.approve(_spender, _value),\n            \"EIP20token approve returned false.\"\n        );\n\n        success_ = true;\n    }\n\n    /**\n     * @notice Remove storage & code from blockchain.\n     *\n     * @dev Function requires:\n     *          - ValueToken balance should be 0\n     *          - BrandedToken balance should be 0\n     *          - There should not be any in progress stake requests\n     *\n     *      BrandedToken contract has mapping stakeRequestHashes which stores\n     *      staker vs stakeRequestHash data. In progress stake requests are\n     *      validated by doing lookup into the stakeRequestHashes mapping.\n     */\n    function destroy()\n        external\n        onlyOwner\n    {\n        require(\n            valueToken.balanceOf(address(this)) == 0,\n            \"ValueToken balance should be 0.\"\n        );\n        require(\n            brandedToken.balanceOf(address(this)) == 0,\n            \"BrandedToken balance should be 0.\"\n        );\n        require(\n            brandedToken.stakeRequestHashes(address(this)) == bytes32(0),\n            \"In progress stake requests are present.\"\n        );\n\n        selfdestruct(msg.sender);\n    }\n\n    /**\n     * @notice Transfers value tokens to itself to pay the revert penalty,\n     *         approves Gateway to transfer the value tokens for the penalty,\n     *         and calls Gateway.revertStake.\n     *\n     * @dev Function requires:\n     *          - msg.sender is owner\n     *          - Gateway address can't be zero\n     *          - Gateway address should not be equal to owner address\n     *          - successful execution of ValueToken transferFrom\n     *          - successful execution of ValueToken approve\n     *\n     *      As per requirement, penalty is paid in valueToken.\n     *      Penalty flow:\n     *          - staker approves GatewayComposer for value tokens as penalty\n     *          - GatewayComposer approves Gateway for the penalty\n     *\n     * @param _gateway Gateway contract address.\n     * @param _penalty Amount to pay to revert stake.\n     * @param _messageHash Message hash unique for each stake request.\n     *\n     * @return success_ True on successful execution.\n     */\n    function revertStake(\n        address _gateway,\n        uint256 _penalty,\n        bytes32 _messageHash\n    )\n        external\n        onlyOwner\n        returns (bool success_)\n    {\n        require(\n            _gateway != address(0),\n            \"Gateway address is zero.\"\n        );\n        require(\n            owner != _gateway,\n            \"Gateway address is same as owner address.\"\n        );\n        require(\n            valueToken.transferFrom(msg.sender, address(this), _penalty),\n            \"ValueToken transferFrom returned false.\"\n        );\n        require(\n            valueToken.approve(_gateway, _penalty),\n            \"ValueToken approve returned false.\"\n        );\n\n        GatewayInterface(_gateway).revertStake(_messageHash);\n\n        return true;\n    }\n}\n",
  "sourcePath": "/Users/OST/Documents/dj/ost-opt-contracts/contracts/brandedtoken-contracts/contracts/GatewayComposer.sol",
  "compiler": {
    "name": "solc",
    "version": "0.5.16+commit.9c3226ce.Emscripten.clang"
  },
  "schemaVersion": "3.0.21",
  "updatedAt": "2020-01-21T06:45:53.831Z",
  "devdoc": {
    "methods": {
      "acceptStakeRequest(bytes32,bytes32,bytes32,uint8,bytes32)": {
        "details": "Function requires:         - stake request hash is valid         - successful execution of ValueToken transferFrom         - successful execution of ValueToken approve         - BrandedToken.acceptStakeRequest execution is successful         - successful execution of BrandedToken approve     *      As per requirement bounty token currency is same as valueToken.     Bounty flow:         - facilitator approves GatewayComposer for base tokens as bounty         - GatewayComposer approves Gateway for the bounty",
        "params": {
          "_hashLock": "Hash lock provided by the facilitator.",
          "_r": "R of the signature.",
          "_s": "S of the signature.",
          "_stakeRequestHash": "Unique hash for each stake request.",
          "_v": "V of the signature."
        },
        "return": "messageHash_ Message hash unique for each stake request."
      },
      "approveToken(address,address,uint256)": {
        "details": "Function requires:         - msg.sender should be owner         - EIP20 token address should not be zero         - token.approve() execution should be successful",
        "params": {
          "_spender": "Address authorized to spend from the function caller's                address.",
          "_token": "EIP20 token address.",
          "_value": "Amount up to which spender is authorized to spend."
        },
        "return": "success_ True on successful execution."
      },
      "constructor": {
        "details": "Function requires:         - owner address should not be zero         - ValueToken address should not be zero         - BrandedToken address should not be zero         - ValueToken address should not be equal to owner address         - BrandedToken address should not be equal to owner address         - ValueToken address should be equal to BrandedToken.valueToken()",
        "params": {
          "_brandedToken": "It's a value backed minted EIP20Token.",
          "_owner": "Address of the staker on the value chain.",
          "_valueToken": "EIP20Token which is staked."
        }
      },
      "destroy()": {
        "details": "Function requires:         - ValueToken balance should be 0         - BrandedToken balance should be 0         - There should not be any in progress stake requests     *      BrandedToken contract has mapping stakeRequestHashes which stores     staker vs stakeRequestHash data. In progress stake requests are     validated by doing lookup into the stakeRequestHashes mapping."
      },
      "requestStake(uint256,uint256,address,address,uint256,uint256,uint256)": {
        "details": "Function requires:         - stakeVT can't be 0         - mintBT amount and converted stakeVT amount should be equal         - gateway address can't be zero         - Gateway address should not be equal to owner address         - beneficiary address can't be zero         - successful execution of ValueToken transfer         - successful execution of ValueToken approve     *      stakeVT can't be 0 because gateway.stake also doesn't allow 0 stake     amount. This condition also helps in validation of in progress     stake requests. See acceptStakeRequest for details.     *      mintBT is not stored in StakeRequest struct as there was     significant gas cost difference between storage vs dynamic     evaluation from BrandedToken convert function.",
        "params": {
          "_beneficiary": "The address in the auxiliary chain where the utility                    tokens will be minted.",
          "_gasLimit": "Gas limit that staker is ready to pay.",
          "_gasPrice": "Gas price that staker is ready to pay to get the stake                 and mint process done.",
          "_gateway": "Gateway contract address.",
          "_mintBT": "Amount of BrandedToken amount which will be minted.",
          "_nonce": "Nonce of the staker address. It can be obtained from              Gateway.getNonce() method.",
          "_stakeVT": "ValueToken amount which is staked."
        },
        "return": "stakeRequestHash_ Hash unique for each stake request."
      },
      "revertStake(address,uint256,bytes32)": {
        "details": "Function requires:         - msg.sender is owner         - Gateway address can't be zero         - Gateway address should not be equal to owner address         - successful execution of ValueToken transferFrom         - successful execution of ValueToken approve     *      As per requirement, penalty is paid in valueToken.     Penalty flow:         - staker approves GatewayComposer for value tokens as penalty         - GatewayComposer approves Gateway for the penalty",
        "params": {
          "_gateway": "Gateway contract address.",
          "_messageHash": "Message hash unique for each stake request.",
          "_penalty": "Amount to pay to revert stake."
        },
        "return": "success_ True on successful execution."
      },
      "revokeStakeRequest(bytes32)": {
        "details": "Function requires:         - stake request hash is valid         - BrandedToken.revokeStakeRequest() should return true         - ValueToken.transfer() should return true     *      The method is called after calling requestStake. In this flow     locked ValueToken is transferred to owner. Transfer is done for     convenience. This way extra step of calling transferToken is     avoided.",
        "params": {
          "_stakeRequestHash": "Stake request hash."
        },
        "return": "success_ True on successful execution."
      },
      "transferToken(address,address,uint256)": {
        "details": "Function requires:         - msg.sender should be owner         - EIP20 token address should not be zero         - token.transfer() execution should be successful",
        "params": {
          "_to": "Address to which tokens are transferred.",
          "_token": "EIP20 token address.",
          "_value": "Amount of tokens to be transferred."
        },
        "return": "success_ True on successful execution."
      }
    },
    "title": "GatewayComposer contract."
  },
  "userdoc": {
    "methods": {
      "acceptStakeRequest(bytes32,bytes32,bytes32,uint8,bytes32)": {
        "notice": "Approves Gateway for the minted BTs, calls Gateway.stake after        BrandedToken.acceptStakeRequest execution is successful."
      },
      "approveToken(address,address,uint256)": {
        "notice": "Approves EIP20 token to spender address."
      },
      "constructor": "Contract constructor.",
      "destroy()": {
        "notice": "Remove storage & code from blockchain."
      },
      "requestStake(uint256,uint256,address,address,uint256,uint256,uint256)": {
        "notice": "Transfers value tokens from msg.sender to itself after staker        approves GatewayComposer, approves BrandedToken for value tokens        and calls BrandedToken.requestStake function."
      },
      "revertStake(address,uint256,bytes32)": {
        "notice": "Transfers value tokens to itself to pay the revert penalty,        approves Gateway to transfer the value tokens for the penalty,        and calls Gateway.revertStake."
      },
      "revokeStakeRequest(bytes32)": {
        "notice": "Revokes stake request by calling BrandedToken.revokeStakeRequest()        and deleting information."
      },
      "transferToken(address,address,uint256)": {
        "notice": "Transfers EIP20 token to destination address."
      }
    },
    "notice": "GatewayComposer is a composition contract which can be used to        optimise the UX flow of the user where the user intends to perform        a single combined action."
  }
}