{
  "contractName": "GnosisSafeModuleManagerSpy",
  "abi": [
    {
      "anonymous": false,
      "inputs": [
        {
          "indexed": false,
          "internalType": "address",
          "name": "_contractAddress",
          "type": "address"
        }
      ],
      "name": "DelayedRecoveryModuleCreated",
      "type": "event"
    },
    {
      "constant": true,
      "inputs": [],
      "name": "recordedData",
      "outputs": [
        {
          "internalType": "bytes",
          "name": "",
          "type": "bytes"
        }
      ],
      "payable": false,
      "stateMutability": "view",
      "type": "function"
    },
    {
      "constant": true,
      "inputs": [],
      "name": "recordedOperation",
      "outputs": [
        {
          "internalType": "enum GnosisSafeModuleManagerInterface.Operation",
          "name": "",
          "type": "uint8"
        }
      ],
      "payable": false,
      "stateMutability": "view",
      "type": "function"
    },
    {
      "constant": true,
      "inputs": [],
      "name": "recordedTo",
      "outputs": [
        {
          "internalType": "address",
          "name": "",
          "type": "address"
        }
      ],
      "payable": false,
      "stateMutability": "view",
      "type": "function"
    },
    {
      "constant": true,
      "inputs": [],
      "name": "recordedValue",
      "outputs": [
        {
          "internalType": "uint256",
          "name": "",
          "type": "uint256"
        }
      ],
      "payable": false,
      "stateMutability": "view",
      "type": "function"
    },
    {
      "constant": false,
      "inputs": [],
      "name": "makeFail",
      "outputs": [],
      "payable": false,
      "stateMutability": "nonpayable",
      "type": "function"
    },
    {
      "constant": false,
      "inputs": [
        {
          "internalType": "address",
          "name": "_recoveryOwner",
          "type": "address"
        },
        {
          "internalType": "address",
          "name": "_recoveryController",
          "type": "address"
        },
        {
          "internalType": "uint256",
          "name": "_recoveryBlockDelay",
          "type": "uint256"
        }
      ],
      "name": "createDelayedRecoveryModule",
      "outputs": [
        {
          "internalType": "contract DelayedRecoveryModule",
          "name": "",
          "type": "address"
        }
      ],
      "payable": false,
      "stateMutability": "nonpayable",
      "type": "function"
    },
    {
      "constant": false,
      "inputs": [
        {
          "internalType": "address",
          "name": "_to",
          "type": "address"
        },
        {
          "internalType": "uint256",
          "name": "_value",
          "type": "uint256"
        },
        {
          "internalType": "bytes",
          "name": "_data",
          "type": "bytes"
        },
        {
          "internalType": "enum GnosisSafeModuleManagerInterface.Operation",
          "name": "_operation",
          "type": "uint8"
        }
      ],
      "name": "execTransactionFromModule",
      "outputs": [
        {
          "internalType": "bool",
          "name": "success_",
          "type": "bool"
        }
      ],
      "payable": false,
      "stateMutability": "nonpayable",
      "type": "function"
    }
  ],
  "bytecode": "0x608060405234801561001057600080fd5b5061196a806100206000396000f3fe608060405234801561001057600080fd5b506004361061007d5760003560e01c80638ed6a1e41161005b5780638ed6a1e41461016e578063a50dbdd414610188578063d985b948146101be578063f1d1cdf4146101c85761007d565b8063260035a914610082578063468721a7146100a65780634dc2c47f14610142575b600080fd5b61008a610245565b604080516001600160a01b039092168252519081900360200190f35b61012e600480360360808110156100bc57600080fd5b6001600160a01b03823516916020810135918101906060810160408201356401000000008111156100ec57600080fd5b8201836020820111156100fe57600080fd5b8035906020019184600183028401116401000000008311171561012057600080fd5b91935091503560ff16610259565b604080519115158252519081900360200190f35b61014a6102ba565b6040518082600281111561015a57fe5b60ff16815260200191505060405180910390f35b6101766102c3565b60408051918252519081900360200190f35b61008a6004803603606081101561019e57600080fd5b506001600160a01b038135811691602081013590911690604001356102c9565b6101c66103af565b005b6101d06103be565b6040805160208082528351818301528351919283929083019185019080838360005b8381101561020a5781810151838201526020016101f2565b50505050905090810190601f1680156102375780820380516001836020036101000a031916815260200191505b509250505060405180910390f35b60005461010090046001600160a01b031681565b60008054610100600160a81b0319166101006001600160a01b03881602178155600185905561028a60028585610449565b506003805483919060ff191660018360028111156102a457fe5b02179055505060005460ff161595945050505050565b60035460ff1681565b60015481565b6000806040516102d8906104c7565b604051809103906000f0801580156102f4573d6000803e3d6000fd5b50604080516365f2031160e11b81526001600160a01b03888116600483015287811660248301526044820187905291519293509083169163cbe406229160648082019260009290919082900301818387803b15801561035257600080fd5b505af1158015610366573d6000803e3d6000fd5b5050604080516001600160a01b038516815290517faa7a57ec90369f6e022b74c28146317d5901229aa369e313f4d7af12899c4ac49350908190036020019150a1949350505050565b6000805460ff19166001179055565b6002805460408051602060018416156101000260001901909316849004601f810184900484028201840190925281815292918301828280156104415780601f1061041657610100808354040283529160200191610441565b820191906000526020600020905b81548152906001019060200180831161042457829003601f168201915b505050505081565b828054600181600116156101000203166002900490600052602060002090601f016020900481019282601f1061048a5782800160ff198235161785556104b7565b828001600101855582156104b7579182015b828111156104b757823582559160200191906001019061049c565b506104c39291506104d4565b5090565b611444806104f283390190565b6104ee91905b808211156104c357600081556001016104da565b9056fe608060405234801561001057600080fd5b50611424806100206000396000f3fe608060405234801561001057600080fd5b50600436106101165760003560e01c80637ded0af7116100a2578063bde4459011610071578063bde4459014610378578063cbe4062214610380578063f48da475146103b6578063f698da25146103be578063ffa1ad74146103c657610116565b80637ded0af71461029f5780638583c7c0146102a757806389314174146102af578063a3f4df7e146102fb57610116565b80633811b109116100e95780633811b10914610182578063481c6a75146101bf57806365ae42ae146101e3578063698eb6681461021b5780637525c3461461025357610116565b806307218f431461011b5780631db61b54146101355780631de52d4e1461013d578063363893ae14610145575b600080fd5b6101236103ce565b60408051918252519081900360200190f35b6101236103e9565b610123610404565b61014d61041f565b604080516001600160a01b03958616815293851660208501529190931682820152606082019290925290519081900360800190f35b6101bd6004803603608081101561019857600080fd5b5080356001600160a01b0316906020810135906040810135906060013560ff16610442565b005b6101c761055d565b604080516001600160a01b039092168252519081900360200190f35b6101bd600480360360608110156101f957600080fd5b506001600160a01b03813581169160208101358216916040909101351661056c565b6101bd6004803603606081101561023157600080fd5b506001600160a01b038135811691602081013582169160409091013516610709565b6101bd600480360360c081101561026957600080fd5b5080356001600160a01b039081169160208101358216916040820135169060608101359060808101359060a0013560ff16610a86565b610123610c12565b6101c7610c2d565b6101bd600480360360c08110156102c557600080fd5b5080356001600160a01b039081169160208101358216916040820135169060608101359060808101359060a0013560ff16610c3c565b610303610db9565b6040805160208082528351818301528351919283929083019185019080838360005b8381101561033d578181015183820152602001610325565b50505050905090810190601f16801561036a5780820380516001836020036101000a031916815260200191505b509250505060405180910390f35b610123610df2565b6101bd6004803603606081101561039657600080fd5b506001600160a01b03813581169160208101359091169060400135610df8565b6101c7610f96565b610123610fa5565b610303610fab565b60405180604b6111bc8239604b019050604051809103902081565b60405180602761119582396027019050604051809103902081565b60405180604b61129f8239604b019050604051809103902081565b6006546007546008546009546001600160a01b0393841693928316929091169084565b6003546001600160a01b0316331461048b5760405162461bcd60e51b815260040180806020018281038252602c81526020018061122c602c913960400191505060405180910390fd5b6001600160a01b0384166104d05760405162461bcd60e51b81526004018080602001828103825260258152602001806112076025913960400191505060405180910390fd5b6004546000906104e9906001600160a01b031686610fcc565b90506104f781858585611037565b600480546001600160a01b038781166001600160a01b0319831617928390556040805192821680845293909116602083015280517f694d34d730078c03a64a5c5937027a85a71f3631085fb14efebcefba0f1200ad9281900390910190a1505050505050565b6001546001600160a01b031681565b6003546001600160a01b031633146105b55760405162461bcd60e51b815260040180806020018281038252602c81526020018061122c602c913960400191505060405180910390fd5b600954610609576040805162461bcd60e51b815260206004820152601c60248201527f5468657265206973206e6f20616374697665207265636f766572792e00000000604482015290519081900360640190fd5b6006548390839083906001600160a01b03808516911614801561063957506007546001600160a01b038381169116145b801561065257506008546001600160a01b038281169116145b61068d5760405162461bcd60e51b81526004018080602001828103825260408152602001806113686040913960400191505060405180910390fd5b600680546001600160a01b031990811690915560078054821690556008805490911690556000600955604080516001600160a01b038881168252878116602083015286168183015290517f7789739c172389f440865a4d26a746e433bc23a4058077237b7c8cf47a9a18bb9181900360600190a1505050505050565b6003546001600160a01b031633146107525760405162461bcd60e51b815260040180806020018281038252602c81526020018061122c602c913960400191505060405180910390fd5b6009546107a6576040805162461bcd60e51b815260206004820152601c60248201527f5468657265206973206e6f20616374697665207265636f766572792e00000000604482015290519081900360640190fd5b6006548390839083906001600160a01b0380851691161480156107d657506007546001600160a01b038381169116145b80156107ef57506008546001600160a01b038281169116145b61082a5760405162461bcd60e51b81526004018080602001828103825260408152602001806113686040913960400191505060405180910390fd5b600954431161086a5760405162461bcd60e51b81526004018080602001828103825260388152602001806112ea6038913960400191505060405180910390fd5b600680546001600160a01b0319908116909155600780548216905560088054909116905560006009819055604080516001600160a01b03898116602480840191909152898216604480850191909152898316606480860191909152855180860382018152608490950186526020850180516001600160e01b031663e318b52b60e01b179052600154955163468721a760e01b815295909316600486018181529286018790529395939463468721a7948694909388938593919290820191018360ff168152602001828103825284818151815260200191508051906020019080838360005b8381101561096657818101518382015260200161094e565b50505050905090810190601f1680156109935780820380516001836020036101000a031916815260200191505b5095505050505050602060405180830381600087803b1580156109b557600080fd5b505af11580156109c9573d6000803e3d6000fd5b505050506040513d60208110156109df57600080fd5b5051610a32576040805162461bcd60e51b815260206004820152601a60248201527f5265636f7665727920657865637574696f6e206661696c65642e000000000000604482015290519081900360640190fd5b604080516001600160a01b03808a168252808916602083015287168183015290517f39a93e422776c9b292c4617cb75d1f0bb8e528c2c06ea7cbc10cd233793a4f859181900360600190a150505050505050565b600954610ada576040805162461bcd60e51b815260206004820152601c60248201527f5468657265206973206e6f20616374697665207265636f766572792e00000000604482015290519081900360640190fd5b6006548690869086906001600160a01b038085169116148015610b0a57506007546001600160a01b038381169116145b8015610b2357506008546001600160a01b038281169116145b610b5e5760405162461bcd60e51b81526004018080602001828103825260408152602001806113686040913960400191505060405180910390fd5b6000610b8460405180806113a860489139604801905060405180910390208b8b8b6110f2565b9050610b9281888888611037565b600680546001600160a01b031990811690915560078054821690556008805490911690556000600955604080516001600160a01b038c811682528b811660208301528a168183015290517f7789739c172389f440865a4d26a746e433bc23a4058077237b7c8cf47a9a18bb9181900360600190a150505050505050505050565b6040518060486113a882396048019050604051809103902081565b6004546001600160a01b031681565b6003546001600160a01b03163314610c855760405162461bcd60e51b815260040180806020018281038252602c81526020018061122c602c913960400191505060405180910390fd5b60095415610cda576040805162461bcd60e51b815260206004820152601c60248201527f546865726520697320616e20616374697665207265636f766572792e00000000604482015290519081900360640190fd5b6000610d0060405180806111bc604b9139604b01905060405180910390208888886110f2565b9050610d0e81858585611037565b604080516080810182526001600160a01b03808a168083528982166020808501829052928a1684860181905260055443016060958601819052600680546001600160a01b031990811686179091556007805482168517905560088054909116831790556009558551928352928201528084019190915291517f984ae6bb7fc6ec202143bd903c70af8408ed9b154ef3e4cfe78e47a90ebbe2e49281900390910190a150505050505050565b6040518060400160405280601781526020017f44656c61796564205265636f76657279204d6f64756c6500000000000000000081525081565b60055481565b60025415610e375760405162461bcd60e51b815260040180806020018281038252602181526020018061127e6021913960400191505060405180910390fd5b6001600160a01b038316610e7c5760405162461bcd60e51b81526004018080602001828103825260218152602001806113476021913960400191505060405180910390fd5b6001600160a01b038216610ec15760405162461bcd60e51b81526004018080602001828103825260268152602001806112586026913960400191505060405180910390fd5b60008111610f16576040805162461bcd60e51b815260206004820152601a60248201527f5265636f7665727920626c6f636b2064656c617920697320302e000000000000604482015290519081900360640190fd5b60405180602761119582396040805191829003602701822060208084019190915230838301528151808403830181526060909301909152815191012060025550600180546001600160a01b03199081163317909155600480546001600160a01b039586169083161790556003805493909416921691909117909155600555565b6003546001600160a01b031681565b60025481565b604051806040016040528060058152602001640302e312e360dc1b81525081565b600080604051808061129f604b91396040805191829003604b0182206020808401919091526001600160a01b038089168484015287166060808501919091528251808503909101815260809093019091528151910120915061102f90508161114d565b949350505050565b6004546040805160008152602080820180845288905260ff851682840152606082018790526080820186905291516001600160a01b039093169260019260a0808401939192601f1981019281900390910190855afa15801561109d573d6000803e3d6000fd5b505050602060405103516001600160a01b0316146110ec5760405162461bcd60e51b81526004018080602001828103825260258152602001806113226025913960400191505060405180910390fd5b50505050565b6040805160208082018790526001600160a01b0380871683850152808616606084015284166080808401919091528351808403909101815260a090920190925280519101206000906111438161114d565b9695505050505050565b60025460408051601960f81b602080830191909152600160f81b6021830152602282019390935260428082019490945281518082039094018452606201905281519101209056fe454950373132446f6d61696e286164647265737320766572696679696e67436f6e747261637429496e6974696174655265636f76657279537472756374286164647265737320707265764f776e65722c61646472657373206f6c644f776e65722c61646472657373206e65774f776e6572294e6577207265636f76657279206f776e657227732061646472657373206973206e756c6c2e4f6e6c79207265636f7665727920636f6e74726f6c6c657220697320616c6c6f77656420746f2063616c6c2e5265636f7665727920636f6e74726f6c6c657227732061646472657373206973206e756c6c2e446f6d61696e20736570617261746f722077617320616c7265616479207365742e52657365745265636f766572794f776e65725374727563742861646472657373206f6c645265636f766572794f776e65722c61646472657373206e65775265636f766572794f776e6572295265717569726564206e756d626572206f6620626c6f636b7320746f207265636f76657220776173206e6f742070726f677265737365642e496e76616c6964207369676e617475726520666f72207265636f76657279206f776e65722e5265636f76657279206f776e657227732061646472657373206973206e756c6c2e54686520657865637574696f6e20726571756573742773206461746120646f6573206e6f74206d6174636820776974682074686520616374697665206f6e652e41626f72745265636f76657279537472756374286164647265737320707265764f776e65722c61646472657373206f6c644f776e65722c61646472657373206e65774f776e657229a265627a7a72315820adf9a107cd1a2a980b81a92c1bdef93c7d3e246c8fffc0282abf7fd398ac632064736f6c63430005100032a265627a7a723158202d5aa9746c79f1d7a0131b4c6a4bfef5e26bcf92c54695f4ea292369936ab83464736f6c63430005100032",
  "source": "pragma solidity ^0.5.0;\n\n// Copyright 2019 OpenST Ltd.\n//\n// Licensed under the Apache License, Version 2.0 (the \"License\");\n// you may not use this file except in compliance with the License.\n// You may obtain a copy of the License at\n//\n//    http://www.apache.org/licenses/LICENSE-2.0\n//\n// Unless required by applicable law or agreed to in writing, software\n// distributed under the License is distributed on an \"AS IS\" BASIS,\n// WITHOUT WARRANTIES OR CONDITIONS OF ANY KIND, either express or implied.\n// See the License for the specific language governing permissions and\n// limitations under the License.\n\nimport \"../../../gnosis_safe_modules/GnosisSafeModuleManagerInterface.sol\";\nimport \"../../../gnosis_safe_modules/DelayedRecoveryModule.sol\";\n\ncontract GnosisSafeModuleManagerSpy is GnosisSafeModuleManagerInterface\n{\n    /* Events */\n\n    event DelayedRecoveryModuleCreated(address _contractAddress);\n\n\n    /* Storage */\n\n    bool shouldExecutionFail;\n\n    address public recordedTo;\n\n    uint256 public recordedValue;\n\n    bytes public recordedData;\n\n    Operation public recordedOperation;\n\n\n    /* External Functions */\n\n    function makeFail()\n        external\n    {\n        shouldExecutionFail = true;\n    }\n\n    function createDelayedRecoveryModule(\n        address _recoveryOwner,\n        address _recoveryController,\n        uint256 _recoveryBlockDelay\n    )\n        external\n        returns (DelayedRecoveryModule)\n    {\n        DelayedRecoveryModule module = new DelayedRecoveryModule();\n        module.setup(\n            _recoveryOwner,\n            _recoveryController,\n            _recoveryBlockDelay\n        );\n\n        emit DelayedRecoveryModuleCreated(address(module));\n\n        return module;\n    }\n\n    /**\n     * @dev Allows a module to execute a Safe transaction without any\n     *      further confirmations.\n     *\n     * @param _to Destination address of module transaction.\n     * @param _value Ether value of module transaction.\n     * @param _data Data payload of module transaction.\n     * @param _operation Operation type of module transaction.\n     */\n    function execTransactionFromModule(\n        address _to,\n        uint256 _value,\n        bytes calldata _data,\n        Operation _operation\n    )\n        external\n        returns (bool success_)\n    {\n        recordedTo = _to;\n        recordedValue = _value;\n        recordedData = _data;\n        recordedOperation = _operation;\n\n        return !shouldExecutionFail;\n    }\n}\n",
  "sourcePath": "/Users/OST/Documents/dj/ost-opt-contracts/contracts/openst-contracts/contracts/test_doubles/unit_tests/gnosis_safe/GnosisSafeModuleManagerSpy.sol",
  "compiler": {
    "name": "solc",
    "version": "0.5.16+commit.9c3226ce.Emscripten.clang"
  },
  "schemaVersion": "3.0.21",
  "updatedAt": "2020-01-22T10:54:09.822Z",
  "devdoc": {
    "methods": {
      "execTransactionFromModule(address,uint256,bytes,uint8)": {
        "details": "Allows a module to execute a Safe transaction without any     further confirmations.",
        "params": {
          "_data": "Data payload of module transaction.",
          "_operation": "Operation type of module transaction.",
          "_to": "Destination address of module transaction.",
          "_value": "Ether value of module transaction."
        }
      }
    }
  },
  "userdoc": {
    "methods": {}
  }
}