{
  "contractName": "GnosisSafeModule",
  "abi": [
    {
      "constant": true,
      "inputs": [],
      "name": "manager",
      "outputs": [
        {
          "internalType": "contract GnosisSafeModuleManagerInterface",
          "name": "",
          "type": "address"
        }
      ],
      "payable": false,
      "stateMutability": "view",
      "type": "function"
    }
  ],
  "bytecode": "0x6080604052348015600f57600080fd5b5060938061001e6000396000f3fe6080604052348015600f57600080fd5b506004361060285760003560e01c8063481c6a7514602d575b600080fd5b6033604f565b604080516001600160a01b039092168252519081900360200190f35b6001546001600160a01b03168156fea265627a7a7231582034fe889beed98965997b857272df4d066213cd29ef58bfc631cd66f94fc1b28c64736f6c63430005100032",
  "source": "pragma solidity ^0.5.0;\n\n// Copyright 2019 OpenST Ltd.\n//\n// Licensed under the Apache License, Version 2.0 (the \"License\");\n// you may not use this file except in compliance with the License.\n// You may obtain a copy of the License at\n//\n//    http://www.apache.org/licenses/LICENSE-2.0\n//\n// Unless required by applicable law or agreed to in writing, software\n// distributed under the License is distributed on an \"AS IS\" BASIS,\n// WITHOUT WARRANTIES OR CONDITIONS OF ANY KIND, either express or implied.\n// See the License for the specific language governing permissions and\n// limitations under the License.\n\nimport \"../proxies/MasterCopyNonUpgradable.sol\";\nimport \"./GnosisSafeModuleManagerInterface.sol\";\n\n/**\n * @title Contract contains the required, public interface by\n *        gnosis/safe-contracts/contracts/base/Module.sol\n *\n * @dev Instead of inheriting from\n *      gnosis/safe-contracts/contracts/base/Module.sol and pulling all needed\n *      contracts by Module.sol into openst-contracts building process,\n *      we define this contract, that contains only required, public interface\n *      of Module.sol.\n *\n *      The current contract is non-upgradable in contrast to GnosisSafe\n *      Module contract.\n */\ncontract GnosisSafeModule is MasterCopyNonUpgradable\n{\n    /* Storage */\n\n    GnosisSafeModuleManagerInterface public manager;\n\n\n    /* Modifiers */\n\n    modifier authorized() {\n        require(\n            msg.sender == address(manager),\n            \"Method can only be called from manager\"\n        );\n\n        _;\n    }\n}",
  "sourcePath": "/Users/OST/Documents/dj/ost-opt-contracts/contracts/openst-contracts/contracts/gnosis_safe_modules/GnosisSafeModule.sol",
  "compiler": {
    "name": "solc",
    "version": "0.5.16+commit.9c3226ce.Emscripten.clang"
  },
  "schemaVersion": "3.0.21",
  "updatedAt": "2020-01-19T09:48:26.123Z",
  "devdoc": {
    "details": "Instead of inheriting from     gnosis/safe-contracts/contracts/base/Module.sol and pulling all needed     contracts by Module.sol into openst-contracts building process,     we define this contract, that contains only required, public interface     of Module.sol. *      The current contract is non-upgradable in contrast to GnosisSafe     Module contract.",
    "methods": {},
    "title": "Contract contains the required, public interface by       gnosis/safe-contracts/contracts/base/Module.sol"
  },
  "userdoc": {
    "methods": {}
  }
}