{
  "contractName": "MasterCopySpy",
  "abi": [
    {
      "inputs": [
        {
          "internalType": "uint256",
          "name": "_initialBalance",
          "type": "uint256"
        }
      ],
      "payable": false,
      "stateMutability": "nonpayable",
      "type": "constructor"
    },
    {
      "anonymous": false,
      "inputs": [
        {
          "indexed": false,
          "internalType": "address",
          "name": "_beneficiary",
          "type": "address"
        },
        {
          "indexed": false,
          "internalType": "uint256",
          "name": "_amount",
          "type": "uint256"
        }
      ],
      "name": "Payment",
      "type": "event"
    },
    {
      "constant": true,
      "inputs": [],
      "name": "recordedBeneficiary",
      "outputs": [
        {
          "internalType": "address",
          "name": "",
          "type": "address"
        }
      ],
      "payable": false,
      "stateMutability": "view",
      "type": "function"
    },
    {
      "constant": true,
      "inputs": [],
      "name": "recordedCurrencyCode",
      "outputs": [
        {
          "internalType": "uint8",
          "name": "",
          "type": "uint8"
        }
      ],
      "payable": false,
      "stateMutability": "view",
      "type": "function"
    },
    {
      "constant": true,
      "inputs": [],
      "name": "recordedMsgSender",
      "outputs": [
        {
          "internalType": "address",
          "name": "",
          "type": "address"
        }
      ],
      "payable": false,
      "stateMutability": "view",
      "type": "function"
    },
    {
      "constant": true,
      "inputs": [],
      "name": "recordedMsgValue",
      "outputs": [
        {
          "internalType": "uint256",
          "name": "",
          "type": "uint256"
        }
      ],
      "payable": false,
      "stateMutability": "view",
      "type": "function"
    },
    {
      "constant": true,
      "inputs": [],
      "name": "remainingBalance",
      "outputs": [
        {
          "internalType": "uint256",
          "name": "",
          "type": "uint256"
        }
      ],
      "payable": false,
      "stateMutability": "view",
      "type": "function"
    },
    {
      "constant": false,
      "inputs": [
        {
          "internalType": "uint256",
          "name": "_initialBalance",
          "type": "uint256"
        }
      ],
      "name": "setup",
      "outputs": [],
      "payable": false,
      "stateMutability": "nonpayable",
      "type": "function"
    },
    {
      "constant": false,
      "inputs": [
        {
          "internalType": "uint8",
          "name": "_currencyCode",
          "type": "uint8"
        },
        {
          "internalType": "address",
          "name": "_beneficiary",
          "type": "address"
        }
      ],
      "name": "pay",
      "outputs": [
        {
          "internalType": "uint256",
          "name": "",
          "type": "uint256"
        }
      ],
      "payable": true,
      "stateMutability": "payable",
      "type": "function"
    }
  ],
  "bytecode": "0x608060405234801561001057600080fd5b506040516103073803806103078339818101604052602081101561003357600080fd5b5051610047816001600160e01b0361004d16565b50610052565b600455565b6102a6806100616000396000f3fe60806040526004361061006f5760003560e01c80638c43bddb1161004e5780638c43bddb146100f8578063bd84e61814610127578063cc6bdda814610152578063da25de3c146101675761006f565b80627d527e146100745780634313b9e5146100a55780637a7423a9146100d1575b600080fd5b34801561008057600080fd5b5061008961017c565b604080516001600160a01b039092168252519081900360200190f35b3480156100b157600080fd5b506100cf600480360360208110156100c857600080fd5b503561018b565b005b3480156100dd57600080fd5b506100e6610190565b60408051918252519081900360200190f35b6100e66004803603604081101561010e57600080fd5b50803560ff1690602001356001600160a01b0316610196565b34801561013357600080fd5b5061013c610237565b6040805160ff9092168252519081900360200190f35b34801561015e57600080fd5b50610089610247565b34801561017357600080fd5b506100e6610256565b6002546001600160a01b031681565b600455565b60035481565b60018054336001600160a01b0319918216179091556002805460ff60a01b1916600160a01b60ff861602179091166001600160a01b0383161790553460038190556004546000916101e7919061025c565b600455604080516001600160a01b038416815234602082015281517fd4f43975feb89f48dd30cabbb32011045be187d1e11c8ea9faa43efc35282519929181900390910190a15060045492915050565b600254600160a01b900460ff1681565b6001546001600160a01b031681565b60045481565b60008282111561026b57600080fd5b5090039056fea265627a7a72315820623242c0c69ebfd3baa7528ce52965c23179234d87d2530987be8ad701fc634d64736f6c63430005100032",
  "source": "pragma solidity ^0.5.0;\n\n// Copyright 2019 OpenST Ltd.\n//\n// Licensed under the Apache License, Version 2.0 (the \"License\");\n// you may not use this file except in compliance with the License.\n// You may obtain a copy of the License at\n//\n//    http://www.apache.org/licenses/LICENSE-2.0\n//\n// Unless required by applicable law or agreed to in writing, software\n// distributed under the License is distributed on an \"AS IS\" BASIS,\n// WITHOUT WARRANTIES OR CONDITIONS OF ANY KIND, either express or implied.\n// See the License for the specific language governing permissions and\n// limitations under the License.\n\nimport \"openzeppelin-solidity/contracts/math/SafeMath.sol\";\nimport \"../../proxies/MasterCopyNonUpgradable.sol\";\n\n/**\n * @title A test double (spy) contract acting as a master copy for proxies\n *        during testing.\n *        Contract is a generic master copy implementation, that implements\n *        setup() function to initialize proxy's storage layout, records\n *        parameters, msg.value and msg.sender values once calling the pay()\n *        function to test validity afterwards.\n */\ncontract MasterCopySpy is MasterCopyNonUpgradable {\n\n    /* Usings */\n\n    using SafeMath for uint256;\n\n\n    /* Events */\n\n    event Payment(\n        address _beneficiary,\n        uint256 _amount\n    );\n\n\n    /* Storage */\n\n    address public recordedMsgSender;\n\n    address public recordedBeneficiary;\n\n    uint8 public recordedCurrencyCode;\n\n    uint256 public recordedMsgValue;\n\n    uint256 public remainingBalance;\n\n\n    /* Special Functions */\n\n    constructor(uint256 _initialBalance)\n        public\n    {\n        setup(_initialBalance);\n    }\n\n    function setup(uint256 _initialBalance)\n        public\n    {\n        remainingBalance = _initialBalance;\n    }\n\n\n    /* External Functions */\n\n    function pay(uint8 _currencyCode, address _beneficiary)\n        external\n        payable\n        returns (uint256)\n    {\n        recordedMsgSender = msg.sender;\n\n        recordedCurrencyCode = _currencyCode;\n\n        recordedBeneficiary = _beneficiary;\n\n        recordedMsgValue = msg.value;\n\n        remainingBalance = remainingBalance.sub(msg.value);\n\n        emit Payment(_beneficiary, msg.value);\n\n        return remainingBalance;\n    }\n}\n",
  "sourcePath": "/Users/OST/Documents/dj/ost-opt-contracts/contracts/openst-contracts/contracts/test_doubles/unit_tests/MasterCopySpy.sol",
  "compiler": {
    "name": "solc",
    "version": "0.5.16+commit.9c3226ce.Emscripten.clang"
  },
  "schemaVersion": "3.0.21",
  "updatedAt": "2020-01-19T09:48:26.141Z",
  "devdoc": {
    "methods": {},
    "title": "A test double (spy) contract acting as a master copy for proxies       during testing.       Contract is a generic master copy implementation, that implements       setup() function to initialize proxy's storage layout, records       parameters, msg.value and msg.sender values once calling the pay()       function to test validity afterwards."
  },
  "userdoc": {
    "methods": {}
  }
}