{
  "contractName": "MasterCopy",
  "abi": [
    {
      "constant": false,
      "inputs": [
        {
          "internalType": "address",
          "name": "_masterCopy",
          "type": "address"
        }
      ],
      "name": "changeMasterCopy",
      "outputs": [],
      "payable": false,
      "stateMutability": "nonpayable",
      "type": "function"
    }
  ],
  "bytecode": "0x608060405234801561001057600080fd5b50610182806100206000396000f3fe608060405234801561001057600080fd5b506004361061002b5760003560e01c80637de7edef14610030575b600080fd5b6100566004803603602081101561004657600080fd5b50356001600160a01b0316610058565b005b3330146100965760405162461bcd60e51b815260040180806020018281038252602c815260200180610122602c913960400191505060405180910390fd5b6001600160a01b0381166100db5760405162461bcd60e51b81526004018080602001828103825260248152602001806100fe6024913960400191505060405180910390fd5b600080546001600160a01b0319166001600160a01b039290921691909117905556fe496e76616c6964206d617374657220636f707920616464726573732070726f76696465644d6574686f642063616e206f6e6c792062652063616c6c65642066726f6d207468697320636f6e7472616374a265627a7a72315820c0675f6d0309ad82d5393182bb5ae822145e8a41bfd270c903ccef1f7f34cec964736f6c63430005100032",
  "source": "pragma solidity ^0.5.0;\nimport \"./SelfAuthorized.sol\";\n\n\n/// @title MasterCopy - Base for master copy contracts (should always be first super contract)\n/// @author Richard Meissner - <richard@gnosis.pm>\ncontract MasterCopy is SelfAuthorized {\n  // masterCopy always needs to be first declared variable, to ensure that it is at the same location as in the Proxy contract.\n  // It should also always be ensured that the address is stored alone (uses a full word)\n    address masterCopy;\n\n  /// @dev Allows to upgrade the contract. This can only be done via a Safe transaction.\n  /// @param _masterCopy New contract address.\n    function changeMasterCopy(address _masterCopy)\n        public\n        authorized\n    {\n        // Master copy address cannot be null.\n        require(_masterCopy != address(0), \"Invalid master copy address provided\");\n        masterCopy = _masterCopy;\n    }\n}\n",
  "sourcePath": "/Users/OST/Documents/dj/ost-opt-contracts/contracts/openst-contracts/external/gnosis/safe-contracts/contracts/common/MasterCopy.sol",
  "compiler": {
    "name": "solc",
    "version": "0.5.16+commit.9c3226ce.Emscripten.clang"
  },
  "schemaVersion": "3.0.21",
  "updatedAt": "2020-01-19T09:48:26.192Z",
  "devdoc": {
    "author": "Richard Meissner - <richard@gnosis.pm>",
    "methods": {
      "changeMasterCopy(address)": {
        "details": "Allows to upgrade the contract. This can only be done via a Safe transaction.",
        "params": {
          "_masterCopy": "New contract address."
        }
      }
    },
    "title": "MasterCopy - Base for master copy contracts (should always be first super contract)"
  },
  "userdoc": {
    "methods": {}
  }
}