{
  "contractName": "MockEIP20CoGateway",
  "abi": [
    {
      "constant": false,
      "inputs": [
        {
          "internalType": "address",
          "name": "_utilityToken",
          "type": "address"
        }
      ],
      "name": "setUtilityToken",
      "outputs": [],
      "payable": false,
      "stateMutability": "nonpayable",
      "type": "function"
    },
    {
      "constant": false,
      "inputs": [],
      "name": "utilityToken",
      "outputs": [
        {
          "internalType": "address",
          "name": "utilityToken_",
          "type": "address"
        }
      ],
      "payable": false,
      "stateMutability": "nonpayable",
      "type": "function"
    }
  ],
  "bytecode": "0x608060405234801561001057600080fd5b5060e48061001f6000396000f3fe6080604052348015600f57600080fd5b506004361060325760003560e01c80639013ae08146037578063ae86ed8914605c575b600080fd5b605a60048036036020811015604b57600080fd5b50356001600160a01b0316607e565b005b606260a0565b604080516001600160a01b039092168252519081900360200190f35b600080546001600160a01b0319166001600160a01b0392909216919091179055565b6000546001600160a01b03169056fea265627a7a7231582084968dc885c34fbefc2dfacdb7d2e887a578c8034ab8343d3ca5abb4d0aea3f164736f6c63430005100032",
  "source": "pragma solidity ^0.5.0;\n\n// Copyright 2019 OpenST Ltd.\n//\n// Licensed under the Apache License, Version 2.0 (the \"License\");\n// you may not use this file except in compliance with the License.\n// You may obtain a copy of the License at\n//\n//    http://www.apache.org/licenses/LICENSE-2.0\n//\n// Unless required by applicable law or agreed to in writing, software\n// distributed under the License is distributed on an \"AS IS\" BASIS,\n// WITHOUT WARRANTIES OR CONDITIONS OF ANY KIND, either express or implied.\n// See the License for the specific language governing permissions and\n// limitations under the License.\n//\n// ----------------------------------------------------------------------------\n//\n// http://www.simpletoken.org/\n//\n// ----------------------------------------------------------------------------\n\nimport \"../CoGatewayUtilityTokenInterface.sol\";\n\n/**\n * @title MockEIP20CoGateway contract.\n *\n * @notice This contract mocks the EIP20CoGateway. This is used only for testing.\n */\ncontract MockEIP20CoGateway is CoGatewayUtilityTokenInterface {\n\n    /** Stores the utility token address for testing. */\n    address private utilityTokenAddress;\n\n    /**\n     * @notice Set the utility token address for testing.\n     *\n     * @param _utilityToken Utility token address.\n     */\n    function setUtilityToken(address _utilityToken) external {\n        utilityTokenAddress = _utilityToken;\n    }\n\n    /**\n     * @notice Get the utility token address. This is mock function for testing.\n     *\n     * @return utilityToken_ Mocked utility token address\n     */\n    function utilityToken()\n        public\n        returns (address utilityToken_)\n    {\n        utilityToken_ = utilityTokenAddress;\n    }\n}\n",
  "sourcePath": "/Users/OST/Documents/dj/ost-opt-contracts/contracts/brandedtoken-contracts/contracts/utilitytoken/contracts/test/MockEIP20CoGateway.sol",
  "compiler": {
    "name": "solc",
    "version": "0.5.16+commit.9c3226ce.Emscripten.clang"
  },
  "schemaVersion": "3.0.21",
  "updatedAt": "2020-01-19T09:48:26.105Z",
  "devdoc": {
    "methods": {
      "setUtilityToken(address)": {
        "params": {
          "_utilityToken": "Utility token address."
        }
      },
      "utilityToken()": {
        "return": "utilityToken_ Mocked utility token address"
      }
    },
    "title": "MockEIP20CoGateway contract."
  },
  "userdoc": {
    "methods": {
      "setUtilityToken(address)": {
        "notice": "Set the utility token address for testing."
      },
      "utilityToken()": {
        "notice": "Get the utility token address. This is mock function for testing."
      }
    },
    "notice": "This contract mocks the EIP20CoGateway. This is used only for testing."
  }
}