{
  "contractName": "MockBrandedTokenFail",
  "abi": [
    {
      "inputs": [
        {
          "internalType": "contract EIP20Interface",
          "name": "_valueToken",
          "type": "address"
        },
        {
          "internalType": "string",
          "name": "_symbol",
          "type": "string"
        },
        {
          "internalType": "string",
          "name": "_name",
          "type": "string"
        },
        {
          "internalType": "uint8",
          "name": "_decimals",
          "type": "uint8"
        },
        {
          "internalType": "uint256",
          "name": "_conversionRate",
          "type": "uint256"
        },
        {
          "internalType": "uint8",
          "name": "_conversionRateDecimals",
          "type": "uint8"
        },
        {
          "internalType": "contract OrganizationInterface",
          "name": "_organization",
          "type": "address"
        }
      ],
      "payable": false,
      "stateMutability": "nonpayable",
      "type": "constructor"
    },
    {
      "anonymous": false,
      "inputs": [
        {
          "indexed": true,
          "internalType": "address",
          "name": "_owner",
          "type": "address"
        },
        {
          "indexed": true,
          "internalType": "address",
          "name": "_spender",
          "type": "address"
        },
        {
          "indexed": false,
          "internalType": "uint256",
          "name": "_value",
          "type": "uint256"
        }
      ],
      "name": "Approval",
      "type": "event"
    },
    {
      "anonymous": false,
      "inputs": [
        {
          "indexed": false,
          "internalType": "string",
          "name": "_name",
          "type": "string"
        }
      ],
      "name": "NameSet",
      "type": "event"
    },
    {
      "anonymous": false,
      "inputs": [
        {
          "indexed": false,
          "internalType": "address",
          "name": "_redeemer",
          "type": "address"
        },
        {
          "indexed": false,
          "internalType": "uint256",
          "name": "_valueTokens",
          "type": "uint256"
        }
      ],
      "name": "Redeemed",
      "type": "event"
    },
    {
      "anonymous": false,
      "inputs": [
        {
          "indexed": true,
          "internalType": "bytes32",
          "name": "_stakeRequestHash",
          "type": "bytes32"
        },
        {
          "indexed": false,
          "internalType": "address",
          "name": "_staker",
          "type": "address"
        },
        {
          "indexed": false,
          "internalType": "uint256",
          "name": "_stake",
          "type": "uint256"
        }
      ],
      "name": "StakeRequestAccepted",
      "type": "event"
    },
    {
      "anonymous": false,
      "inputs": [
        {
          "indexed": true,
          "internalType": "bytes32",
          "name": "_stakeRequestHash",
          "type": "bytes32"
        },
        {
          "indexed": false,
          "internalType": "address",
          "name": "_staker",
          "type": "address"
        },
        {
          "indexed": false,
          "internalType": "uint256",
          "name": "_stake",
          "type": "uint256"
        }
      ],
      "name": "StakeRequestRejected",
      "type": "event"
    },
    {
      "anonymous": false,
      "inputs": [
        {
          "indexed": true,
          "internalType": "bytes32",
          "name": "_stakeRequestHash",
          "type": "bytes32"
        },
        {
          "indexed": false,
          "internalType": "address",
          "name": "_staker",
          "type": "address"
        },
        {
          "indexed": false,
          "internalType": "uint256",
          "name": "_stake",
          "type": "uint256"
        }
      ],
      "name": "StakeRequestRevoked",
      "type": "event"
    },
    {
      "anonymous": false,
      "inputs": [
        {
          "indexed": true,
          "internalType": "bytes32",
          "name": "_stakeRequestHash",
          "type": "bytes32"
        },
        {
          "indexed": false,
          "internalType": "address",
          "name": "_staker",
          "type": "address"
        },
        {
          "indexed": false,
          "internalType": "uint256",
          "name": "_stake",
          "type": "uint256"
        },
        {
          "indexed": false,
          "internalType": "uint256",
          "name": "_nonce",
          "type": "uint256"
        }
      ],
      "name": "StakeRequested",
      "type": "event"
    },
    {
      "anonymous": false,
      "inputs": [
        {
          "indexed": false,
          "internalType": "string",
          "name": "_symbol",
          "type": "string"
        }
      ],
      "name": "SymbolSet",
      "type": "event"
    },
    {
      "anonymous": false,
      "inputs": [
        {
          "indexed": true,
          "internalType": "address",
          "name": "_from",
          "type": "address"
        },
        {
          "indexed": true,
          "internalType": "address",
          "name": "_to",
          "type": "address"
        },
        {
          "indexed": false,
          "internalType": "uint256",
          "name": "_value",
          "type": "uint256"
        }
      ],
      "name": "Transfer",
      "type": "event"
    },
    {
      "constant": true,
      "inputs": [],
      "name": "allRestrictionsLifted",
      "outputs": [
        {
          "internalType": "bool",
          "name": "",
          "type": "bool"
        }
      ],
      "payable": false,
      "stateMutability": "view",
      "type": "function"
    },
    {
      "constant": true,
      "inputs": [
        {
          "internalType": "address",
          "name": "_owner",
          "type": "address"
        },
        {
          "internalType": "address",
          "name": "_spender",
          "type": "address"
        }
      ],
      "name": "allowance",
      "outputs": [
        {
          "internalType": "uint256",
          "name": "",
          "type": "uint256"
        }
      ],
      "payable": false,
      "stateMutability": "view",
      "type": "function"
    },
    {
      "constant": false,
      "inputs": [
        {
          "internalType": "address",
          "name": "_spender",
          "type": "address"
        },
        {
          "internalType": "uint256",
          "name": "_value",
          "type": "uint256"
        }
      ],
      "name": "approve",
      "outputs": [
        {
          "internalType": "bool",
          "name": "success_",
          "type": "bool"
        }
      ],
      "payable": false,
      "stateMutability": "nonpayable",
      "type": "function"
    },
    {
      "constant": true,
      "inputs": [
        {
          "internalType": "address",
          "name": "_owner",
          "type": "address"
        }
      ],
      "name": "balanceOf",
      "outputs": [
        {
          "internalType": "uint256",
          "name": "",
          "type": "uint256"
        }
      ],
      "payable": false,
      "stateMutability": "view",
      "type": "function"
    },
    {
      "constant": true,
      "inputs": [],
      "name": "conversionRate",
      "outputs": [
        {
          "internalType": "uint256",
          "name": "",
          "type": "uint256"
        }
      ],
      "payable": false,
      "stateMutability": "view",
      "type": "function"
    },
    {
      "constant": true,
      "inputs": [],
      "name": "conversionRateDecimals",
      "outputs": [
        {
          "internalType": "uint8",
          "name": "",
          "type": "uint8"
        }
      ],
      "payable": false,
      "stateMutability": "view",
      "type": "function"
    },
    {
      "constant": true,
      "inputs": [
        {
          "internalType": "uint256",
          "name": "_valueTokens",
          "type": "uint256"
        }
      ],
      "name": "convertToBrandedTokens",
      "outputs": [
        {
          "internalType": "uint256",
          "name": "",
          "type": "uint256"
        }
      ],
      "payable": false,
      "stateMutability": "view",
      "type": "function"
    },
    {
      "constant": true,
      "inputs": [
        {
          "internalType": "uint256",
          "name": "_brandedTokens",
          "type": "uint256"
        }
      ],
      "name": "convertToValueTokens",
      "outputs": [
        {
          "internalType": "uint256",
          "name": "",
          "type": "uint256"
        }
      ],
      "payable": false,
      "stateMutability": "view",
      "type": "function"
    },
    {
      "constant": true,
      "inputs": [],
      "name": "decimals",
      "outputs": [
        {
          "internalType": "uint8",
          "name": "",
          "type": "uint8"
        }
      ],
      "payable": false,
      "stateMutability": "view",
      "type": "function"
    },
    {
      "constant": true,
      "inputs": [
        {
          "internalType": "address",
          "name": "_actor",
          "type": "address"
        }
      ],
      "name": "isUnrestricted",
      "outputs": [
        {
          "internalType": "bool",
          "name": "isUnrestricted_",
          "type": "bool"
        }
      ],
      "payable": false,
      "stateMutability": "view",
      "type": "function"
    },
    {
      "constant": false,
      "inputs": [],
      "name": "liftAllRestrictions",
      "outputs": [
        {
          "internalType": "bool",
          "name": "success_",
          "type": "bool"
        }
      ],
      "payable": false,
      "stateMutability": "nonpayable",
      "type": "function"
    },
    {
      "constant": false,
      "inputs": [
        {
          "internalType": "address[]",
          "name": "_restrictionLifted",
          "type": "address[]"
        }
      ],
      "name": "liftRestriction",
      "outputs": [
        {
          "internalType": "bool",
          "name": "success_",
          "type": "bool"
        }
      ],
      "payable": false,
      "stateMutability": "nonpayable",
      "type": "function"
    },
    {
      "constant": true,
      "inputs": [],
      "name": "name",
      "outputs": [
        {
          "internalType": "string",
          "name": "",
          "type": "string"
        }
      ],
      "payable": false,
      "stateMutability": "view",
      "type": "function"
    },
    {
      "constant": true,
      "inputs": [],
      "name": "nonce",
      "outputs": [
        {
          "internalType": "uint256",
          "name": "",
          "type": "uint256"
        }
      ],
      "payable": false,
      "stateMutability": "view",
      "type": "function"
    },
    {
      "constant": true,
      "inputs": [],
      "name": "organization",
      "outputs": [
        {
          "internalType": "contract OrganizationInterface",
          "name": "",
          "type": "address"
        }
      ],
      "payable": false,
      "stateMutability": "view",
      "type": "function"
    },
    {
      "constant": false,
      "inputs": [
        {
          "internalType": "uint256",
          "name": "_brandedTokens",
          "type": "uint256"
        }
      ],
      "name": "redeem",
      "outputs": [
        {
          "internalType": "bool",
          "name": "success_",
          "type": "bool"
        }
      ],
      "payable": false,
      "stateMutability": "nonpayable",
      "type": "function"
    },
    {
      "constant": false,
      "inputs": [
        {
          "internalType": "bytes32",
          "name": "_stakeRequestHash",
          "type": "bytes32"
        }
      ],
      "name": "rejectStakeRequest",
      "outputs": [
        {
          "internalType": "bool",
          "name": "success_",
          "type": "bool"
        }
      ],
      "payable": false,
      "stateMutability": "nonpayable",
      "type": "function"
    },
    {
      "constant": false,
      "inputs": [
        {
          "internalType": "string",
          "name": "_name",
          "type": "string"
        }
      ],
      "name": "setName",
      "outputs": [
        {
          "internalType": "bool",
          "name": "success_",
          "type": "bool"
        }
      ],
      "payable": false,
      "stateMutability": "nonpayable",
      "type": "function"
    },
    {
      "constant": false,
      "inputs": [
        {
          "internalType": "string",
          "name": "_symbol",
          "type": "string"
        }
      ],
      "name": "setSymbol",
      "outputs": [
        {
          "internalType": "bool",
          "name": "success_",
          "type": "bool"
        }
      ],
      "payable": false,
      "stateMutability": "nonpayable",
      "type": "function"
    },
    {
      "constant": true,
      "inputs": [
        {
          "internalType": "address",
          "name": "",
          "type": "address"
        }
      ],
      "name": "stakeRequestHashes",
      "outputs": [
        {
          "internalType": "bytes32",
          "name": "",
          "type": "bytes32"
        }
      ],
      "payable": false,
      "stateMutability": "view",
      "type": "function"
    },
    {
      "constant": true,
      "inputs": [
        {
          "internalType": "bytes32",
          "name": "",
          "type": "bytes32"
        }
      ],
      "name": "stakeRequests",
      "outputs": [
        {
          "internalType": "address",
          "name": "staker",
          "type": "address"
        },
        {
          "internalType": "uint256",
          "name": "stake",
          "type": "uint256"
        },
        {
          "internalType": "uint256",
          "name": "nonce",
          "type": "uint256"
        }
      ],
      "payable": false,
      "stateMutability": "view",
      "type": "function"
    },
    {
      "constant": true,
      "inputs": [],
      "name": "symbol",
      "outputs": [
        {
          "internalType": "string",
          "name": "",
          "type": "string"
        }
      ],
      "payable": false,
      "stateMutability": "view",
      "type": "function"
    },
    {
      "constant": true,
      "inputs": [],
      "name": "totalSupply",
      "outputs": [
        {
          "internalType": "uint256",
          "name": "",
          "type": "uint256"
        }
      ],
      "payable": false,
      "stateMutability": "view",
      "type": "function"
    },
    {
      "constant": false,
      "inputs": [
        {
          "internalType": "address",
          "name": "_to",
          "type": "address"
        },
        {
          "internalType": "uint256",
          "name": "_value",
          "type": "uint256"
        }
      ],
      "name": "transfer",
      "outputs": [
        {
          "internalType": "bool",
          "name": "success_",
          "type": "bool"
        }
      ],
      "payable": false,
      "stateMutability": "nonpayable",
      "type": "function"
    },
    {
      "constant": false,
      "inputs": [
        {
          "internalType": "address",
          "name": "_from",
          "type": "address"
        },
        {
          "internalType": "address",
          "name": "_to",
          "type": "address"
        },
        {
          "internalType": "uint256",
          "name": "_value",
          "type": "uint256"
        }
      ],
      "name": "transferFrom",
      "outputs": [
        {
          "internalType": "bool",
          "name": "success_",
          "type": "bool"
        }
      ],
      "payable": false,
      "stateMutability": "nonpayable",
      "type": "function"
    },
    {
      "constant": true,
      "inputs": [],
      "name": "valueToken",
      "outputs": [
        {
          "internalType": "contract EIP20Interface",
          "name": "",
          "type": "address"
        }
      ],
      "payable": false,
      "stateMutability": "view",
      "type": "function"
    },
    {
      "constant": false,
      "inputs": [
        {
          "internalType": "uint256",
          "name": "",
          "type": "uint256"
        },
        {
          "internalType": "uint256",
          "name": "",
          "type": "uint256"
        }
      ],
      "name": "requestStake",
      "outputs": [
        {
          "internalType": "bytes32",
          "name": "",
          "type": "bytes32"
        }
      ],
      "payable": false,
      "stateMutability": "nonpayable",
      "type": "function"
    },
    {
      "constant": false,
      "inputs": [
        {
          "internalType": "bytes32",
          "name": "",
          "type": "bytes32"
        },
        {
          "internalType": "bytes32",
          "name": "",
          "type": "bytes32"
        },
        {
          "internalType": "bytes32",
          "name": "",
          "type": "bytes32"
        },
        {
          "internalType": "uint8",
          "name": "",
          "type": "uint8"
        }
      ],
      "name": "acceptStakeRequest",
      "outputs": [
        {
          "internalType": "bool",
          "name": "",
          "type": "bool"
        }
      ],
      "payable": false,
      "stateMutability": "nonpayable",
      "type": "function"
    },
    {
      "constant": false,
      "inputs": [
        {
          "internalType": "bytes32",
          "name": "",
          "type": "bytes32"
        }
      ],
      "name": "revokeStakeRequest",
      "outputs": [
        {
          "internalType": "bool",
          "name": "",
          "type": "bool"
        }
      ],
      "payable": false,
      "stateMutability": "nonpayable",
      "type": "function"
    }
  ],
  "bytecode": "0x6080604081905280602762001bfb823960408051918290036027018220602080840191909152308383015281518084038301815260609093019091528151910120600c55503480156200005157600080fd5b5060405162001cb338038062001cb3833981810160405260e08110156200007757600080fd5b8151602083018051604051929492938301929190846401000000008211156200009f57600080fd5b908301906020820185811115620000b557600080fd5b8251640100000000811182820188101715620000d057600080fd5b82525081516020918201929091019080838360005b83811015620000ff578181015183820152602001620000e5565b50505050905090810190601f1680156200012d5780820380516001836020036101000a031916815260200191505b50604052602001805160405193929190846401000000008211156200015157600080fd5b9083019060208201858111156200016757600080fd5b82516401000000008111828201881017156200018257600080fd5b82525081516020918201929091019080838360005b83811015620001b157818101518382015260200162000197565b50505050905090810190601f168015620001df5780820380516001836020036101000a031916815260200191505b5060409081526020820151908201516060830151608090930151919450925086868686868686858585836001600160a01b038116620002505760405162461bcd60e51b815260040180806020018281038252602f81526020018062001c22602f913960400191505060405180910390fd5b600080546001600160a01b0319166001600160a01b0392909216919091179055825162000285906002906020860190620004a1565b5081516200029b906001906020850190620004a1565b506003805460ff191660ff92909216919091179055505060006004556001600160a01b03871662000313576040805162461bcd60e51b815260206004820152601360248201527f56616c7565546f6b656e206973207a65726f2e00000000000000000000000000604482015290519081900360640190fd5b8262000366576040805162461bcd60e51b815260206004820152601760248201527f436f6e76657273696f6e52617465206973207a65726f2e000000000000000000604482015290519081900360640190fd5b60058260ff161115620003ab5760405162461bcd60e51b815260040180806020018281038252602981526020018062001c8a6029913960400191505060405180910390fd5b600780546001600160a01b0319166001600160a01b03891690811790915560088490556009805460ff191660ff858116919091179091556040805163313ce56760e01b81529051918716929163313ce56791600480820192602092909190829003018186803b1580156200041e57600080fd5b505afa15801562000433573d6000803e3d6000fd5b505050506040513d60208110156200044a57600080fd5b505160ff16146200048d5760405162461bcd60e51b815260040180806020018281038252603981526020018062001c516039913960400191505060405180910390fd5b505050505050505050505050505062000546565b828054600181600116156101000203166002900490600052602060002090601f016020900481019282601f10620004e457805160ff191683800117855562000514565b8280016001018555821562000514579182015b8281111562000514578251825591602001919060010190620004f7565b506200052292915062000526565b5090565b6200054391905b808211156200052257600081556001016200052d565b90565b6116a580620005566000396000f3fe608060405234801561001057600080fd5b50600436106101cf5760003560e01c806395d89b4111610104578063cc3488ab116100a2578063e30ac6c311610071578063e30ac6c314610652578063e62ab86b1461065a578063effff82f1461067d578063f40c288114610685576101cf565b8063cc3488ab146105cd578063d94ade83146105ea578063db006a7514610607578063dd62ed3e14610624576101cf565b8063aed30777116100de578063aed30777146104bf578063affed0e0146104e5578063b84c8246146104ed578063c47f00271461055d576101cf565b806395d89b4114610465578063a3c787d31461046d578063a9059cbb14610493576101cf565b8063486c1585116101715780635c8dc74d1161014b5780635c8dc74d146103fd5780635cd6f6b31461042f57806370a08231146104375780637ffdf53e1461045d576101cf565b8063486c1585146103685780634ec7c973146103855780635c0ed5bf1461038d576101cf565b806318ba31d8116101ad57806318ba31d8146102ab57806323b872dd146102f057806323bd4d7a14610326578063313ce5671461034a576101cf565b806306fdde03146101d4578063095ea7b31461025157806318160ddd14610291575b600080fd5b6101dc6106a2565b6040805160208082528351818301528351919283929083019185019080838360005b838110156102165781810151838201526020016101fe565b50505050905090810190601f1680156102435780820380516001836020036101000a031916815260200191505b509250505060405180910390f35b61027d6004803603604081101561026757600080fd5b506001600160a01b038135169060200135610738565b604080519115158252519081900360200190f35b61029961079f565b60408051918252519081900360200190f35b6102c8600480360360208110156102c157600080fd5b50356107a5565b604080516001600160a01b039094168452602084019290925282820152519081900360600190f35b61027d6004803603606081101561030657600080fd5b506001600160a01b038135811691602081013590911690604001356107d0565b61032e610853565b604080516001600160a01b039092168252519081900360200190f35b610352610862565b6040805160ff9092168252519081900360200190f35b6102996004803603602081101561037e57600080fd5b503561086b565b61027d61089b565b61027d600480360360208110156103a357600080fd5b8101906020810181356401000000008111156103be57600080fd5b8201836020820111156103d057600080fd5b803590602001918460208302840111640100000000831117156103f257600080fd5b5090925090506108a4565b61027d6004803603608081101561041357600080fd5b508035906020810135906040810135906060013560ff166109b7565b61027d6109f0565b6102996004803603602081101561044d57600080fd5b50356001600160a01b0316610ab7565b610299610ad2565b6101dc610ad8565b6102996004803603602081101561048357600080fd5b50356001600160a01b0316610b36565b61027d600480360360408110156104a957600080fd5b506001600160a01b038135169060200135610b48565b61027d600480360360208110156104d557600080fd5b50356001600160a01b0316610bc9565b610299610be7565b61027d6004803603602081101561050357600080fd5b81019060208101813564010000000081111561051e57600080fd5b82018360208201111561053057600080fd5b8035906020019184600183028401116401000000008311171561055257600080fd5b509092509050610bed565b61027d6004803603602081101561057357600080fd5b81019060208101813564010000000081111561058e57600080fd5b8201836020820111156105a057600080fd5b803590602001918460018302840111640100000000831117156105c257600080fd5b509092509050610d61565b61027d600480360360208110156105e357600080fd5b5035610e94565b6102996004803603602081101561060057600080fd5b5035610e9a565b61027d6004803603602081101561061d57600080fd5b5035610ec1565b6102996004803603604081101561063a57600080fd5b506001600160a01b038135811691602001351661104c565b610352611077565b6102996004803603604081101561067057600080fd5b5080359060200135611080565b61032e611088565b61027d6004803603602081101561069b57600080fd5b5035611097565b60018054604080516020601f6002600019610100878916150201909516949094049384018190048102820181019092528281526060939092909183018282801561072d5780601f106107025761010080835404028352916020019161072d565b820191906000526020600020905b81548152906001019060200180831161071057829003601f168201915b505050505090505b90565b3360008181526006602090815260408083206001600160a01b038716808552908352818420869055815186815291519394909390927f8c5be1e5ebec7d5bd14f71427d1e84f3dd0314c0f7b2291e5b200ac8c7c3b925928290030190a35060015b92915050565b60045490565b600e602052600090815260409020805460018201546002909201546001600160a01b03909116919083565b600b5460009060ff16806107f35750336000908152600f602052604090205460ff165b610840576040805162461bcd60e51b815260206004820152601960248201527826b9b39739b2b73232b91034b9903932b9ba3934b1ba32b21760391b604482015290519081900360640190fd5b61084b8484846112c3565b949350505050565b6000546001600160a01b031681565b60035460ff1690565b6008546009546000916107999161088f90859060ff16600a0a63ffffffff6113ce16565b9063ffffffff6113f516565b600b5460ff1681565b600080546040805163aa15664560e01b815233600482015290516001600160a01b039092169163aa15664591602480820192602092909190829003018186803b1580156108f057600080fd5b505afa158015610904573d6000803e3d6000fd5b505050506040513d602081101561091a57600080fd5b50516109575760405162461bcd60e51b81526004018080602001828103825260398152602001806116386039913960400191505060405180910390fd5b60005b828110156109ad576001600f600086868581811061097457fe5b602090810292909201356001600160a01b0316835250810191909152604001600020805460ff191691151591909117905560010161095a565b5060019392505050565b600060405162461bcd60e51b815260040180806020018281038252602f8152602001806115b1602f913960400191505060405180910390fd5b600080546040805163b1ce8eab60e01b815233600482015290516001600160a01b039092169163b1ce8eab91602480820192602092909190829003018186803b158015610a3c57600080fd5b505afa158015610a50573d6000803e3d6000fd5b505050506040513d6020811015610a6657600080fd5b5051610aa35760405162461bcd60e51b81526004018080602001828103825260358152602001806115e06035913960400191505060405180910390fd5b50600b805460ff1916600190811790915590565b6001600160a01b031660009081526005602052604090205490565b60085481565b60028054604080516020601f600019610100600187161502019094168590049384018190048102820181019092528281526060939092909183018282801561072d5780601f106107025761010080835404028352916020019161072d565b600d6020526000908152604090205481565b600b5460009060ff1680610b6b5750336000908152600f602052604090205460ff165b610bb8576040805162461bcd60e51b815260206004820152601960248201527826b9b39739b2b73232b91034b9903932b9ba3934b1ba32b21760391b604482015290519081900360640190fd5b610bc28383611417565b9392505050565b6001600160a01b03166000908152600f602052604090205460ff1690565b600a5481565b600080546040805163aa15664560e01b815233600482015290516001600160a01b039092169163aa15664591602480820192602092909190829003018186803b158015610c3957600080fd5b505afa158015610c4d573d6000803e3d6000fd5b505050506040513d6020811015610c6357600080fd5b5051610ca05760405162461bcd60e51b81526004018080602001828103825260398152602001806116386039913960400191505060405180910390fd5b610cac600284846114ee565b506040805160208082526002805460001961010060018316150201168190049183018290527f3e46ff90086ee29856e77591e82c82ff8ed513379b0fd82e84fc5290dd633c9993909291829182019084908015610d4a5780601f10610d1f57610100808354040283529160200191610d4a565b820191906000526020600020905b815481529060010190602001808311610d2d57829003601f168201915b50509250505060405180910390a150600192915050565b600080546040805163aa15664560e01b815233600482015290516001600160a01b039092169163aa15664591602480820192602092909190829003018186803b158015610dad57600080fd5b505afa158015610dc1573d6000803e3d6000fd5b505050506040513d6020811015610dd757600080fd5b5051610e145760405162461bcd60e51b81526004018080602001828103825260398152602001806116386039913960400191505060405180910390fd5b610e20600184846114ee565b50604080516020808252600180546002600019610100838516150201909116049183018290527f13c98778b0c1a086bb98d7f1986e15788b5d3a1ad4c492e1d78f1c4cc51c20cf93909291829182019084908015610d4a5780601f10610d1f57610100808354040283529160200191610d4a565b50600090565b6009546008546000916107999160ff909116600a0a9061088f90859063ffffffff6113ce16565b33600090815260056020526040812054610ee1908363ffffffff6114c716565b33600090815260056020526040902055600454610f04908363ffffffff6114c716565b6004556000610f128361086b565b604080513381526020810183905281519293507f4896181ff8f4543cc00db9fe9b6fb7e6f032b7eb772c72ab1ec1b4d2e03b9369929081900390910190a160408051848152905160009133917fddf252ad1be2c89b69c2b068fc378daa952ba7f163c4a11628f55a4df523b3ef9181900360200190a36007546040805163a9059cbb60e01b81523360048201526024810184905290516001600160a01b039092169163a9059cbb916044808201926020929091908290030181600087803b158015610fdc57600080fd5b505af1158015610ff0573d6000803e3d6000fd5b505050506040513d602081101561100657600080fd5b50516110435760405162461bcd60e51b81526004018080602001828103825260238152602001806116156023913960400191505060405180910390fd5b50600192915050565b6001600160a01b03918216600090815260066020908152604080832093909416825291909152205490565b60095460ff1681565b600092915050565b6007546001600160a01b031681565b600080546040805163aa15664560e01b815233600482015290516001600160a01b039092169163aa15664591602480820192602092909190829003018186803b1580156110e357600080fd5b505afa1580156110f7573d6000803e3d6000fd5b505050506040513d602081101561110d57600080fd5b505161114a5760405162461bcd60e51b81526004018080602001828103825260398152602001806116386039913960400191505060405180910390fd5b6000828152600e60205260409020546001600160a01b03166111b3576040805162461bcd60e51b815260206004820152601860248201527f5374616b652072657175657374206e6f7420666f756e642e0000000000000000604482015290519081900360640190fd5b6111bb61156c565b506000828152600e60208181526040808420815160608101835281546001600160a01b0390811680835260018401805484880190815260028601805486890152928a52600d8852868a208a90558b8a5297875284546001600160a01b0319169094559287905595909155805193518251949095168452918301939093528251909285927f03d1d0557a66a4f0c9b486469bf0038433930e5033da77ab6c249da65b29a65f929081900390910190a260075481516020808401516040805163a9059cbb60e01b81526001600160a01b039485166004820152602481019290925251929093169263a9059cbb92604480830193928290030181600087803b158015610fdc57600080fd5b6001600160a01b0383166000908152600560205260408120546112ec908363ffffffff6114c716565b6001600160a01b0385166000908152600560209081526040808320939093556006815282822033835290522054611329908363ffffffff6114c716565b6001600160a01b03808616600090815260066020908152604080832033845282528083209490945591861681526005909152205461136d908363ffffffff6114dc16565b6001600160a01b0380851660008181526005602090815260409182902094909455805186815290519193928816927fddf252ad1be2c89b69c2b068fc378daa952ba7f163c4a11628f55a4df523b3ef92918290030190a35060019392505050565b6000826113dd57506000610799565b828202828482816113ea57fe5b0414610bc257600080fd5b600080821161140357600080fd5b600082848161140e57fe5b04949350505050565b33600090815260056020526040812054611437908363ffffffff6114c716565b33600090815260056020526040808220929092556001600160a01b03851681522054611469908363ffffffff6114dc16565b6001600160a01b0384166000818152600560209081526040918290209390935580518581529051919233927fddf252ad1be2c89b69c2b068fc378daa952ba7f163c4a11628f55a4df523b3ef9281900390910190a350600192915050565b6000828211156114d657600080fd5b50900390565b600082820183811015610bc257600080fd5b828054600181600116156101000203166002900490600052602060002090601f016020900481019282601f1061152f5782800160ff1982351617855561155c565b8280016001018555821561155c579182015b8281111561155c578235825591602001919060010190611541565b50611568929150611596565b5090565b604051806060016040528060006001600160a01b0316815260200160008152602001600081525090565b61073591905b80821115611568576000815560010161159c56fe4272616e646564546f6b656e206163636570745374616b65526571756573742072657475726e65642066616c73652e4f6e6c7920746865206f7267616e697a6174696f6e20697320616c6c6f77656420746f2063616c6c2074686973206d6574686f642e56616c7565546f6b656e2e7472616e736665722072657475726e65642066616c73652e4f6e6c792077686974656c697374656420776f726b6572732061726520616c6c6f77656420746f2063616c6c2074686973206d6574686f642ea265627a7a72315820a099e29d263f5f3a9b87ca0d8e17722eb3b9c037d1e990c7226a785b283f76b664736f6c63430005100032454950373132446f6d61696e286164647265737320766572696679696e67436f6e7472616374294f7267616e697a6174696f6e20636f6e74726163742061646472657373206d757374206e6f74206265207a65726f2e56616c7565546f6b656e20646563696d616c7320646f6573206e6f7420657175616c206272616e646564546f6b656e20646563696d616c732e436f6e76657273696f6e52617465446563696d616c732069732067726561746572207468616e20352e",
  "source": "pragma solidity ^0.5.0;\n\n// Copyright 2018 OpenST Ltd.\n//\n// Licensed under the Apache License, Version 2.0 (the \"License\");\n// you may not use this file except in compliance with the License.\n// You may obtain a copy of the License at\n//\n//    http://www.apache.org/licenses/LICENSE-2.0\n//\n// Unless required by applicable law or agreed to in writing, software\n// distributed under the License is distributed on an \"AS IS\" BASIS,\n// WITHOUT WARRANTIES OR CONDITIONS OF ANY KIND, either express or implied.\n// See the License for the specific language governing permissions and\n// limitations under the License.\n\nimport \"./../../BrandedToken.sol\";\n\n\n/**\n * @title MockBrandedTokenFail.\n *\n * @notice Supports testing of BrandedToken(BT) failure cases.\n */\ncontract MockBrandedTokenFail is BrandedToken {\n\n    /* Special Functions */\n\n    /**\n     * @dev Conversion parameters provide the conversion rate and its scale.\n     *      For example, if 1 value token is equivalent to 3.5 branded\n     *      tokens (1:3.5), _conversionRate == 35 and _conversionRateDecimals == 1.\n     *\n     * @param _valueToken The value to which valueToken is set.\n     * @param _symbol The value to which tokenSymbol, defined in EIP20Token, is set.\n     * @param _name The value to which tokenName, defined in EIP20Token, is set.\n     * @param _decimals The value to which tokenDecimals, defined in EIP20Token, is set.\n     * @param _conversionRate The value to which conversionRate is set.\n     * @param _conversionRateDecimals The value to which conversionRateDecimals\n     *                                is set.\n     * @param _organization The value to which organization, defined in Organized, is set.\n     */\n    constructor(\n        EIP20Interface _valueToken,\n        string memory _symbol,\n        string memory _name,\n        uint8 _decimals,\n        uint256 _conversionRate,\n        uint8 _conversionRateDecimals,\n        OrganizationInterface _organization\n    )\n        BrandedToken(\n            _valueToken,\n            _symbol,\n            _name,\n            _decimals,\n            _conversionRate,\n            _conversionRateDecimals,\n            _organization\n        )\n        public\n    {}\n\n\n    /* External Functions */\n\n    /**\n     * @notice Mocks BrandedToken requestStake function.\n     *\n     * @dev It takes below parameters in order:\n     *      - amount to stake\n     *      - amount to mint\n     *\n     * @return Unique hash for each stake request.\n     */\n    function requestStake(\n        uint256,\n        uint256\n    )\n        external\n        returns (bytes32)\n    {\n\n        return bytes32(0);\n    }\n\n    /**\n     * @notice Mocks BrandedToken acceptStakeRequest function. It fails the execution.\n     *\n     * @dev It takes below parameters in order:\n     *      - stake request hash\n     *      - r is the actual signature\n     *      - s is the second point on the curve in order to ecrecover\n     *      - v selects the final public key\n     */\n    function acceptStakeRequest(\n        bytes32,\n        bytes32,\n        bytes32,\n        uint8\n    )\n        external\n        returns (bool)\n    {\n        require(false, \"BrandedToken acceptStakeRequest returned false.\");\n    }\n\n    /**\n     * @notice Mocks BrandedToken.revokeStakeRequest() function.\n     *\n     * @dev It takes below parameters in order:\n     *      - stake request hash\n     *\n     * @return False to replicate failure cases.\n     */\n    function revokeStakeRequest(\n        bytes32\n    )\n        external\n        returns (bool)\n    {\n        return false;\n    }\n\n}\n",
  "sourcePath": "/Users/OST/Documents/dj/ost-opt-contracts/contracts/brandedtoken-contracts/contracts/test/branded_token/MockBrandedTokenFail.sol",
  "compiler": {
    "name": "solc",
    "version": "0.5.16+commit.9c3226ce.Emscripten.clang"
  },
  "schemaVersion": "3.0.21",
  "updatedAt": "2020-01-22T07:47:25.291Z",
  "devdoc": {
    "methods": {
      "acceptStakeRequest(bytes32,bytes32,bytes32,uint8)": {
        "details": "It takes below parameters in order:     - stake request hash     - r is the actual signature     - s is the second point on the curve in order to ecrecover     - v selects the final public key"
      },
      "allowance(address,address)": {
        "params": {
          "_owner": "Address of the owner account.",
          "_spender": "Address of the spender account."
        },
        "return": "Remaining allowance for the spender to spend from         owner's account."
      },
      "approve(address,uint256)": {
        "details": "Allows _spender address to withdraw from function caller's      account, multiple times up to the _value amount, if this      function is called again it overwrites the current allowance      with _value.",
        "params": {
          "_spender": "Address authorized to spend from the function caller's                 address.",
          "_value": "Amount up to which spender is authorized to spend."
        },
        "return": "success_ True for a successful approval, false otherwise."
      },
      "balanceOf(address)": {
        "params": {
          "_owner": "Address of the owner account."
        },
        "return": "Account balance of the owner account."
      },
      "constructor": {
        "details": "Conversion parameters provide the conversion rate and its scale.     For example, if 1 value token is equivalent to 3.5 branded     tokens (1:3.5), _conversionRate == 35 and _conversionRateDecimals == 1.",
        "params": {
          "_conversionRate": "The value to which conversionRate is set.",
          "_conversionRateDecimals": "The value to which conversionRateDecimals                               is set.",
          "_decimals": "The value to which tokenDecimals, defined in EIP20Token, is set.",
          "_name": "The value to which tokenName, defined in EIP20Token, is set.",
          "_organization": "The value to which organization, defined in Organized, is set.",
          "_symbol": "The value to which tokenSymbol, defined in EIP20Token, is set.",
          "_valueToken": "The value to which valueToken is set."
        }
      },
      "convertToBrandedTokens(uint256)": {
        "details": "Please note there may be a loss of up to 1 indivisible unit of     this token (i.e., assuming 1 value token is equivalent     to 3.5 branded tokens, convert(1) --> 3, not 3.5).",
        "params": {
          "_valueTokens": "Amount to convert."
        },
        "return": "uint256 Converted amount."
      },
      "convertToValueTokens(uint256)": {
        "details": "Please note there may be a loss of up to 1 indivisible unit of     this token.",
        "params": {
          "_brandedTokens": "Amount to convert."
        },
        "return": "uint256 Converted amount."
      },
      "decimals()": {
        "return": "Decimal places of the token."
      },
      "isUnrestricted(address)": {
        "params": {
          "_actor": "Actor."
        },
        "return": "isUnrestricted_ Whether unrestricted."
      },
      "liftAllRestrictions()": {
        "details": "Function requires:         - msg.sender is organization",
        "return": "success_ True."
      },
      "liftRestriction(address[])": {
        "details": "Function requires:         - msg.sender is a worker",
        "params": {
          "_restrictionLifted": "Addresses for which to lift restrictions."
        },
        "return": "success_ True."
      },
      "name()": {
        "return": "Name of the token."
      },
      "redeem(uint256)": {
        "details": "Redemption may risk loss of branded tokens.     It is possible to redeem branded tokens for 0 value tokens.     *      Function requires:         - valueToken.transfer returns true",
        "params": {
          "_brandedTokens": "Amount of branded tokens to redeem."
        },
        "return": "success_ True."
      },
      "rejectStakeRequest(bytes32)": {
        "details": "Function requires:         - msg.sender is a worker         - stake request exists         - valueToken.transfer returns true",
        "params": {
          "_stakeRequestHash": "Stake request hash."
        },
        "return": "success_ True."
      },
      "requestStake(uint256,uint256)": {
        "details": "It takes below parameters in order:     - amount to stake     - amount to mint",
        "return": "Unique hash for each stake request."
      },
      "revokeStakeRequest(bytes32)": {
        "details": "It takes below parameters in order:     - stake request hash",
        "return": "False to replicate failure cases."
      },
      "setName(string)": {
        "details": "Function requires:         - msg.sender is a worker",
        "params": {
          "_name": "The value to which name is set."
        },
        "return": "success_ True."
      },
      "setSymbol(string)": {
        "details": "Function requires:         - msg.sender is a worker",
        "params": {
          "_symbol": "The value to which symbol is set."
        },
        "return": "success_ True."
      },
      "symbol()": {
        "return": "Symbol of the token."
      },
      "totalSupply()": {
        "details": "Get totalTokenSupply as view so that child cannot edit.",
        "return": "Total token supply."
      },
      "transfer(address,uint256)": {
        "params": {
          "_to": "Address to which tokens are transferred.",
          "_value": "Amount of tokens to be transferred."
        },
        "return": "success_ Result from EIP20Token transfer."
      },
      "transferFrom(address,address,uint256)": {
        "params": {
          "_from": "Address from which tokens are transferred.",
          "_to": "Address to which tokens are transferred.",
          "_value": "Amount of tokens transferred."
        },
        "return": "success_ Result from EIP20Token transferFrom."
      }
    },
    "title": "MockBrandedTokenFail."
  },
  "userdoc": {
    "methods": {
      "acceptStakeRequest(bytes32,bytes32,bytes32,uint8)": {
        "notice": "Mocks BrandedToken acceptStakeRequest function. It fails the execution."
      },
      "allowance(address,address)": {
        "notice": "Public view function allowance."
      },
      "approve(address,uint256)": {
        "notice": "Public function approve."
      },
      "balanceOf(address)": {
        "notice": "Public view function balanceOf."
      },
      "convertToBrandedTokens(uint256)": {
        "notice": "Returns the amount of branded tokens equivalent to a        given amount of value tokens."
      },
      "convertToValueTokens(uint256)": {
        "notice": "Returns the amount of value tokens equivalent to a        given amount of branded tokens."
      },
      "decimals()": {
        "notice": "Public view function decimals."
      },
      "isUnrestricted(address)": {
        "notice": "Indicates whether an actor is unrestricted."
      },
      "liftAllRestrictions()": {
        "notice": "Lifts restrictions from all actors."
      },
      "liftRestriction(address[])": {
        "notice": "Maps addresses in _restrictionLifted to true in unrestricted."
      },
      "name()": {
        "notice": "Public view function name."
      },
      "redeem(uint256)": {
        "notice": "Reduces msg.sender's balance and the total supply by        _brandedTokens and transfers an equivalent amount of        value tokens to msg.sender."
      },
      "rejectStakeRequest(bytes32)": {
        "notice": "Rejects stake request by deleting its information and        transferring staked value tokens back to staker."
      },
      "requestStake(uint256,uint256)": {
        "notice": "Mocks BrandedToken requestStake function."
      },
      "revokeStakeRequest(bytes32)": {
        "notice": "Mocks BrandedToken.revokeStakeRequest() function."
      },
      "setName(string)": {
        "notice": "Sets name."
      },
      "setSymbol(string)": {
        "notice": "Sets symbol."
      },
      "symbol()": {
        "notice": "Public view function symbol."
      },
      "totalSupply()": {
        "notice": "Public view function totalSupply."
      },
      "transfer(address,uint256)": {
        "notice": "Overrides EIP20Token.transfer by additionally        requiring msg.sender to be unrestricted."
      },
      "transferFrom(address,address,uint256)": {
        "notice": "Overrides EIP20Token.transferFrom by additionally        requiring msg.sender to be unrestricted."
      }
    },
    "notice": "Supports testing of BrandedToken(BT) failure cases."
  }
}