{
  "contractName": "MockCoGateway",
  "abi": [
    {
      "inputs": [
        {
          "internalType": "address",
          "name": "_token",
          "type": "address"
        }
      ],
      "payable": false,
      "stateMutability": "nonpayable",
      "type": "constructor"
    },
    {
      "constant": true,
      "inputs": [],
      "name": "utilityToken",
      "outputs": [
        {
          "internalType": "address",
          "name": "",
          "type": "address"
        }
      ],
      "payable": false,
      "stateMutability": "view",
      "type": "function"
    }
  ],
  "bytecode": "0x608060405234801561001057600080fd5b506040516100f73803806100f78339818101604052602081101561003357600080fd5b5051600080546001600160a01b039092166001600160a01b03199092169190911790556093806100646000396000f3fe6080604052348015600f57600080fd5b506004361060285760003560e01c8063ae86ed8914602d575b600080fd5b6033604f565b604080516001600160a01b039092168252519081900360200190f35b6000546001600160a01b03169056fea265627a7a72315820b8ea8d4b9a979ec72bcd345156a556d0bc22d1f82842f9e54f580444c91776ff64736f6c63430005100032",
  "source": "pragma solidity ^0.5.0;\n\n// Copyright 2018 OpenST Ltd.\n//\n// Licensed under the Apache License, Version 2.0 (the \"License\");\n// you may not use this file except in compliance with the License.\n// You may obtain a copy of the License at\n//\n//    http://www.apache.org/licenses/LICENSE-2.0\n//\n// Unless required by applicable law or agreed to in writing, software\n// distributed under the License is distributed on an \"AS IS\" BASIS,\n// WITHOUT WARRANTIES OR CONDITIONS OF ANY KIND, either express or implied.\n// See the License for the specific language governing permissions and\n// limitations under the License.\n\n\n/**\n *  @title MockCoGateway contract.\n *\n *  @notice It contains utility token address.\n */\ncontract MockCoGateway {\n\n\n    /* Storage */\n\n    /** Address of utilityToken */\n    address private token;\n\n\n    /* Special functions */\n\n    constructor(address _token) public {\n\n        token = _token;\n\n    }\n\n\n    /* Public methods */\n\n    /**\n     * @notice Get the utility token address.\n     *\n     * @return Address of utility token.\n     */\n    function utilityToken() public view returns (address)\n    {\n        return token;\n    }\n\n}\n",
  "sourcePath": "/Users/OST/Documents/dj/ost-opt-contracts/contracts/brandedtoken-contracts/contracts/test/MockCoGateway.sol",
  "compiler": {
    "name": "solc",
    "version": "0.5.16+commit.9c3226ce.Emscripten.clang"
  },
  "schemaVersion": "3.0.21",
  "updatedAt": "2020-01-22T10:54:09.763Z",
  "devdoc": {
    "methods": {
      "utilityToken()": {
        "return": "Address of utility token."
      }
    },
    "title": "MockCoGateway contract."
  },
  "userdoc": {
    "methods": {
      "utilityToken()": {
        "notice": "Get the utility token address."
      }
    },
    "notice": "It contains utility token address."
  }
}