{
  "contractName": "MockGatewayFail",
  "abi": [
    {
      "constant": true,
      "inputs": [],
      "name": "bounty",
      "outputs": [
        {
          "internalType": "uint256",
          "name": "",
          "type": "uint256"
        }
      ],
      "payable": false,
      "stateMutability": "pure",
      "type": "function"
    },
    {
      "constant": true,
      "inputs": [
        {
          "internalType": "uint256",
          "name": "",
          "type": "uint256"
        },
        {
          "internalType": "address",
          "name": "",
          "type": "address"
        },
        {
          "internalType": "uint256",
          "name": "",
          "type": "uint256"
        },
        {
          "internalType": "uint256",
          "name": "",
          "type": "uint256"
        },
        {
          "internalType": "uint256",
          "name": "",
          "type": "uint256"
        },
        {
          "internalType": "bytes32",
          "name": "",
          "type": "bytes32"
        }
      ],
      "name": "stake",
      "outputs": [
        {
          "internalType": "bytes32",
          "name": "",
          "type": "bytes32"
        }
      ],
      "payable": false,
      "stateMutability": "pure",
      "type": "function"
    }
  ],
  "bytecode": "0x608060405234801561001057600080fd5b50610124806100206000396000f3fe6080604052348015600f57600080fd5b506004361060325760003560e01c80636bb12049146037578063943dfef114608a575b600080fd5b6078600480360360c0811015604b57600080fd5b508035906001600160a01b036020820135169060408101359060608101359060808101359060a001356090565b60408051918252519081900360200190f35b607860c9565b600060405162461bcd60e51b81526004018080602001828103825260218152602001806100cf6021913960400191505060405180910390fd5b600a9056fe476174657761792e7374616b65282920657865637574696f6e206661696c65642ea265627a7a7231582087464ee9be18967612344fb0426d2c1ccddd716851a2d5b5dc8110b2e8f5983264736f6c63430005100032",
  "source": "pragma solidity ^0.5.0;\n\n// Copyright 2018 OpenST Ltd.\n//\n// Licensed under the Apache License, Version 2.0 (the \"License\");\n// you may not use this file except in compliance with the License.\n// You may obtain a copy of the License at\n//\n//    http://www.apache.org/licenses/LICENSE-2.0\n//\n// Unless required by applicable law or agreed to in writing, software\n// distributed under the License is distributed on an \"AS IS\" BASIS,\n// WITHOUT WARRANTIES OR CONDITIONS OF ANY KIND, either express or implied.\n// See the License for the specific language governing permissions and\n// limitations under the License.\n\n\n/**\n * @title MockGatewayFail contract.\n *\n * @notice Mocks gateway contract for negative test cases.\n */\ncontract MockGatewayFail {\n\n    /* External Functions */\n\n    /**\n     * @notice Returns bounty amount.\n     *\n     * @return Amount of ERC20 which needs to be staked by facilitator.\n     */\n    function bounty()\n        external\n        pure\n        returns (uint256)\n    {\n        return 10;\n    }\n\n    /**\n     * @notice Mocks gateway.stake. It fails the execution.\n     *\n     * @dev parameters are in below order:\n     *      _amount\n     *      _beneficiary\n     *      _gasPrice\n     *      _gasLimit\n     *      _nonce\n     *      _hashLock\n     *\n     */\n    function stake(\n        uint256,\n        address,\n        uint256,\n        uint256,\n        uint256,\n        bytes32\n    )\n        pure\n        external\n        returns (bytes32)\n    {\n        require(false, \"Gateway.stake() execution failed.\");\n    }\n\n}\n",
  "sourcePath": "/Users/OST/Documents/dj/ost-opt-contracts/contracts/brandedtoken-contracts/contracts/test/gateway/MockGatewayFail.sol",
  "compiler": {
    "name": "solc",
    "version": "0.5.16+commit.9c3226ce.Emscripten.clang"
  },
  "schemaVersion": "3.0.21",
  "updatedAt": "2020-01-22T10:54:09.771Z",
  "devdoc": {
    "methods": {
      "bounty()": {
        "return": "Amount of ERC20 which needs to be staked by facilitator."
      },
      "stake(uint256,address,uint256,uint256,uint256,bytes32)": {
        "details": "parameters are in below order:     _amount     _beneficiary     _gasPrice     _gasLimit     _nonce     _hashLock     "
      }
    },
    "title": "MockGatewayFail contract."
  },
  "userdoc": {
    "methods": {
      "bounty()": {
        "notice": "Returns bounty amount."
      },
      "stake(uint256,address,uint256,uint256,uint256,bytes32)": {
        "notice": "Mocks gateway.stake. It fails the execution."
      }
    },
    "notice": "Mocks gateway contract for negative test cases."
  }
}