{
  "contractName": "MockContract",
  "abi": [
    {
      "inputs": [],
      "payable": false,
      "stateMutability": "nonpayable",
      "type": "constructor"
    },
    {
      "payable": true,
      "stateMutability": "payable",
      "type": "fallback"
    },
    {
      "constant": true,
      "inputs": [],
      "name": "MOCKS_LIST_END",
      "outputs": [
        {
          "internalType": "bytes",
          "name": "",
          "type": "bytes"
        }
      ],
      "payable": false,
      "stateMutability": "view",
      "type": "function"
    },
    {
      "constant": true,
      "inputs": [],
      "name": "MOCKS_LIST_END_HASH",
      "outputs": [
        {
          "internalType": "bytes32",
          "name": "",
          "type": "bytes32"
        }
      ],
      "payable": false,
      "stateMutability": "view",
      "type": "function"
    },
    {
      "constant": true,
      "inputs": [],
      "name": "MOCKS_LIST_START",
      "outputs": [
        {
          "internalType": "bytes32",
          "name": "",
          "type": "bytes32"
        }
      ],
      "payable": false,
      "stateMutability": "view",
      "type": "function"
    },
    {
      "constant": true,
      "inputs": [],
      "name": "SENTINEL_ANY_MOCKS",
      "outputs": [
        {
          "internalType": "bytes4",
          "name": "",
          "type": "bytes4"
        }
      ],
      "payable": false,
      "stateMutability": "view",
      "type": "function"
    },
    {
      "constant": false,
      "inputs": [
        {
          "internalType": "bytes",
          "name": "response",
          "type": "bytes"
        }
      ],
      "name": "givenAnyReturn",
      "outputs": [],
      "payable": false,
      "stateMutability": "nonpayable",
      "type": "function"
    },
    {
      "constant": false,
      "inputs": [
        {
          "internalType": "bool",
          "name": "response",
          "type": "bool"
        }
      ],
      "name": "givenAnyReturnBool",
      "outputs": [],
      "payable": false,
      "stateMutability": "nonpayable",
      "type": "function"
    },
    {
      "constant": false,
      "inputs": [
        {
          "internalType": "uint256",
          "name": "response",
          "type": "uint256"
        }
      ],
      "name": "givenAnyReturnUint",
      "outputs": [],
      "payable": false,
      "stateMutability": "nonpayable",
      "type": "function"
    },
    {
      "constant": false,
      "inputs": [
        {
          "internalType": "address",
          "name": "response",
          "type": "address"
        }
      ],
      "name": "givenAnyReturnAddress",
      "outputs": [],
      "payable": false,
      "stateMutability": "nonpayable",
      "type": "function"
    },
    {
      "constant": false,
      "inputs": [],
      "name": "givenAnyRevert",
      "outputs": [],
      "payable": false,
      "stateMutability": "nonpayable",
      "type": "function"
    },
    {
      "constant": false,
      "inputs": [
        {
          "internalType": "string",
          "name": "message",
          "type": "string"
        }
      ],
      "name": "givenAnyRevertWithMessage",
      "outputs": [],
      "payable": false,
      "stateMutability": "nonpayable",
      "type": "function"
    },
    {
      "constant": false,
      "inputs": [],
      "name": "givenAnyRunOutOfGas",
      "outputs": [],
      "payable": false,
      "stateMutability": "nonpayable",
      "type": "function"
    },
    {
      "constant": false,
      "inputs": [
        {
          "internalType": "bytes",
          "name": "call",
          "type": "bytes"
        },
        {
          "internalType": "bytes",
          "name": "response",
          "type": "bytes"
        }
      ],
      "name": "givenCalldataReturn",
      "outputs": [],
      "payable": false,
      "stateMutability": "nonpayable",
      "type": "function"
    },
    {
      "constant": false,
      "inputs": [
        {
          "internalType": "bytes",
          "name": "call",
          "type": "bytes"
        },
        {
          "internalType": "bool",
          "name": "response",
          "type": "bool"
        }
      ],
      "name": "givenCalldataReturnBool",
      "outputs": [],
      "payable": false,
      "stateMutability": "nonpayable",
      "type": "function"
    },
    {
      "constant": false,
      "inputs": [
        {
          "internalType": "bytes",
          "name": "call",
          "type": "bytes"
        },
        {
          "internalType": "uint256",
          "name": "response",
          "type": "uint256"
        }
      ],
      "name": "givenCalldataReturnUint",
      "outputs": [],
      "payable": false,
      "stateMutability": "nonpayable",
      "type": "function"
    },
    {
      "constant": false,
      "inputs": [
        {
          "internalType": "bytes",
          "name": "call",
          "type": "bytes"
        },
        {
          "internalType": "address",
          "name": "response",
          "type": "address"
        }
      ],
      "name": "givenCalldataReturnAddress",
      "outputs": [],
      "payable": false,
      "stateMutability": "nonpayable",
      "type": "function"
    },
    {
      "constant": false,
      "inputs": [
        {
          "internalType": "bytes",
          "name": "call",
          "type": "bytes"
        },
        {
          "internalType": "bytes",
          "name": "response",
          "type": "bytes"
        }
      ],
      "name": "givenMethodReturn",
      "outputs": [],
      "payable": false,
      "stateMutability": "nonpayable",
      "type": "function"
    },
    {
      "constant": false,
      "inputs": [
        {
          "internalType": "bytes",
          "name": "call",
          "type": "bytes"
        },
        {
          "internalType": "bool",
          "name": "response",
          "type": "bool"
        }
      ],
      "name": "givenMethodReturnBool",
      "outputs": [],
      "payable": false,
      "stateMutability": "nonpayable",
      "type": "function"
    },
    {
      "constant": false,
      "inputs": [
        {
          "internalType": "bytes",
          "name": "call",
          "type": "bytes"
        },
        {
          "internalType": "uint256",
          "name": "response",
          "type": "uint256"
        }
      ],
      "name": "givenMethodReturnUint",
      "outputs": [],
      "payable": false,
      "stateMutability": "nonpayable",
      "type": "function"
    },
    {
      "constant": false,
      "inputs": [
        {
          "internalType": "bytes",
          "name": "call",
          "type": "bytes"
        },
        {
          "internalType": "address",
          "name": "response",
          "type": "address"
        }
      ],
      "name": "givenMethodReturnAddress",
      "outputs": [],
      "payable": false,
      "stateMutability": "nonpayable",
      "type": "function"
    },
    {
      "constant": false,
      "inputs": [
        {
          "internalType": "bytes",
          "name": "call",
          "type": "bytes"
        }
      ],
      "name": "givenCalldataRevert",
      "outputs": [],
      "payable": false,
      "stateMutability": "nonpayable",
      "type": "function"
    },
    {
      "constant": false,
      "inputs": [
        {
          "internalType": "bytes",
          "name": "call",
          "type": "bytes"
        }
      ],
      "name": "givenMethodRevert",
      "outputs": [],
      "payable": false,
      "stateMutability": "nonpayable",
      "type": "function"
    },
    {
      "constant": false,
      "inputs": [
        {
          "internalType": "bytes",
          "name": "call",
          "type": "bytes"
        },
        {
          "internalType": "string",
          "name": "message",
          "type": "string"
        }
      ],
      "name": "givenCalldataRevertWithMessage",
      "outputs": [],
      "payable": false,
      "stateMutability": "nonpayable",
      "type": "function"
    },
    {
      "constant": false,
      "inputs": [
        {
          "internalType": "bytes",
          "name": "call",
          "type": "bytes"
        },
        {
          "internalType": "string",
          "name": "message",
          "type": "string"
        }
      ],
      "name": "givenMethodRevertWithMessage",
      "outputs": [],
      "payable": false,
      "stateMutability": "nonpayable",
      "type": "function"
    },
    {
      "constant": false,
      "inputs": [
        {
          "internalType": "bytes",
          "name": "call",
          "type": "bytes"
        }
      ],
      "name": "givenCalldataRunOutOfGas",
      "outputs": [],
      "payable": false,
      "stateMutability": "nonpayable",
      "type": "function"
    },
    {
      "constant": false,
      "inputs": [
        {
          "internalType": "bytes",
          "name": "call",
          "type": "bytes"
        }
      ],
      "name": "givenMethodRunOutOfGas",
      "outputs": [],
      "payable": false,
      "stateMutability": "nonpayable",
      "type": "function"
    },
    {
      "constant": false,
      "inputs": [],
      "name": "invocationCount",
      "outputs": [
        {
          "internalType": "uint256",
          "name": "",
          "type": "uint256"
        }
      ],
      "payable": false,
      "stateMutability": "nonpayable",
      "type": "function"
    },
    {
      "constant": false,
      "inputs": [
        {
          "internalType": "bytes",
          "name": "call",
          "type": "bytes"
        }
      ],
      "name": "invocationCountForMethod",
      "outputs": [
        {
          "internalType": "uint256",
          "name": "",
          "type": "uint256"
        }
      ],
      "payable": false,
      "stateMutability": "nonpayable",
      "type": "function"
    },
    {
      "constant": false,
      "inputs": [
        {
          "internalType": "bytes",
          "name": "call",
          "type": "bytes"
        }
      ],
      "name": "invocationCountForCalldata",
      "outputs": [
        {
          "internalType": "uint256",
          "name": "",
          "type": "uint256"
        }
      ],
      "payable": false,
      "stateMutability": "nonpayable",
      "type": "function"
    },
    {
      "constant": false,
      "inputs": [],
      "name": "reset",
      "outputs": [],
      "payable": false,
      "stateMutability": "nonpayable",
      "type": "function"
    }
  ],
  "bytecode": "0x60806040523480156200001157600080fd5b50604080518082019091526004815263183c333360e11b6020808301918252600160f81b6000908152905290516200006b917f82ac279db26a206d9ba5a94c07ff940aea4b3bfde8820ec95f4efa0acfd0d5bc91620000b1565b50600160f81b60005260056020527fde001afd1f75281f9d2ab22d4e0166be5a51dd890d7492e8fbf3e412e05eac0a805463ffffffff1916630100000017905562000156565b828054600181600116156101000203166002900490600052602060002090601f016020900481019282601f10620000f457805160ff191683800117855562000124565b8280016001018555821562000124579182015b828111156200012457825182559160200191906001019062000107565b506200013292915062000136565b5090565b6200015391905b808211156200013257600081556001016200013d565b90565b6125de80620001666000396000f3fe6080604052600436106101c25760003560e01c806387abab65116100f7578063cf11ff5d11610095578063e211b8a511610064578063e211b8a5146111bb578063eb861f69146111d0578063f07da2291461124b578063f5afa9c11461127d576101c2565b8063cf11ff5d1461102c578063d6fe9778146110b0578063d73ca0ac1461112b578063d826f88f146111a6576101c2565b8063aa788c55116100d1578063aa788c5514610e38578063af21ac7814610eb3578063b3901f2914610edd578063c6ee167f14610f61576101c2565b806387abab6514610c275780639a1dc86b14610ca25780639eaeed7514610d6d576101c2565b80635a3855ab11610164578063682b47971161013e578063682b479714610a7257806368ab6f2f14610aa55780636f40075614610b205780637cd96ee414610b9d576101c2565b80635a3855ab14610915578063619365941461099257806367aad04a14610a5d576101c2565b806336ff0ee5116101a057806336ff0ee5146107de5780633956dc6b1461080a5780634937c4f61461081f578063586984a41461089a576101c2565b80630a20119f1461072557806321fed4d61461074c5780632ed238dc146107c9575b60003560018060003660405180838380828437919091019485525050604051928390036020019092205460ff1691505060028111156101fd57fe5b14156102bf576003600036604051808383808284379190910194855250506040516020938190038401812062461bcd60e51b8252600482019485528054600260018216156101000260001901909116046024830181905290949350839250604490910190849080156102b05780601f10610285576101008083540402835291602001916102b0565b820191906000526020600020905b81548152906001019060200180831161029357829003601f168201915b50509250505060405180910390fd5b6002600160003660405180838380828437919091019485525050604051928390036020019092205460ff1691505060028111156102f857fe5b1415610306576103066112f8565b60606002600036604051808383808284379190910194855250506040805160209481900385018120805460026001821615610100026000190190911604601f810187900487028301870190935282825290949093509091508301828280156103af5780601f10610384576101008083540402835291602001916103af565b820191906000526020600020905b81548152906001019060200180831161039257829003601f168201915b505050505090508051600014156105435760016001600160e01b0319831660009081526006602052604090205460ff1660028111156103ea57fe5b1415610465576001600160e01b03198216600090815260086020908152604091829020915162461bcd60e51b81526004810191825282546002600019610100600184161502019091160460248201819052829160440190849080156102b05780601f10610285576101008083540402835291602001916102b0565b60026001600160e01b0319831660009081526006602052604090205460ff16600281111561048f57fe5b141561049d5761049d6112f8565b6001600160e01b0319821660009081526007602090815260409182902080548351601f60026000196101006001861615020190931692909204918201849004840281018401909452808452909183018282801561053b5780601f106105105761010080835404028352916020019161053b565b820191906000526020600020905b81548152906001019060200180831161051e57829003601f168201915b505050505090505b8051610672576001600a5460ff16600281111561055c57fe5b14156105c35760405162461bcd60e51b8152602060048201908152600c8054600260001961010060018416150201909116046024840181905290928291604490910190849080156102b05780601f10610285576101008083540402835291602001916102b0565b6002600a5460ff1660028111156105d657fe5b14156105e4576105e46112f8565b600b805460408051602060026001851615610100026000190190941693909304601f8101849004840282018401909252818152929183018282801561066a5780601f1061063f5761010080835404028352916020019161066a565b820191906000526020600020905b81548152906001019060200180831161064d57829003601f168201915b505050505090505b600d80546001908101909155600e8054604080516020808201939093526001600160e01b031987168183015281516024818303018152604482018352805190840120600090815260099093529082208054850190559154606483018181526004938391369160840183838082843780830192505050935050505060405160208183030381529060405280519060200120815260200190815260200160002060008282540192505081905550805181602001f35b34801561073157600080fd5b5061073a611314565b60408051918252519081900360200190f35b34801561075857600080fd5b506107c76004803603602081101561076f57600080fd5b810190602081018135600160201b81111561078957600080fd5b82018360208201111561079b57600080fd5b803590602001918460018302840111600160201b831117156107bc57600080fd5b50909250905061131b565b005b3480156107d557600080fd5b5061073a6113a2565b3480156107ea57600080fd5b506107c76004803603602081101561080157600080fd5b50351515611418565b34801561081657600080fd5b506107c761143f565b34801561082b57600080fd5b5061073a6004803603602081101561084257600080fd5b810190602081018135600160201b81111561085c57600080fd5b82018360208201111561086e57600080fd5b803590602001918460018302840111600160201b8311171561088f57600080fd5b50909250905061144e565b3480156108a657600080fd5b5061073a600480360360208110156108bd57600080fd5b810190602081018135600160201b8111156108d757600080fd5b8201836020820111156108e957600080fd5b803590602001918460018302840111600160201b8311171561090a57600080fd5b5090925090506114df565b34801561092157600080fd5b506107c76004803603604081101561093857600080fd5b810190602081018135600160201b81111561095257600080fd5b82018360208201111561096457600080fd5b803590602001918460018302840111600160201b8311171561098557600080fd5b9193509150351515611536565b34801561099e57600080fd5b506107c7600480360360408110156109b557600080fd5b810190602081018135600160201b8111156109cf57600080fd5b8201836020820111156109e157600080fd5b803590602001918460018302840111600160201b83111715610a0257600080fd5b919390929091602081019035600160201b811115610a1f57600080fd5b820183602082011115610a3157600080fd5b803590602001918460018302840111600160201b83111715610a5257600080fd5b50909250905061159c565b348015610a6957600080fd5b5061073a61160f565b348015610a7e57600080fd5b506107c760048036036020811015610a9557600080fd5b50356001600160a01b0316611617565b348015610ab157600080fd5b506107c760048036036020811015610ac857600080fd5b810190602081018135600160201b811115610ae257600080fd5b820183602082011115610af457600080fd5b803590602001918460018302840111600160201b83111715610b1557600080fd5b509092509050611626565b348015610b2c57600080fd5b506107c760048036036040811015610b4357600080fd5b810190602081018135600160201b811115610b5d57600080fd5b820183602082011115610b6f57600080fd5b803590602001918460018302840111600160201b83111715610b9057600080fd5b91935091503515156116a3565b348015610ba957600080fd5b50610bb2611703565b6040805160208082528351818301528351919283929083019185019080838360005b83811015610bec578181015183820152602001610bd4565b50505050905090810190601f168015610c195780820380516001836020036101000a031916815260200191505b509250505060405180910390f35b348015610c3357600080fd5b506107c760048036036020811015610c4a57600080fd5b810190602081018135600160201b811115610c6457600080fd5b820183602082011115610c7657600080fd5b803590602001918460018302840111600160201b83111715610c9757600080fd5b509092509050611723565b348015610cae57600080fd5b506107c760048036036040811015610cc557600080fd5b810190602081018135600160201b811115610cdf57600080fd5b820183602082011115610cf157600080fd5b803590602001918460018302840111600160201b83111715610d1257600080fd5b919390929091602081019035600160201b811115610d2f57600080fd5b820183602082011115610d4157600080fd5b803590602001918460018302840111600160201b83111715610d6257600080fd5b50909250905061173c565b348015610d7957600080fd5b506107c760048036036040811015610d9057600080fd5b810190602081018135600160201b811115610daa57600080fd5b820183602082011115610dbc57600080fd5b803590602001918460018302840111600160201b83111715610ddd57600080fd5b919390929091602081019035600160201b811115610dfa57600080fd5b820183602082011115610e0c57600080fd5b803590602001918460018302840111600160201b83111715610e2d57600080fd5b5090925090506117ca565b348015610e4457600080fd5b506107c760048036036020811015610e5b57600080fd5b810190602081018135600160201b811115610e7557600080fd5b820183602082011115610e8757600080fd5b803590602001918460018302840111600160201b83111715610ea857600080fd5b509092509050611883565b348015610ebf57600080fd5b506107c760048036036020811015610ed657600080fd5b50356118f0565b348015610ee957600080fd5b506107c760048036036040811015610f0057600080fd5b810190602081018135600160201b811115610f1a57600080fd5b820183602082011115610f2c57600080fd5b803590602001918460018302840111600160201b83111715610f4d57600080fd5b9193509150356001600160a01b03166118fc565b348015610f6d57600080fd5b506107c760048036036040811015610f8457600080fd5b810190602081018135600160201b811115610f9e57600080fd5b820183602082011115610fb057600080fd5b803590602001918460018302840111600160201b83111715610fd157600080fd5b919390929091602081019035600160201b811115610fee57600080fd5b82018360208201111561100057600080fd5b803590602001918460018302840111600160201b8311171561102157600080fd5b509092509050611941565b34801561103857600080fd5b506107c76004803603604081101561104f57600080fd5b810190602081018135600160201b81111561106957600080fd5b82018360208201111561107b57600080fd5b803590602001918460018302840111600160201b8311171561109c57600080fd5b9193509150356001600160a01b03166119b4565b3480156110bc57600080fd5b506107c7600480360360208110156110d357600080fd5b810190602081018135600160201b8111156110ed57600080fd5b8201836020820111156110ff57600080fd5b803590602001918460018302840111600160201b8311171561112057600080fd5b5090925090506119f9565b34801561113757600080fd5b506107c76004803603604081101561114e57600080fd5b810190602081018135600160201b81111561116857600080fd5b82018360208201111561117a57600080fd5b803590602001918460018302840111600160201b8311171561119b57600080fd5b919350915035611a38565b3480156111b257600080fd5b506107c7611a7d565b3480156111c757600080fd5b506107c7611fb7565b3480156111dc57600080fd5b506107c7600480360360208110156111f357600080fd5b810190602081018135600160201b81111561120d57600080fd5b82018360208201111561121f57600080fd5b803590602001918460018302840111600160201b8311171561124057600080fd5b509092509050611fe2565b34801561125757600080fd5b5061126061160f565b604080516001600160e01b03199092168252519081900360200190f35b34801561128957600080fd5b506107c7600480360360408110156112a057600080fd5b810190602081018135600160201b8111156112ba57600080fd5b8201836020820111156112cc57600080fd5b803590602001918460018302840111600160201b831117156112ed57600080fd5b9193509150356120af565b5b60006060600060c060008060066107d05a03f19050506112f9565b600d545b90565b6002600183836040518083838082843791909101948552505060405192839003602001909220805490925060ff19169050600183600281111561135a57fe5b021790555061139e82828080601f0160208091040260200160405190810160405280939291908181526020018383808284376000920191909152506120f492505050565b5050565b604080518082018252600480825263183c333360e11b602083019081529251919282918083835b602083106113e85780518252601f1990920191602091820191016113c9565b6001836020036101000a038019825116818451168082178552505050505050905001915050604051809103902081565b600081611426576000611429565b60015b60ff16905061139e61143a82612191565b6121bb565b600a805460ff19166002179055565b60008061149084848080601f0160208091040260200160405190810160405280939291908181526020018383808284376000920191909152506121d892505050565b600e54604080516020808201939093526001600160e01b031990931683820152805160248185030181526044909301815282519282019290922060009081526009909152205491505092915050565b600060046000600e5485856040516020018084815260200183838082843780830192505050935050505060405160208183030381529060405280519060200120815260200190815260200160002054905092915050565b600081611544576000611547565b60015b60ff16905061159684848080601f01602080910402602001604051908101604052809392919081815260200183838082843760009201919091525061159192508591506121919050565b61221b565b50505050565b61159684848080601f01602080910402602001604051908101604052809392919081815260200183838082843760009201919091525050604080516020601f8801819004810282018101909252868152925086915085908190840183828082843760009201919091525061221b92505050565b600160f81b81565b61162361143a82612316565b50565b600061166783838080601f0160208091040260200160405190810160405280939291908181526020018383808284376000920191909152506121d892505050565b6001600160e01b031981166000908152600660205260409020805491925060029160ff19166001835b021790555061169e81612330565b505050565b6000816116b15760006116b4565b60015b60ff16905061159684848080601f0160208091040260200160405190810160405280939291908181526020018383808284376000920191909152506116fe92508591506121919050565b6123bb565b60405180604001604052806004815260200163183c333360e11b81525081565b600a805460ff1916600117905561169e600c838361240e565b600061177d85858080601f0160208091040260200160405190810160405280939291908181526020018383808284376000920191909152506121d892505050565b6001600160e01b031981166000908152600660209081526040808320805460ff19166001179055600890915290209091506117b990848461240e565b506117c381612330565b5050505050565b60018085856040518083838082843791909101948552505060405192839003602001909220805490925060ff19169050600183600281111561180857fe5b02179055508181600386866040518083838082843780830192505050925050509081526020016040518091039020919061184392919061240e565b5061159684848080601f0160208091040260200160405190810160405280939291908181526020018383808284376000920191909152506120f492505050565b60006118c483838080601f0160208091040260200160405190810160405280939291908181526020018383808284376000920191909152506121d892505050565b6001600160e01b031981166000908152600660205260409020805491925060019160ff19168280611690565b61162361143a82612191565b61169e83838080601f01602080910402602001604051908101604052809392919081815260200183838082843760009201919091525061159192508591506123169050565b61159684848080601f01602080910402602001604051908101604052809392919081815260200183838082843760009201919091525050604080516020601f880181900481028201810190925286815292508691508590819084018382808284376000920191909152506123bb92505050565b61169e83838080601f0160208091040260200160405190810160405280939291908181526020018383808284376000920191909152506116fe92508591506123169050565b61139e82828080601f0160208091040260200160405190810160405280939291908181526020018383808284376000920191909152506121bb92505050565b61169e83838080601f01602080910402602001604051908101604052809392919081815260200183838082843760009201919091525061159192508591506121919050565b600160f81b6000908152602090815260008051602061258a83398151915280546040805160026001841615610100026000190190931692909204601f8101859004850283018501909152808252606093919291830182828015611b215780601f10611af657610100808354040283529160200191611b21565b820191906000526020600020905b815481529060010190602001808311611b0457829003601f168201915b5050835160208501209394505050505b604080518082018252600480825263183c333360e11b602083019081529251919282918083835b60208310611b775780518252601f199092019160209182019101611b58565b6001836020036101000a03801982511681845116808217855250505050505090500191505060405180910390208114611e015760006001836040518082805190602001908083835b60208310611bde5780518252601f199092019160209182019101611bbf565b51815160209384036101000a60001901801990921691161790529201948552506040519384900301909220805490925060ff191690506001836002811115611c2257fe5b0217905550604051806020016040528060008152506002836040518082805190602001908083835b60208310611c695780518252601f199092019160209182019101611c4a565b51815160209384036101000a60001901801990921691161790529201948552506040519384900381019093208451611caa959194919091019250905061248c565b50604051806020016040528060008152506003836040518082805190602001908083835b60208310611ced5780518252601f199092019160209182019101611cce565b51815160209384036101000a60001901801990921691161790529201948552506040519384900381019093208451611d2e959194919091019250905061248c565b506000818152602081815260409182902080548351601f600260001961010060018616150201909316929092049182018490048402810184019094528084529091830182828015611dc05780601f10611d9557610100808354040283529160200191611dc0565b820191906000526020600020905b815481529060010190602001808311611da357829003601f168201915b50506040805160208082018084526000808452898152918290529290209051959750611df395909450909250905061248c565b505080516020820120611b31565b604080518082019091526004815263183c333360e11b6020808301918252600160f81b600090815290529051611e469160008051602061258a8339815191529161248c565b50600160f81b60005260056020527fde001afd1f75281f9d2ab22d4e0166be5a51dd890d7492e8fbf3e412e05eac0a5460e01b5b6001600160e01b03198116600160f81b14611f3a576001600160e01b031981166000818152600660209081526040808320805460ff191690558051808301808352848252948452600790925290912090518392611ed7929161248c565b5060408051602080820180845260008084526001600160e01b03198616815260089092529290209051611f0a929061248c565b506001600160e01b0319166000908152600560205260409020805463ffffffff19811690915560e01b9050611e7a565b600160f81b6000908152600560209081527fde001afd1f75281f9d2ab22d4e0166be5a51dd890d7492e8fbf3e412e05eac0a805463ffffffff19166301000000179055604080519182019081905290829052611f9991600b919061248c565b5050600a805460ff1916905550506000600d55600e80546001019055565b600a805460ff1916600117905560408051602081019182905260009081905261162391600c9161248c565b60018083836040518083838082843791909101948552505060405192839003602001909220805490925060ff19169050600183600281111561202057fe5b021790555060405180602001604052806000815250600383836040518083838082843780830192505050925050509081526020016040518091039020908051906020019061206f92919061248c565b5061139e82828080601f0160208091040260200160405190810160405280939291908181526020018383808284376000920191909152506120f492505050565b61169e83838080601f0160208091040260200160405190810160405280939291908181526020018383808284376000920191909152506116fe92508591506121919050565b80516020808301919091206000818152918290526040909120546002600019610100600184161502019091160461139e57600060208190528181526040902060008051602061258a8339815191528054612162929190600260001961010060018416150201909116046124fa565b50600160f81b60009081526020908152825161169e9160008051602061258a833981519152919085019061248c565b60408051602080825281830190925260609160208201818038833950505060208101929092525090565b600a805460ff19169055805161139e90600b90602084019061248c565b600080805b600481101561221457806008028482815181106121f657fe5b01602001516001600160f81b031916901c91909117906001016121dd565b5092915050565b60006001836040518082805190602001908083835b6020831061224f5780518252601f199092019160209182019101612230565b51815160209384036101000a60001901801990921691161790529201948552506040519384900301909220805490925060ff19169050600183600281111561229357fe5b0217905550806002836040518082805190602001908083835b602083106122cb5780518252601f1990920191602091820191016122ac565b51815160209384036101000a6000190180199092169116179052920194855250604051938490038101909320845161230c959194919091019250905061248c565b5061139e826120f4565b60408051600560a21b909218601483015260348201905290565b6001600160e01b031980821660009081526005602052604090205460e01b166116235760056020527fde001afd1f75281f9d2ab22d4e0166be5a51dd890d7492e8fbf3e412e05eac0a80546001600160e01b03198316600090815260408120805463ffffffff90931663ffffffff19938416179055600160f81b9052815460e084901c911617905550565b60006123c6836121d8565b6001600160e01b031981166000908152600660209081526040808320805460ff1916905560078252909120845192935061240492909185019061248c565b5061169e81612330565b828054600181600116156101000203166002900490600052602060002090601f016020900481019282601f1061244f5782800160ff1982351617855561247c565b8280016001018555821561247c579182015b8281111561247c578235825591602001919060010190612461565b5061248892915061256f565b5090565b828054600181600116156101000203166002900490600052602060002090601f016020900481019282601f106124cd57805160ff191683800117855561247c565b8280016001018555821561247c579182015b8281111561247c5782518255916020019190600101906124df565b828054600181600116156101000203166002900490600052602060002090601f016020900481019282601f10612533578054855561247c565b8280016001018555821561247c57600052602060002091601f016020900482015b8281111561247c578254825591600101919060010190612554565b61131891905b80821115612488576000815560010161257556fe82ac279db26a206d9ba5a94c07ff940aea4b3bfde8820ec95f4efa0acfd0d5bca265627a7a72315820546fe153157c7d4d7350fb96eb681e98e82eb27ad0f1755c646793e0510d89b064736f6c63430005100032",
  "source": "pragma solidity ^0.5.0;\n\ninterface MockInterface {\n\t/**\n\t * @dev After calling this method, the mock will return `response` when it is called\n\t * with any calldata that is not mocked more specifically below\n\t * (e.g. using givenMethodReturn).\n\t * @param response ABI encoded response that will be returned if method is invoked\n\t */\n\tfunction givenAnyReturn(bytes calldata response) external;\n\tfunction givenAnyReturnBool(bool response) external;\n\tfunction givenAnyReturnUint(uint response) external;\n\tfunction givenAnyReturnAddress(address response) external;\n\n\tfunction givenAnyRevert() external;\n\tfunction givenAnyRevertWithMessage(string calldata message) external;\n\tfunction givenAnyRunOutOfGas() external;\n\n\t/**\n\t * @dev After calling this method, the mock will return `response` when the given\n\t * methodId is called regardless of arguments. If the methodId and arguments\n\t * are mocked more specifically (using `givenMethodAndArguments`) the latter\n\t * will take precedence.\n\t * @param method ABI encoded methodId. It is valid to pass full calldata (including arguments). The mock will extract the methodId from it\n\t * @param response ABI encoded response that will be returned if method is invoked\n\t */\n\tfunction givenMethodReturn(bytes calldata method, bytes calldata response) external;\n\tfunction givenMethodReturnBool(bytes calldata method, bool response) external;\n\tfunction givenMethodReturnUint(bytes calldata method, uint response) external;\n\tfunction givenMethodReturnAddress(bytes calldata method, address response) external;\n\n\tfunction givenMethodRevert(bytes calldata method) external;\n\tfunction givenMethodRevertWithMessage(bytes calldata method, string calldata message) external;\n\tfunction givenMethodRunOutOfGas(bytes calldata method) external;\n\n\t/**\n\t * @dev After calling this method, the mock will return `response` when the given\n\t * methodId is called with matching arguments. These exact calldataMocks will take\n\t * precedence over all other calldataMocks.\n\t * @param call ABI encoded calldata (methodId and arguments)\n\t * @param response ABI encoded response that will be returned if contract is invoked with calldata\n\t */\n\tfunction givenCalldataReturn(bytes calldata call, bytes calldata response) external;\n\tfunction givenCalldataReturnBool(bytes calldata call, bool response) external;\n\tfunction givenCalldataReturnUint(bytes calldata call, uint response) external;\n\tfunction givenCalldataReturnAddress(bytes calldata call, address response) external;\n\n\tfunction givenCalldataRevert(bytes calldata data) external;\n\tfunction givenCalldataRevertWithMessage(bytes calldata data, string calldata message) external;\n\tfunction givenCalldataRunOutOfGas(bytes calldata data) external;\n\n\t/**\n\t * @dev Returns the number of times anything has been called on this mock since last reset\n\t */\n\tfunction invocationCount() external returns (uint);\n\n\t/**\n\t * @dev Returns the number of times the given method has been called on this mock since last reset\n\t * @param method ABI encoded methodId. It is valid to pass full calldata (including arguments). The mock will extract the methodId from it\n\t */\n\tfunction invocationCountForMethod(bytes calldata method) external returns (uint);\n\n\t/**\n\t * @dev Returns the number of times this mock has been called with the exact calldata since last reset.\n\t * @param call ABI encoded calldata (methodId and arguments)\n\t */\n\tfunction invocationCountForCalldata(bytes calldata call) external returns (uint);\n\n\t/**\n\t * @dev Resets all mocked methods and invocation counts.\n\t */\n\t function reset() external;\n}\n\n/**\n * Implementation of the MockInterface.\n */\ncontract MockContract is MockInterface {\n\tenum MockType { Return, Revert, OutOfGas }\n\t\n\tbytes32 public constant MOCKS_LIST_START = hex\"01\";\n\tbytes public constant MOCKS_LIST_END = \"0xff\";\n\tbytes32 public constant MOCKS_LIST_END_HASH = keccak256(MOCKS_LIST_END);\n\tbytes4 public constant SENTINEL_ANY_MOCKS = hex\"01\";\n\n\t// A linked list allows easy iteration and inclusion checks\n\tmapping(bytes32 => bytes) calldataMocks;\n\tmapping(bytes => MockType) calldataMockTypes;\n\tmapping(bytes => bytes) calldataExpectations;\n\tmapping(bytes => string) calldataRevertMessage;\n\tmapping(bytes32 => uint) calldataInvocations;\n\n\tmapping(bytes4 => bytes4) methodIdMocks;\n\tmapping(bytes4 => MockType) methodIdMockTypes;\n\tmapping(bytes4 => bytes) methodIdExpectations;\n\tmapping(bytes4 => string) methodIdRevertMessages;\n\tmapping(bytes32 => uint) methodIdInvocations;\n\n\tMockType fallbackMockType;\n\tbytes fallbackExpectation;\n\tstring fallbackRevertMessage;\n\tuint invocations;\n\tuint resetCount;\n\n\tconstructor() public {\n\t\tcalldataMocks[MOCKS_LIST_START] = MOCKS_LIST_END;\n\t\tmethodIdMocks[SENTINEL_ANY_MOCKS] = SENTINEL_ANY_MOCKS;\n\t}\n\n\tfunction trackCalldataMock(bytes memory call) private {\n\t\tbytes32 callHash = keccak256(call);\n\t\tif (calldataMocks[callHash].length == 0) {\n\t\t\tcalldataMocks[callHash] = calldataMocks[MOCKS_LIST_START];\n\t\t\tcalldataMocks[MOCKS_LIST_START] = call;\n\t\t}\n\t}\n\n\tfunction trackMethodIdMock(bytes4 methodId) private {\n\t\tif (methodIdMocks[methodId] == 0x0) {\n\t\t\tmethodIdMocks[methodId] = methodIdMocks[SENTINEL_ANY_MOCKS];\n\t\t\tmethodIdMocks[SENTINEL_ANY_MOCKS] = methodId;\n\t\t}\n\t}\n\n\tfunction _givenAnyReturn(bytes memory response) internal {\n\t\tfallbackMockType = MockType.Return;\n\t\tfallbackExpectation = response;\n\t}\n\n\tfunction givenAnyReturn(bytes calldata response) external {\n\t\t_givenAnyReturn(response);\n\t}\n\n\tfunction givenAnyReturnBool(bool response) external {\n\t\tuint flag = response ? 1 : 0;\n\t\t_givenAnyReturn(uintToBytes(flag));\n\t}\n\n\tfunction givenAnyReturnUint(uint response) external {\n\t\t_givenAnyReturn(uintToBytes(response));\t\n\t}\n\n\tfunction givenAnyReturnAddress(address response) external {\n\t\t_givenAnyReturn(addressToBytes(response));\n\t}\n\n\tfunction givenAnyRevert() external {\n\t\tfallbackMockType = MockType.Revert;\n\t\tfallbackRevertMessage = \"\";\n\t}\n\n\tfunction givenAnyRevertWithMessage(string calldata message) external {\n\t\tfallbackMockType = MockType.Revert;\n\t\tfallbackRevertMessage = message;\n\t}\n\n\tfunction givenAnyRunOutOfGas() external {\n\t\tfallbackMockType = MockType.OutOfGas;\n\t}\n\n\tfunction _givenCalldataReturn(bytes memory call, bytes memory response) private  {\n\t\tcalldataMockTypes[call] = MockType.Return;\n\t\tcalldataExpectations[call] = response;\n\t\ttrackCalldataMock(call);\n\t}\n\n\tfunction givenCalldataReturn(bytes calldata call, bytes calldata response) external  {\n\t\t_givenCalldataReturn(call, response);\n\t}\n\n\tfunction givenCalldataReturnBool(bytes calldata call, bool response) external {\n\t\tuint flag = response ? 1 : 0;\n\t\t_givenCalldataReturn(call, uintToBytes(flag));\n\t}\n\n\tfunction givenCalldataReturnUint(bytes calldata call, uint response) external {\n\t\t_givenCalldataReturn(call, uintToBytes(response));\n\t}\n\n\tfunction givenCalldataReturnAddress(bytes calldata call, address response) external {\n\t\t_givenCalldataReturn(call, addressToBytes(response));\n\t}\n\n\tfunction _givenMethodReturn(bytes memory call, bytes memory response) private {\n\t\tbytes4 method = bytesToBytes4(call);\n\t\tmethodIdMockTypes[method] = MockType.Return;\n\t\tmethodIdExpectations[method] = response;\n\t\ttrackMethodIdMock(method);\t\t\n\t}\n\n\tfunction givenMethodReturn(bytes calldata call, bytes calldata response) external {\n\t\t_givenMethodReturn(call, response);\n\t}\n\n\tfunction givenMethodReturnBool(bytes calldata call, bool response) external {\n\t\tuint flag = response ? 1 : 0;\n\t\t_givenMethodReturn(call, uintToBytes(flag));\n\t}\n\n\tfunction givenMethodReturnUint(bytes calldata call, uint response) external {\n\t\t_givenMethodReturn(call, uintToBytes(response));\n\t}\n\n\tfunction givenMethodReturnAddress(bytes calldata call, address response) external {\n\t\t_givenMethodReturn(call, addressToBytes(response));\n\t}\n\n\tfunction givenCalldataRevert(bytes calldata call) external {\n\t\tcalldataMockTypes[call] = MockType.Revert;\n\t\tcalldataRevertMessage[call] = \"\";\n\t\ttrackCalldataMock(call);\n\t}\n\n\tfunction givenMethodRevert(bytes calldata call) external {\n\t\tbytes4 method = bytesToBytes4(call);\n\t\tmethodIdMockTypes[method] = MockType.Revert;\n\t\ttrackMethodIdMock(method);\t\t\n\t}\n\n\tfunction givenCalldataRevertWithMessage(bytes calldata call, string calldata message) external {\n\t\tcalldataMockTypes[call] = MockType.Revert;\n\t\tcalldataRevertMessage[call] = message;\n\t\ttrackCalldataMock(call);\n\t}\n\n\tfunction givenMethodRevertWithMessage(bytes calldata call, string calldata message) external {\n\t\tbytes4 method = bytesToBytes4(call);\n\t\tmethodIdMockTypes[method] = MockType.Revert;\n\t\tmethodIdRevertMessages[method] = message;\n\t\ttrackMethodIdMock(method);\t\t\n\t}\n\n\tfunction givenCalldataRunOutOfGas(bytes calldata call) external {\n\t\tcalldataMockTypes[call] = MockType.OutOfGas;\n\t\ttrackCalldataMock(call);\n\t}\n\n\tfunction givenMethodRunOutOfGas(bytes calldata call) external {\n\t\tbytes4 method = bytesToBytes4(call);\n\t\tmethodIdMockTypes[method] = MockType.OutOfGas;\n\t\ttrackMethodIdMock(method);\t\n\t}\n\n\tfunction invocationCount() external returns (uint) {\n\t\treturn invocations;\n\t}\n\n\tfunction invocationCountForMethod(bytes calldata call) external returns (uint) {\n\t\tbytes4 method = bytesToBytes4(call);\n\t\treturn methodIdInvocations[keccak256(abi.encodePacked(resetCount, method))];\n\t}\n\n\tfunction invocationCountForCalldata(bytes calldata call) external returns (uint) {\n\t\treturn calldataInvocations[keccak256(abi.encodePacked(resetCount, call))];\n\t}\n\n\tfunction reset() external {\n\t\t// Reset all exact calldataMocks\n\t\tbytes memory nextMock = calldataMocks[MOCKS_LIST_START];\n\t\tbytes32 mockHash = keccak256(nextMock);\n\t\t// We cannot compary bytes\n\t\twhile(mockHash != MOCKS_LIST_END_HASH) {\n\t\t\t// Reset all mock maps\n\t\t\tcalldataMockTypes[nextMock] = MockType.Return;\n\t\t\tcalldataExpectations[nextMock] = hex\"\";\n\t\t\tcalldataRevertMessage[nextMock] = \"\";\n\t\t\t// Set next mock to remove\n\t\t\tnextMock = calldataMocks[mockHash];\n\t\t\t// Remove from linked list\n\t\t\tcalldataMocks[mockHash] = \"\";\n\t\t\t// Update mock hash\n\t\t\tmockHash = keccak256(nextMock);\n\t\t}\n\t\t// Clear list\n\t\tcalldataMocks[MOCKS_LIST_START] = MOCKS_LIST_END;\n\n\t\t// Reset all any calldataMocks\n\t\tbytes4 nextAnyMock = methodIdMocks[SENTINEL_ANY_MOCKS];\n\t\twhile(nextAnyMock != SENTINEL_ANY_MOCKS) {\n\t\t\tbytes4 currentAnyMock = nextAnyMock;\n\t\t\tmethodIdMockTypes[currentAnyMock] = MockType.Return;\n\t\t\tmethodIdExpectations[currentAnyMock] = hex\"\";\n\t\t\tmethodIdRevertMessages[currentAnyMock] = \"\";\n\t\t\tnextAnyMock = methodIdMocks[currentAnyMock];\n\t\t\t// Remove from linked list\n\t\t\tmethodIdMocks[currentAnyMock] = 0x0;\n\t\t}\n\t\t// Clear list\n\t\tmethodIdMocks[SENTINEL_ANY_MOCKS] = SENTINEL_ANY_MOCKS;\n\n\t\tfallbackExpectation = \"\";\n\t\tfallbackMockType = MockType.Return;\n\t\tinvocations = 0;\n\t\tresetCount += 1;\n\t}\n\n\tfunction useAllGas() private {\n\t\twhile(true) {\n\t\t\tbool s;\n\t\t\tassembly {\n\t\t\t\t//expensive call to EC multiply contract\n\t\t\t\ts := call(sub(gas, 2000), 6, 0, 0x0, 0xc0, 0x0, 0x60)\n\t\t\t}\n\t\t}\n\t}\n\n\tfunction bytesToBytes4(bytes memory b) private pure returns (bytes4) {\n  \t\tbytes4 out;\n  \t\tfor (uint i = 0; i < 4; i++) {\n    \t\tout |= bytes4(b[i] & 0xFF) >> (i * 8);\n  \t\t}\n  \t\treturn out;\n\t}\n\n\tfunction addressToBytes(address a) private pure returns (bytes memory b){\n   \t\tassembly {\n        \tlet m := mload(0x40)\n        \tmstore(add(m, 20), xor(0x140000000000000000000000000000000000000000, a))\n        \tmstore(0x40, add(m, 52))\n        \tb := m\n   \t\t}\n\t}\n\n\tfunction uintToBytes(uint256 x) private pure returns (bytes memory b) {\n    \tb = new bytes(32);\n    \tassembly { mstore(add(b, 32), x) }\n\t}\n\n\tfunction() payable external {\n\t\tbytes4 methodId;\n\t\tassembly {\n\t\t\tmethodId := calldataload(0)\n\t\t}\n\n\t\t// First, check exact matching overrides\n\t\tif (calldataMockTypes[msg.data] == MockType.Revert) {\n\t\t\trevert(calldataRevertMessage[msg.data]);\n\t\t}\n\t\tif (calldataMockTypes[msg.data] == MockType.OutOfGas) {\n\t\t\tuseAllGas();\n\t\t}\n\t\tbytes memory result = calldataExpectations[msg.data];\n\n\t\t// Then check method Id overrides\n\t\tif (result.length == 0) {\n\t\t\tif (methodIdMockTypes[methodId] == MockType.Revert) {\n\t\t\t\trevert(methodIdRevertMessages[methodId]);\n\t\t\t}\n\t\t\tif (methodIdMockTypes[methodId] == MockType.OutOfGas) {\n\t\t\t\tuseAllGas();\n\t\t\t}\n\t\t\tresult = methodIdExpectations[methodId];\n\t\t}\n\n\t\t// Last, use the fallback override\n\t\tif (result.length == 0) {\n\t\t\tif (fallbackMockType == MockType.Revert) {\n\t\t\t\trevert(fallbackRevertMessage);\n\t\t\t}\n\t\t\tif (fallbackMockType == MockType.OutOfGas) {\n\t\t\t\tuseAllGas();\n\t\t\t}\n\t\t\tresult = fallbackExpectation;\n\t\t}\n\n\t\t// Record invocation\n\t\tinvocations += 1;\n\t\tmethodIdInvocations[keccak256(abi.encodePacked(resetCount, methodId))] += 1;\n\t\tcalldataInvocations[keccak256(abi.encodePacked(resetCount, msg.data))] += 1;\n\n\t\tassembly {\n\t\t\treturn(add(0x20, result), mload(result))\n\t\t}\n\t}\n}\n",
  "sourcePath": "@gnosis.pm/mock-contract/contracts/MockContract.sol",
  "compiler": {
    "name": "solc",
    "version": "0.5.16+commit.9c3226ce.Emscripten.clang"
  },
  "schemaVersion": "3.0.21",
  "updatedAt": "2020-01-22T10:54:09.883Z",
  "devdoc": {
    "methods": {}
  },
  "userdoc": {
    "methods": {},
    "notice": "Implementation of the MockInterface."
  }
}