{
  "contractName": "MockGatewayPass",
  "abi": [
    {
      "constant": true,
      "inputs": [],
      "name": "bounty",
      "outputs": [
        {
          "internalType": "uint256",
          "name": "",
          "type": "uint256"
        }
      ],
      "payable": false,
      "stateMutability": "pure",
      "type": "function"
    },
    {
      "constant": true,
      "inputs": [
        {
          "internalType": "uint256",
          "name": "",
          "type": "uint256"
        },
        {
          "internalType": "address",
          "name": "",
          "type": "address"
        },
        {
          "internalType": "uint256",
          "name": "",
          "type": "uint256"
        },
        {
          "internalType": "uint256",
          "name": "",
          "type": "uint256"
        },
        {
          "internalType": "uint256",
          "name": "",
          "type": "uint256"
        },
        {
          "internalType": "bytes32",
          "name": "",
          "type": "bytes32"
        }
      ],
      "name": "stake",
      "outputs": [
        {
          "internalType": "bytes32",
          "name": "",
          "type": "bytes32"
        }
      ],
      "payable": false,
      "stateMutability": "pure",
      "type": "function"
    },
    {
      "constant": true,
      "inputs": [
        {
          "internalType": "bytes32",
          "name": "",
          "type": "bytes32"
        }
      ],
      "name": "revertStake",
      "outputs": [
        {
          "internalType": "address",
          "name": "",
          "type": "address"
        },
        {
          "internalType": "uint256",
          "name": "",
          "type": "uint256"
        },
        {
          "internalType": "uint256",
          "name": "",
          "type": "uint256"
        }
      ],
      "payable": false,
      "stateMutability": "pure",
      "type": "function"
    }
  ],
  "bytecode": "0x608060405234801561001057600080fd5b5061012c806100206000396000f3fe6080604052348015600f57600080fd5b5060043610603c5760003560e01c8063212dbdbe1460415780636bb12049146083578063943dfef11460d6575b600080fd5b605b60048036036020811015605557600080fd5b503560dc565b604080516001600160a01b039094168452602084019290925282820152519081900360600190f35b60c4600480360360c0811015609757600080fd5b508035906001600160a01b036020820135169060408101359060608101359060808101359060a0013560e6565b60408051918252519081900360200190f35b60c460f2565b5060009081908190565b60009695505050505050565b60009056fea265627a7a723158207fa7aeace7de3ca36fa4a25984bbc2d378246d5b876d21c50f86481acb8176da64736f6c63430005100032",
  "source": "pragma solidity ^0.5.0;\n\n// Copyright 2018 OpenST Ltd.\n//\n// Licensed under the Apache License, Version 2.0 (the \"License\");\n// you may not use this file except in compliance with the License.\n// You may obtain a copy of the License at\n//\n//    http://www.apache.org/licenses/LICENSE-2.0\n//\n// Unless required by applicable law or agreed to in writing, software\n// distributed under the License is distributed on an \"AS IS\" BASIS,\n// WITHOUT WARRANTIES OR CONDITIONS OF ANY KIND, either express or implied.\n// See the License for the specific language governing permissions and\n// limitations under the License.\n\n\n/**\n * @title MockGatewayPass contract.\n *\n * @notice Mocks gateway contract with successful returns.\n */\ncontract MockGatewayPass {\n\n    /* External Functions */\n\n    /**\n     * @notice Returns bounty amount.\n     *\n     * @return Amount of ERC20 which needs to be staked by facilitator.\n     */\n    function bounty()\n        external\n        pure\n        returns (uint256)\n    {\n        return 0;\n    }\n\n    /**\n     * @notice Initiates the stake process. In order to stake the staker\n     *         needs to approve Gateway contract for stake amount.\n     *         Staked amount is transferred from staker address to\n     *         Gateway contract. Bounty amount is also transferred from staker.\n     *\n     * @dev parameters are in below order:\n     *      _amount\n     *      _beneficiary\n     *      _gasPrice\n     *      _gasLimit\n     *      _nonce\n     *      _hashLock\n     *\n     * @return Message hash unique for each request.\n     */\n    function stake(\n        uint256,\n        address,\n        uint256,\n        uint256,\n        uint256,\n        bytes32\n    )\n        external\n        pure\n        returns (bytes32)\n    {\n        return bytes32(0);\n    }\n\n    /**\n     * @notice Revert stake process and get the stake\n     *         amount back. Only staker can revert stake by providing\n     *         penalty i.e. 1.5 times of bounty amount. On progress revert stake\n     *         penalty and facilitator bounty will be burned.\n     *\n     * @dev The only parameter is _messageHash.\n     *\n     *      Returns are in below order:\n     *      - staker_\n     *      - stakerNonce_\n     *      - amount_\n     */\n    function revertStake(\n        bytes32\n    )\n        external\n        pure\n        returns (address, uint256, uint256)\n    {\n        return (address(0), uint256(0), uint256(0));\n    }\n}\n",
  "sourcePath": "/Users/OST/Documents/dj/ost-opt-contracts/contracts/brandedtoken-contracts/contracts/test/gateway/MockGatewayPass.sol",
  "compiler": {
    "name": "solc",
    "version": "0.5.16+commit.9c3226ce.Emscripten.clang"
  },
  "schemaVersion": "3.0.21",
  "updatedAt": "2020-01-19T09:48:26.030Z",
  "devdoc": {
    "methods": {
      "bounty()": {
        "return": "Amount of ERC20 which needs to be staked by facilitator."
      },
      "revertStake(bytes32)": {
        "details": "The only parameter is _messageHash.     *      Returns are in below order:     - staker_     - stakerNonce_     - amount_"
      },
      "stake(uint256,address,uint256,uint256,uint256,bytes32)": {
        "details": "parameters are in below order:     _amount     _beneficiary     _gasPrice     _gasLimit     _nonce     _hashLock",
        "return": "Message hash unique for each request."
      }
    },
    "title": "MockGatewayPass contract."
  },
  "userdoc": {
    "methods": {
      "bounty()": {
        "notice": "Returns bounty amount."
      },
      "revertStake(bytes32)": {
        "notice": "Revert stake process and get the stake        amount back. Only staker can revert stake by providing        penalty i.e. 1.5 times of bounty amount. On progress revert stake        penalty and facilitator bounty will be burned."
      },
      "stake(uint256,address,uint256,uint256,uint256,bytes32)": {
        "notice": "Initiates the stake process. In order to stake the staker        needs to approve Gateway contract for stake amount.        Staked amount is transferred from staker address to        Gateway contract. Bounty amount is also transferred from staker."
      }
    },
    "notice": "Mocks gateway contract with successful returns."
  }
}