{
  "contractName": "ModuleManager",
  "abi": [
    {
      "anonymous": false,
      "inputs": [
        {
          "indexed": false,
          "internalType": "address",
          "name": "newContract",
          "type": "address"
        }
      ],
      "name": "ContractCreation",
      "type": "event"
    },
    {
      "anonymous": false,
      "inputs": [
        {
          "indexed": false,
          "internalType": "contract Module",
          "name": "module",
          "type": "address"
        }
      ],
      "name": "DisabledModule",
      "type": "event"
    },
    {
      "anonymous": false,
      "inputs": [
        {
          "indexed": false,
          "internalType": "contract Module",
          "name": "module",
          "type": "address"
        }
      ],
      "name": "EnabledModule",
      "type": "event"
    },
    {
      "payable": true,
      "stateMutability": "payable",
      "type": "fallback"
    },
    {
      "constant": true,
      "inputs": [],
      "name": "SENTINEL_MODULES",
      "outputs": [
        {
          "internalType": "address",
          "name": "",
          "type": "address"
        }
      ],
      "payable": false,
      "stateMutability": "view",
      "type": "function"
    },
    {
      "constant": false,
      "inputs": [
        {
          "internalType": "contract Module",
          "name": "module",
          "type": "address"
        }
      ],
      "name": "enableModule",
      "outputs": [],
      "payable": false,
      "stateMutability": "nonpayable",
      "type": "function"
    },
    {
      "constant": false,
      "inputs": [
        {
          "internalType": "contract Module",
          "name": "prevModule",
          "type": "address"
        },
        {
          "internalType": "contract Module",
          "name": "module",
          "type": "address"
        }
      ],
      "name": "disableModule",
      "outputs": [],
      "payable": false,
      "stateMutability": "nonpayable",
      "type": "function"
    },
    {
      "constant": false,
      "inputs": [
        {
          "internalType": "address",
          "name": "to",
          "type": "address"
        },
        {
          "internalType": "uint256",
          "name": "value",
          "type": "uint256"
        },
        {
          "internalType": "bytes",
          "name": "data",
          "type": "bytes"
        },
        {
          "internalType": "enum Enum.Operation",
          "name": "operation",
          "type": "uint8"
        }
      ],
      "name": "execTransactionFromModule",
      "outputs": [
        {
          "internalType": "bool",
          "name": "success",
          "type": "bool"
        }
      ],
      "payable": false,
      "stateMutability": "nonpayable",
      "type": "function"
    },
    {
      "constant": true,
      "inputs": [],
      "name": "getModules",
      "outputs": [
        {
          "internalType": "address[]",
          "name": "",
          "type": "address[]"
        }
      ],
      "payable": false,
      "stateMutability": "view",
      "type": "function"
    }
  ],
  "bytecode": "0x608060405234801561001057600080fd5b506108b3806100206000396000f3fe60806040526004361061004a5760003560e01c8063468721a71461004c578063610b59251461012d57806385e332cd14610160578063b2494df314610191578063e009cfde146101f6575b005b34801561005857600080fd5b506101196004803603608081101561006f57600080fd5b6001600160a01b038235169160208101359181019060608101604082013564010000000081111561009f57600080fd5b8201836020820111156100b157600080fd5b803590602001918460018302840111640100000000831117156100d357600080fd5b91908080601f0160208091040260200160405190810160405280939291908181526020018383808284376000920191909152509295505050903560ff1691506102319050565b604080519115158252519081900360200190f35b34801561013957600080fd5b5061004a6004803603602081101561015057600080fd5b50356001600160a01b031661029b565b34801561016c57600080fd5b5061017561044c565b604080516001600160a01b039092168252519081900360200190f35b34801561019d57600080fd5b506101a6610451565b60408051602080825283518183015283519192839290830191858101910280838360005b838110156101e25781810151838201526020016101ca565b505050509050019250505060405180910390f35b34801561020257600080fd5b5061004a6004803603604081101561021957600080fd5b506001600160a01b0381358116916020013516610592565b336000908152602081905260408120546001600160a01b03166102855760405162461bcd60e51b815260040180806020018281038252603081526020018061084f6030913960400191505060405180910390fd5b610292858585855a61071a565b95945050505050565b3330146102d95760405162461bcd60e51b815260040180806020018281038252602c815260200180610823602c913960400191505060405180910390fd5b6001600160a01b038116158015906102fb57506001600160a01b038116600114155b61034c576040805162461bcd60e51b815260206004820152601f60248201527f496e76616c6964206d6f64756c6520616464726573732070726f766964656400604482015290519081900360640190fd5b6001600160a01b0381811660009081526020819052604090205416156103b9576040805162461bcd60e51b815260206004820152601d60248201527f4d6f64756c652068617320616c7265616479206265656e206164646564000000604482015290519081900360640190fd5b600060208181527fada5013122d395ba3c54772283fb069b10426056ef8ca54750cb9bb552a59e7d80546001600160a01b0385811680865260408087208054939094166001600160a01b031993841617909355600190955282541684179091558051928352517fecdf3a3effea5783a3c4c2140e677577666428d44ed9d474a0b3a4c9943f84409281900390910190a150565b600181565b6001600090815260208190527fada5013122d395ba3c54772283fb069b10426056ef8ca54750cb9bb552a59e7d54606091906001600160a01b03165b6001600160a01b0381166001146104c5576001600160a01b03908116600090815260208190526040902054600192909201911661048d565b6060826040519080825280602002602001820160405280156104f1578160200160208202803883390190505b506001600090815260208190527fada5013122d395ba3c54772283fb069b10426056ef8ca54750cb9bb552a59e7d549094506001600160a01b0316925090505b6001600160a01b03821660011461058b578181848151811061054f57fe5b6001600160a01b039283166020918202929092018101919091529281166000908152928390526040909220546001939093019290911690610531565b9250505090565b3330146105d05760405162461bcd60e51b815260040180806020018281038252602c815260200180610823602c913960400191505060405180910390fd5b6001600160a01b038116158015906105f257506001600160a01b038116600114155b610643576040805162461bcd60e51b815260206004820152601f60248201527f496e76616c6964206d6f64756c6520616464726573732070726f766964656400604482015290519081900360640190fd5b6001600160a01b0382811660009081526020819052604090205481169082161461069e5760405162461bcd60e51b81526004018080602001828103825260288152602001806107fb6028913960400191505060405180910390fd5b6001600160a01b03818116600081815260208181526040808320805488871685528285208054919097166001600160a01b031991821617909655928490528254909416909155825191825291517faab4fa2b463f581b2b32cb3b7e3b704b9ce37cc209b5fb4d77e593ace4054276929181900390910190a15050565b60008083600281111561072957fe5b14156107425761073b868686856107bb565b9050610292565b600183600281111561075057fe5b14156107615761073b8685846107d3565b600061076c856107e9565b604080516001600160a01b038316808252915191151594509192507f4db17dd5e4732fb6da34a148104a592783ca119a1e7bb8829eba6cbadef0b5119181900360200190a15095945050505050565b6000806000845160208601878987f195945050505050565b60008060008451602086018786f4949350505050565b60008151602083016000f09291505056fe496e76616c696420707265764d6f64756c652c206d6f64756c6520706169722070726f76696465644d6574686f642063616e206f6e6c792062652063616c6c65642066726f6d207468697320636f6e74726163744d6574686f642063616e206f6e6c792062652063616c6c65642066726f6d20616e20656e61626c6564206d6f64756c65a265627a7a7231582070e17c51cf299441f6fc17aec25e2f0057cbabf64462ed824c5ecfef4be0159664736f6c63430005100032",
  "source": "pragma solidity ^0.5.0;\nimport \"../common/Enum.sol\";\nimport \"../common/SelfAuthorized.sol\";\nimport \"./Executor.sol\";\nimport \"./Module.sol\";\n\n\n/// @title Module Manager - A contract that manages modules that can execute transactions via this contract\n/// @author Stefan George - <stefan@gnosis.pm>\n/// @author Richard Meissner - <richard@gnosis.pm>\ncontract ModuleManager is SelfAuthorized, Executor {\n\n    event EnabledModule(Module module);\n    event DisabledModule(Module module);\n\n    address public constant SENTINEL_MODULES = address(0x1);\n\n    mapping (address => address) internal modules;\n    \n    function setupModules(address to, bytes memory data)\n        internal\n    {\n        require(modules[SENTINEL_MODULES] == address(0), \"Modules have already been initialized\");\n        modules[SENTINEL_MODULES] = SENTINEL_MODULES;\n        if (to != address(0))\n            // Setup has to complete successfully or transaction fails.\n            require(executeDelegateCall(to, data, gasleft()), \"Could not finish initialization\");\n    }\n\n    /// @dev Allows to add a module to the whitelist.\n    ///      This can only be done via a Safe transaction.\n    /// @param module Module to be whitelisted.\n    function enableModule(Module module)\n        public\n        authorized\n    {\n        // Module address cannot be null or sentinel.\n        require(address(module) != address(0) && address(module) != SENTINEL_MODULES, \"Invalid module address provided\");\n        // Module cannot be added twice.\n        require(modules[address(module)] == address(0), \"Module has already been added\");\n        modules[address(module)] = modules[SENTINEL_MODULES];\n        modules[SENTINEL_MODULES] = address(module);\n        emit EnabledModule(module);\n    }\n\n    /// @dev Allows to remove a module from the whitelist.\n    ///      This can only be done via a Safe transaction.\n    /// @param prevModule Module that pointed to the module to be removed in the linked list\n    /// @param module Module to be removed.\n    function disableModule(Module prevModule, Module module)\n        public\n        authorized\n    {\n        // Validate module address and check that it corresponds to module index.\n        require(address(module) != address(0) && address(module) != SENTINEL_MODULES, \"Invalid module address provided\");\n        require(modules[address(prevModule)] == address(module), \"Invalid prevModule, module pair provided\");\n        modules[address(prevModule)] = modules[address(module)];\n        modules[address(module)] = address(0);\n        emit DisabledModule(module);\n    }\n\n    /// @dev Allows a Module to execute a Safe transaction without any further confirmations.\n    /// @param to Destination address of module transaction.\n    /// @param value Ether value of module transaction.\n    /// @param data Data payload of module transaction.\n    /// @param operation Operation type of module transaction.\n    function execTransactionFromModule(address to, uint256 value, bytes memory data, Enum.Operation operation)\n        public\n        returns (bool success)\n    {\n        // Only whitelisted modules are allowed.\n        require(modules[msg.sender] != address(0), \"Method can only be called from an enabled module\");\n        // Execute transaction without further confirmations.\n        success = execute(to, value, data, operation, gasleft());\n    }\n\n    /// @dev Returns array of modules.\n    /// @return Array of modules.\n    function getModules()\n        public\n        view\n        returns (address[] memory)\n    {\n        // Calculate module count\n        uint256 moduleCount = 0;\n        address currentModule = modules[SENTINEL_MODULES];\n        while(currentModule != SENTINEL_MODULES) {\n            currentModule = modules[currentModule];\n            moduleCount ++;\n        }\n        address[] memory array = new address[](moduleCount);\n\n        // populate return array\n        moduleCount = 0;\n        currentModule = modules[SENTINEL_MODULES];\n        while(currentModule != SENTINEL_MODULES) {\n            array[moduleCount] = currentModule;\n            currentModule = modules[currentModule];\n            moduleCount ++;\n        }\n        return array;\n    }\n}\n",
  "sourcePath": "/Users/OST/Documents/dj/ost-opt-contracts/contracts/openst-contracts/external/gnosis/safe-contracts/contracts/base/ModuleManager.sol",
  "compiler": {
    "name": "solc",
    "version": "0.5.16+commit.9c3226ce.Emscripten.clang"
  },
  "schemaVersion": "3.0.21",
  "updatedAt": "2020-01-22T10:54:09.857Z",
  "devdoc": {
    "author": "Stefan George - <stefan@gnosis.pm>Richard Meissner - <richard@gnosis.pm>",
    "methods": {
      "disableModule(address,address)": {
        "details": "Allows to remove a module from the whitelist.      This can only be done via a Safe transaction.",
        "params": {
          "module": "Module to be removed.",
          "prevModule": "Module that pointed to the module to be removed in the linked list"
        }
      },
      "enableModule(address)": {
        "details": "Allows to add a module to the whitelist.      This can only be done via a Safe transaction.",
        "params": {
          "module": "Module to be whitelisted."
        }
      },
      "execTransactionFromModule(address,uint256,bytes,uint8)": {
        "details": "Allows a Module to execute a Safe transaction without any further confirmations.",
        "params": {
          "data": "Data payload of module transaction.",
          "operation": "Operation type of module transaction.",
          "to": "Destination address of module transaction.",
          "value": "Ether value of module transaction."
        }
      },
      "getModules()": {
        "details": "Returns array of modules.",
        "return": "Array of modules."
      }
    },
    "title": "Module Manager - A contract that manages modules that can execute transactions via this contract"
  },
  "userdoc": {
    "methods": {}
  }
}