{
  "contractName": "Module",
  "abi": [
    {
      "constant": false,
      "inputs": [
        {
          "internalType": "address",
          "name": "_masterCopy",
          "type": "address"
        }
      ],
      "name": "changeMasterCopy",
      "outputs": [],
      "payable": false,
      "stateMutability": "nonpayable",
      "type": "function"
    },
    {
      "constant": true,
      "inputs": [],
      "name": "manager",
      "outputs": [
        {
          "internalType": "contract ModuleManager",
          "name": "",
          "type": "address"
        }
      ],
      "payable": false,
      "stateMutability": "view",
      "type": "function"
    }
  ],
  "bytecode": "0x608060405234801561001057600080fd5b506101c5806100206000396000f3fe608060405234801561001057600080fd5b50600436106100365760003560e01c8063481c6a751461003b5780637de7edef1461005f575b600080fd5b610043610087565b604080516001600160a01b039092168252519081900360200190f35b6100856004803603602081101561007557600080fd5b50356001600160a01b0316610096565b005b6001546001600160a01b031681565b6001546001600160a01b031633146100df5760405162461bcd60e51b815260040180806020018281038252602681526020018061016b6026913960400191505060405180910390fd5b6001600160a01b0381166101245760405162461bcd60e51b81526004018080602001828103825260248152602001806101476024913960400191505060405180910390fd5b600080546001600160a01b0319166001600160a01b039290921691909117905556fe496e76616c6964206d617374657220636f707920616464726573732070726f76696465644d6574686f642063616e206f6e6c792062652063616c6c65642066726f6d206d616e61676572a265627a7a72315820a0600e3fd3108b95b5caa9d76ae893540ac61481d5cc38b97d3be2c12de5acae64736f6c63430005100032",
  "source": "pragma solidity ^0.5.0;\nimport \"../common/MasterCopy.sol\";\nimport \"./ModuleManager.sol\";\n\n\n/// @title Module - Base class for modules.\n/// @author Stefan George - <stefan@gnosis.pm>\n/// @author Richard Meissner - <richard@gnosis.pm>\ncontract Module is MasterCopy {\n\n    ModuleManager public manager;\n\n    modifier authorized() {\n        require(msg.sender == address(manager), \"Method can only be called from manager\");\n        _;\n    }\n\n    function setManager()\n        internal\n    {\n        // manager can only be 0 at initalization of contract.\n        // Check ensures that setup function can only be called once.\n        require(address(manager) == address(0), \"Manager has already been set\");\n        manager = ModuleManager(msg.sender);\n    }\n}\n",
  "sourcePath": "/Users/OST/Documents/dj/ost-opt-contracts/contracts/openst-contracts/external/gnosis/safe-contracts/contracts/base/Module.sol",
  "compiler": {
    "name": "solc",
    "version": "0.5.16+commit.9c3226ce.Emscripten.clang"
  },
  "schemaVersion": "3.0.21",
  "updatedAt": "2020-01-22T10:54:09.856Z",
  "devdoc": {
    "author": "Stefan George - <stefan@gnosis.pm>Richard Meissner - <richard@gnosis.pm>",
    "methods": {
      "changeMasterCopy(address)": {
        "details": "Allows to upgrade the contract. This can only be done via a Safe transaction.",
        "params": {
          "_masterCopy": "New contract address."
        }
      }
    },
    "title": "Module - Base class for modules."
  },
  "userdoc": {
    "methods": {}
  }
}