{
  "contractName": "OptimalWalletCreator",
  "abi": [
    {
      "inputs": [
        {
          "internalType": "address",
          "name": "_ubtContractAddr",
          "type": "address"
        },
        {
          "internalType": "address",
          "name": "_walletFactoryContractAddr",
          "type": "address"
        },
        {
          "internalType": "contract OrganizationInterface",
          "name": "_organization",
          "type": "address"
        }
      ],
      "payable": false,
      "stateMutability": "nonpayable",
      "type": "constructor"
    },
    {
      "constant": true,
      "inputs": [],
      "name": "organization",
      "outputs": [
        {
          "internalType": "contract OrganizationInterface",
          "name": "",
          "type": "address"
        }
      ],
      "payable": false,
      "stateMutability": "view",
      "type": "function"
    },
    {
      "constant": false,
      "inputs": [
        {
          "internalType": "address",
          "name": "_gnosisSafeMasterCopy",
          "type": "address"
        },
        {
          "internalType": "bytes",
          "name": "_gnosisSafeData",
          "type": "bytes"
        },
        {
          "internalType": "address",
          "name": "_tokenHolderMasterCopy",
          "type": "address"
        },
        {
          "internalType": "address",
          "name": "_token",
          "type": "address"
        },
        {
          "internalType": "address",
          "name": "_tokenRules",
          "type": "address"
        },
        {
          "internalType": "address[]",
          "name": "_sessionKeys",
          "type": "address[]"
        },
        {
          "internalType": "uint256[]",
          "name": "_sessionKeysSpendingLimits",
          "type": "uint256[]"
        },
        {
          "internalType": "uint256[]",
          "name": "_sessionKeysExpirationHeights",
          "type": "uint256[]"
        },
        {
          "internalType": "address[]",
          "name": "_internalActors",
          "type": "address[]"
        }
      ],
      "name": "optimalCall",
      "outputs": [],
      "payable": false,
      "stateMutability": "nonpayable",
      "type": "function"
    }
  ],
  "bytecode": "0x608060405234801561001057600080fd5b506040516108033803806108038339818101604052606081101561003357600080fd5b5080516020820151604090920151909190806001600160a01b03811661008a5760405162461bcd60e51b815260040180806020018281038252602f8152602001806107d4602f913960400191505060405180910390fd5b600080546001600160a01b039283166001600160a01b0319918216179091556001805494831694821694909417909355600280549490911693909216929092179055506106f8806100dc6000396000f3fe608060405234801561001057600080fd5b50600436106100365760003560e01c80630ad8d04d1461003b57806323bd4d7a1461031c575b600080fd5b61031a600480360361012081101561005257600080fd5b6001600160a01b038235169190810190604081016020820135600160201b81111561007c57600080fd5b82018360208201111561008e57600080fd5b803590602001918460018302840111600160201b831117156100af57600080fd5b91908080601f01602080910402602001604051908101604052809392919081815260200183838082843760009201919091525092956001600160a01b038535811696602087013582169660408101359092169550919350909150608081019060600135600160201b81111561012357600080fd5b82018360208201111561013557600080fd5b803590602001918460208302840111600160201b8311171561015657600080fd5b9190808060200260200160405190810160405280939291908181526020018383602002808284376000920191909152509295949360208101935035915050600160201b8111156101a557600080fd5b8201836020820111156101b757600080fd5b803590602001918460208302840111600160201b831117156101d857600080fd5b9190808060200260200160405190810160405280939291908181526020018383602002808284376000920191909152509295949360208101935035915050600160201b81111561022757600080fd5b82018360208201111561023957600080fd5b803590602001918460208302840111600160201b8311171561025a57600080fd5b9190808060200260200160405190810160405280939291908181526020018383602002808284376000920191909152509295949360208101935035915050600160201b8111156102a957600080fd5b8201836020820111156102bb57600080fd5b803590602001918460208302840111600160201b831117156102dc57600080fd5b919080806020026020016040519081016040528093929190818152602001838360200280828437600092019190915250929550610340945050505050565b005b61032461067b565b604080516001600160a01b039092168252519081900360200190f35b6000546040805163aa15664560e01b815233600482015290516001600160a01b039092169163aa15664591602480820192602092909190829003018186803b15801561038b57600080fd5b505afa15801561039f573d6000803e3d6000fd5b505050506040513d60208110156103b557600080fd5b50516103f25760405162461bcd60e51b815260040180806020018281038252603981526020018061068b6039913960400191505060405180910390fd5b60015460405163d94c252960e01b81526001600160a01b038b8116600483019081528a8216604484015289821660648401528882166084840152610100602484019081528c516101048501528c51929094169363d94c2529938e938e938e938e938e938e938e938e939192909160a481019160c482019160e48101916101249091019060208e019080838360005b83811015610498578181015183820152602001610480565b50505050905090810190601f1680156104c55780820380516001836020036101000a031916815260200191505b508581038452885181528851602091820191808b01910280838360005b838110156104fa5781810151838201526020016104e2565b50505050905001858103835287818151815260200191508051906020019060200280838360005b83811015610539578181015183820152602001610521565b50505050905001858103825286818151815260200191508051906020019060200280838360005b83811015610578578181015183820152602001610560565b505050509050019c505050505050505050505050506040805180830381600087803b1580156105a657600080fd5b505af11580156105ba573d6000803e3d6000fd5b505050506040513d60408110156105d057600080fd5b5050600254604051630908693760e41b81526020600482018181528451602484015284516001600160a01b039094169363908693709386938392604490920191858201910280838360005b8381101561063357818101518382015260200161061b565b5050505090500192505050600060405180830381600087803b15801561065857600080fd5b505af115801561066c573d6000803e3d6000fd5b50505050505050505050505050565b6000546001600160a01b03168156fe4f6e6c792077686974656c697374656420776f726b6572732061726520616c6c6f77656420746f2063616c6c2074686973206d6574686f642ea265627a7a7231582069fca6d8a55fefd49e33f2372eccb8b05f37603bd30a8bb6581b171b96c6bc1b64736f6c634300051000324f7267616e697a6174696f6e20636f6e74726163742061646472657373206d757374206e6f74206265207a65726f2e",
  "source": "pragma solidity ^0.5.0;\n\nimport \"./brandedtoken-contracts/contracts/UtilityBrandedToken.sol\";\nimport \"./openst-contracts/contracts/proxies/UserWalletFactory.sol\";\nimport \"./brandedtoken-contracts/contracts/utilitytoken/contracts/organization/contracts/OrganizationInterface.sol\";\nimport \"./brandedtoken-contracts/contracts/utilitytoken/contracts/organization/contracts/Organized.sol\";\n\n/**\n * @title Allows to call function createUserWallet from UserWalletFactory\n *        Allows to call function registerInternalActors from UtilityBrandedToken\n *        Two methods called in single transaction\n */\n\ncontract OptimalWalletCreator is Organized {\n\n    UserWalletFactory userWalletFactory;\n    UtilityBrandedToken utilityBrandedToken;\n\n    constructor(\n        address _ubtContractAddr,\n        address _walletFactoryContractAddr,\n        OrganizationInterface _organization\n    )\n        public\n        Organized(_organization)\n    {\n        userWalletFactory = UserWalletFactory(_walletFactoryContractAddr);\n        utilityBrandedToken = UtilityBrandedToken(_ubtContractAddr);\n    }\n\n    /* External Functions  */\n\n    /**\n    * @notice Create a new gnosis safe proxy and executes a\n    *         message call to the newly created proxy. Afterwards, in the same\n    *         transaction, creates a new token holder proxy by specifying\n    *         as an owner the newly created gnosis safe proxy contract.\n    *         Registers internal actors.\n    *\n    * @param _gnosisSafeMasterCopy The address of a master copy of gnosis safe.\n    * @param _gnosisSafeData The message data to be called on a newly created\n    *                        gnosis safe proxy.\n    * @param _tokenHolderMasterCopy The address of a master copy of token\n    *                               holder.\n    * @param _token The address of the economy token.\n    * @param _tokenRules The address of the token rules.\n    * @param _sessionKeys Session key addresses to authorize.\n    * @param _sessionKeysSpendingLimits Session keys' spending limits.\n    * @param _sessionKeysExpirationHeights Session keys' expiration heights.\n    * @param _internalActors Array of addresses of the internal actors to register.\n    */\n\n    function optimalCall(\n        address _gnosisSafeMasterCopy,\n        bytes memory _gnosisSafeData,\n        address _tokenHolderMasterCopy,\n        address _token,\n        address _tokenRules,\n        address[] memory _sessionKeys,\n        uint256[] memory _sessionKeysSpendingLimits,\n        uint256[] memory _sessionKeysExpirationHeights,\n        address[] memory _internalActors\n    )\n        public\n        onlyWorker\n    {\n\n        userWalletFactory.createUserWallet(\n            _gnosisSafeMasterCopy,\n            _gnosisSafeData,\n            _tokenHolderMasterCopy,\n            _token,\n            _tokenRules,\n            _sessionKeys,\n            _sessionKeysSpendingLimits,\n            _sessionKeysExpirationHeights\n        );\n\n        /*\n         * first call to createWalletUser with all above parameters\n         */\n        utilityBrandedToken.registerInternalActors(_internalActors);\n\n        /*\n         * second call to registerInternalActors from UtilityBrandedToken\n         * considering that this contract is set as a worker already by the organization\n         */\n    }\n}",
  "sourcePath": "/Users/OST/Documents/dj/ost-opt-contracts/contracts/OptimalWalletCreator.sol",
  "compiler": {
    "name": "solc",
    "version": "0.5.16+commit.9c3226ce.Emscripten.clang"
  },
  "schemaVersion": "3.0.21",
  "updatedAt": "2020-01-19T12:15:30.025Z",
  "devdoc": {
    "methods": {
      "optimalCall(address,bytes,address,address,address,address[],uint256[],uint256[],address[])": {
        "params": {
          "_gnosisSafeData": "The message data to be called on a newly created                       gnosis safe proxy.",
          "_gnosisSafeMasterCopy": "The address of a master copy of gnosis safe.",
          "_internalActors": "Array of addresses of the internal actors to register.",
          "_sessionKeys": "Session key addresses to authorize.",
          "_sessionKeysExpirationHeights": "Session keys' expiration heights.",
          "_sessionKeysSpendingLimits": "Session keys' spending limits.",
          "_token": "The address of the economy token.",
          "_tokenHolderMasterCopy": "The address of a master copy of token                              holder.",
          "_tokenRules": "The address of the token rules."
        }
      }
    },
    "title": "Allows to call function createUserWallet from UserWalletFactory       Allows to call function registerInternalActors from UtilityBrandedToken       Two methods called in single transaction"
  },
  "userdoc": {
    "methods": {
      "optimalCall(address,bytes,address,address,address,address[],uint256[],uint256[],address[])": {
        "notice": "Create a new gnosis safe proxy and executes a        message call to the newly created proxy. Afterwards, in the same        transaction, creates a new token holder proxy by specifying        as an owner the newly created gnosis safe proxy contract.        Registers internal actors."
      }
    }
  }
}