{
  "contractName": "OptimalWalletCreator",
  "abi": [
    {
      "inputs": [
        {
          "internalType": "address",
          "name": "_ubtContractAddr",
          "type": "address"
        },
        {
          "internalType": "address",
          "name": "_walletFactoryContractAddr",
          "type": "address"
        },
        {
          "internalType": "contract OrganizationInterface",
          "name": "_organization",
          "type": "address"
        }
      ],
      "payable": true,
      "stateMutability": "payable",
      "type": "constructor"
    },
    {
      "anonymous": false,
      "inputs": [
        {
          "indexed": false,
          "internalType": "address",
          "name": "_gnosisSafeProxy",
          "type": "address"
        },
        {
          "indexed": false,
          "internalType": "address",
          "name": "_tokenHolderProxy",
          "type": "address"
        }
      ],
      "name": "TuppleEmitted",
      "type": "event"
    },
    {
      "constant": true,
      "inputs": [],
      "name": "organization",
      "outputs": [
        {
          "internalType": "contract OrganizationInterface",
          "name": "",
          "type": "address"
        }
      ],
      "payable": false,
      "stateMutability": "view",
      "type": "function"
    },
    {
      "constant": false,
      "inputs": [
        {
          "internalType": "address",
          "name": "_gnosisSafeMasterCopy",
          "type": "address"
        },
        {
          "internalType": "bytes",
          "name": "_gnosisSafeData",
          "type": "bytes"
        },
        {
          "internalType": "address",
          "name": "_tokenHolderMasterCopy",
          "type": "address"
        },
        {
          "internalType": "address",
          "name": "_token",
          "type": "address"
        },
        {
          "internalType": "address",
          "name": "_tokenRules",
          "type": "address"
        },
        {
          "internalType": "address[]",
          "name": "_sessionKeys",
          "type": "address[]"
        },
        {
          "internalType": "uint256[]",
          "name": "_sessionKeysSpendingLimits",
          "type": "uint256[]"
        },
        {
          "internalType": "uint256[]",
          "name": "_sessionKeysExpirationHeights",
          "type": "uint256[]"
        }
      ],
      "name": "optimalCall",
      "outputs": [
        {
          "internalType": "contract Proxy",
          "name": "gnosisSafeProxy_",
          "type": "address"
        },
        {
          "internalType": "contract Proxy",
          "name": "tokenHolderProxy_",
          "type": "address"
        }
      ],
      "payable": false,
      "stateMutability": "nonpayable",
      "type": "function"
    }
  ],
  "bytecode": "0x60806040526040516108093803806108098339818101604052606081101561002657600080fd5b5080516020820151604090920151909190806001600160a01b03811661007d5760405162461bcd60e51b815260040180806020018281038252602f8152602001806107da602f913960400191505060405180910390fd5b600080546001600160a01b039283166001600160a01b03199182161790915560018054948316948216949094179093556002805494909116939092169290921790555061070b806100cf6000396000f3fe608060405234801561001057600080fd5b50600436106100365760003560e01c8063078766601461003b57806323bd4d7a146102be575b600080fd5b610298600480360361010081101561005257600080fd5b6001600160a01b038235169190810190604081016020820135600160201b81111561007c57600080fd5b82018360208201111561008e57600080fd5b803590602001918460018302840111600160201b831117156100af57600080fd5b91908080601f01602080910402602001604051908101604052809392919081815260200183838082843760009201919091525092956001600160a01b038535811696602087013582169660408101359092169550919350909150608081019060600135600160201b81111561012357600080fd5b82018360208201111561013557600080fd5b803590602001918460208302840111600160201b8311171561015657600080fd5b9190808060200260200160405190810160405280939291908181526020018383602002808284376000920191909152509295949360208101935035915050600160201b8111156101a557600080fd5b8201836020820111156101b757600080fd5b803590602001918460208302840111600160201b831117156101d857600080fd5b9190808060200260200160405190810160405280939291908181526020018383602002808284376000920191909152509295949360208101935035915050600160201b81111561022757600080fd5b82018360208201111561023957600080fd5b803590602001918460208302840111600160201b8311171561025a57600080fd5b9190808060200260200160405190810160405280939291908181526020018383602002808284376000920191909152509295506102e2945050505050565b604080516001600160a01b03938416815291909216602082015281519081900390910190f35b6102c661068e565b604080516001600160a01b039092168252519081900360200190f35b600080546040805163aa15664560e01b8152336004820152905183926001600160a01b03169163aa156645916024808301926020929190829003018186803b15801561032d57600080fd5b505afa158015610341573d6000803e3d6000fd5b505050506040513d602081101561035757600080fd5b50516103945760405162461bcd60e51b815260040180806020018281038252603981526020018061069e6039913960400191505060405180910390fd5b6060600160009054906101000a90046001600160a01b03166001600160a01b031663d94c25298c8c8c8c8c8c8c8c6040518963ffffffff1660e01b815260040180896001600160a01b03166001600160a01b0316815260200180602001886001600160a01b03166001600160a01b03168152602001876001600160a01b03166001600160a01b03168152602001866001600160a01b03166001600160a01b0316815260200180602001806020018060200185810385528c818151815260200191508051906020019080838360005b8381101561047a578181015183820152602001610462565b50505050905090810190601f1680156104a75780820380516001836020036101000a031916815260200191505b508581038452885181528851602091820191808b01910280838360005b838110156104dc5781810151838201526020016104c4565b50505050905001858103835287818151815260200191508051906020019060200280838360005b8381101561051b578181015183820152602001610503565b50505050905001858103825286818151815260200191508051906020019060200280838360005b8381101561055a578181015183820152602001610542565b505050509050019c505050505050505050505050506040805180830381600087803b15801561058857600080fd5b505af115801561059c573d6000803e3d6000fd5b505050506040513d60408110156105b257600080fd5b50805160209091015182519194509250829082906000906105cf57fe5b6001600160a01b03928316602091820292909201810191909152600254604051630908693760e41b8152600481018381528551602483015285519290941693639086937093869391928392604490910191858101910280838360005b8381101561064357818101518382015260200161062b565b5050505090500192505050600060405180830381600087803b15801561066857600080fd5b505af115801561067c573d6000803e3d6000fd5b50505050509850989650505050505050565b6000546001600160a01b03168156fe4f6e6c792077686974656c697374656420776f726b6572732061726520616c6c6f77656420746f2063616c6c2074686973206d6574686f642ea265627a7a72315820fc9c4ade282fd3998b4687ed060ccf1bcf6d1a4fbb918ff9659f2f25b3772b6064736f6c634300051000324f7267616e697a6174696f6e20636f6e74726163742061646472657373206d757374206e6f74206265207a65726f2e",
  "source": "pragma solidity ^0.5.0;\n\nimport \"./openst-contracts/contracts/proxies/Proxy.sol\";\nimport \"./brandedtoken-contracts/contracts/UtilityBrandedToken.sol\";\nimport \"./openst-contracts/contracts/proxies/UserWalletFactory.sol\";\nimport \"./brandedtoken-contracts/contracts/utilitytoken/contracts/organization/contracts/OrganizationInterface.sol\";\nimport \"./brandedtoken-contracts/contracts/utilitytoken/contracts/organization/contracts/Organized.sol\";\n\n/**\n * @title Allows to call function createUserWallet from UserWalletFactory\n *        Allows to call function registerInternalActors from UtilityBrandedToken\n *        Two methods called in single transaction\n */\n\ncontract OptimalWalletCreator is Organized {\n\n    UserWalletFactory userWalletFactory;\n    UtilityBrandedToken utilityBrandedToken;\n\n    event TuppleEmitted(\n        address _gnosisSafeProxy,\n        address _tokenHolderProxy\n    );\n\n    constructor(\n        address _ubtContractAddr,\n        address _walletFactoryContractAddr,\n        OrganizationInterface _organization\n    )\n        public\n        payable\n        Organized(_organization)\n    {\n        userWalletFactory = UserWalletFactory(_walletFactoryContractAddr);\n        utilityBrandedToken = UtilityBrandedToken(_ubtContractAddr);\n    }\n\n    /* External Functions  */\n\n    /**\n    * @notice Create a new gnosis safe proxy and executes a\n    *         message call to the newly created proxy. Afterwards, in the same\n    *         transaction, creates a new token holder proxy by specifying\n    *         as an owner the newly created gnosis safe proxy contract.\n    *         Registers internal actors.\n    *\n    * @param _gnosisSafeMasterCopy The address of a master copy of gnosis safe.\n    * @param _gnosisSafeData The message data to be called on a newly created\n    *                        gnosis safe proxy.\n    * @param _tokenHolderMasterCopy The address of a master copy of token\n    *                               holder.\n    * @param _token The address of the economy token.\n    * @param _tokenRules The address of the token rules.\n    * @param _sessionKeys Session key addresses to authorize.\n    * @param _sessionKeysSpendingLimits Session keys' spending limits.\n    * @param _sessionKeysExpirationHeights Session keys' expiration heights.\n    *  _internalActors Array of addresses of the internal actors to register.\n    *\n    * ToDo - remove _token as input param OR remove utilityBrandedToken from constructor.\n    *\n    */\n\n    function optimalCall(\n        address _gnosisSafeMasterCopy,\n        bytes memory _gnosisSafeData,\n        address _tokenHolderMasterCopy,\n        address _token,\n        address _tokenRules,\n        address[] memory _sessionKeys,\n        uint256[] memory _sessionKeysSpendingLimits,\n        uint256[] memory _sessionKeysExpirationHeights\n      //  address[] memory _internalActors\n    )\n        public\n        onlyWorker\n        returns (Proxy gnosisSafeProxy_, Proxy tokenHolderProxy_)\n    {\n        address[] memory _internalActors;\n        \n        (gnosisSafeProxy_, tokenHolderProxy_) = userWalletFactory.createUserWallet(\n            _gnosisSafeMasterCopy,\n            _gnosisSafeData,\n            _tokenHolderMasterCopy,\n            _token,\n            _tokenRules,\n            _sessionKeys,\n            _sessionKeysSpendingLimits,\n            _sessionKeysExpirationHeights\n        );\n\n       _internalActors[0] = address(tokenHolderProxy_);\n        /*\n         * first call to createWalletUser with all above parameters\n         */\n        utilityBrandedToken.registerInternalActors(_internalActors);\n    }\n}",
  "sourcePath": "/Users/OST/Documents/dj/ost-opt-contracts/contracts/OptimalWalletCreator.sol",
  "compiler": {
    "name": "solc",
    "version": "0.5.16+commit.9c3226ce.Emscripten.clang"
  },
  "schemaVersion": "3.0.21",
  "updatedAt": "2020-01-21T06:45:53.798Z",
  "devdoc": {
    "methods": {
      "optimalCall(address,bytes,address,address,address,address[],uint256[],uint256[])": {
        "params": {
          "_gnosisSafeData": "The message data to be called on a newly created                       gnosis safe proxy.",
          "_gnosisSafeMasterCopy": "The address of a master copy of gnosis safe.",
          "_sessionKeys": "Session key addresses to authorize.",
          "_sessionKeysExpirationHeights": "Session keys' expiration heights. _internalActors Array of addresses of the internal actors to register.    * ToDo - remove _token as input param OR remove utilityBrandedToken from constructor.    ",
          "_sessionKeysSpendingLimits": "Session keys' spending limits.",
          "_token": "The address of the economy token.",
          "_tokenHolderMasterCopy": "The address of a master copy of token                              holder.",
          "_tokenRules": "The address of the token rules."
        }
      }
    },
    "title": "Allows to call function createUserWallet from UserWalletFactory       Allows to call function registerInternalActors from UtilityBrandedToken       Two methods called in single transaction"
  },
  "userdoc": {
    "methods": {
      "optimalCall(address,bytes,address,address,address,address[],uint256[],uint256[])": {
        "notice": "Create a new gnosis safe proxy and executes a        message call to the newly created proxy. Afterwards, in the same        transaction, creates a new token holder proxy by specifying        as an owner the newly created gnosis safe proxy contract.        Registers internal actors."
      }
    }
  }
}