{
  "contractName": "OptimalWalletCreator",
  "abi": [
    {
      "inputs": [
        {
          "internalType": "address",
          "name": "_ubtContractAddr",
          "type": "address"
        },
        {
          "internalType": "address",
          "name": "_walletFactoryContractAddr",
          "type": "address"
        },
        {
          "internalType": "contract OrganizationInterface",
          "name": "_organization",
          "type": "address"
        }
      ],
      "payable": false,
      "stateMutability": "nonpayable",
      "type": "constructor"
    },
    {
      "anonymous": false,
      "inputs": [
        {
          "indexed": false,
          "internalType": "address",
          "name": "_gnosisSafeProxy",
          "type": "address"
        },
        {
          "indexed": false,
          "internalType": "address",
          "name": "_tokenHolderProxy",
          "type": "address"
        }
      ],
      "name": "TuppleEmitted",
      "type": "event"
    },
    {
      "constant": true,
      "inputs": [],
      "name": "organization",
      "outputs": [
        {
          "internalType": "contract OrganizationInterface",
          "name": "",
          "type": "address"
        }
      ],
      "payable": false,
      "stateMutability": "view",
      "type": "function"
    },
    {
      "constant": false,
      "inputs": [
        {
          "internalType": "address",
          "name": "_gnosisSafeMasterCopy",
          "type": "address"
        },
        {
          "internalType": "bytes",
          "name": "_gnosisSafeData",
          "type": "bytes"
        },
        {
          "internalType": "address",
          "name": "_tokenHolderMasterCopy",
          "type": "address"
        },
        {
          "internalType": "address",
          "name": "_tokenRules",
          "type": "address"
        },
        {
          "internalType": "address[]",
          "name": "_sessionKeys",
          "type": "address[]"
        },
        {
          "internalType": "uint256[]",
          "name": "_sessionKeysSpendingLimits",
          "type": "uint256[]"
        },
        {
          "internalType": "uint256[]",
          "name": "_sessionKeysExpirationHeights",
          "type": "uint256[]"
        }
      ],
      "name": "optimalCall",
      "outputs": [
        {
          "internalType": "contract Proxy",
          "name": "gnosisSafeProxy_",
          "type": "address"
        },
        {
          "internalType": "contract Proxy",
          "name": "tokenHolderProxy_",
          "type": "address"
        }
      ],
      "payable": false,
      "stateMutability": "nonpayable",
      "type": "function"
    }
  ],
  "bytecode": "0x608060405234801561001057600080fd5b506040516108203803806108208339818101604052606081101561003357600080fd5b5080516020820151604090920151909190806001600160a01b03811661008a5760405162461bcd60e51b815260040180806020018281038252602f8152602001806107f1602f913960400191505060405180910390fd5b600080546001600160a01b039283166001600160a01b031991821617909155600180549483169482169490941790935560028054949091169390921692909217905550610715806100dc6000396000f3fe608060405234801561001057600080fd5b50600436106100365760003560e01c806323bd4d7a1461003b5780636af173f61461005f575b600080fd5b6100436102d8565b604080516001600160a01b039092168252519081900360200190f35b6102b2600480360360e081101561007557600080fd5b6001600160a01b038235169190810190604081016020820135600160201b81111561009f57600080fd5b8201836020820111156100b157600080fd5b803590602001918460018302840111600160201b831117156100d257600080fd5b91908080601f01602080910402602001604051908101604052809392919081815260200183838082843760009201919091525092956001600160a01b038535811696602087013590911695919450925060608101915060400135600160201b81111561013d57600080fd5b82018360208201111561014f57600080fd5b803590602001918460208302840111600160201b8311171561017057600080fd5b9190808060200260200160405190810160405280939291908181526020018383602002808284376000920191909152509295949360208101935035915050600160201b8111156101bf57600080fd5b8201836020820111156101d157600080fd5b803590602001918460208302840111600160201b831117156101f257600080fd5b9190808060200260200160405190810160405280939291908181526020018383602002808284376000920191909152509295949360208101935035915050600160201b81111561024157600080fd5b82018360208201111561025357600080fd5b803590602001918460208302840111600160201b8311171561027457600080fd5b9190808060200260200160405190810160405280939291908181526020018383602002808284376000920191909152509295506102e7945050505050565b604080516001600160a01b03938416815291909216602082015281519081900390910190f35b6000546001600160a01b031681565b600080546040805163aa15664560e01b8152336004820152905183926001600160a01b03169163aa156645916024808301926020929190829003018186803b15801561033257600080fd5b505afa158015610346573d6000803e3d6000fd5b505050506040513d602081101561035c57600080fd5b50516103995760405162461bcd60e51b81526004018080602001828103825260398152602001806106a86039913960400191505060405180910390fd5b6060600160009054906101000a90046001600160a01b03166001600160a01b031663d94c25298b8b8b600260009054906101000a90046001600160a01b03168c8c8c8c6040518963ffffffff1660e01b815260040180896001600160a01b03166001600160a01b0316815260200180602001886001600160a01b03166001600160a01b03168152602001876001600160a01b03166001600160a01b03168152602001866001600160a01b03166001600160a01b0316815260200180602001806020018060200185810385528c818151815260200191508051906020019080838360005b8381101561049457818101518382015260200161047c565b50505050905090810190601f1680156104c15780820380516001836020036101000a031916815260200191505b508581038452885181528851602091820191808b01910280838360005b838110156104f65781810151838201526020016104de565b50505050905001858103835287818151815260200191508051906020019060200280838360005b8381101561053557818101518382015260200161051d565b50505050905001858103825286818151815260200191508051906020019060200280838360005b8381101561057457818101518382015260200161055c565b505050509050019c505050505050505050505050506040805180830381600087803b1580156105a257600080fd5b505af11580156105b6573d6000803e3d6000fd5b505050506040513d60408110156105cc57600080fd5b50805160209091015182519194509250829082906000906105e957fe5b6001600160a01b03928316602091820292909201810191909152600254604051630908693760e41b8152600481018381528551602483015285519290941693639086937093869391928392604490910191858101910280838360005b8381101561065d578181015183820152602001610645565b5050505090500192505050600060405180830381600087803b15801561068257600080fd5b505af1158015610696573d6000803e3d6000fd5b50505050509750979550505050505056fe4f6e6c792077686974656c697374656420776f726b6572732061726520616c6c6f77656420746f2063616c6c2074686973206d6574686f642ea265627a7a72315820198246129dc7fb671276c148007339fd21871f202bb578648162447980310efb64736f6c634300051000324f7267616e697a6174696f6e20636f6e74726163742061646472657373206d757374206e6f74206265207a65726f2e",
  "source": "pragma solidity ^0.5.0;\n\nimport \"./openst-contracts/contracts/proxies/Proxy.sol\";\nimport \"./brandedtoken-contracts/contracts/UtilityBrandedToken.sol\";\nimport \"./openst-contracts/contracts/proxies/UserWalletFactory.sol\";\nimport \"./brandedtoken-contracts/contracts/utilitytoken/contracts/organization/contracts/OrganizationInterface.sol\";\nimport \"./brandedtoken-contracts/contracts/utilitytoken/contracts/organization/contracts/Organized.sol\";\n\n/**\n * @title Allows to call function createUserWallet from UserWalletFactory\n *        Allows to call function registerInternalActors from UtilityBrandedToken\n *        Two methods called in single transaction\n */\n\ncontract OptimalWalletCreator is Organized {\n\n    UserWalletFactory userWalletFactory;\n    UtilityBrandedToken utilityBrandedToken;\n\n    event TuppleEmitted(\n        address _gnosisSafeProxy,\n        address _tokenHolderProxy\n    );\n\n    constructor(\n        address _ubtContractAddr,\n        address _walletFactoryContractAddr,\n        OrganizationInterface _organization\n    )\n        public\n        Organized(_organization)\n    {\n        userWalletFactory = UserWalletFactory(_walletFactoryContractAddr);\n        utilityBrandedToken = UtilityBrandedToken(_ubtContractAddr);\n    }\n\n    /* External Functions  */\n\n    /**\n    * @notice Create a new gnosis safe proxy and executes a\n    *         message call to the newly created proxy. Afterwards, in the same\n    *         transaction, creates a new token holder proxy by specifying\n    *         as an owner the newly created gnosis safe proxy contract.\n    *         Registers internal actors.\n    *\n    * @param _gnosisSafeMasterCopy The address of a master copy of gnosis safe.\n    * @param _gnosisSafeData The message data to be called on a newly created\n    *                        gnosis safe proxy.\n    * @param _tokenHolderMasterCopy The address of a master copy of token\n    *                               holder.\n    * @param _tokenRules The address of the token rules.\n    * @param _sessionKeys Session key addresses to authorize.\n    * @param _sessionKeysSpendingLimits Session keys' spending limits.\n    * @param _sessionKeysExpirationHeights Session keys' expiration heights.\n    *\n    */\n\n    function optimalCall(\n        address _gnosisSafeMasterCopy,\n        bytes memory _gnosisSafeData,\n        address _tokenHolderMasterCopy,\n        address _tokenRules,\n        address[] memory _sessionKeys,\n        uint256[] memory _sessionKeysSpendingLimits,\n        uint256[] memory _sessionKeysExpirationHeights\n      //  address[] memory _internalActors\n    )\n        public\n        onlyWorker\n        returns (Proxy gnosisSafeProxy_, Proxy tokenHolderProxy_)\n    {\n        address[] memory _internalActors;\n\n        (gnosisSafeProxy_, tokenHolderProxy_) = userWalletFactory.createUserWallet(\n            _gnosisSafeMasterCopy,\n            _gnosisSafeData,\n            _tokenHolderMasterCopy,\n            address(utilityBrandedToken),  //_token\n            _tokenRules,\n            _sessionKeys,\n            _sessionKeysSpendingLimits,\n            _sessionKeysExpirationHeights\n        );\n\n       _internalActors[0] = address(tokenHolderProxy_);\n        /*\n         * first call to createWalletUser with all above parameters\n         */\n        utilityBrandedToken.registerInternalActors(_internalActors);\n    }\n}",
  "sourcePath": "/Users/OST/Documents/dj/ost-opt-contracts/contracts/OptimalWalletCreator.sol",
  "compiler": {
    "name": "solc",
    "version": "0.5.16+commit.9c3226ce.Emscripten.clang"
  },
  "schemaVersion": "3.0.21",
  "updatedAt": "2020-01-21T06:50:59.679Z",
  "devdoc": {
    "methods": {
      "optimalCall(address,bytes,address,address,address[],uint256[],uint256[])": {
        "params": {
          "_gnosisSafeData": "The message data to be called on a newly created                       gnosis safe proxy.",
          "_gnosisSafeMasterCopy": "The address of a master copy of gnosis safe.",
          "_sessionKeys": "Session key addresses to authorize.",
          "_sessionKeysExpirationHeights": "Session keys' expiration heights.    ",
          "_sessionKeysSpendingLimits": "Session keys' spending limits.",
          "_tokenHolderMasterCopy": "The address of a master copy of token                              holder.",
          "_tokenRules": "The address of the token rules."
        }
      }
    },
    "title": "Allows to call function createUserWallet from UserWalletFactory       Allows to call function registerInternalActors from UtilityBrandedToken       Two methods called in single transaction"
  },
  "userdoc": {
    "methods": {
      "optimalCall(address,bytes,address,address,address[],uint256[],uint256[])": {
        "notice": "Create a new gnosis safe proxy and executes a        message call to the newly created proxy. Afterwards, in the same        transaction, creates a new token holder proxy by specifying        as an owner the newly created gnosis safe proxy contract.        Registers internal actors."
      }
    }
  }
}