{
  "contractName": "Organized",
  "abi": [
    {
      "inputs": [
        {
          "internalType": "contract OrganizationInterface",
          "name": "_organization",
          "type": "address"
        }
      ],
      "payable": false,
      "stateMutability": "nonpayable",
      "type": "constructor"
    },
    {
      "constant": true,
      "inputs": [],
      "name": "organization",
      "outputs": [
        {
          "internalType": "contract OrganizationInterface",
          "name": "",
          "type": "address"
        }
      ],
      "payable": false,
      "stateMutability": "view",
      "type": "function"
    }
  ],
  "bytecode": "0x608060405234801561001057600080fd5b5060405161016b38038061016b8339818101604052602081101561003357600080fd5b50516001600160a01b03811661007a5760405162461bcd60e51b815260040180806020018281038252602f81526020018061013c602f913960400191505060405180910390fd5b600080546001600160a01b039092166001600160a01b03199092169190911790556093806100a96000396000f3fe6080604052348015600f57600080fd5b506004361060285760003560e01c806323bd4d7a14602d575b600080fd5b6033604f565b604080516001600160a01b039092168252519081900360200190f35b6000546001600160a01b03168156fea265627a7a72315820c4cf1ba6ca88a5e51e42a46f310b20404fc803b57e542f84d0fb6ebeef77ff7764736f6c634300051000324f7267616e697a6174696f6e20636f6e74726163742061646472657373206d757374206e6f74206265207a65726f2e",
  "source": "pragma solidity ^0.5.0;\n\n// Copyright 2019 OpenST Ltd.\n//\n// Licensed under the Apache License, Version 2.0 (the \"License\");\n// you may not use this file except in compliance with the License.\n// You may obtain a copy of the License at\n//\n//    http://www.apache.org/licenses/LICENSE-2.0\n//\n// Unless required by applicable law or agreed to in writing, software\n// distributed under the License is distributed on an \"AS IS\" BASIS,\n// WITHOUT WARRANTIES OR CONDITIONS OF ANY KIND, either express or implied.\n// See the License for the specific language governing permissions and\n// limitations under the License.\n//\n// ----------------------------------------------------------------------------\n//\n// http://www.simpletoken.org/\n//\n// ----------------------------------------------------------------------------\n\nimport \"./OrganizationInterface.sol\";\n\n/**\n * @title Organized contract.\n *\n * @notice The Organized contract facilitates integration of\n *         organization administration keys with different contracts.\n */\ncontract Organized {\n\n\n    /* Storage */\n\n    /** Organization which holds all the keys needed to administer the economy. */\n    OrganizationInterface public organization;\n\n\n    /* Modifiers */\n\n    modifier onlyOrganization()\n    {\n        require(\n            organization.isOrganization(msg.sender),\n            \"Only the organization is allowed to call this method.\"\n        );\n\n        _;\n    }\n\n    modifier onlyWorker()\n    {\n        require(\n            organization.isWorker(msg.sender),\n            \"Only whitelisted workers are allowed to call this method.\"\n        );\n\n        _;\n    }\n\n\n    /* Constructor */\n\n    /**\n     * @notice Sets the address of the organization contract.\n     *\n     * @param _organization A contract that manages worker keys.\n     */\n    constructor(OrganizationInterface _organization) public {\n        require(\n            address(_organization) != address(0),\n            \"Organization contract address must not be zero.\"\n        );\n\n        organization = _organization;\n    }\n\n}\n",
  "sourcePath": "/Users/OST/Documents/dj/ost-opt-contracts/contracts/brandedtoken-contracts/contracts/utilitytoken/contracts/organization/contracts/Organized.sol",
  "compiler": {
    "name": "solc",
    "version": "0.5.16+commit.9c3226ce.Emscripten.clang"
  },
  "schemaVersion": "3.0.21",
  "updatedAt": "2020-01-24T12:21:06.919Z",
  "devdoc": {
    "methods": {
      "constructor": {
        "params": {
          "_organization": "A contract that manages worker keys."
        }
      }
    },
    "title": "Organized contract."
  },
  "userdoc": {
    "methods": {
      "constructor": "Sets the address of the organization contract."
    },
    "notice": "The Organized contract facilitates integration of        organization administration keys with different contracts."
  }
}