{
  "contractName": "OrganizationMockFail",
  "abi": [
    {
      "constant": true,
      "inputs": [
        {
          "internalType": "address",
          "name": "",
          "type": "address"
        }
      ],
      "name": "isOrganization",
      "outputs": [
        {
          "internalType": "bool",
          "name": "",
          "type": "bool"
        }
      ],
      "payable": false,
      "stateMutability": "pure",
      "type": "function"
    },
    {
      "constant": true,
      "inputs": [
        {
          "internalType": "address",
          "name": "",
          "type": "address"
        }
      ],
      "name": "isWorker",
      "outputs": [
        {
          "internalType": "bool",
          "name": "",
          "type": "bool"
        }
      ],
      "payable": false,
      "stateMutability": "pure",
      "type": "function"
    }
  ],
  "bytecode": "0x6080604052348015600f57600080fd5b5060a98061001e6000396000f3fe6080604052348015600f57600080fd5b506004361060325760003560e01c8063aa156645146037578063b1ce8eab146037575b600080fd5b605a60048036036020811015604b57600080fd5b50356001600160a01b0316606e565b604080519115158252519081900360200190f35b5060009056fea265627a7a72315820bd9245896cda0b8e1e4b54bf74b78c069f28a60d3c07706b7fda6ae3880529fb64736f6c63430005100032",
  "source": "pragma solidity ^0.5.0;\n\n\n// Copyright 2019 OpenST Ltd.\n//\n// Licensed under the Apache License, Version 2.0 (the \"License\");\n// you may not use this file except in compliance with the License.\n// You may obtain a copy of the License at\n//\n//    http://www.apache.org/licenses/LICENSE-2.0\n//\n// Unless required by applicable law or agreed to in writing, software\n// distributed under the License is distributed on an \"AS IS\" BASIS,\n// WITHOUT WARRANTIES OR CONDITIONS OF ANY KIND, either express or implied.\n// See the License for the specific language governing permissions and\n// limitations under the License.\n\n\n/**\n *  @title Mock Organization Fail.\n *\n *  @notice Mocks Organization functions as failing.\n */\ncontract OrganizationMockFail {\n\n    /* External Functions */\n\n    /**\n     * @notice Mocks failing isOrganization.\n     *\n     * @return bool False.\n     */\n    function isOrganization(address)\n        external\n        pure\n        returns (bool)\n    {\n        return false;\n    }\n\n    /**\n     * @notice Mocks failing isWorker.\n     *\n     * @return bool False.\n     */\n    function isWorker(address)\n        external\n        pure\n        returns (bool)\n    {\n        return false;\n    }\n}",
  "sourcePath": "/Users/OST/Documents/dj/ost-opt-contracts/contracts/brandedtoken-contracts/contracts/test/organization/OrganizationMockFail.sol",
  "compiler": {
    "name": "solc",
    "version": "0.5.16+commit.9c3226ce.Emscripten.clang"
  },
  "schemaVersion": "3.0.21",
  "updatedAt": "2020-01-19T09:48:26.035Z",
  "devdoc": {
    "methods": {
      "isOrganization(address)": {
        "return": "bool False."
      },
      "isWorker(address)": {
        "return": "bool False."
      }
    },
    "title": "Mock Organization Fail."
  },
  "userdoc": {
    "methods": {
      "isOrganization(address)": {
        "notice": "Mocks failing isOrganization."
      },
      "isWorker(address)": {
        "notice": "Mocks failing isWorker."
      }
    },
    "notice": "Mocks Organization functions as failing."
  }
}