{
  "contractName": "OrganizationMockWorker",
  "abi": [
    {
      "constant": true,
      "inputs": [],
      "name": "worker",
      "outputs": [
        {
          "internalType": "address",
          "name": "",
          "type": "address"
        }
      ],
      "payable": false,
      "stateMutability": "view",
      "type": "function"
    },
    {
      "constant": false,
      "inputs": [
        {
          "internalType": "address",
          "name": "_worker",
          "type": "address"
        },
        {
          "internalType": "uint256",
          "name": "",
          "type": "uint256"
        }
      ],
      "name": "setWorker",
      "outputs": [],
      "payable": false,
      "stateMutability": "nonpayable",
      "type": "function"
    },
    {
      "constant": true,
      "inputs": [
        {
          "internalType": "address",
          "name": "_worker",
          "type": "address"
        }
      ],
      "name": "isWorker",
      "outputs": [
        {
          "internalType": "bool",
          "name": "",
          "type": "bool"
        }
      ],
      "payable": false,
      "stateMutability": "view",
      "type": "function"
    }
  ],
  "bytecode": "0x608060405234801561001057600080fd5b5061014d806100206000396000f3fe608060405234801561001057600080fd5b50600436106100415760003560e01c80634d547ada14610046578063aa1566451461006a578063ea6790cf146100a4575b600080fd5b61004e6100d2565b604080516001600160a01b039092168252519081900360200190f35b6100906004803603602081101561008057600080fd5b50356001600160a01b03166100e1565b604080519115158252519081900360200190f35b6100d0600480360360408110156100ba57600080fd5b506001600160a01b0381351690602001356100f5565b005b6000546001600160a01b031681565b6000546001600160a01b0391821691161490565b50600080546001600160a01b0319166001600160a01b039290921691909117905556fea265627a7a723158201e8003591b6bc2fdf2288d48a57fa7f86ad3f365600d9a2bd544e2d58e0cab1264736f6c63430005100032",
  "source": "pragma solidity ^0.5.0;\n\n\n// Copyright 2019 OpenST Ltd.\n//\n// Licensed under the Apache License, Version 2.0 (the \"License\");\n// you may not use this file except in compliance with the License.\n// You may obtain a copy of the License at\n//\n//    http://www.apache.org/licenses/LICENSE-2.0\n//\n// Unless required by applicable law or agreed to in writing, software\n// distributed under the License is distributed on an \"AS IS\" BASIS,\n// WITHOUT WARRANTIES OR CONDITIONS OF ANY KIND, either express or implied.\n// See the License for the specific language governing permissions and\n// limitations under the License.\n\n\n/**\n *  @title Organization Mock Worker.\n *\n *  @notice Mocks Organization setWorker and isWorker functions.\n */\ncontract OrganizationMockWorker {\n\n    address public worker;\n\n    /* External Functions */\n\n    /**\n     * @notice Mocks setWorker.\n     *\n     * @param _worker The value to which worker is set.\n     */\n    function setWorker(\n        address _worker,\n        uint256\n    )\n        external\n    {\n        worker = _worker;\n    }\n\n    /**\n     * @notice Mocks isWorker.\n     *\n     * @return bool True if worker == _worker, false if not.\n     */\n    function isWorker(\n        address _worker\n    )\n        external\n        view\n        returns (bool)\n    {\n        return worker == _worker;\n    }\n}",
  "sourcePath": "/Users/OST/Documents/dj/ost-opt-contracts/contracts/brandedtoken-contracts/contracts/test/organization/OrganizationMockWorker.sol",
  "compiler": {
    "name": "solc",
    "version": "0.5.16+commit.9c3226ce.Emscripten.clang"
  },
  "schemaVersion": "3.0.21",
  "updatedAt": "2020-01-19T09:48:26.042Z",
  "devdoc": {
    "methods": {
      "isWorker(address)": {
        "return": "bool True if worker == _worker, false if not."
      },
      "setWorker(address,uint256)": {
        "params": {
          "_worker": "The value to which worker is set."
        }
      }
    },
    "title": "Organization Mock Worker."
  },
  "userdoc": {
    "methods": {
      "isWorker(address)": {
        "notice": "Mocks isWorker."
      },
      "setWorker(address,uint256)": {
        "notice": "Mocks setWorker."
      }
    },
    "notice": "Mocks Organization setWorker and isWorker functions."
  }
}