{
  "contractName": "PayingProxy",
  "abi": [
    {
      "inputs": [
        {
          "internalType": "address",
          "name": "_masterCopy",
          "type": "address"
        },
        {
          "internalType": "bytes",
          "name": "initializer",
          "type": "bytes"
        },
        {
          "internalType": "address payable",
          "name": "funder",
          "type": "address"
        },
        {
          "internalType": "address",
          "name": "paymentToken",
          "type": "address"
        },
        {
          "internalType": "uint256",
          "name": "payment",
          "type": "uint256"
        }
      ],
      "payable": false,
      "stateMutability": "nonpayable",
      "type": "constructor"
    },
    {
      "payable": true,
      "stateMutability": "payable",
      "type": "fallback"
    },
    {
      "constant": true,
      "inputs": [],
      "name": "implementation",
      "outputs": [
        {
          "internalType": "address",
          "name": "",
          "type": "address"
        }
      ],
      "payable": false,
      "stateMutability": "view",
      "type": "function"
    },
    {
      "constant": true,
      "inputs": [],
      "name": "proxyType",
      "outputs": [
        {
          "internalType": "uint256",
          "name": "",
          "type": "uint256"
        }
      ],
      "payable": false,
      "stateMutability": "pure",
      "type": "function"
    }
  ],
  "bytecode": "0x608060405234801561001057600080fd5b50604051610474380380610474833981810160405260a081101561003357600080fd5b81516020830180516040519294929383019291908464010000000082111561005a57600080fd5b90830190602082018581111561006f57600080fd5b825164010000000081118282018810171561008957600080fd5b82525081516020918201929091019080838360005b838110156100b657818101518382015260200161009e565b50505050905090810190601f1680156100e35780820380516001836020036101000a031916815260200191505b5060409081526020820151908201516060909201519093509091508484816001600160a01b0381166101465760405162461bcd60e51b81526004018080602001828103825260248152602001806104506024913960400191505060405180910390fd5b600080546001600160a01b0319166001600160a01b039290921691909117905580511561019e576001600160a01b0360005416600080835160208501846127105a03f46040513d6000823e8161019a573d81fd5b5050505b50508015610268576001600160a01b038216610219576040516001600160a01b0384169082156108fc029083906000818181858888f193505050506102145760405162461bcd60e51b81526004018080602001828103825260268152602001806104046026913960400191505060405180910390fd5b610268565b61022d8284836001600160e01b0361027216565b6102685760405162461bcd60e51b815260040180806020018281038252602681526020018061042a6026913960400191505060405180910390fd5b5050505050610308565b604080516001600160a01b038416602482015260448082018490528251808303909101815260649091019091526020810180516001600160e01b031663a9059cbb60e01b1781528151600092918391829182896127105a03f16040513d6000823e3d80156102eb57602081146102f357600094506102fd565b8294506102fd565b8151158315171594505b505050509392505050565b60ee806103166000396000f3fe60806040526004361060265760003560e01c80634555d5c91460535780635c60da1b146077575b6001600160a01b03600054163660008037600080366000845af43d6000803e80604e573d6000fd5b3d6000f35b348015605e57600080fd5b50606560a5565b60408051918252519081900360200190f35b348015608257600080fd5b50608960aa565b604080516001600160a01b039092168252519081900360200190f35b600290565b6000546001600160a01b03169056fea265627a7a723158200be8eea81ebc1cfce833de5562f7cc89e9a879e6f5bfa225afd65bbf694509a464736f6c63430005100032436f756c64206e6f74207061792073616665206372656174696f6e2077697468206574686572436f756c64206e6f74207061792073616665206372656174696f6e207769746820746f6b656e496e76616c6964206d617374657220636f707920616464726573732070726f7669646564",
  "source": "pragma solidity ^0.5.0;\nimport \"../common/SecuredTokenTransfer.sol\";\nimport \"./DelegateConstructorProxy.sol\";\n\n/// @title Paying Proxy - Generic proxy contract allows to execute all transactions applying the code of a master contract. It is possible to send along initialization data with the constructor. And sends funds after creation to a specified account.\n/// @author Stefan George - <stefan@gnosis.pm>\n/// @author Richard Meissner - <richard@gnosis.pm>\ncontract PayingProxy is DelegateConstructorProxy, SecuredTokenTransfer {\n\n    /// @dev Constructor function sets address of master copy contract.\n    /// @param _masterCopy Master copy address.\n    /// @param initializer Data used for a delegate call to initialize the contract.\n    /// @param funder Address that should be paid for the execution of this call\n    /// @param paymentToken Token that should be used for the payment (0 is ETH)\n    /// @param payment Value that should be paid\n    constructor(address _masterCopy, bytes memory initializer, address payable funder, address paymentToken, uint256 payment) \n        DelegateConstructorProxy(_masterCopy, initializer)\n        public\n    {\n        if (payment > 0) {\n            if (paymentToken == address(0)) {\n                 // solium-disable-next-line security/no-send\n                require(funder.send(payment), \"Could not pay safe creation with ether\");\n            } else {\n                require(transferToken(paymentToken, funder, payment), \"Could not pay safe creation with token\");\n            }\n        } \n    }\n}\n",
  "sourcePath": "/Users/OST/Documents/dj/ost-opt-contracts/contracts/openst-contracts/external/gnosis/safe-contracts/contracts/proxies/PayingProxy.sol",
  "compiler": {
    "name": "solc",
    "version": "0.5.16+commit.9c3226ce.Emscripten.clang"
  },
  "schemaVersion": "3.0.21",
  "updatedAt": "2020-01-21T06:50:59.762Z",
  "devdoc": {
    "author": "Stefan George - <stefan@gnosis.pm>Richard Meissner - <richard@gnosis.pm>",
    "methods": {
      "constructor": {
        "details": "Constructor function sets address of master copy contract.",
        "params": {
          "_masterCopy": "Master copy address.",
          "funder": "Address that should be paid for the execution of this call",
          "initializer": "Data used for a delegate call to initialize the contract.",
          "payment": "Value that should be paid",
          "paymentToken": "Token that should be used for the payment (0 is ETH)"
        }
      }
    },
    "title": "Paying Proxy - Generic proxy contract allows to execute all transactions applying the code of a master contract. It is possible to send along initialization data with the constructor. And sends funds after creation to a specified account."
  },
  "userdoc": {
    "methods": {}
  }
}