{
  "contractName": "PricerRule",
  "abi": [
    {
      "inputs": [
        {
          "internalType": "contract OrganizationInterface",
          "name": "_organization",
          "type": "address"
        },
        {
          "internalType": "address",
          "name": "_eip20Token",
          "type": "address"
        },
        {
          "internalType": "bytes3",
          "name": "_baseCurrencyCode",
          "type": "bytes3"
        },
        {
          "internalType": "uint256",
          "name": "_conversionRate",
          "type": "uint256"
        },
        {
          "internalType": "uint8",
          "name": "_conversionRateDecimals",
          "type": "uint8"
        },
        {
          "internalType": "uint8",
          "name": "_requiredPriceOracleDecimals",
          "type": "uint8"
        },
        {
          "internalType": "address",
          "name": "_tokenRules",
          "type": "address"
        }
      ],
      "payable": false,
      "stateMutability": "nonpayable",
      "type": "constructor"
    },
    {
      "anonymous": false,
      "inputs": [
        {
          "indexed": false,
          "internalType": "bytes3",
          "name": "_quoteCurrencyCode",
          "type": "bytes3"
        }
      ],
      "name": "AcceptanceMarginRemoved",
      "type": "event"
    },
    {
      "anonymous": false,
      "inputs": [
        {
          "indexed": false,
          "internalType": "bytes3",
          "name": "_quoteCurrencyCode",
          "type": "bytes3"
        },
        {
          "indexed": false,
          "internalType": "uint256",
          "name": "_acceptanceMargin",
          "type": "uint256"
        }
      ],
      "name": "AcceptanceMarginSet",
      "type": "event"
    },
    {
      "anonymous": false,
      "inputs": [
        {
          "indexed": false,
          "internalType": "address",
          "name": "_priceOracle",
          "type": "address"
        }
      ],
      "name": "PriceOracleAdded",
      "type": "event"
    },
    {
      "anonymous": false,
      "inputs": [
        {
          "indexed": false,
          "internalType": "address",
          "name": "_priceOracle",
          "type": "address"
        }
      ],
      "name": "PriceOracleRemoved",
      "type": "event"
    },
    {
      "constant": true,
      "inputs": [],
      "name": "baseCurrencyCode",
      "outputs": [
        {
          "internalType": "bytes3",
          "name": "",
          "type": "bytes3"
        }
      ],
      "payable": false,
      "stateMutability": "view",
      "type": "function"
    },
    {
      "constant": true,
      "inputs": [
        {
          "internalType": "bytes3",
          "name": "",
          "type": "bytes3"
        }
      ],
      "name": "baseCurrencyPriceAcceptanceMargins",
      "outputs": [
        {
          "internalType": "uint256",
          "name": "",
          "type": "uint256"
        }
      ],
      "payable": false,
      "stateMutability": "view",
      "type": "function"
    },
    {
      "constant": true,
      "inputs": [
        {
          "internalType": "bytes3",
          "name": "",
          "type": "bytes3"
        }
      ],
      "name": "baseCurrencyPriceOracles",
      "outputs": [
        {
          "internalType": "contract PriceOracleInterface",
          "name": "",
          "type": "address"
        }
      ],
      "payable": false,
      "stateMutability": "view",
      "type": "function"
    },
    {
      "constant": true,
      "inputs": [],
      "name": "conversionRateDecimalsFromBaseCurrencyToToken",
      "outputs": [
        {
          "internalType": "uint256",
          "name": "",
          "type": "uint256"
        }
      ],
      "payable": false,
      "stateMutability": "view",
      "type": "function"
    },
    {
      "constant": true,
      "inputs": [],
      "name": "conversionRateFromBaseCurrencyToToken",
      "outputs": [
        {
          "internalType": "uint256",
          "name": "",
          "type": "uint256"
        }
      ],
      "payable": false,
      "stateMutability": "view",
      "type": "function"
    },
    {
      "constant": true,
      "inputs": [],
      "name": "eip20Token",
      "outputs": [
        {
          "internalType": "contract EIP20TokenInterface",
          "name": "",
          "type": "address"
        }
      ],
      "payable": false,
      "stateMutability": "view",
      "type": "function"
    },
    {
      "constant": true,
      "inputs": [],
      "name": "organization",
      "outputs": [
        {
          "internalType": "contract OrganizationInterface",
          "name": "",
          "type": "address"
        }
      ],
      "payable": false,
      "stateMutability": "view",
      "type": "function"
    },
    {
      "constant": true,
      "inputs": [],
      "name": "requiredPriceOracleDecimals",
      "outputs": [
        {
          "internalType": "uint8",
          "name": "",
          "type": "uint8"
        }
      ],
      "payable": false,
      "stateMutability": "view",
      "type": "function"
    },
    {
      "constant": true,
      "inputs": [],
      "name": "tokenDecimals",
      "outputs": [
        {
          "internalType": "uint8",
          "name": "",
          "type": "uint8"
        }
      ],
      "payable": false,
      "stateMutability": "view",
      "type": "function"
    },
    {
      "constant": true,
      "inputs": [],
      "name": "tokenRules",
      "outputs": [
        {
          "internalType": "contract TokenRules",
          "name": "",
          "type": "address"
        }
      ],
      "payable": false,
      "stateMutability": "view",
      "type": "function"
    },
    {
      "constant": false,
      "inputs": [
        {
          "internalType": "address",
          "name": "_from",
          "type": "address"
        },
        {
          "internalType": "address[]",
          "name": "_toList",
          "type": "address[]"
        },
        {
          "internalType": "uint256[]",
          "name": "_amountList",
          "type": "uint256[]"
        },
        {
          "internalType": "bytes3",
          "name": "_payCurrencyCode",
          "type": "bytes3"
        },
        {
          "internalType": "uint256",
          "name": "_baseCurrencyIntendedPrice",
          "type": "uint256"
        }
      ],
      "name": "pay",
      "outputs": [],
      "payable": false,
      "stateMutability": "nonpayable",
      "type": "function"
    },
    {
      "constant": false,
      "inputs": [
        {
          "internalType": "contract PriceOracleInterface",
          "name": "_priceOracle",
          "type": "address"
        }
      ],
      "name": "addPriceOracle",
      "outputs": [],
      "payable": false,
      "stateMutability": "nonpayable",
      "type": "function"
    },
    {
      "constant": false,
      "inputs": [
        {
          "internalType": "bytes3",
          "name": "_payCurrencyCode",
          "type": "bytes3"
        }
      ],
      "name": "removePriceOracle",
      "outputs": [],
      "payable": false,
      "stateMutability": "nonpayable",
      "type": "function"
    },
    {
      "constant": false,
      "inputs": [
        {
          "internalType": "bytes3",
          "name": "_payCurrencyCode",
          "type": "bytes3"
        },
        {
          "internalType": "uint256",
          "name": "_acceptanceMargin",
          "type": "uint256"
        }
      ],
      "name": "setAcceptanceMargin",
      "outputs": [],
      "payable": false,
      "stateMutability": "nonpayable",
      "type": "function"
    },
    {
      "constant": false,
      "inputs": [
        {
          "internalType": "bytes3",
          "name": "_payCurrencyCode",
          "type": "bytes3"
        }
      ],
      "name": "removeAcceptanceMargin",
      "outputs": [],
      "payable": false,
      "stateMutability": "nonpayable",
      "type": "function"
    }
  ],
  "bytecode": "0x608060405234801561001057600080fd5b506040516115ee3803806115ee833981810160405260e081101561003357600080fd5b508051602082015160408301516060840151608085015160a086015160c0909601519495939492939192909190866001600160a01b0381166100a65760405162461bcd60e51b815260040180806020018281038252602f815260200180611586602f913960400191505060405180910390fd5b600080546001600160a01b0319166001600160a01b039283161790558616610115576040805162461bcd60e51b815260206004820152601660248201527f546f6b656e2061646472657373206973206e756c6c2e00000000000000000000604482015290519081900360640190fd5b6001600160e81b03198516610171576040805162461bcd60e51b815260206004820152601b60248201527f426173652063757272656e637920636f6465206973206e756c6c2e0000000000604482015290519081900360640190fd5b836101ad5760405162461bcd60e51b81526004018080602001828103825260398152602001806115b56039913960400191505060405180910390fd5b6001600160a01b038116610208576040805162461bcd60e51b815260206004820152601c60248201527f546f6b656e2072756c65732061646472657373206973206e756c6c2e00000000604482015290519081900360640190fd5b600180546001600160a01b0319166001600160a01b0388169081179091556040805163313ce56760e01b8152905163313ce56791600480820192602092909190829003018186803b15801561025c57600080fd5b505afa158015610270573d6000803e3d6000fd5b505050506040513d602081101561028657600080fd5b5051600480546000805460e89990991c600160a01b0262ffffff60a01b199099169890981790975560029590955560ff9384166003556001600160a01b03909116620100000262010000600160b01b03199284166101000261ff00199490921660ff19909616959095179290921691909117169190911790555050611276806103106000396000f3fe608060405234801561001057600080fd5b50600436106100f55760003560e01c8063780e2e2e11610097578063e5c379d811610066578063e5c379d814610312578063f07478af1461031a578063f756eb7314610341578063fabdb61314610349576100f5565b8063780e2e2e146102ae5780637db547c7146102b65780639c144d5e146102dd578063bb716ef4146102e5576100f5565b80633b97e856116100d35780633b97e8561461017f5780635a8870471461019d5780635a8f94081461027f578063612367bf14610287576100f5565b806306a27687146100fa5780631e82d63d1461013357806323bd4d7a1461015b575b600080fd5b6101216004803603602081101561011057600080fd5b50356001600160e81b03191661036e565b60408051918252519081900360200190f35b6101596004803603602081101561014957600080fd5b50356001600160a01b0316610380565b005b610163610756565b604080516001600160a01b039092168252519081900360200190f35b610187610765565b6040805160ff9092168252519081900360200190f35b610159600480360360a08110156101b357600080fd5b6001600160a01b0382351691908101906040810160208201356401000000008111156101de57600080fd5b8201836020820111156101f057600080fd5b8035906020019184602083028401116401000000008311171561021257600080fd5b91939092909160208101903564010000000081111561023057600080fd5b82018360208201111561024257600080fd5b8035906020019184602083028401116401000000008311171561026457600080fd5b91935091506001600160e81b0319813516906020013561076e565b610163610a1d565b6101636004803603602081101561029d57600080fd5b50356001600160e81b031916610a2c565b610121610a47565b610159600480360360208110156102cc57600080fd5b50356001600160e81b031916610a4d565b610163610baf565b610159600480360360408110156102fb57600080fd5b506001600160e81b03198135169060200135610bc4565b610187610d2c565b6101596004803603602081101561033057600080fd5b50356001600160e81b031916610d3a565b610121610eb4565b610351610eba565b604080516001600160e81b03199092168252519081900360200190f35b60066020526000908152604090205481565b6000546040805163aa15664560e01b815233600482015290516001600160a01b039092169163aa15664591602480820192602092909190829003018186803b1580156103cb57600080fd5b505afa1580156103df573d6000803e3d6000fd5b505050506040513d60208110156103f557600080fd5b50516104325760405162461bcd60e51b81526004018080602001828103825260398152602001806112096039913960400191505060405180910390fd5b6001600160a01b03811661048d576040805162461bcd60e51b815260206004820152601d60248201527f5072696365206f7261636c652061646472657373206973206e756c6c2e000000604482015290519081900360640190fd5b600460019054906101000a900460ff1660ff16816001600160a01b031663313ce5676040518163ffffffff1660e01b815260040160206040518083038186803b1580156104d957600080fd5b505afa1580156104ed573d6000803e3d6000fd5b505050506040513d602081101561050357600080fd5b505160ff16146105445760405162461bcd60e51b81526004018080602001828103825260418152602001806111c86041913960600191505060405180910390fd5b600060149054906101000a900460e81b6001600160e81b031916816001600160a01b03166392a85fde6040518163ffffffff1660e01b815260040160206040518083038186803b15801561059757600080fd5b505afa1580156105ab573d6000803e3d6000fd5b505050506040513d60208110156105c157600080fd5b50516001600160e81b031916146106095760405162461bcd60e51b81526004018080602001828103825260318152602001806110ce6031913960400191505060405180910390fd5b6000816001600160a01b03166382564bca6040518163ffffffff1660e01b815260040160206040518083038186803b15801561064457600080fd5b505afa158015610658573d6000803e3d6000fd5b505050506040513d602081101561066e57600080fd5b50516001600160e81b031981166000908152600560205260409020549091506001600160a01b0316156106e8576040805162461bcd60e51b815260206004820152601c60248201527f5072696365206f7261636c6520616c7265616479206578697374732e00000000604482015290519081900360640190fd5b6001600160e81b0319811660009081526005602090815260409182902080546001600160a01b0319166001600160a01b038616908117909155825190815291517facf23cc5480d1d549f783a7bd5430fec8c74f0044e925e78beb6733023a105159281900390910190a15050565b6000546001600160a01b031681565b60045460ff1681565b6001600160a01b0387166107c1576040805162461bcd60e51b8152602060048201526015602482015274233937b69030b2323932b9b99034b990373ab6361760591b604482015290519081900360640190fd5b8483146107ff5760405162461bcd60e51b81526004018080602001828103825260398152602001806111256039913960400191505060405180910390fd5b8461080957610a14565b600061081483610eca565b9050806108525760405162461bcd60e51b815260040180806020018281038252602981526020018061119f6029913960400191505060405180910390fd5b6001600160e81b031983166000908152600660205260409020546108799083908390610f95565b6108b45760405162461bcd60e51b815260040180806020018281038252604181526020018061115e6041913960600191505060405180910390fd5b6040805185815260208087028201019091526060908580156108e0578160200160208202803883390190505b50905060005b858110156109295761090a838888848181106108fe57fe5b90506020020135610fd5565b82828151811061091657fe5b60209081029190910101526001016108e6565b5060048054604051635350c96d60e11b81526001600160a01b038c8116938201938452606060248301908152606483018c905262010000909304169263a6a192da928d928d928d92889260448101906084018660208702808284376000838201819052601f909101601f1916909201858103845286518152865160209182019382890193509102908190849084905b838110156109d05781810151838201526020016109b8565b505050509050019650505050505050600060405180830381600087803b1580156109f957600080fd5b505af1158015610a0d573d6000803e3d6000fd5b5050505050505b50505050505050565b6001546001600160a01b031681565b6005602052600090815260409020546001600160a01b031681565b60025481565b6000546040805163aa15664560e01b815233600482015290516001600160a01b039092169163aa15664591602480820192602092909190829003018186803b158015610a9857600080fd5b505afa158015610aac573d6000803e3d6000fd5b505050506040513d6020811015610ac257600080fd5b5051610aff5760405162461bcd60e51b81526004018080602001828103825260398152602001806112096039913960400191505060405180910390fd5b6001600160e81b03198116610b5b576040805162461bcd60e51b815260206004820152601a60248201527f5061792063757272656e637920636f6465206973206e756c6c2e000000000000604482015290519081900360640190fd5b6001600160e81b03198116600081815260066020908152604080832092909255815192835290517f2c48f41fb0ac91148a38a270c2227239ead8136223f9b12cf603e57c799d5e609281900390910190a150565b6004546201000090046001600160a01b031681565b6000546040805163aa15664560e01b815233600482015290516001600160a01b039092169163aa15664591602480820192602092909190829003018186803b158015610c0f57600080fd5b505afa158015610c23573d6000803e3d6000fd5b505050506040513d6020811015610c3957600080fd5b5051610c765760405162461bcd60e51b81526004018080602001828103825260398152602001806112096039913960400191505060405180910390fd5b6001600160e81b03198216610cd2576040805162461bcd60e51b815260206004820152601a60248201527f5061792063757272656e637920636f6465206973206e756c6c2e000000000000604482015290519081900360640190fd5b6001600160e81b031982166000818152600660209081526040918290208490558151928352820183905280517f9342d2e77f78a211818c17938619fcbb5d57089d24841841df0ff3fa4b13b1639281900390910190a15050565b600454610100900460ff1681565b6000546040805163aa15664560e01b815233600482015290516001600160a01b039092169163aa15664591602480820192602092909190829003018186803b158015610d8557600080fd5b505afa158015610d99573d6000803e3d6000fd5b505050506040513d6020811015610daf57600080fd5b5051610dec5760405162461bcd60e51b81526004018080602001828103825260398152602001806112096039913960400191505060405180910390fd5b6001600160e81b031981166000908152600560205260409020546001600160a01b031680610e4b5760405162461bcd60e51b81526004018080602001828103825260268152602001806110ff6026913960400191505060405180910390fd5b6001600160e81b0319821660009081526005602090815260409182902080546001600160a01b031916905581516001600160a01b038416815291517f1ab93c820592302b2bef0070dd03654585b6942bfde155498ddd3d69190bf0429281900390910190a15050565b60035481565b600054600160a01b900460e81b81565b6001600160e81b031981166000908152600560205260408120546001600160a01b031680610f295760405162461bcd60e51b815260040180806020018281038252603c815260200180611092603c913960400191505060405180910390fd5b806001600160a01b03166398d5fdca6040518163ffffffff1660e01b815260040160206040518083038186803b158015610f6257600080fd5b505afa158015610f76573d6000803e3d6000fd5b505050506040513d6020811015610f8c57600080fd5b50519392505050565b60008084841115610fb757610fb0848663ffffffff61103316565b9050610fca565b610fc7858563ffffffff61103316565b90505b909110159392505050565b600061102a8361101e600354600a0a61101e600460009054906101000a900460ff1660ff16600a0a6110126002548961104890919063ffffffff16565b9063ffffffff61104816565b9063ffffffff61106f16565b90505b92915050565b60008282111561104257600080fd5b50900390565b6000826110575750600061102d565b8282028284828161106457fe5b041461102a57600080fd5b600080821161107d57600080fd5b600082848161108857fe5b0494935050505056fe5072696365206f7261636c6520666f7220746865207370656369666965642063757272656e637920636f646520646f6573206e6f742065786973742e5072696365206f7261636c65277320626173652063757272656e637920636f646520646f6573206e6f74206d617463682e5072696365206f7261636c6520746f2072656d6f766520646f6573206e6f742065786973742e27746f2720616e642027616d6f756e7427207472616e736665722061727261797327206c656e6774687320617265206e6f7420657175616c2e496e74656e646564207072696365206973206e6f7420696e207468652061636365707461626c65206d617267696e207772742063757272656e742070726963652e426173652063757272656e637920707269636520696e207061792063757272656e637920697320302e5072696365206f7261636c6520646563696d616c73206e756d62657220697320646966666572656e63652066726f6d20746865207265717569726564206f6e652e4f6e6c792077686974656c697374656420776f726b6572732061726520616c6c6f77656420746f2063616c6c2074686973206d6574686f642ea265627a7a7231582056513474a67b6db70155eb5e68b5cb34102a4b833c6c70a950118b3ccd343e0d64736f6c634300051000324f7267616e697a6174696f6e20636f6e74726163742061646472657373206d757374206e6f74206265207a65726f2e436f6e76657273696f6e20726174652066726f6d2074686520626173652063757272656e637920746f2074686520746f6b656e20697320302e",
  "source": "pragma solidity ^0.5.0;\n\n// Copyright 2019 OpenST Ltd.\n//\n// Licensed under the Apache License, Version 2.0 (the \"License\");\n// you may not use this file except in compliance with the License.\n// You may obtain a copy of the License at\n//\n//    http://www.apache.org/licenses/LICENSE-2.0\n//\n// Unless required by applicable law or agreed to in writing, software\n// distributed under the License is distributed on an \"AS IS\" BASIS,\n// WITHOUT WARRANTIES OR CONDITIONS OF ANY KIND, either express or implied.\n// See the License for the specific language governing permissions and\n// limitations under the License.\n\nimport \"./PriceOracleInterface.sol\";\nimport \"../token/EIP20TokenInterface.sol\";\nimport \"../token/TokenRules.sol\";\nimport \"openzeppelin-solidity/contracts/math/SafeMath.sol\";\n\n\ncontract PricerRule is Organized {\n\n    /* Usings */\n\n    using SafeMath for uint256;\n\n\n    /* Events */\n\n    event PriceOracleAdded(\n        address _priceOracle\n    );\n\n    event PriceOracleRemoved(\n        address _priceOracle\n    );\n\n    event AcceptanceMarginSet(\n        bytes3 _quoteCurrencyCode,\n        uint256 _acceptanceMargin\n    );\n\n    event AcceptanceMarginRemoved(\n        bytes3 _quoteCurrencyCode\n    );\n\n\n    /* Storage */\n\n    /**\n     * @dev The code of the base currency of the economy.\n     */\n    bytes3 public baseCurrencyCode;\n\n    /**\n     * @dev EIP20 token address of the economy.\n     */\n    EIP20TokenInterface public eip20Token;\n\n    /**\n     * @dev Conversion rate from the base currency to the economy token.\n     */\n    uint256 public conversionRateFromBaseCurrencyToToken;\n\n    /**\n     * @dev Conversion rate decimals from the base currency to the\n     *      economy token.\n     */\n    uint256 public conversionRateDecimalsFromBaseCurrencyToToken;\n\n    /**\n     * @dev Token decimals of EIP20Token. Since Pay method can be called multiple\n     *      times, for optimization it's fetched from eip20Token and stored.\n     */\n    uint8 public tokenDecimals;\n\n    /**\n     * @dev Required decimals for price oracles.\n     */\n    uint8 public requiredPriceOracleDecimals;\n\n    /**\n     * @dev Token rules address of the economy.\n     */\n    TokenRules public tokenRules;\n\n    /**\n     * @dev Mapping from pay-currency code to corresponding price oracle.\n     *      The mapped price oracle's base currency code should be the economy\n     *      base currency code (see baseCurrencyCode storage variable)\n     *      and the quote currency code should be the corresponding pay-currency\n     *      code.\n     */\n    mapping(bytes3 => PriceOracleInterface) public baseCurrencyPriceOracles;\n\n    /**\n     * @dev Mapping from pay-currency code to price difference accepatance\n     *      margin. During a pay operation an intended price for\n     *      pay-currency is presented, that is checked against current price of\n     *      pay-currenency wrt stored acceptance margin.\n     */\n    mapping(bytes3 => uint256) public baseCurrencyPriceAcceptanceMargins;\n\n\n    /* Special Functions */\n\n    /**\n     * @notice Constructs a new pricer object.\n     *\n     * @dev Function requires:\n     *          - The economy token address is not null.\n     *          - The base currency code is not empty.\n     *          - Conversion rate from the base currency to the token is not 0.\n     *          - The economy token rules address is not null.\n     *\n     * @param _organization Organization address.\n     * @param _eip20Token The economy token address.\n     * @param _baseCurrencyCode The economy base currency code.\n     * @param _conversionRate The conversion rate from the economy base currency\n     *                        to the token.\n     * @param _conversionRateDecimals The conversion rate's decimals from the\n     *                                economy base currency to the token.\n     * @param _requiredPriceOracleDecimals Required decimals for price oracles.\n     * @param _tokenRules The economy token rules address.\n     */\n    constructor(\n        OrganizationInterface _organization,\n        address _eip20Token,\n        bytes3 _baseCurrencyCode,\n        uint256 _conversionRate,\n        uint8 _conversionRateDecimals,\n        uint8 _requiredPriceOracleDecimals,\n        address _tokenRules\n    )\n        Organized(_organization)\n        public\n    {\n        require(_eip20Token != address(0), \"Token address is null.\");\n\n        require(\n            _baseCurrencyCode != bytes3(0),\n            \"Base currency code is null.\"\n        );\n\n        require(\n            _conversionRate != 0,\n            \"Conversion rate from the base currency to the token is 0.\"\n        );\n\n        require(\n            _tokenRules != address(0),\n            \"Token rules address is null.\"\n        );\n\n        eip20Token = EIP20TokenInterface(_eip20Token);\n\n        tokenDecimals = EIP20TokenInterface(_eip20Token).decimals();\n\n        baseCurrencyCode = _baseCurrencyCode;\n\n        conversionRateFromBaseCurrencyToToken = _conversionRate;\n\n        conversionRateDecimalsFromBaseCurrencyToToken = _conversionRateDecimals;\n\n        requiredPriceOracleDecimals = _requiredPriceOracleDecimals;\n\n        tokenRules = TokenRules(_tokenRules);\n    }\n\n\n    /* External Functions */\n\n    /**\n     * @notice Transfers from the msg.sender account to the specified addresses\n     *         an amount of the economy tokens equivalent (after conversion) to\n     *         the specified amounts in pay currency.\n     *\n     * @dev Function requires:\n     *          - From address is not null.\n     *          - The lengths of arrays of beneficiaries and amounts are equal.\n     *          - The intended price of the base currency in the pay currency\n     *            wrt the current price is in the registered acceptance margin.\n     *\n     * @param _payCurrencyCode Currency code of the specified amounts.\n     * @param _baseCurrencyIntendedPrice The intended price of the base currency\n     *                                   used during conversion within function.\n     */\n    function pay(\n        address _from,\n        address[] calldata _toList,\n        uint256[] calldata _amountList,\n        bytes3 _payCurrencyCode,\n        uint256 _baseCurrencyIntendedPrice\n    )\n        external\n    {\n        require(\n            _from != address(0),\n            \"From address is null.\"\n        );\n\n        require(\n            _toList.length == _amountList.length,\n            \"'to' and 'amount' transfer arrays' lengths are not equal.\"\n        );\n\n        if (_toList.length == 0) {\n            return;\n        }\n\n        uint256 baseCurrencyCurrentPrice = baseCurrencyPrice(\n            _payCurrencyCode\n        );\n\n        require(\n            baseCurrencyCurrentPrice != 0,\n            \"Base currency price in pay currency is 0.\"\n        );\n\n        require(\n            isPriceInRange(\n                _baseCurrencyIntendedPrice,\n                baseCurrencyCurrentPrice,\n                baseCurrencyPriceAcceptanceMargins[_payCurrencyCode]\n            ),\n            \"Intended price is not in the acceptable margin wrt current price.\"\n        );\n\n        uint256[] memory convertedAmounts = new uint256[](_amountList.length);\n\n        for(uint256 i = 0; i < _amountList.length; ++i) {\n            convertedAmounts[i] = convertPayCurrencyToToken(\n                baseCurrencyCurrentPrice,\n                _amountList[i]\n            );\n        }\n\n        tokenRules.executeTransfers(\n            _from,\n            _toList,\n            convertedAmounts\n        );\n    }\n\n    /**\n     * @notice Adds a new price oracle.\n     *\n     * @dev Function requires:\n     *          - Only organization's workers are allowed to call the function.\n     *          - The proposed price oracle's address is not null.\n     *          - The proposed price oracle's base currency code is\n     *            equal to the economy base currency code specified in this\n     *            contract constructor.\n     *          - The proposed price oracle does not exist.\n     *          - The proposed price oracle decimals number is equal to\n     *            the contract required price oracle decimals number.\n     *\n     * @param _priceOracle The proposed price oracle.\n     */\n    function addPriceOracle(\n        PriceOracleInterface _priceOracle\n    )\n        external\n        onlyWorker\n    {\n        require(\n            address(_priceOracle) != address(0),\n            \"Price oracle address is null.\"\n        );\n\n        require(\n            _priceOracle.decimals() == requiredPriceOracleDecimals,\n            \"Price oracle decimals number is difference from the required one.\"\n        );\n\n        require(\n            _priceOracle.baseCurrency() == baseCurrencyCode,\n            \"Price oracle's base currency code does not match.\"\n        );\n\n        bytes3 payCurrencyCode = _priceOracle.quoteCurrency();\n\n        require(\n            address(baseCurrencyPriceOracles[payCurrencyCode]) == address(0),\n            \"Price oracle already exists.\"\n        );\n\n\n        baseCurrencyPriceOracles[payCurrencyCode] = _priceOracle;\n\n        emit PriceOracleAdded(address(_priceOracle));\n    }\n\n    /**\n     * @notice Removes the price oracle for the specified pay currency code.\n     *\n     * @dev Function requires:\n     *          - Only organization's workers are allowed to call the function.\n     *          - Price oracle matching with the specified pay currency code\n     *            exists.\n     */\n    function removePriceOracle(\n        bytes3 _payCurrencyCode\n    )\n        external\n        onlyWorker\n    {\n        PriceOracleInterface priceOracle = baseCurrencyPriceOracles[\n            _payCurrencyCode\n        ];\n\n        require(\n            address(priceOracle) != address(0),\n            \"Price oracle to remove does not exist.\"\n        );\n\n        delete baseCurrencyPriceOracles[_payCurrencyCode];\n\n        emit PriceOracleRemoved(address(priceOracle));\n    }\n\n    /**\n     * @notice Sets an acceptance margin for the base currency price per pay\n     *         currency.\n     *\n     * @dev Function requires:\n     *          - Only organization's workers are allowed to call the function.\n     *          - The specified pay currency code is not null.\n     */\n    function setAcceptanceMargin(\n        bytes3 _payCurrencyCode,\n        uint256 _acceptanceMargin\n    )\n        external\n        onlyWorker\n    {\n        require(\n            _payCurrencyCode != bytes3(0),\n            \"Pay currency code is null.\"\n        );\n\n        baseCurrencyPriceAcceptanceMargins[_payCurrencyCode] = _acceptanceMargin;\n\n        emit AcceptanceMarginSet(\n            _payCurrencyCode,\n            _acceptanceMargin\n        );\n    }\n\n    /**\n     * @notice Removes an acceptance margin of the base currency price in the\n     *         specified pay currency.\n     *\n     * @dev Function requires:\n     *          - Only organization's workers are allowed to call the function.\n     *          - The specified pay currency code is not null.\n     */\n    function removeAcceptanceMargin(\n        bytes3 _payCurrencyCode\n    )\n        external\n        onlyWorker\n    {\n        require(\n            _payCurrencyCode != bytes3(0),\n            \"Pay currency code is null.\"\n        );\n\n        delete baseCurrencyPriceAcceptanceMargins[_payCurrencyCode];\n\n        emit AcceptanceMarginRemoved(_payCurrencyCode);\n    }\n\n\n    /* Private Functions */\n\n    function baseCurrencyPrice(\n        bytes3 _payCurrencyCode\n    )\n        private\n        view\n        returns(uint256)\n    {\n        PriceOracleInterface priceOracle = baseCurrencyPriceOracles[\n            _payCurrencyCode\n        ];\n\n        require(\n            address(priceOracle) != address(0),\n            \"Price oracle for the specified currency code does not exist.\"\n        );\n\n        return priceOracle.getPrice();\n    }\n\n    function convertPayCurrencyToToken(\n        uint256 _baseCurrencyPriceInPayCurrency,\n        uint256 _payCurrencyAmount\n    )\n        private\n        view\n        returns (uint256)\n    {\n        return _payCurrencyAmount\n            .mul(\n                conversionRateFromBaseCurrencyToToken\n            )\n            .mul(\n                10 ** uint256(tokenDecimals)\n            )\n            .div(\n                10 ** conversionRateDecimalsFromBaseCurrencyToToken\n            )\n            .div(\n                _baseCurrencyPriceInPayCurrency\n            );\n    }\n\n    function isPriceInRange(\n        uint256 _intendedPrice,\n        uint256 _currentPrice,\n        uint256 _acceptanceMargin\n    )\n        private\n        pure\n        returns(bool isInRange)\n    {\n        uint256 diff = 0;\n        if (_currentPrice > _intendedPrice) {\n            diff = _currentPrice.sub(_intendedPrice);\n        } else {\n            diff = _intendedPrice.sub(_currentPrice);\n        }\n\n        return diff <= _acceptanceMargin;\n    }\n\n}\n",
  "sourcePath": "/Users/OST/Documents/dj/ost-opt-contracts/contracts/openst-contracts/contracts/rules/PricerRule.sol",
  "compiler": {
    "name": "solc",
    "version": "0.5.16+commit.9c3226ce.Emscripten.clang"
  },
  "schemaVersion": "3.0.21",
  "updatedAt": "2020-01-21T06:50:59.723Z",
  "devdoc": {
    "methods": {
      "addPriceOracle(address)": {
        "details": "Function requires:         - Only organization's workers are allowed to call the function.         - The proposed price oracle's address is not null.         - The proposed price oracle's base currency code is           equal to the economy base currency code specified in this           contract constructor.         - The proposed price oracle does not exist.         - The proposed price oracle decimals number is equal to           the contract required price oracle decimals number.",
        "params": {
          "_priceOracle": "The proposed price oracle."
        }
      },
      "constructor": {
        "details": "Function requires:         - The economy token address is not null.         - The base currency code is not empty.         - Conversion rate from the base currency to the token is not 0.         - The economy token rules address is not null.",
        "params": {
          "_baseCurrencyCode": "The economy base currency code.",
          "_conversionRate": "The conversion rate from the economy base currency                       to the token.",
          "_conversionRateDecimals": "The conversion rate's decimals from the                               economy base currency to the token.",
          "_eip20Token": "The economy token address.",
          "_organization": "Organization address.",
          "_requiredPriceOracleDecimals": "Required decimals for price oracles.",
          "_tokenRules": "The economy token rules address."
        }
      },
      "pay(address,address[],uint256[],bytes3,uint256)": {
        "details": "Function requires:         - From address is not null.         - The lengths of arrays of beneficiaries and amounts are equal.         - The intended price of the base currency in the pay currency           wrt the current price is in the registered acceptance margin.",
        "params": {
          "_baseCurrencyIntendedPrice": "The intended price of the base currency                                  used during conversion within function.",
          "_payCurrencyCode": "Currency code of the specified amounts."
        }
      },
      "removeAcceptanceMargin(bytes3)": {
        "details": "Function requires:         - Only organization's workers are allowed to call the function.         - The specified pay currency code is not null."
      },
      "removePriceOracle(bytes3)": {
        "details": "Function requires:         - Only organization's workers are allowed to call the function.         - Price oracle matching with the specified pay currency code           exists."
      },
      "setAcceptanceMargin(bytes3,uint256)": {
        "details": "Function requires:         - Only organization's workers are allowed to call the function.         - The specified pay currency code is not null."
      }
    }
  },
  "userdoc": {
    "methods": {
      "addPriceOracle(address)": {
        "notice": "Adds a new price oracle."
      },
      "constructor": "Constructs a new pricer object.",
      "pay(address,address[],uint256[],bytes3,uint256)": {
        "notice": "Transfers from the msg.sender account to the specified addresses        an amount of the economy tokens equivalent (after conversion) to        the specified amounts in pay currency."
      },
      "removeAcceptanceMargin(bytes3)": {
        "notice": "Removes an acceptance margin of the base currency price in the        specified pay currency."
      },
      "removePriceOracle(bytes3)": {
        "notice": "Removes the price oracle for the specified pay currency code."
      },
      "setAcceptanceMargin(bytes3,uint256)": {
        "notice": "Sets an acceptance margin for the base currency price per pay        currency."
      }
    }
  }
}