{
  "contractName": "PriceOracleFake",
  "abi": [
    {
      "inputs": [
        {
          "internalType": "bytes3",
          "name": "_baseCurrencyCode",
          "type": "bytes3"
        },
        {
          "internalType": "bytes3",
          "name": "_quoteCurrencyCode",
          "type": "bytes3"
        },
        {
          "internalType": "uint8",
          "name": "_quoteCurrencyDecimals",
          "type": "uint8"
        },
        {
          "internalType": "uint256",
          "name": "_initialPrice",
          "type": "uint256"
        },
        {
          "internalType": "uint256",
          "name": "_expirationHeight",
          "type": "uint256"
        }
      ],
      "payable": false,
      "stateMutability": "nonpayable",
      "type": "constructor"
    },
    {
      "anonymous": false,
      "inputs": [
        {
          "indexed": false,
          "internalType": "uint256",
          "name": "_price",
          "type": "uint256"
        }
      ],
      "name": "PriceUpdated",
      "type": "event"
    },
    {
      "constant": true,
      "inputs": [],
      "name": "baseCurrency",
      "outputs": [
        {
          "internalType": "bytes3",
          "name": "",
          "type": "bytes3"
        }
      ],
      "payable": false,
      "stateMutability": "view",
      "type": "function"
    },
    {
      "constant": true,
      "inputs": [],
      "name": "quoteCurrency",
      "outputs": [
        {
          "internalType": "bytes3",
          "name": "",
          "type": "bytes3"
        }
      ],
      "payable": false,
      "stateMutability": "view",
      "type": "function"
    },
    {
      "constant": true,
      "inputs": [],
      "name": "decimals",
      "outputs": [
        {
          "internalType": "uint8",
          "name": "",
          "type": "uint8"
        }
      ],
      "payable": false,
      "stateMutability": "view",
      "type": "function"
    },
    {
      "constant": true,
      "inputs": [],
      "name": "getPrice",
      "outputs": [
        {
          "internalType": "uint256",
          "name": "",
          "type": "uint256"
        }
      ],
      "payable": false,
      "stateMutability": "view",
      "type": "function"
    },
    {
      "constant": false,
      "inputs": [
        {
          "internalType": "uint256",
          "name": "_price",
          "type": "uint256"
        },
        {
          "internalType": "uint256",
          "name": "_expirationHeight",
          "type": "uint256"
        }
      ],
      "name": "setPrice",
      "outputs": [],
      "payable": false,
      "stateMutability": "nonpayable",
      "type": "function"
    }
  ],
  "bytecode": "0x608060405234801561001057600080fd5b50604051610462380380610462833981810160405260a081101561003357600080fd5b508051602082015160408301516060840151608090940151929391929091906001600160e81b031985166100ae576040805162461bcd60e51b815260206004820152601c60248201527f426173652063757272656e637920636f646520697320656d7074792e00000000604482015290519081900360640190fd5b6001600160e81b0319841661010a576040805162461bcd60e51b815260206004820152601d60248201527f51756f74652063757272656e637920636f646520697320656d7074792e000000604482015290519081900360640190fd5b6000805462ffffff191660e887811c9190911765ffffff000000191663010000009187901c919091021790556003805460ff191660ff851617905561014f8282610159565b50505050506101d8565b4381116101975760405162461bcd60e51b815260040180806020018281038252603b815260200180610427603b913960400191505060405180910390fd5b600182905560028190556040805183815290517f66cbca4f3c64fecf1dcb9ce094abcf7f68c3450a1d4e3a8e917dd621edb4ebe09181900360200190a15050565b610240806101e76000396000f3fe608060405234801561001057600080fd5b50600436106100575760003560e01c8063313ce5671461005c57806382564bca1461007a57806392a85fde1461009f57806398d5fdca146100a7578063f7d97577146100c1575b600080fd5b6100646100e6565b6040805160ff9092168252519081900360200190f35b6100826100ef565b604080516001600160e81b03199092168252519081900360200190f35b6100826100ff565b6100af610108565b60408051918252519081900360200190f35b6100e4600480360360408110156100d757600080fd5b5080359060200135610151565b005b60035460ff1690565b6000546301000000900460e81b90565b60005460e81b90565b6000436002541161014a5760405162461bcd60e51b815260040180806020018281038252603b8152602001806101d1603b913960400191505060405180910390fd5b5060015490565b43811161018f5760405162461bcd60e51b815260040180806020018281038252603b8152602001806101d1603b913960400191505060405180910390fd5b600182905560028190556040805183815290517f66cbca4f3c64fecf1dcb9ce094abcf7f68c3450a1d4e3a8e917dd621edb4ebe09181900360200190a1505056fe50726963652065787069726174696f6e20686569676874206973206c746520746f207468652063757272656e7420626c6f636b206865696768742ea265627a7a723158208b031b12f7370734754892467a38c312ddb98cd35db6cf4fb08c3b16039c15e164736f6c6343000510003250726963652065787069726174696f6e20686569676874206973206c746520746f207468652063757272656e7420626c6f636b206865696768742e",
  "source": "pragma solidity ^0.5.0;\n\n// Copyright 2019 OpenST Ltd.\n//\n// Licensed under the Apache License, Version 2.0 (the \"License\");\n// you may not use this file except in compliance with the License.\n// You may obtain a copy of the License at\n//\n//    http://www.apache.org/licenses/LICENSE-2.0\n//\n// Unless required by applicable law or agreed to in writing, software\n// distributed under the License is distributed on an \"AS IS\" BASIS,\n// WITHOUT WARRANTIES OR CONDITIONS OF ANY KIND, either express or implied.\n// See the License for the specific language governing permissions and\n// limitations under the License.\n\nimport \"../../../rules/PriceOracleInterface.sol\";\n\ncontract PriceOracleFake is PriceOracleInterface {\n\n    /* Storage */\n\n    bytes3 baseCurrencyCode;\n\n    bytes3 quoteCurrencyCode;\n\n    uint256 price;\n\n    uint256 expirationHeight;\n\n    uint8 quoteCurrencyDecimals;\n\n\n    /* Special */\n\n    constructor(\n        bytes3 _baseCurrencyCode,\n        bytes3 _quoteCurrencyCode,\n        uint8 _quoteCurrencyDecimals,\n        uint256 _initialPrice,\n        uint256 _expirationHeight\n    )\n        public\n    {\n        require(\n            _baseCurrencyCode != bytes3(0),\n            \"Base currency code is empty.\"\n        );\n\n        require(\n            _quoteCurrencyCode != bytes3(0),\n            \"Quote currency code is empty.\"\n        );\n\n        baseCurrencyCode = _baseCurrencyCode;\n\n        quoteCurrencyCode = _quoteCurrencyCode;\n\n        quoteCurrencyDecimals = _quoteCurrencyDecimals;\n\n        setPrice(_initialPrice, _expirationHeight);\n    }\n\n\n    /* External Functions */\n\n    /**\n     * @notice Returns base currency code.\n     *\n     * @dev Base currency code is not according to ISO 4217 or other standard.\n     */\n    function baseCurrency()\n        external\n        view\n        returns (bytes3)\n    {\n        return baseCurrencyCode;\n    }\n\n    /**\n     * @notice Returns quote currency code.\n     *\n     * @dev Quote currency code is not according to ISO 4217 or other standard.\n     */\n    function quoteCurrency()\n        external\n        view\n        returns (bytes3)\n    {\n        return quoteCurrencyCode;\n    }\n\n    /**\n     * @notice Returns quote currency decimals.\n     */\n    function decimals()\n        external\n        view\n        returns(uint8)\n    {\n        return quoteCurrencyDecimals;\n    }\n\n    /**\n     * @notice Returns an amount of the quote currency needed to purchase\n     *         one unit of the base currency.\n     *\n     * @dev Function throws an exception if the price is invalid, for example,\n     *      was not set, or became outdated, etc.\n     *\n     * @return An amount of the quote currency needed to purchase one unit of\n     *         the base base currency.\n     */\n    function getPrice()\n        external\n        view\n        returns (uint256)\n    {\n        require(\n            expirationHeight > block.number,\n            \"Price expiration height is lte to the current block height.\"\n        );\n\n        return price;\n    }\n\n\n    /* Public Functions */\n\n    function setPrice(\n        uint256 _price,\n        uint256 _expirationHeight\n    )\n        public\n    {\n        require(\n            _expirationHeight > block.number,\n            \"Price expiration height is lte to the current block height.\"\n        );\n\n        price = _price;\n\n        expirationHeight = _expirationHeight;\n\n        emit PriceUpdated(price);\n    }\n}",
  "sourcePath": "/Users/OST/Documents/dj/ost-opt-contracts/contracts/openst-contracts/contracts/test_doubles/unit_tests/pricer_rule/PriceOracleFake.sol",
  "compiler": {
    "name": "solc",
    "version": "0.5.16+commit.9c3226ce.Emscripten.clang"
  },
  "schemaVersion": "3.0.21",
  "updatedAt": "2020-01-22T10:54:09.823Z",
  "devdoc": {
    "methods": {
      "baseCurrency()": {
        "details": "Base currency code is not according to ISO 4217 or other standard."
      },
      "getPrice()": {
        "details": "Function throws an exception if the price is invalid, for example,     was not set, or became outdated, etc.",
        "return": "An amount of the quote currency needed to purchase one unit of        the base base currency."
      },
      "quoteCurrency()": {
        "details": "Quote currency code is not according to ISO 4217 or other standard."
      }
    }
  },
  "userdoc": {
    "methods": {
      "baseCurrency()": {
        "notice": "Returns base currency code."
      },
      "decimals()": {
        "notice": "Returns quote currency decimals."
      },
      "getPrice()": {
        "notice": "Returns an amount of the quote currency needed to purchase        one unit of the base currency."
      },
      "quoteCurrency()": {
        "notice": "Returns quote currency code."
      }
    }
  }
}