{
  "contractName": "Proxy",
  "abi": [
    {
      "inputs": [
        {
          "internalType": "address",
          "name": "_masterCopy",
          "type": "address"
        }
      ],
      "payable": false,
      "stateMutability": "nonpayable",
      "type": "constructor"
    },
    {
      "payable": true,
      "stateMutability": "payable",
      "type": "fallback"
    },
    {
      "constant": true,
      "inputs": [],
      "name": "implementation",
      "outputs": [
        {
          "internalType": "address",
          "name": "",
          "type": "address"
        }
      ],
      "payable": false,
      "stateMutability": "view",
      "type": "function"
    },
    {
      "constant": true,
      "inputs": [],
      "name": "proxyType",
      "outputs": [
        {
          "internalType": "uint256",
          "name": "",
          "type": "uint256"
        }
      ],
      "payable": false,
      "stateMutability": "pure",
      "type": "function"
    }
  ],
  "bytecode": "0x608060405234801561001057600080fd5b506040516101bb3803806101bb8339818101604052602081101561003357600080fd5b50516001600160a01b03811661007a5760405162461bcd60e51b81526004018080602001828103825260248152602001806101976024913960400191505060405180910390fd5b600080546001600160a01b039092166001600160a01b031990921691909117905560ee806100a96000396000f3fe60806040526004361060265760003560e01c80634555d5c91460535780635c60da1b146077575b6001600160a01b03600054163660008037600080366000845af43d6000803e80604e573d6000fd5b3d6000f35b348015605e57600080fd5b50606560a5565b60408051918252519081900360200190f35b348015608257600080fd5b50608960aa565b604080516001600160a01b039092168252519081900360200190f35b600290565b6000546001600160a01b03169056fea265627a7a723158205e4eab03ed6825fd19fd86bfa47bef4a271cb65a8512a12725eca3ae5f2e12a564736f6c63430005100032496e76616c6964206d617374657220636f707920616464726573732070726f7669646564",
  "source": "pragma solidity ^0.5.0;\n\n\n/// @title Proxy - Generic proxy contract allows to execute all transactions applying the code of a master contract.\n/// @author Stefan George - <stefan@gnosis.pm>\ncontract Proxy {\n\n    // masterCopy always needs to be first declared variable, to ensure that it is at the same location in the contracts to which calls are delegated.\n    address masterCopy;\n\n    /// @dev Constructor function sets address of master copy contract.\n    /// @param _masterCopy Master copy address.\n    constructor(address _masterCopy)\n        public\n    {\n        require(_masterCopy != address(0), \"Invalid master copy address provided\");\n        masterCopy = _masterCopy;\n    }\n\n    /// @dev Fallback function forwards all transactions and returns all received return data.\n    function ()\n        external\n        payable\n    {\n        // solium-disable-next-line security/no-inline-assembly\n        assembly {\n            let masterCopy := and(sload(0), 0xffffffffffffffffffffffffffffffffffffffff)\n            calldatacopy(0, 0, calldatasize())\n            let success := delegatecall(gas, masterCopy, 0, calldatasize(), 0, 0)\n            returndatacopy(0, 0, returndatasize())\n            if eq(success, 0) { revert(0, returndatasize()) }\n            return(0, returndatasize())\n        }\n    }\n\n    function implementation()\n        public\n        view\n        returns (address)\n    {\n        return masterCopy;\n    }\n\n    function proxyType()\n        public\n        pure\n        returns (uint256)\n    {\n        return 2;\n    }\n}\n",
  "sourcePath": "/Users/OST/Documents/dj/ost-opt-contracts/contracts/openst-contracts/external/gnosis/safe-contracts/contracts/proxies/Proxy.sol",
  "compiler": {
    "name": "solc",
    "version": "0.5.16+commit.9c3226ce.Emscripten.clang"
  },
  "schemaVersion": "3.0.21",
  "updatedAt": "2020-01-22T10:54:09.803Z",
  "devdoc": {
    "author": "Stefan George - <stefan@gnosis.pm>",
    "methods": {
      "constructor": {
        "details": "Constructor function sets address of master copy contract.",
        "params": {
          "_masterCopy": "Master copy address."
        }
      }
    },
    "title": "Proxy - Generic proxy contract allows to execute all transactions applying the code of a master contract."
  },
  "userdoc": {
    "methods": {}
  }
}