{
  "contractName": "ProxyFactory",
  "abi": [
    {
      "anonymous": false,
      "inputs": [
        {
          "indexed": false,
          "internalType": "contract Proxy",
          "name": "_proxy",
          "type": "address"
        }
      ],
      "name": "ProxyCreated",
      "type": "event"
    },
    {
      "constant": false,
      "inputs": [
        {
          "internalType": "address",
          "name": "_masterCopy",
          "type": "address"
        },
        {
          "internalType": "bytes",
          "name": "_data",
          "type": "bytes"
        }
      ],
      "name": "createProxy",
      "outputs": [
        {
          "internalType": "contract Proxy",
          "name": "proxy_",
          "type": "address"
        }
      ],
      "payable": false,
      "stateMutability": "nonpayable",
      "type": "function"
    }
  ],
  "bytecode": "0x608060405234801561001057600080fd5b506103bc806100206000396000f3fe608060405234801561001057600080fd5b506004361061002b5760003560e01c806361b69abd14610030575b600080fd5b6100e66004803603604081101561004657600080fd5b6001600160a01b03823516919081019060408101602082013564010000000081111561007157600080fd5b82018360208201111561008357600080fd5b803590602001918460018302840111640100000000831117156100a557600080fd5b91908080601f016020809104026020016040519081016040528093929190818152602001838380828437600092019190915250929550610102945050505050565b604080516001600160a01b039092168252519081900360200190f35b60006001600160a01b03831661015f576040805162461bcd60e51b815260206004820152601c60248201527f4d617374657220636f70792061646472657373206973206e756c6c2e00000000604482015290519081900360640190fd5b8260405161016c90610200565b6001600160a01b03909116815260405190819003602001906000f080158015610199573d6000803e3d6000fd5b508251909150156101bf5760008060008451602086016000865af114156101bf57600080fd5b604080516001600160a01b038316815290517efffc2da0b561cae30d9826d37709e9421c4725faebc226cbbb7ef5fc5e73499181900360200190a192915050565b61017a8061020e8339019056fe608060405234801561001057600080fd5b5060405161017a38038061017a8339818101604052602081101561003357600080fd5b50516001600160a01b038116610090576040805162461bcd60e51b815260206004820152601c60248201527f4d617374657220636f70792061646472657373206973206e756c6c2e00000000604482015290519081900360640190fd5b600080546001600160a01b039092166001600160a01b031990921691909117905560bb806100bf6000396000f3fe608060405260043610601c5760003560e01c8063a619486e146049575b6001600160a01b03600054163660008037600080366000845af43d6000803e806044573d6000fd5b3d6000f35b348015605457600080fd5b50605b6077565b604080516001600160a01b039092168252519081900360200190f35b6000546001600160a01b03168156fea265627a7a723158201ea608687391c03804c66c93753f0afed2559773272c0221615d53769d91fe7c64736f6c63430005100032a265627a7a723158205dc79633faec5ced55a57be7f1f3b2b7a5dd4d0a0d9a8c63c3f3a99bd0b9754064736f6c63430005100032",
  "source": "pragma solidity ^0.5.0;\n\n// Copyright 2019 OpenST Ltd.\n//\n// Licensed under the Apache License, Version 2.0 (the \"License\");\n// you may not use this file except in compliance with the License.\n// You may obtain a copy of the License at\n//\n//    http://www.apache.org/licenses/LICENSE-2.0\n//\n// Unless required by applicable law or agreed to in writing, software\n// distributed under the License is distributed on an \"AS IS\" BASIS,\n// WITHOUT WARRANTIES OR CONDITIONS OF ANY KIND, either express or implied.\n// See the License for the specific language governing permissions and\n// limitations under the License.\n\nimport \"./Proxy.sol\";\n\n/**\n * @title Allows to create new proxy contact and execute a message call to the\n *        new proxy within one transaction.\n *\n * @dev This contract is adapted from a ProxyFactory contract implementation\n *      from https://github.com/gnosis/safe-contracts.\n */\ncontract ProxyFactory {\n\n    /**\n     * @notice The event is emitted from the ProxyFactory::createProxy\n     *         function on success.\n     *\n     * @param _proxy A newly created proxy.\n     */\n    event ProxyCreated(Proxy _proxy);\n\n    /**\n     * @dev Allows to create new proxy contact and execute a message call (if\n     *      a message data is non-empty) to the new proxy within one\n     *      transaction.\n     *\n     *      Function requires:\n     *          - The specified master copy address is not null.\n     *\n     * @param _masterCopy Address of a master copy.\n     * @param _data Payload for message call sent to new proxy contract.\n     *              Executes a message call to this parameter if it's not empty.\n     *\n     * @return proxy_ A newly created proxy.\n     */\n    function createProxy(address _masterCopy, bytes memory _data)\n        public\n        returns (Proxy proxy_)\n    {\n        require(\n            _masterCopy != address(0),\n            \"Master copy address is null.\"\n        );\n\n        proxy_ = new Proxy(_masterCopy);\n        if (_data.length > 0)\n            // solium-disable-next-line security/no-inline-assembly\n            assembly {\n                if eq(call(gas, proxy_, 0, add(_data, 0x20), mload(_data), 0, 0), 0) {\n                    revert(0, 0)\n                }\n            }\n\n        emit ProxyCreated(proxy_);\n    }\n}\n",
  "sourcePath": "/Users/OST/Documents/dj/ost-opt-contracts/contracts/openst-contracts/contracts/proxies/ProxyFactory.sol",
  "compiler": {
    "name": "solc",
    "version": "0.5.16+commit.9c3226ce.Emscripten.clang"
  },
  "schemaVersion": "3.0.21",
  "updatedAt": "2020-01-19T12:15:30.168Z",
  "devdoc": {
    "details": "This contract is adapted from a ProxyFactory contract implementation     from https://github.com/gnosis/safe-contracts.",
    "methods": {
      "createProxy(address,bytes)": {
        "details": "Allows to create new proxy contact and execute a message call (if     a message data is non-empty) to the new proxy within one     transaction.     *      Function requires:         - The specified master copy address is not null.",
        "params": {
          "_data": "Payload for message call sent to new proxy contract.             Executes a message call to this parameter if it's not empty.",
          "_masterCopy": "Address of a master copy."
        },
        "return": "proxy_ A newly created proxy."
      }
    },
    "title": "Allows to create new proxy contact and execute a message call to the       new proxy within one transaction."
  },
  "userdoc": {
    "methods": {}
  }
}