{
  "contractName": "RevertProxy",
  "abi": [
    {
      "inputs": [
        {
          "internalType": "address",
          "name": "_target",
          "type": "address"
        }
      ],
      "payable": false,
      "stateMutability": "nonpayable",
      "type": "constructor"
    },
    {
      "payable": true,
      "stateMutability": "payable",
      "type": "fallback"
    },
    {
      "constant": true,
      "inputs": [],
      "name": "data",
      "outputs": [
        {
          "internalType": "bytes",
          "name": "",
          "type": "bytes"
        }
      ],
      "payable": false,
      "stateMutability": "view",
      "type": "function"
    },
    {
      "constant": true,
      "inputs": [],
      "name": "target",
      "outputs": [
        {
          "internalType": "address",
          "name": "",
          "type": "address"
        }
      ],
      "payable": false,
      "stateMutability": "view",
      "type": "function"
    },
    {
      "constant": false,
      "inputs": [
        {
          "internalType": "address",
          "name": "_newTarget",
          "type": "address"
        }
      ],
      "name": "updateTarget",
      "outputs": [],
      "payable": false,
      "stateMutability": "nonpayable",
      "type": "function"
    },
    {
      "constant": false,
      "inputs": [],
      "name": "execute",
      "outputs": [
        {
          "internalType": "bool",
          "name": "",
          "type": "bool"
        },
        {
          "internalType": "bytes",
          "name": "",
          "type": "bytes"
        }
      ],
      "payable": false,
      "stateMutability": "nonpayable",
      "type": "function"
    }
  ],
  "bytecode": "0x608060405234801561001057600080fd5b5060405161048c38038061048c8339818101604052602081101561003357600080fd5b5051600080546001600160a01b039092166001600160a01b0319909216919091179055610427806100656000396000f3fe60806040526004361061003f5760003560e01c8063614619541461004f57806373d4a13a146100e7578063d4b8399214610171578063ea1b495f146101a2575b61004c6001600036610357565b50005b34801561005b57600080fd5b506100646101d7565b604051808315151515815260200180602001828103825283818151815260200191508051906020019080838360005b838110156100ab578181015183820152602001610093565b50505050905090810190601f1680156100d85780820380516001836020036101000a031916815260200191505b50935050505060405180910390f35b3480156100f357600080fd5b506100fc610299565b6040805160208082528351818301528351919283929083019185019080838360005b8381101561013657818101518382015260200161011e565b50505050905090810190601f1680156101635780820380516001836020036101000a031916815260200191505b509250505060405180910390f35b34801561017d57600080fd5b50610186610326565b604080516001600160a01b039092168252519081900360200190f35b3480156101ae57600080fd5b506101d5600480360360208110156101c557600080fd5b50356001600160a01b0316610335565b005b60008054604051600180546060936001600160a01b031692908190839060026000198284161561010002019091160480156102495780601f10610227576101008083540402835291820191610249565b820191906000526020600020905b815481529060010190602001808311610235575b50509150506000604051808303816000865af19150503d806000811461028b576040519150601f19603f3d011682016040523d82523d6000602084013e610290565b606091505b50915091509091565b60018054604080516020600284861615610100026000190190941693909304601f8101849004840282018401909252818152929183018282801561031e5780601f106102f35761010080835404028352916020019161031e565b820191906000526020600020905b81548152906001019060200180831161030157829003601f168201915b505050505081565b6000546001600160a01b031681565b600080546001600160a01b0319166001600160a01b0392909216919091179055565b828054600181600116156101000203166002900490600052602060002090601f016020900481019282601f106103985782800160ff198235161785556103c5565b828001600101855582156103c5579182015b828111156103c55782358255916020019190600101906103aa565b506103d19291506103d5565b5090565b6103ef91905b808211156103d157600081556001016103db565b9056fea265627a7a7231582076cd51a04475e03fdfd48d4f560d2a5954989838d48df2b6efe77cb5b525aea164736f6c63430005100032",
  "source": "pragma solidity ^0.5.0;\n\n// Copyright 2018 OpenST Ltd.\n//\n// Licensed under the Apache License, Version 2.0 (the \"License\");\n// you may not use this file except in compliance with the License.\n// You may obtain a copy of the License at\n//\n//    http://www.apache.org/licenses/LICENSE-2.0\n//\n// Unless required by applicable law or agreed to in writing, software\n// distributed under the License is distributed on an \"AS IS\" BASIS,\n// WITHOUT WARRANTIES OR CONDITIONS OF ANY KIND, either express or implied.\n// See the License for the specific language governing permissions and\n// limitations under the License.\n\n//import \"truffle/Assert.sol\";\n//import \"truffle/DeployedAddresses.sol\";\n\n/**\n * @title A proxy contract to catch and test for reverts in other contracts.\n *\n * @notice Use this contract as a proxy between the test contract and the\n *         contract under test. It will catch reverts and return false if it\n *         caught one.\n *\n * @dev An important caveat here is to recognize the contract caller,\n *      msg.sender. If you add a proxy in between, then msg.sender will be the\n *      proxy, which could break authorization and permissioning algorithms. If\n *      your authorization system allows you to change the owner, you can get\n *      around this constraint by setting the proxy to be the contract owner.\n *      It’s also important to know that this only tests throw's at this\n *      particular level.\n *      It would be prudent to also ensure there isn’t anything faulty in the\n *      proxy by creating a second test as a control. This test should be\n *      called with the appropriate gas and use the proxy to test a function\n *      where _no_ throw occurs, just to make sure the proxy is setup and\n *      working as intended.\n *      Because a throw essentially uses up all gas, one must make doubly sure\n *      they catch the throw and not a legitimate out-of-gas (OOG) error. As\n *      well, take care to manage sending Ether through the proxy (for tests\n *      that require it) as that can be difficult as well.\n *\n *      See also test/core/TestAuxiliaryStake.sol\n *\n *      Usage:\n *      contract TestThrower {\n *          function testThrow() {\n *              Thrower thrower = new Thrower();\n *              // Set Thrower as the contract to forward requests to the target.\n *              RevertProxy revertProxy = new RevertProxy(address(thrower));\n *\n *              // Prime the proxy.\n *              Thrower(address(revertProxy)).doThrow();\n *              // Execute the call that is supposed to revert.\n *              // r will be false if it reverted. r will be true if it didn't.\n *              // Make sure you send enough gas for your contract method.\n *              bool r = revertProxy.execute.gas(200000)();\n *\n *              Assert.isFalse(r, “Should be false, as it should revert\");\n *          }\n *      }\n *\n *      Inspired by:\n *      https://truffleframework.com/tutorials/testing-for-throws-in-solidity-tests.\n */\ncontract RevertProxy {\n\n    /* Public Variables */\n\n    /** target is the address of the contract under test. */\n    address public target;\n\n    /** data stores the call data that will be sent to the method under test. */\n    bytes public data;\n\n    /* Constructor */\n\n    /**\n     * @param _target The address where the executed calls will be sent to.\n     */\n    constructor (address _target) public {\n        target = _target;\n    }\n\n    /* Public Functions */\n\n    /**\n     * @notice Updates the target of the proxy so that all subsequent execute\n     *         calls will be made to the new target.\n     *\n     * @param _newTarget The address of the contract where to send all execute\n     *                   calls to.\n     */\n    function updateTarget(address _newTarget) public {\n        target = _newTarget;\n    }\n\n    /**\n     * @notice The fallback function stores the call data so that a call to the\n     *         execute function will use the correct call data.\n     */\n    function() external payable {\n        data = msg.data;\n    }\n\n    /**\n     * @notice This will make the call to the target with the call data primed\n     *         in the fallback function.\n     *\n     * @return `true` if the call was successful and did not revert, `false` if\n     *         it reverted.\n     */\n    function execute() external returns (bool, bytes memory) {\n        // solium-disable-next-line security/no-low-level-calls\n        return target.call(data);\n    }\n}\n",
  "sourcePath": "/Users/OST/Documents/dj/ost-opt-contracts/contracts/brandedtoken-contracts/test/test_lib/RevertProxy.sol",
  "compiler": {
    "name": "solc",
    "version": "0.5.16+commit.9c3226ce.Emscripten.clang"
  },
  "schemaVersion": "3.0.21",
  "updatedAt": "2020-01-24T12:21:06.942Z",
  "devdoc": {
    "details": "An important caveat here is to recognize the contract caller,     msg.sender. If you add a proxy in between, then msg.sender will be the     proxy, which could break authorization and permissioning algorithms. If     your authorization system allows you to change the owner, you can get     around this constraint by setting the proxy to be the contract owner.     It’s also important to know that this only tests throw's at this     particular level.     It would be prudent to also ensure there isn’t anything faulty in the     proxy by creating a second test as a control. This test should be     called with the appropriate gas and use the proxy to test a function     where _no_ throw occurs, just to make sure the proxy is setup and     working as intended.     Because a throw essentially uses up all gas, one must make doubly sure     they catch the throw and not a legitimate out-of-gas (OOG) error. As     well, take care to manage sending Ether through the proxy (for tests     that require it) as that can be difficult as well. *      See also test/core/TestAuxiliaryStake.sol *      Usage:     contract TestThrower {         function testThrow() {             Thrower thrower = new Thrower();             // Set Thrower as the contract to forward requests to the target.             RevertProxy revertProxy = new RevertProxy(address(thrower)); *              // Prime the proxy.             Thrower(address(revertProxy)).doThrow();             // Execute the call that is supposed to revert.             // r will be false if it reverted. r will be true if it didn't.             // Make sure you send enough gas for your contract method.             bool r = revertProxy.execute.gas(200000)(); *              Assert.isFalse(r, “Should be false, as it should revert\");         }     } *      Inspired by:     https://truffleframework.com/tutorials/testing-for-throws-in-solidity-tests.",
    "methods": {
      "constructor": {
        "params": {
          "_target": "The address where the executed calls will be sent to."
        }
      },
      "execute()": {
        "return": "`true` if the call was successful and did not revert, `false` if        it reverted."
      },
      "updateTarget(address)": {
        "params": {
          "_newTarget": "The address of the contract where to send all execute                  calls to."
        }
      }
    },
    "title": "A proxy contract to catch and test for reverts in other contracts."
  },
  "userdoc": {
    "methods": {
      "execute()": {
        "notice": "This will make the call to the target with the call data primed        in the fallback function."
      },
      "updateTarget(address)": {
        "notice": "Updates the target of the proxy so that all subsequent execute        calls will be made to the new target."
      }
    },
    "notice": "Use this contract as a proxy between the test contract and the        contract under test. It will catch reverts and return false if it        caught one."
  }
}