{
  "contractName": "SafeMathLibraryDouble",
  "abi": [
    {
      "constant": true,
      "inputs": [
        {
          "internalType": "uint256",
          "name": "a",
          "type": "uint256"
        },
        {
          "internalType": "uint256",
          "name": "b",
          "type": "uint256"
        }
      ],
      "name": "mul",
      "outputs": [
        {
          "internalType": "uint256",
          "name": "",
          "type": "uint256"
        }
      ],
      "payable": false,
      "stateMutability": "pure",
      "type": "function"
    },
    {
      "constant": true,
      "inputs": [
        {
          "internalType": "uint256",
          "name": "a",
          "type": "uint256"
        },
        {
          "internalType": "uint256",
          "name": "b",
          "type": "uint256"
        }
      ],
      "name": "div",
      "outputs": [
        {
          "internalType": "uint256",
          "name": "",
          "type": "uint256"
        }
      ],
      "payable": false,
      "stateMutability": "pure",
      "type": "function"
    },
    {
      "constant": true,
      "inputs": [
        {
          "internalType": "uint256",
          "name": "a",
          "type": "uint256"
        },
        {
          "internalType": "uint256",
          "name": "b",
          "type": "uint256"
        }
      ],
      "name": "sub",
      "outputs": [
        {
          "internalType": "uint256",
          "name": "",
          "type": "uint256"
        }
      ],
      "payable": false,
      "stateMutability": "pure",
      "type": "function"
    },
    {
      "constant": true,
      "inputs": [
        {
          "internalType": "uint256",
          "name": "a",
          "type": "uint256"
        },
        {
          "internalType": "uint256",
          "name": "b",
          "type": "uint256"
        }
      ],
      "name": "add",
      "outputs": [
        {
          "internalType": "uint256",
          "name": "",
          "type": "uint256"
        }
      ],
      "payable": false,
      "stateMutability": "pure",
      "type": "function"
    },
    {
      "constant": true,
      "inputs": [
        {
          "internalType": "uint256",
          "name": "a",
          "type": "uint256"
        },
        {
          "internalType": "uint256",
          "name": "b",
          "type": "uint256"
        }
      ],
      "name": "mod",
      "outputs": [
        {
          "internalType": "uint256",
          "name": "",
          "type": "uint256"
        }
      ],
      "payable": false,
      "stateMutability": "pure",
      "type": "function"
    }
  ],
  "bytecode": "0x608060405234801561001057600080fd5b50610224806100206000396000f3fe608060405234801561001057600080fd5b50600436106100575760003560e01c8063771602f71461005c578063a391c15b14610091578063b67d77c5146100b4578063c8a4ac9c146100d7578063f43f523a146100fa575b600080fd5b61007f6004803603604081101561007257600080fd5b508035906020013561011d565b60408051918252519081900360200190f35b61007f600480360360408110156100a757600080fd5b5080359060200135610132565b61007f600480360360408110156100ca57600080fd5b508035906020013561013e565b61007f600480360360408110156100ed57600080fd5b508035906020013561014a565b61007f6004803603604081101561011057600080fd5b5080359060200135610156565b60006101298383610162565b90505b92915050565b60006101298383610174565b60006101298383610196565b600061012983836101ab565b600061012983836101d2565b60008282018381101561012957600080fd5b600080821161018257600080fd5b600082848161018d57fe5b04949350505050565b6000828211156101a557600080fd5b50900390565b6000826101ba5750600061012c565b828202828482816101c757fe5b041461012957600080fd5b6000816101de57600080fd5b8183816101e757fe5b06939250505056fea265627a7a72315820c574f4ac21807eae748f322e6e730203bcc6cc5eb74ee09495e4f87c9eefe62364736f6c63430005100032",
  "source": "pragma solidity ^0.5.0;\n\nimport \"openzeppelin-solidity/contracts/math/SafeMath.sol\";\n\n/**\n * It is used to test SafeMath contract.\n */\ncontract SafeMathLibraryDouble {\n\n    /* Public Functions */\n\n    /** @dev Multiplies two numbers, reverts on overflow.*/\n    function mul(uint256 a, uint256 b)\n        public\n        pure\n        returns (uint256)\n    {\n        return SafeMath.mul(a,b);\n    }\n\n    /**\n     * @dev Integer division of two numbers truncating the quotient,\n     *      reverts on division by zero.\n     */\n    function div(uint256 a, uint256 b)\n        public\n        pure\n        returns (uint256)\n    {\n        return SafeMath.div(a,b);\n    }\n\n    /**\n     * @dev Subtracts two numbers, reverts on overflow (i.e. if subtrahend\n     *      is greater than minuend).\n     */\n    function sub(uint256 a, uint256 b)\n        public\n        pure\n        returns (uint256)\n    {\n        return SafeMath.sub(a,b);\n    }\n\n    /**\n     * @dev Adds two numbers, reverts on overflow.\n     */\n    function add(uint256 a, uint256 b)\n        public\n        pure\n        returns (uint256)\n    {\n        return SafeMath.add(a,b);\n    }\n\n    /**\n     * @dev Divides two numbers and returns the remainder (unsigned integer\n     *      modulo), reverts when dividing by zero.\n     */\n    function mod(uint256 a, uint256 b)\n        public\n        pure\n        returns (uint256)\n    {\n        return SafeMath.mod(a,b);\n    }\n\n}\n",
  "sourcePath": "/Users/OST/Documents/dj/ost-opt-contracts/contracts/openst-contracts/contracts/test_doubles/unit_tests/safe_math/SafeMathLibraryDouble.sol",
  "compiler": {
    "name": "solc",
    "version": "0.5.16+commit.9c3226ce.Emscripten.clang"
  },
  "schemaVersion": "3.0.21",
  "updatedAt": "2020-01-22T10:54:09.824Z",
  "devdoc": {
    "methods": {
      "add(uint256,uint256)": {
        "details": "Adds two numbers, reverts on overflow."
      },
      "div(uint256,uint256)": {
        "details": "Integer division of two numbers truncating the quotient,     reverts on division by zero."
      },
      "mod(uint256,uint256)": {
        "details": "Divides two numbers and returns the remainder (unsigned integer     modulo), reverts when dividing by zero."
      },
      "mul(uint256,uint256)": {
        "details": "Multiplies two numbers, reverts on overflow."
      },
      "sub(uint256,uint256)": {
        "details": "Subtracts two numbers, reverts on overflow (i.e. if subtrahend     is greater than minuend)."
      }
    }
  },
  "userdoc": {
    "methods": {},
    "notice": "It is used to test SafeMath contract."
  }
}