{
  "contractName": "SocialRecoveryModule",
  "abi": [
    {
      "constant": true,
      "inputs": [],
      "name": "NAME",
      "outputs": [
        {
          "internalType": "string",
          "name": "",
          "type": "string"
        }
      ],
      "payable": false,
      "stateMutability": "view",
      "type": "function"
    },
    {
      "constant": true,
      "inputs": [],
      "name": "VERSION",
      "outputs": [
        {
          "internalType": "string",
          "name": "",
          "type": "string"
        }
      ],
      "payable": false,
      "stateMutability": "view",
      "type": "function"
    },
    {
      "constant": false,
      "inputs": [
        {
          "internalType": "address",
          "name": "_masterCopy",
          "type": "address"
        }
      ],
      "name": "changeMasterCopy",
      "outputs": [],
      "payable": false,
      "stateMutability": "nonpayable",
      "type": "function"
    },
    {
      "constant": true,
      "inputs": [
        {
          "internalType": "uint256",
          "name": "",
          "type": "uint256"
        }
      ],
      "name": "friends",
      "outputs": [
        {
          "internalType": "address",
          "name": "",
          "type": "address"
        }
      ],
      "payable": false,
      "stateMutability": "view",
      "type": "function"
    },
    {
      "constant": true,
      "inputs": [
        {
          "internalType": "bytes32",
          "name": "",
          "type": "bytes32"
        },
        {
          "internalType": "address",
          "name": "",
          "type": "address"
        }
      ],
      "name": "isConfirmed",
      "outputs": [
        {
          "internalType": "bool",
          "name": "",
          "type": "bool"
        }
      ],
      "payable": false,
      "stateMutability": "view",
      "type": "function"
    },
    {
      "constant": true,
      "inputs": [
        {
          "internalType": "bytes32",
          "name": "",
          "type": "bytes32"
        }
      ],
      "name": "isExecuted",
      "outputs": [
        {
          "internalType": "bool",
          "name": "",
          "type": "bool"
        }
      ],
      "payable": false,
      "stateMutability": "view",
      "type": "function"
    },
    {
      "constant": true,
      "inputs": [
        {
          "internalType": "address",
          "name": "",
          "type": "address"
        }
      ],
      "name": "isFriend",
      "outputs": [
        {
          "internalType": "bool",
          "name": "",
          "type": "bool"
        }
      ],
      "payable": false,
      "stateMutability": "view",
      "type": "function"
    },
    {
      "constant": true,
      "inputs": [],
      "name": "manager",
      "outputs": [
        {
          "internalType": "contract ModuleManager",
          "name": "",
          "type": "address"
        }
      ],
      "payable": false,
      "stateMutability": "view",
      "type": "function"
    },
    {
      "constant": true,
      "inputs": [],
      "name": "threshold",
      "outputs": [
        {
          "internalType": "uint256",
          "name": "",
          "type": "uint256"
        }
      ],
      "payable": false,
      "stateMutability": "view",
      "type": "function"
    },
    {
      "constant": false,
      "inputs": [
        {
          "internalType": "address[]",
          "name": "_friends",
          "type": "address[]"
        },
        {
          "internalType": "uint256",
          "name": "_threshold",
          "type": "uint256"
        }
      ],
      "name": "setup",
      "outputs": [],
      "payable": false,
      "stateMutability": "nonpayable",
      "type": "function"
    },
    {
      "constant": false,
      "inputs": [
        {
          "internalType": "bytes32",
          "name": "dataHash",
          "type": "bytes32"
        }
      ],
      "name": "confirmTransaction",
      "outputs": [],
      "payable": false,
      "stateMutability": "nonpayable",
      "type": "function"
    },
    {
      "constant": false,
      "inputs": [
        {
          "internalType": "address",
          "name": "prevOwner",
          "type": "address"
        },
        {
          "internalType": "address",
          "name": "oldOwner",
          "type": "address"
        },
        {
          "internalType": "address",
          "name": "newOwner",
          "type": "address"
        }
      ],
      "name": "recoverAccess",
      "outputs": [],
      "payable": false,
      "stateMutability": "nonpayable",
      "type": "function"
    },
    {
      "constant": true,
      "inputs": [
        {
          "internalType": "bytes32",
          "name": "dataHash",
          "type": "bytes32"
        }
      ],
      "name": "isConfirmedByRequiredFriends",
      "outputs": [
        {
          "internalType": "bool",
          "name": "",
          "type": "bool"
        }
      ],
      "payable": false,
      "stateMutability": "view",
      "type": "function"
    },
    {
      "constant": true,
      "inputs": [
        {
          "internalType": "bytes",
          "name": "data",
          "type": "bytes"
        }
      ],
      "name": "getDataHash",
      "outputs": [
        {
          "internalType": "bytes32",
          "name": "",
          "type": "bytes32"
        }
      ],
      "payable": false,
      "stateMutability": "pure",
      "type": "function"
    }
  ],
  "bytecode": "0x608060405234801561001057600080fd5b50610dbd806100206000396000f3fe608060405234801561001057600080fd5b50600436106100ea5760003560e01c80639ca89d0d1161008c578063b79ffaff11610066578063b79ffaff146103c9578063ce146828146103f5578063e52cb36a14610412578063ffa1ad741461042f576100ea565b80639ca89d0d14610289578063a3f4df7e146102a6578063ae68b05614610323576100ea565b806368125a1b116100c857806368125a1b146101d457806377231eaa1461020e57806379716e43146102465780637de7edef14610263576100ea565b806342cde4e8146100ef578063481c6a75146101095780634ab884271461012d575b600080fd5b6100f7610437565b60408051918252519081900360200190f35b61011161043d565b604080516001600160a01b039092168252519081900360200190f35b6101d26004803603604081101561014357600080fd5b81019060208101813564010000000081111561015e57600080fd5b82018360208201111561017057600080fd5b8035906020019184602083028401116401000000008311171561019257600080fd5b919080806020026020016040519081016040528093929190818152602001838360200280828437600092019190915250929550509135925061044c915050565b005b6101fa600480360360208110156101ea57600080fd5b50356001600160a01b0316610614565b604080519115158252519081900360200190f35b6101d26004803603606081101561022457600080fd5b506001600160a01b038135811691602081013582169160409091013516610629565b6101d26004803603602081101561025c57600080fd5b50356108e7565b6101d26004803603602081101561027957600080fd5b50356001600160a01b03166109bb565b6101fa6004803603602081101561029f57600080fd5b5035610a6b565b6102ae610af6565b6040805160208082528351818301528351919283929083019185019080838360005b838110156102e85781810151838201526020016102d0565b50505050905090810190601f1680156103155780820380516001836020036101000a031916815260200191505b509250505060405180910390f35b6100f76004803603602081101561033957600080fd5b81019060208101813564010000000081111561035457600080fd5b82018360208201111561036657600080fd5b8035906020019184600183028401116401000000008311171561038857600080fd5b91908080601f016020809104026020016040519081016040528093929190818152602001838380828437600092019190915250929550610b28945050505050565b6101fa600480360360408110156103df57600080fd5b50803590602001356001600160a01b0316610b33565b6101116004803603602081101561040b57600080fd5b5035610b53565b6101fa6004803603602081101561042857600080fd5b5035610b7a565b6102ae610b8f565b60025481565b6001546001600160a01b031681565b815181111561048c5760405162461bcd60e51b8152600401808060200182810382526025815260200180610cf46025913960400191505060405180910390fd5b60028110156104e2576040805162461bcd60e51b815260206004820152601b60248201527f4174206c65617374203220667269656e64732072657175697265640000000000604482015290519081900360640190fd5b6104ea610bb0565b60005b82518110156105f957600083828151811061050457fe5b6020026020010151905060006001600160a01b0316816001600160a01b03161415610576576040805162461bcd60e51b815260206004820152601f60248201527f496e76616c696420667269656e6420616464726573732070726f766964656400604482015290519081900360640190fd5b6001600160a01b03811660009081526004602052604090205460ff16156105ce5760405162461bcd60e51b8152600401808060200182810382526021815260200180610cd36021913960400191505060405180910390fd5b6001600160a01b03166000908152600460205260409020805460ff19166001908117909155016104ed565b50815161060d906003906020850190610c22565b5060025550565b60046020526000908152604090205460ff1681565b3360009081526004602052604090205460ff166106775760405162461bcd60e51b8152600401808060200182810382526025815260200180610d196025913960400191505060405180910390fd5b604080516001600160a01b038086166024830152808516604483015283166064808301919091528251808303909101815260849091019091526020810180516001600160e01b031663e318b52b60e01b17905260006106d582610b28565b60008181526005602052604090205490915060ff1615610738576040805162461bcd60e51b8152602060048201526019602482015278149958dbdd995c9e48185b1c9958591e48195e1958dd5d1959603a1b604482015290519081900360640190fd5b61074181610a6b565b61077c5760405162461bcd60e51b8152600401808060200182810382526025815260200180610d3e6025913960400191505060405180910390fd5b600081815260056020526040808220805460ff1916600190811790915554905163468721a760e01b81526001600160a01b039091166004820181815260248301849052909263468721a7928492879183919060448101906064018360ff168152602001828103825284818151815260200191508051906020019080838360005b838110156108145781810151838201526020016107fc565b50505050905090810190601f1680156108415780820380516001836020036101000a031916815260200191505b5095505050505050602060405180830381600087803b15801561086357600080fd5b505af1158015610877573d6000803e3d6000fd5b505050506040513d602081101561088d57600080fd5b50516108e0576040805162461bcd60e51b815260206004820152601a60248201527f436f756c64206e6f742065786563757465207265636f76657279000000000000604482015290519081900360640190fd5b5050505050565b3360009081526004602052604090205460ff166109355760405162461bcd60e51b8152600401808060200182810382526025815260200180610d196025913960400191505060405180910390fd5b60008181526005602052604090205460ff1615610995576040805162461bcd60e51b8152602060048201526019602482015278149958dbdd995c9e48185b1c9958591e48195e1958dd5d1959603a1b604482015290519081900360640190fd5b60009081526006602090815260408083203384529091529020805460ff19166001179055565b6001546001600160a01b03163314610a045760405162461bcd60e51b8152600401808060200182810382526026815260200180610d636026913960400191505060405180910390fd5b6001600160a01b038116610a495760405162461bcd60e51b8152600401808060200182810382526024815260200180610caf6024913960400191505060405180910390fd5b600080546001600160a01b0319166001600160a01b0392909216919091179055565b600080805b600354811015610aea5760008481526006602052604081206003805491929184908110610a9957fe5b60009182526020808320909101546001600160a01b0316835282019290925260400190205460ff1615610acd576001909101905b600254821415610ae257600192505050610af1565b600101610a70565b5060009150505b919050565b60405180604001604052806016815260200175536f6369616c205265636f76657279204d6f64756c6560501b81525081565b805160209091012090565b600660209081526000928352604080842090915290825290205460ff1681565b60038181548110610b6057fe5b6000918252602090912001546001600160a01b0316905081565b60056020526000908152604090205460ff1681565b604051806040016040528060058152602001640302e312e360dc1b81525081565b6001546001600160a01b031615610c0e576040805162461bcd60e51b815260206004820152601c60248201527f4d616e616765722068617320616c7265616479206265656e2073657400000000604482015290519081900360640190fd5b600180546001600160a01b03191633179055565b828054828255906000526020600020908101928215610c77579160200282015b82811115610c7757825182546001600160a01b0319166001600160a01b03909116178255602090920191600190910190610c42565b50610c83929150610c87565b5090565b610cab91905b80821115610c835780546001600160a01b0319168155600101610c8d565b9056fe496e76616c6964206d617374657220636f707920616464726573732070726f76696465644475706c696361746520667269656e6420616464726573732070726f76696465645468726573686f6c642063616e6e6f742065786365656420667269656e647320636f756e744d6574686f642063616e206f6e6c792062652063616c6c6564206279206120667269656e645265636f7665727920686173206e6f7420656e6f75676820636f6e6669726d6174696f6e734d6574686f642063616e206f6e6c792062652063616c6c65642066726f6d206d616e61676572a265627a7a72315820ed12519e39629466ff0667ed47c3a813967b2c6027f37e648e2e5c635f6a89db64736f6c63430005100032",
  "source": "pragma solidity ^0.5.0;\nimport \"../base/Module.sol\";\nimport \"../base/ModuleManager.sol\";\nimport \"../base/OwnerManager.sol\";\nimport \"../common/Enum.sol\";\n\n\n/// @title Social Recovery Module - Allows to replace an owner without Safe confirmations if friends approve the replacement.\n/// @author Stefan George - <stefan@gnosis.pm>\ncontract SocialRecoveryModule is Module {\n\n    string public constant NAME = \"Social Recovery Module\";\n    string public constant VERSION = \"0.1.0\";\n\n    uint256 public threshold;\n    address[] public friends;\n\n    // isFriend mapping maps friend's address to friend status.\n    mapping (address => bool) public isFriend;\n    // isExecuted mapping maps data hash to execution status.\n    mapping (bytes32 => bool) public isExecuted;\n    // isConfirmed mapping maps data hash to friend's address to confirmation status.\n    mapping (bytes32 => mapping (address => bool)) public isConfirmed;\n\n    modifier onlyFriend() {\n        require(isFriend[msg.sender], \"Method can only be called by a friend\");\n        _;\n    }\n\n    /// @dev Setup function sets initial storage of contract.\n    /// @param _friends List of friends' addresses.\n    /// @param _threshold Required number of friends to confirm replacement.\n    function setup(address[] memory _friends, uint256 _threshold)\n        public\n    {\n        require(_threshold <= _friends.length, \"Threshold cannot exceed friends count\");\n        require(_threshold >= 2, \"At least 2 friends required\");\n        setManager();\n        // Set allowed friends.\n        for (uint256 i = 0; i < _friends.length; i++) {\n            address friend = _friends[i];\n            require(friend != address(0), \"Invalid friend address provided\");\n            require(!isFriend[friend], \"Duplicate friend address provided\");\n            isFriend[friend] = true;\n        }\n        friends = _friends;\n        threshold = _threshold;\n    }\n\n    /// @dev Allows a friend to confirm a Safe transaction.\n    /// @param dataHash Safe transaction hash.\n    function confirmTransaction(bytes32 dataHash)\n        public\n        onlyFriend\n    {\n        require(!isExecuted[dataHash], \"Recovery already executed\");\n        isConfirmed[dataHash][msg.sender] = true;\n    }\n\n    /// @dev Returns if Safe transaction is a valid owner replacement transaction.\n    /// @param prevOwner Owner that pointed to the owner to be replaced in the linked list\n    /// @param oldOwner Owner address to be replaced.\n    /// @param newOwner New owner address.\n    /// @return Returns if transaction can be executed.\n    function recoverAccess(address prevOwner, address oldOwner, address newOwner)\n        public\n        onlyFriend\n    {\n        bytes memory data = abi.encodeWithSignature(\"swapOwner(address,address,address)\", prevOwner, oldOwner, newOwner);\n        bytes32 dataHash = getDataHash(data);\n        require(!isExecuted[dataHash], \"Recovery already executed\");\n        require(isConfirmedByRequiredFriends(dataHash), \"Recovery has not enough confirmations\");\n        isExecuted[dataHash] = true;\n        require(manager.execTransactionFromModule(address(manager), 0, data, Enum.Operation.Call), \"Could not execute recovery\");\n    }\n\n    /// @dev Returns if Safe transaction is a valid owner replacement transaction.\n    /// @param dataHash Data hash.\n    /// @return Confirmation status.\n    function isConfirmedByRequiredFriends(bytes32 dataHash)\n        public\n        view\n        returns (bool)\n    {\n        uint256 confirmationCount;\n        for (uint256 i = 0; i < friends.length; i++) {\n            if (isConfirmed[dataHash][friends[i]])\n                confirmationCount++;\n            if (confirmationCount == threshold)\n                return true;\n        }\n        return false;\n    }\n\n    /// @dev Returns hash of data encoding owner replacement.\n    /// @param data Data payload.\n    /// @return Data hash.\n    function getDataHash(bytes memory data)\n        public\n        pure\n        returns (bytes32)\n    {\n        return keccak256(data);\n    }\n}\n",
  "sourcePath": "/Users/OST/Documents/dj/ost-opt-contracts/contracts/openst-contracts/external/gnosis/safe-contracts/contracts/modules/SocialRecoveryModule.sol",
  "compiler": {
    "name": "solc",
    "version": "0.5.16+commit.9c3226ce.Emscripten.clang"
  },
  "schemaVersion": "3.0.21",
  "updatedAt": "2020-01-19T09:48:26.200Z",
  "devdoc": {
    "author": "Stefan George - <stefan@gnosis.pm>",
    "methods": {
      "changeMasterCopy(address)": {
        "details": "Allows to upgrade the contract. This can only be done via a Safe transaction.",
        "params": {
          "_masterCopy": "New contract address."
        }
      },
      "confirmTransaction(bytes32)": {
        "details": "Allows a friend to confirm a Safe transaction.",
        "params": {
          "dataHash": "Safe transaction hash."
        }
      },
      "getDataHash(bytes)": {
        "details": "Returns hash of data encoding owner replacement.",
        "params": {
          "data": "Data payload."
        },
        "return": "Data hash."
      },
      "isConfirmedByRequiredFriends(bytes32)": {
        "details": "Returns if Safe transaction is a valid owner replacement transaction.",
        "params": {
          "dataHash": "Data hash."
        },
        "return": "Confirmation status."
      },
      "recoverAccess(address,address,address)": {
        "details": "Returns if Safe transaction is a valid owner replacement transaction.",
        "params": {
          "newOwner": "New owner address.",
          "oldOwner": "Owner address to be replaced.",
          "prevOwner": "Owner that pointed to the owner to be replaced in the linked list"
        },
        "return": "Returns if transaction can be executed."
      },
      "setup(address[],uint256)": {
        "details": "Setup function sets initial storage of contract.",
        "params": {
          "_friends": "List of friends' addresses.",
          "_threshold": "Required number of friends to confirm replacement."
        }
      }
    },
    "title": "Social Recovery Module - Allows to replace an owner without Safe confirmations if friends approve the replacement."
  },
  "userdoc": {
    "methods": {}
  }
}