{
  "contractName": "StateChannelModule",
  "abi": [
    {
      "constant": true,
      "inputs": [],
      "name": "NAME",
      "outputs": [
        {
          "internalType": "string",
          "name": "",
          "type": "string"
        }
      ],
      "payable": false,
      "stateMutability": "view",
      "type": "function"
    },
    {
      "constant": true,
      "inputs": [],
      "name": "VERSION",
      "outputs": [
        {
          "internalType": "string",
          "name": "",
          "type": "string"
        }
      ],
      "payable": false,
      "stateMutability": "view",
      "type": "function"
    },
    {
      "constant": false,
      "inputs": [
        {
          "internalType": "address",
          "name": "_masterCopy",
          "type": "address"
        }
      ],
      "name": "changeMasterCopy",
      "outputs": [],
      "payable": false,
      "stateMutability": "nonpayable",
      "type": "function"
    },
    {
      "constant": true,
      "inputs": [
        {
          "internalType": "bytes32",
          "name": "",
          "type": "bytes32"
        }
      ],
      "name": "isExecuted",
      "outputs": [
        {
          "internalType": "uint256",
          "name": "",
          "type": "uint256"
        }
      ],
      "payable": false,
      "stateMutability": "view",
      "type": "function"
    },
    {
      "constant": true,
      "inputs": [],
      "name": "manager",
      "outputs": [
        {
          "internalType": "contract ModuleManager",
          "name": "",
          "type": "address"
        }
      ],
      "payable": false,
      "stateMutability": "view",
      "type": "function"
    },
    {
      "constant": false,
      "inputs": [],
      "name": "setup",
      "outputs": [],
      "payable": false,
      "stateMutability": "nonpayable",
      "type": "function"
    },
    {
      "constant": false,
      "inputs": [
        {
          "internalType": "address",
          "name": "to",
          "type": "address"
        },
        {
          "internalType": "uint256",
          "name": "value",
          "type": "uint256"
        },
        {
          "internalType": "bytes",
          "name": "data",
          "type": "bytes"
        },
        {
          "internalType": "enum Enum.Operation",
          "name": "operation",
          "type": "uint8"
        },
        {
          "internalType": "uint256",
          "name": "nonce",
          "type": "uint256"
        },
        {
          "internalType": "bytes",
          "name": "signatures",
          "type": "bytes"
        }
      ],
      "name": "execTransaction",
      "outputs": [],
      "payable": false,
      "stateMutability": "nonpayable",
      "type": "function"
    },
    {
      "constant": true,
      "inputs": [
        {
          "internalType": "address",
          "name": "to",
          "type": "address"
        },
        {
          "internalType": "uint256",
          "name": "value",
          "type": "uint256"
        },
        {
          "internalType": "bytes",
          "name": "data",
          "type": "bytes"
        },
        {
          "internalType": "enum Enum.Operation",
          "name": "operation",
          "type": "uint8"
        },
        {
          "internalType": "uint256",
          "name": "nonce",
          "type": "uint256"
        }
      ],
      "name": "getTransactionHash",
      "outputs": [
        {
          "internalType": "bytes32",
          "name": "",
          "type": "bytes32"
        }
      ],
      "payable": false,
      "stateMutability": "view",
      "type": "function"
    }
  ],
  "bytecode": "0x608060405234801561001057600080fd5b50610b39806100206000396000f3fe608060405234801561001057600080fd5b50600436106100885760003560e01c8063ba0bba401161005b578063ba0bba401461022b578063e52cb36a14610233578063f6cc15d014610250578063ffa1ad74146103a157610088565b80632b5000411461008d578063481c6a75146101625780637de7edef14610186578063a3f4df7e146101ae575b600080fd5b610150600480360360a08110156100a357600080fd5b6001600160a01b03823516916020810135918101906060810160408201356401000000008111156100d357600080fd5b8201836020820111156100e557600080fd5b8035906020019184600183028401116401000000008311171561010757600080fd5b91908080601f0160208091040260200160405190810160405280939291908181526020018383808284376000920191909152509295505060ff83351693505050602001356103a9565b60408051918252519081900360200190f35b61016a610495565b604080516001600160a01b039092168252519081900360200190f35b6101ac6004803603602081101561019c57600080fd5b50356001600160a01b03166104a4565b005b6101b6610554565b6040805160208082528351818301528351919283929083019185019080838360005b838110156101f05781810151838201526020016101d8565b50505050905090810190601f16801561021d5780820380516001836020036101000a031916815260200191505b509250505060405180910390f35b6101ac610584565b6101506004803603602081101561024957600080fd5b503561058e565b6101ac600480360360c081101561026657600080fd5b6001600160a01b038235169160208101359181019060608101604082013564010000000081111561029657600080fd5b8201836020820111156102a857600080fd5b803590602001918460018302840111640100000000831117156102ca57600080fd5b91908080601f016020809104026020016040519081016040528093929190818152602001838380828437600092019190915250929560ff8535169560208601359591945092506060810191506040013564010000000081111561032c57600080fd5b82018360208201111561033e57600080fd5b8035906020019184600183028401116401000000008311171561036057600080fd5b91908080601f0160208091040260200160405190810160405280939291908181526020018383808284376000920191909152509295506105a0945050505050565b6101b6610794565b604051601960f81b602080830182815260006021850181905230606081811b60228801528b901b6bffffffffffffffffffffffff19166036870152604a86018a905288519195869491938c938c938c938c938c939092606a909201918601908083835b6020831061042b5780518252601f19909201916020918201910161040c565b6001836020036101000a03801982511681845116808217855250505050505090500183600281111561045957fe5b60ff1660f81b81526001018281526020019850505050505050505060405160208183030381529060405280519060200120905095945050505050565b6001546001600160a01b031681565b6001546001600160a01b031633146104ed5760405162461bcd60e51b8152600401808060200182810382526026815260200180610adf6026913960400191505060405180910390fd5b6001600160a01b0381166105325760405162461bcd60e51b8152600401808060200182810382526024815260200180610a906024913960400191505060405180910390fd5b600080546001600160a01b0319166001600160a01b0392909216919091179055565b604051806040016040528060148152602001735374617465204368616e6e656c204d6f64756c6560601b81525081565b61058c6107b5565b565b60026020526000908152604090205481565b60006105af87878787876103a9565b60008181526002602052604090205490915015610613576040805162461bcd60e51b815260206004820152601c60248201527f5472616e73616374696f6e20616c726561647920657865637574656400000000604482015290519081900360640190fd5b61061d8183610827565b60008181526002602081905260409182902060019081905554915163468721a760e01b81526001600160a01b038a811660048301908152602483018b905293169263468721a7928b928b928b928b926044810191606490910190849081111561068257fe5b60ff168152602001828103825284818151815260200191508051906020019080838360005b838110156106bf5781810151838201526020016106a7565b50505050905090810190601f1680156106ec5780820380516001836020036101000a031916815260200191505b5095505050505050602060405180830381600087803b15801561070e57600080fd5b505af1158015610722573d6000803e3d6000fd5b505050506040513d602081101561073857600080fd5b505161078b576040805162461bcd60e51b815260206004820152601d60248201527f436f756c64206e6f742065786563757465207472616e73616374696f6e000000604482015290519081900360640190fd5b50505050505050565b604051806040016040528060058152602001640302e312e360dc1b81525081565b6001546001600160a01b031615610813576040805162461bcd60e51b815260206004820152601c60248201527f4d616e616765722068617320616c7265616479206265656e2073657400000000604482015290519081900360640190fd5b600180546001600160a01b03191633179055565b60015460408051631cea46b760e31b815290516000928392839283926001600160a01b03169163e75235b8916004808301926020929190829003018186803b15801561087257600080fd5b505afa158015610886573d6000803e3d6000fd5b505050506040513d602081101561089c57600080fd5b50516000925090505b808210156109e4576108b88686846109ec565b600154604080516317aa5fb760e11b81526001600160a01b0380851660048301529151939650911691632f54bf6e91602480820192602092909190829003018186803b15801561090757600080fd5b505afa15801561091b573d6000803e3d6000fd5b505050506040513d602081101561093157600080fd5b5051610984576040805162461bcd60e51b815260206004820152601f60248201527f5369676e6174757265206e6f742070726f7669646564206279206f776e657200604482015290519081900360640190fd5b836001600160a01b0316836001600160a01b0316116109d45760405162461bcd60e51b815260040180806020018281038252602b815260200180610ab4602b913960400191505060405180910390fd5b82935081806001019250506108a5565b505050505050565b6000806000806109fc8686610a71565b604080516000815260208082018084528d905260ff8616828401526060820185905260808201849052915194975092955090935060019260a080840193601f198301929081900390910190855afa158015610a5b573d6000803e3d6000fd5b5050604051601f19015198975050505050505050565b60419081029190910160208101516040820151919092015160ff169256fe496e76616c6964206d617374657220636f707920616464726573732070726f76696465645369676e61747572657320617265206e6f74206f726465726564206279206f776e657220616464726573734d6574686f642063616e206f6e6c792062652063616c6c65642066726f6d206d616e61676572a265627a7a723158207432e1404100ebc4ce6a8fd415e080f2e97d7999985629ede4958de98e9a5a9464736f6c63430005100032",
  "source": "pragma solidity ^0.5.0;\nimport \"../base/Module.sol\";\nimport \"../base/OwnerManager.sol\";\nimport \"../common/SignatureDecoder.sol\";\n\n\n/// @title Gnosis Safe State Module - A module that allows interaction with statechannels.\n/// @author Stefan George - <stefan@gnosis.pm>\n/// @author Richard Meissner - <richard@gnosis.pm>\ncontract StateChannelModule is Module, SignatureDecoder {\n\n    string public constant NAME = \"State Channel Module\";\n    string public constant VERSION = \"0.1.0\";\n\n    // isExecuted mapping allows to check if a transaction (by hash) was already executed.\n    mapping (bytes32 => uint256) public isExecuted;\n\n    /// @dev Setup function sets manager\n    function setup()\n        public\n    {\n        setManager();\n    }\n\n    /// @dev Allows to execute a Safe transaction confirmed by required number of owners.\n    /// @param to Destination address of Safe transaction.\n    /// @param value Ether value of Safe transaction.\n    /// @param data Data payload of Safe transaction.\n    /// @param operation Operation type of Safe transaction.\n    /// @param nonce Nonce used for this Safe transaction.\n    /// @param signatures Packed signature data ({bytes32 r}{bytes32 s}{uint8 v})\n    function execTransaction(\n        address to, \n        uint256 value, \n        bytes memory data, \n        Enum.Operation operation, \n        uint256 nonce,\n        bytes memory signatures\n    )\n        public\n    {\n        bytes32 transactionHash = getTransactionHash(to, value, data, operation, nonce);\n        require(isExecuted[transactionHash] == 0, \"Transaction already executed\");\n        checkHash(transactionHash, signatures);\n        // Mark as executed and execute transaction.\n        isExecuted[transactionHash] = 1;\n        require(manager.execTransactionFromModule(to, value, data, operation), \"Could not execute transaction\");\n    }\n\n    function checkHash(bytes32 transactionHash, bytes memory signatures)\n        internal\n        view\n    {\n        // There cannot be an owner with address 0.\n        address lastOwner = address(0);\n        address currentOwner;\n        uint256 i;\n        uint256 threshold = OwnerManager(address(manager)).getThreshold();\n        // Validate threshold is reached.\n        for (i = 0; i < threshold; i++) {\n            currentOwner = recoverKey(transactionHash, signatures, i);\n            require(OwnerManager(address(manager)).isOwner(currentOwner), \"Signature not provided by owner\");\n            require(currentOwner > lastOwner, \"Signatures are not ordered by owner address\");\n            lastOwner = currentOwner;\n        }\n    }\n\n    /// @dev Returns hash to be signed by owners.\n    /// @param to Destination address.\n    /// @param value Ether value.\n    /// @param data Data payload.\n    /// @param operation Operation type.\n    /// @param nonce Transaction nonce.\n    /// @return Transaction hash.\n    function getTransactionHash(\n        address to, \n        uint256 value, \n        bytes memory data, \n        Enum.Operation operation, \n        uint256 nonce\n    )\n        public\n        view\n        returns (bytes32)\n    {\n        return keccak256(abi.encodePacked(byte(0x19), byte(0), this, to, value, data, operation, nonce));\n    }\n}\n",
  "sourcePath": "/Users/OST/Documents/dj/ost-opt-contracts/contracts/openst-contracts/external/gnosis/safe-contracts/contracts/modules/StateChannelModule.sol",
  "compiler": {
    "name": "solc",
    "version": "0.5.16+commit.9c3226ce.Emscripten.clang"
  },
  "schemaVersion": "3.0.21",
  "updatedAt": "2020-01-19T09:48:26.203Z",
  "devdoc": {
    "author": "Stefan George - <stefan@gnosis.pm>Richard Meissner - <richard@gnosis.pm>",
    "methods": {
      "changeMasterCopy(address)": {
        "details": "Allows to upgrade the contract. This can only be done via a Safe transaction.",
        "params": {
          "_masterCopy": "New contract address."
        }
      },
      "execTransaction(address,uint256,bytes,uint8,uint256,bytes)": {
        "details": "Allows to execute a Safe transaction confirmed by required number of owners.",
        "params": {
          "data": "Data payload of Safe transaction.",
          "nonce": "Nonce used for this Safe transaction.",
          "operation": "Operation type of Safe transaction.",
          "signatures": "Packed signature data ({bytes32 r}{bytes32 s}{uint8 v})",
          "to": "Destination address of Safe transaction.",
          "value": "Ether value of Safe transaction."
        }
      },
      "getTransactionHash(address,uint256,bytes,uint8,uint256)": {
        "details": "Returns hash to be signed by owners.",
        "params": {
          "data": "Data payload.",
          "nonce": "Transaction nonce.",
          "operation": "Operation type.",
          "to": "Destination address.",
          "value": "Ether value."
        },
        "return": "Transaction hash."
      },
      "setup()": {
        "details": "Setup function sets manager"
      }
    },
    "title": "Gnosis Safe State Module - A module that allows interaction with statechannels."
  },
  "userdoc": {
    "methods": {}
  }
}