{
  "contractName": "TestSafeMath",
  "abi": [
    {
      "constant": true,
      "inputs": [],
      "name": "result",
      "outputs": [
        {
          "internalType": "uint256",
          "name": "",
          "type": "uint256"
        }
      ],
      "payable": false,
      "stateMutability": "view",
      "type": "function"
    },
    {
      "constant": false,
      "inputs": [
        {
          "internalType": "uint256",
          "name": "a",
          "type": "uint256"
        },
        {
          "internalType": "uint256",
          "name": "b",
          "type": "uint256"
        }
      ],
      "name": "multiply",
      "outputs": [],
      "payable": false,
      "stateMutability": "nonpayable",
      "type": "function"
    },
    {
      "constant": false,
      "inputs": [
        {
          "internalType": "uint256",
          "name": "a",
          "type": "uint256"
        },
        {
          "internalType": "uint256",
          "name": "b",
          "type": "uint256"
        }
      ],
      "name": "subtract",
      "outputs": [],
      "payable": false,
      "stateMutability": "nonpayable",
      "type": "function"
    },
    {
      "constant": false,
      "inputs": [
        {
          "internalType": "uint256",
          "name": "a",
          "type": "uint256"
        },
        {
          "internalType": "uint256",
          "name": "b",
          "type": "uint256"
        }
      ],
      "name": "add",
      "outputs": [],
      "payable": false,
      "stateMutability": "nonpayable",
      "type": "function"
    }
  ],
  "bytecode": "0x608060405234801561001057600080fd5b5061025d806100206000396000f3fe608060405234801561001057600080fd5b506004361061004c5760003560e01c8063165c4a16146100515780633ef5e445146100765780636537214714610099578063771602f7146100b3575b600080fd5b6100746004803603604081101561006757600080fd5b50803590602001356100d6565b005b6100746004803603604081101561008c57600080fd5b50803590602001356100e7565b6100a16100f1565b60408051918252519081900360200190f35b610074600480360360408110156100c957600080fd5b50803590602001356100f7565b6100e08282610101565b6000555050565b6100e08282610179565b60005481565b6100e082826101d6565b60008261011057506000610173565b8282028284828161011d57fe5b0414610170576040805162461bcd60e51b815260206004820152601a60248201527f4f766572666c6f77207768656e206d756c7469706c79696e672e000000000000604482015290519081900360640190fd5b90505b92915050565b6000828211156101d0576040805162461bcd60e51b815260206004820152601b60248201527f556e646572666c6f77207768656e207375627472616374696e672e0000000000604482015290519081900360640190fd5b50900390565b600082820183811015610170576040805162461bcd60e51b815260206004820152601560248201527427bb32b9333637bb903bb432b71030b23234b7339760591b604482015290519081900360640190fdfea265627a7a72315820aae5fc98d91e2a3a8bcc85ac1bc3f43f168d105e638caee9bf5f6526b6fcd43164736f6c63430005100032",
  "source": "pragma solidity ^0.5.0;\n\n// Copyright 2019 OpenST Ltd.\n//\n// Licensed under the Apache License, Version 2.0 (the \"License\");\n// you may not use this file except in compliance with the License.\n// You may obtain a copy of the License at\n//\n//    http://www.apache.org/licenses/LICENSE-2.0\n//\n// Unless required by applicable law or agreed to in writing, software\n// distributed under the License is distributed on an \"AS IS\" BASIS,\n// WITHOUT WARRANTIES OR CONDITIONS OF ANY KIND, either express or implied.\n// See the License for the specific language governing permissions and\n// limitations under the License.\n// \n// ----------------------------------------------------------------------------\n// Common: SafeMath Library Implementation\n//\n// http://www.simpletoken.org/\n//\n// Based on the SafeMath library by the OpenZeppelin team.\n// Copyright (c) 2016 Smart Contract Solutions, Inc.\n// https://github.com/OpenZeppelin/zeppelin-solidity\n// The MIT License.\n// ----------------------------------------------------------------------------\n\nimport \"../../lib/SafeMath.sol\";\n\n/**\n *  @title TestSafeMath library.\n *\n *  @notice Based on the SafeMath library by the OpenZeppelin team.\n *          Mock used for testing.\n */\ncontract TestSafeMath {\n\n    /** Storage */\n\n    uint256 public result;\n\n    /* Public functions */\n\n    /**\n    *  @notice Public function multiply.\n    *\n    *  @dev Public wrapper for SafeMath function mul.\n    *\n    *  @param a Unsigned integer multiplicand.\n    *  @param b Unsigned integer multiplier.\n    *\n    *  @return uint256 Product.\n    */  \n    function multiply(uint256 a, uint256 b) public {\n        result = SafeMath.mul(a, b);\n    }\n\n    /**\n    *  @notice Public function subtract.\n    *\n    *  @dev Public wrapper for SafeMath function sub.\n    *\n    *  @param a Unsigned integer minuend.\n    *  @param b Unsigned integer subtrahend.\n    *\n    *  @return uint256 Difference.\n    */    \n    function subtract(uint256 a, uint256 b) public {\n        result = SafeMath.sub(a, b);\n    }\n\n    /**\n    *  @notice Public function add.\n    *\n    *  @dev Public wrapper for SafeMath function add.\n    *\n    *  @param a Unsigned integer augend.\n    *  @param b Unsigned integer addend.\n    *\n    *  @return uint256 Sum.\n    */\n    function add(uint256 a, uint256 b) public {\n        result = SafeMath.add(a, b);\n    }\n}\n",
  "sourcePath": "/Users/OST/Documents/dj/ost-opt-contracts/contracts/openst-contracts/contracts/organization/contracts/test/lib/TestSafeMath.sol",
  "compiler": {
    "name": "solc",
    "version": "0.5.16+commit.9c3226ce.Emscripten.clang"
  },
  "schemaVersion": "3.0.21",
  "updatedAt": "2020-01-21T06:50:59.713Z",
  "devdoc": {
    "methods": {
      "add(uint256,uint256)": {
        "details": "Public wrapper for SafeMath function add.",
        "params": {
          "a": "Unsigned integer augend.",
          "b": "Unsigned integer addend."
        },
        "return": "uint256 Sum."
      },
      "multiply(uint256,uint256)": {
        "details": "Public wrapper for SafeMath function mul.",
        "params": {
          "a": "Unsigned integer multiplicand.",
          "b": "Unsigned integer multiplier."
        },
        "return": "uint256 Product."
      },
      "subtract(uint256,uint256)": {
        "details": "Public wrapper for SafeMath function sub.",
        "params": {
          "a": "Unsigned integer minuend.",
          "b": "Unsigned integer subtrahend."
        },
        "return": "uint256 Difference."
      }
    },
    "title": "TestSafeMath library."
  },
  "userdoc": {
    "methods": {
      "add(uint256,uint256)": {
        "notice": "Public function add."
      },
      "multiply(uint256,uint256)": {
        "notice": "Public function multiply."
      },
      "subtract(uint256,uint256)": {
        "notice": "Public function subtract."
      }
    },
    "notice": "Based on the SafeMath library by the OpenZeppelin team.         Mock used for testing."
  }
}