{
  "contractName": "TestUtilityToken",
  "abi": [
    {
      "inputs": [
        {
          "internalType": "address",
          "name": "_token",
          "type": "address"
        },
        {
          "internalType": "string",
          "name": "_symbol",
          "type": "string"
        },
        {
          "internalType": "string",
          "name": "_name",
          "type": "string"
        },
        {
          "internalType": "uint8",
          "name": "_decimals",
          "type": "uint8"
        },
        {
          "internalType": "contract OrganizationInterface",
          "name": "_organization",
          "type": "address"
        }
      ],
      "payable": false,
      "stateMutability": "nonpayable",
      "type": "constructor"
    },
    {
      "anonymous": false,
      "inputs": [
        {
          "indexed": true,
          "internalType": "address",
          "name": "_owner",
          "type": "address"
        },
        {
          "indexed": true,
          "internalType": "address",
          "name": "_spender",
          "type": "address"
        },
        {
          "indexed": false,
          "internalType": "uint256",
          "name": "_value",
          "type": "uint256"
        }
      ],
      "name": "Approval",
      "type": "event"
    },
    {
      "anonymous": false,
      "inputs": [
        {
          "indexed": false,
          "internalType": "address",
          "name": "_coGateway",
          "type": "address"
        }
      ],
      "name": "CoGatewaySet",
      "type": "event"
    },
    {
      "anonymous": false,
      "inputs": [
        {
          "indexed": true,
          "internalType": "address",
          "name": "_from",
          "type": "address"
        },
        {
          "indexed": true,
          "internalType": "address",
          "name": "_to",
          "type": "address"
        },
        {
          "indexed": false,
          "internalType": "uint256",
          "name": "_value",
          "type": "uint256"
        }
      ],
      "name": "Transfer",
      "type": "event"
    },
    {
      "constant": true,
      "inputs": [
        {
          "internalType": "address",
          "name": "_owner",
          "type": "address"
        },
        {
          "internalType": "address",
          "name": "_spender",
          "type": "address"
        }
      ],
      "name": "allowance",
      "outputs": [
        {
          "internalType": "uint256",
          "name": "allowance_",
          "type": "uint256"
        }
      ],
      "payable": false,
      "stateMutability": "view",
      "type": "function"
    },
    {
      "constant": false,
      "inputs": [
        {
          "internalType": "address",
          "name": "_spender",
          "type": "address"
        },
        {
          "internalType": "uint256",
          "name": "_value",
          "type": "uint256"
        }
      ],
      "name": "approve",
      "outputs": [
        {
          "internalType": "bool",
          "name": "success_",
          "type": "bool"
        }
      ],
      "payable": false,
      "stateMutability": "nonpayable",
      "type": "function"
    },
    {
      "constant": true,
      "inputs": [
        {
          "internalType": "address",
          "name": "_owner",
          "type": "address"
        }
      ],
      "name": "balanceOf",
      "outputs": [
        {
          "internalType": "uint256",
          "name": "balance_",
          "type": "uint256"
        }
      ],
      "payable": false,
      "stateMutability": "view",
      "type": "function"
    },
    {
      "constant": true,
      "inputs": [],
      "name": "coGateway",
      "outputs": [
        {
          "internalType": "address",
          "name": "",
          "type": "address"
        }
      ],
      "payable": false,
      "stateMutability": "view",
      "type": "function"
    },
    {
      "constant": true,
      "inputs": [],
      "name": "decimals",
      "outputs": [
        {
          "internalType": "uint8",
          "name": "tokenDecimals_",
          "type": "uint8"
        }
      ],
      "payable": false,
      "stateMutability": "view",
      "type": "function"
    },
    {
      "constant": false,
      "inputs": [
        {
          "internalType": "uint256",
          "name": "_amount",
          "type": "uint256"
        }
      ],
      "name": "decreaseSupply",
      "outputs": [
        {
          "internalType": "bool",
          "name": "success_",
          "type": "bool"
        }
      ],
      "payable": false,
      "stateMutability": "nonpayable",
      "type": "function"
    },
    {
      "constant": false,
      "inputs": [
        {
          "internalType": "address",
          "name": "",
          "type": "address"
        }
      ],
      "name": "exists",
      "outputs": [
        {
          "internalType": "bool",
          "name": "exists_",
          "type": "bool"
        }
      ],
      "payable": false,
      "stateMutability": "nonpayable",
      "type": "function"
    },
    {
      "constant": false,
      "inputs": [
        {
          "internalType": "address payable",
          "name": "_account",
          "type": "address"
        },
        {
          "internalType": "uint256",
          "name": "_amount",
          "type": "uint256"
        }
      ],
      "name": "increaseSupply",
      "outputs": [
        {
          "internalType": "bool",
          "name": "success_",
          "type": "bool"
        }
      ],
      "payable": false,
      "stateMutability": "nonpayable",
      "type": "function"
    },
    {
      "constant": true,
      "inputs": [],
      "name": "name",
      "outputs": [
        {
          "internalType": "string",
          "name": "tokenName_",
          "type": "string"
        }
      ],
      "payable": false,
      "stateMutability": "view",
      "type": "function"
    },
    {
      "constant": true,
      "inputs": [],
      "name": "organization",
      "outputs": [
        {
          "internalType": "contract OrganizationInterface",
          "name": "",
          "type": "address"
        }
      ],
      "payable": false,
      "stateMutability": "view",
      "type": "function"
    },
    {
      "constant": false,
      "inputs": [
        {
          "internalType": "address",
          "name": "_coGatewayAddress",
          "type": "address"
        }
      ],
      "name": "setCoGateway",
      "outputs": [
        {
          "internalType": "bool",
          "name": "success_",
          "type": "bool"
        }
      ],
      "payable": false,
      "stateMutability": "nonpayable",
      "type": "function"
    },
    {
      "constant": true,
      "inputs": [],
      "name": "symbol",
      "outputs": [
        {
          "internalType": "string",
          "name": "tokenSymbol_",
          "type": "string"
        }
      ],
      "payable": false,
      "stateMutability": "view",
      "type": "function"
    },
    {
      "constant": true,
      "inputs": [],
      "name": "token",
      "outputs": [
        {
          "internalType": "address",
          "name": "",
          "type": "address"
        }
      ],
      "payable": false,
      "stateMutability": "view",
      "type": "function"
    },
    {
      "constant": true,
      "inputs": [],
      "name": "totalSupply",
      "outputs": [
        {
          "internalType": "uint256",
          "name": "totalTokenSupply_",
          "type": "uint256"
        }
      ],
      "payable": false,
      "stateMutability": "view",
      "type": "function"
    },
    {
      "constant": false,
      "inputs": [
        {
          "internalType": "address",
          "name": "_to",
          "type": "address"
        },
        {
          "internalType": "uint256",
          "name": "_value",
          "type": "uint256"
        }
      ],
      "name": "transfer",
      "outputs": [
        {
          "internalType": "bool",
          "name": "success_",
          "type": "bool"
        }
      ],
      "payable": false,
      "stateMutability": "nonpayable",
      "type": "function"
    },
    {
      "constant": false,
      "inputs": [
        {
          "internalType": "address",
          "name": "_from",
          "type": "address"
        },
        {
          "internalType": "address",
          "name": "_to",
          "type": "address"
        },
        {
          "internalType": "uint256",
          "name": "_value",
          "type": "uint256"
        }
      ],
      "name": "transferFrom",
      "outputs": [
        {
          "internalType": "bool",
          "name": "success_",
          "type": "bool"
        }
      ],
      "payable": false,
      "stateMutability": "nonpayable",
      "type": "function"
    },
    {
      "constant": false,
      "inputs": [
        {
          "internalType": "address",
          "name": "_coGatewayAddress",
          "type": "address"
        }
      ],
      "name": "setCoGatewayAddress",
      "outputs": [],
      "payable": false,
      "stateMutability": "nonpayable",
      "type": "function"
    },
    {
      "constant": false,
      "inputs": [
        {
          "internalType": "address",
          "name": "_account",
          "type": "address"
        },
        {
          "internalType": "uint256",
          "name": "_balance",
          "type": "uint256"
        }
      ],
      "name": "setBalance",
      "outputs": [],
      "payable": false,
      "stateMutability": "nonpayable",
      "type": "function"
    },
    {
      "constant": false,
      "inputs": [
        {
          "internalType": "uint256",
          "name": "_amount",
          "type": "uint256"
        }
      ],
      "name": "setTotalSupply",
      "outputs": [],
      "payable": false,
      "stateMutability": "nonpayable",
      "type": "function"
    }
  ],
  "bytecode": "0x60806040523480156200001157600080fd5b506040516200111f3803806200111f833981810160405260a08110156200003757600080fd5b8151602083018051604051929492938301929190846401000000008211156200005f57600080fd5b9083019060208201858111156200007557600080fd5b82516401000000008111828201881017156200009057600080fd5b82525081516020918201929091019080838360005b83811015620000bf578181015183820152602001620000a5565b50505050905090810190601f168015620000ed5780820380516001836020036101000a031916815260200191505b50604052602001805160405193929190846401000000008211156200011157600080fd5b9083019060208201858111156200012757600080fd5b82516401000000008111828201881017156200014257600080fd5b82525081516020918201929091019080838360005b838110156200017157818101518382015260200162000157565b50505050905090810190601f1680156200019f5780820380516001836020036101000a031916815260200191505b5060405260200180519060200190929190805190602001909291905050508484848484808484848260019080519060200190620001de929190620002e3565b508151620001f4906000906020850190620002e3565b506002805460ff191660ff92909216919091179055505060006003556001600160a01b038116620002575760405162461bcd60e51b815260040180806020018281038252602f815260200180620010cf602f913960400191505060405180910390fd5b600680546001600160a01b0319166001600160a01b039283161790558516620002b25760405162461bcd60e51b8152600401808060200182810382526021815260200180620010fe6021913960400191505060405180910390fd5b5050600780546001600160a01b0319166001600160a01b039490941693909317909255506200038895505050505050565b828054600181600116156101000203166002900490600052602060002090601f016020900481019282601f106200032657805160ff191683800117855562000356565b8280016001018555821562000356579182015b828111156200035657825182559160200191906001019062000339565b506200036492915062000368565b5090565b6200038591905b808211156200036457600081556001016200036f565b90565b610d3780620003986000396000f3fe608060405234801561001057600080fd5b50600436106101215760003560e01c806384f48d6a116100ad578063dd62ed3e11610071578063dd62ed3e1461036e578063e30443bc1461039c578063f6a3d24e146103c8578063f7ea7a3d146103ee578063fc0c546a1461040b57610121565b806384f48d6a146102ef57806395d89b41146102f757806398e52f9a146102ff578063a9059cbb1461031c578063ac908e4c1461034857610121565b806323bd4d7a116100f457806323bd4d7a14610233578063313ce5671461025757806370a08231146102755780637992bf1c1461029b57806379fcd8ee146102c357610121565b806306fdde0314610126578063095ea7b3146101a357806318160ddd146101e357806323b872dd146101fd575b600080fd5b61012e610413565b6040805160208082528351818301528351919283929083019185019080838360005b83811015610168578181015183820152602001610150565b50505050905090810190601f1680156101955780820380516001836020036101000a031916815260200191505b509250505060405180910390f35b6101cf600480360360408110156101b957600080fd5b506001600160a01b0381351690602001356104a9565b604080519115158252519081900360200190f35b6101eb61050f565b60408051918252519081900360200190f35b6101cf6004803603606081101561021357600080fd5b506001600160a01b03813581169160208101359091169060400135610515565b61023b610580565b604080516001600160a01b039092168252519081900360200190f35b61025f61058f565b6040805160ff9092168252519081900360200190f35b6101eb6004803603602081101561028b57600080fd5b50356001600160a01b0316610598565b6102c1600480360360208110156102b157600080fd5b50356001600160a01b03166105b3565b005b6101cf600480360360408110156102d957600080fd5b506001600160a01b0381351690602001356105d5565b61023b610632565b61012e610641565b6101cf6004803603602081101561031557600080fd5b50356106a1565b6101cf6004803603604081101561033257600080fd5b506001600160a01b0381351690602001356106fc565b6101cf6004803603602081101561035e57600080fd5b50356001600160a01b0316610709565b6101eb6004803603604081101561038457600080fd5b506001600160a01b03813581169160200135166107c4565b6102c1600480360360408110156103b257600080fd5b506001600160a01b0381351690602001356107ef565b6101cf600480360360208110156103de57600080fd5b50356001600160a01b031661080b565b6102c16004803603602081101561040457600080fd5b5035610811565b61023b610816565b60008054604080516020601f600260001961010060018816150201909516949094049384018190048102820181019092528281526060939092909183018282801561049f5780601f106104745761010080835404028352916020019161049f565b820191906000526020600020905b81548152906001019060200180831161048257829003601f168201915b5050505050905090565b3360008181526005602090815260408083206001600160a01b038716808552908352818420869055815186815291519394909390927f8c5be1e5ebec7d5bd14f71427d1e84f3dd0314c0f7b2291e5b200ac8c7c3b925928290030190a350600192915050565b60035490565b6001600160a01b0383166000908152600560209081526040808320338452909152812054610549908363ffffffff61082516565b6001600160a01b038516600090815260056020908152604080832033845290915290205561057884848461083a565b949350505050565b6006546001600160a01b031681565b60025460ff1690565b6001600160a01b031660009081526004602052604090205490565b600880546001600160a01b0319166001600160a01b0392909216919091179055565b6008546000906001600160a01b031633146106215760405162461bcd60e51b8152600401808060200182810382526025815260200180610c866025913960400191505060405180910390fd5b61062b83836108f9565b9392505050565b6008546001600160a01b031681565b60018054604080516020601f6002600019610100878916150201909516949094049384018190048102820181019092528281526060939092909183018282801561049f5780601f106104745761010080835404028352916020019161049f565b6008546000906001600160a01b031633146106ed5760405162461bcd60e51b8152600401808060200182810382526025815260200180610c866025913960400191505060405180910390fd5b6106f68261099b565b92915050565b600061062b33848461083a565b6006546040805163b1ce8eab60e01b815233600482015290516000926001600160a01b03169163b1ce8eab916024808301926020929190829003018186803b15801561075457600080fd5b505afa158015610768573d6000803e3d6000fd5b505050506040513d602081101561077e57600080fd5b50516107bb5760405162461bcd60e51b8152600401808060200182810382526035815260200180610c516035913960400191505060405180910390fd5b6106f682610a7d565b6001600160a01b03918216600090815260056020908152604080832093909416825291909152205490565b6001600160a01b03909116600090815260046020526040902055565b50600190565b600355565b6007546001600160a01b031681565b60008282111561083457600080fd5b50900390565b6001600160a01b038316600090815260046020526040812054610863908363ffffffff61082516565b6001600160a01b038086166000908152600460205260408082209390935590851681522054610898908363ffffffff610c1d16565b6001600160a01b0380851660008181526004602090815260409182902094909455805186815290519193928816927fddf252ad1be2c89b69c2b068fc378daa952ba7f163c4a11628f55a4df523b3ef92918290030190a35060019392505050565b6001600160a01b038216600090815260046020526040812054610922908363ffffffff610c1d16565b6001600160a01b03841660009081526004602052604090205560035461094e908363ffffffff610c1d16565b6003556040805183815290516001600160a01b038516916000917fddf252ad1be2c89b69c2b068fc378daa952ba7f163c4a11628f55a4df523b3ef9181900360200190a350600192915050565b336000908152600460205260408120548211156109f7576040805162461bcd60e51b815260206004820152601560248201527424b739bab33334b1b4b2b73a103130b630b731b29760591b604482015290519081900360640190fd5b33600090815260046020526040902054610a17908363ffffffff61082516565b33600090815260046020526040902055600354610a3a908363ffffffff61082516565b60035560408051838152905160009133917fddf252ad1be2c89b69c2b068fc378daa952ba7f163c4a11628f55a4df523b3ef9181900360200190a3506001919050565b6008546000906001600160a01b031615610ac85760405162461bcd60e51b8152600401808060200182810382526021815260200180610c306021913960400191505060405180910390fd5b6001600160a01b038216610b0d5760405162461bcd60e51b8152600401808060200182810382526025815260200180610cab6025913960400191505060405180910390fd5b600880546001600160a01b0319166001600160a01b0384169081179091556040805163ae86ed8960e01b8152905130929163ae86ed899160048083019260209291908290030181600087803b158015610b6557600080fd5b505af1158015610b79573d6000803e3d6000fd5b505050506040513d6020811015610b8f57600080fd5b50516001600160a01b031614610bd65760405162461bcd60e51b8152600401808060200182810382526033815260200180610cd06033913960400191505060405180910390fd5b600854604080516001600160a01b039092168252517f95bef3949e28dc0675de862971632152312163efcf79d8d22314cae6bdd28f479181900360200190a1506001919050565b60008282018381101561062b57600080fdfe436f47617465776179206164647265737320697320616c7265616479207365742e4f6e6c7920746865206f7267616e697a6174696f6e20697320616c6c6f77656420746f2063616c6c2074686973206d6574686f642e4f6e6c7920436f476174657761792063616e2063616c6c207468652066756e6374696f6e2e436f4761746577617920616464726573732073686f756c64206e6f74206265207a65726f2e436f476174657761792073686f756c64206265206c696e6b656420776974682074686973207574696c69747920746f6b656e2ea265627a7a72315820e579d98eb4b87f4d17470b99c013cbca5c71e24e6c1b9a40ada912703205290c64736f6c634300051000324f7267616e697a6174696f6e20636f6e74726163742061646472657373206d757374206e6f74206265207a65726f2e546f6b656e20616464726573732073686f756c64206e6f74206265207a65726f2e",
  "source": "pragma solidity ^0.5.0;\n\n// Copyright 2019 OpenST Ltd.\n//\n// Licensed under the Apache License, Version 2.0 (the \"License\");\n// you may not use this file except in compliance with the License.\n// You may obtain a copy of the License at\n//\n//    http://www.apache.org/licenses/LICENSE-2.0\n//\n// Unless required by applicable law or agreed to in writing, software\n// distributed under the License is distributed on an \"AS IS\" BASIS,\n// WITHOUT WARRANTIES OR CONDITIONS OF ANY KIND, either express or implied.\n// See the License for the specific language governing permissions and\n// limitations under the License.\n//\n// ----------------------------------------------------------------------------\n//\n// http://www.simpletoken.org/\n//\n// ----------------------------------------------------------------------------\n\nimport \"../UtilityToken.sol\";\n\n/**\n * @title TestUtilityToken contract\n *\n * @notice This contract is used to mock certain functions of UtilityToken\n *         contract.\n */\ncontract TestUtilityToken is UtilityToken {\n\n    /* Constructor */\n\n    /**\n     * @dev This is used for testing by mocking certain variables.\n     *\n     * @param _token Address of branded token.\n     * @param _symbol Symbol of token.\n     * @param _name Name of token.\n     * @param _decimals Decimal of token.\n     * @param _organization Address of an organization contract.\n     */\n    constructor(\n        address _token,\n        string memory _symbol,\n        string memory _name,\n        uint8 _decimals,\n        OrganizationInterface _organization\n    )\n        public\n        UtilityToken(_token, _symbol, _name, _decimals, _organization)\n    {}\n\n    /**\n     * @notice Set the CoGateway address for testing.\n     *\n     * @param _coGatewayAddress CoGateway address.\n     */\n    function setCoGatewayAddress(address _coGatewayAddress) public {\n        coGateway = _coGatewayAddress;\n    }\n\n    /**\n     * @notice Set the balance of an account address for testing.\n     *\n     * @param _account Address of an account for which the balance is to be set.\n     * @param _balance The balance amount that should be set for the account.\n     */\n    function setBalance(address _account, uint256 _balance) public {\n        balances[_account] = _balance;\n    }\n\n    /**\n     * @notice Set the total supply count for testing.\n     *\n     * @param _amount The supply amount.\n     */\n    function setTotalSupply(uint256 _amount) public {\n        totalTokenSupply = _amount;\n    }\n}\n",
  "sourcePath": "/Users/OST/Documents/dj/ost-opt-contracts/contracts/brandedtoken-contracts/contracts/utilitytoken/contracts/test/TestUtilityToken.sol",
  "compiler": {
    "name": "solc",
    "version": "0.5.16+commit.9c3226ce.Emscripten.clang"
  },
  "schemaVersion": "3.0.21",
  "updatedAt": "2020-01-21T06:50:59.714Z",
  "devdoc": {
    "methods": {
      "allowance(address,address)": {
        "params": {
          "_owner": "Address of the owner account.",
          "_spender": "Address of the spender account."
        },
        "return": "allowance_ Remaining allowance for the spender to spend from                   owner's account."
      },
      "approve(address,uint256)": {
        "details": "Allows _spender address to withdraw from function caller's account,     multiple times up to the _value amount, if this function is called     again it overwrites the current allowance with _value.",
        "params": {
          "_spender": "Address authorized to spend from the function caller's                 address.",
          "_value": "Amount up to which spender is authorized to spend."
        },
        "return": "bool `true` for a successful approval, `false` otherwise."
      },
      "balanceOf(address)": {
        "params": {
          "_owner": "Address of the owner account."
        },
        "return": "balance_ Account balance of the owner account."
      },
      "constructor": {
        "details": "This is used for testing by mocking certain variables.",
        "params": {
          "_decimals": "Decimal of token.",
          "_name": "Name of token.",
          "_organization": "Address of an organization contract.",
          "_symbol": "Symbol of token.",
          "_token": "Address of branded token."
        }
      },
      "decimals()": {
        "return": "tokenDecimals Decimals of the token."
      },
      "decreaseSupply(uint256)": {
        "params": {
          "_amount": "Amount of tokens."
        },
        "return": "success_ `true` if decrease supply is successful, false otherwise."
      },
      "exists(address)": {
        "details": "For standard ethereum all account addresses exist by default,     so it returns true for all addresses.",
        "return": "exists_ `true` for all given address"
      },
      "increaseSupply(address,uint256)": {
        "params": {
          "_account": "Account address for which the balance will be increased. This is payable so that it provides flexibility of                transferring base token to account on increase supply.",
          "_amount": "Amount of tokens."
        },
        "return": "success_ `true` if increase supply is successful, false otherwise."
      },
      "name()": {
        "return": "tokenName_ Name of the token."
      },
      "setBalance(address,uint256)": {
        "params": {
          "_account": "Address of an account for which the balance is to be set.",
          "_balance": "The balance amount that should be set for the account."
        }
      },
      "setCoGateway(address)": {
        "params": {
          "_coGatewayAddress": "CoGateway contract address"
        },
        "return": "success_ `true` if CoGateway address was set"
      },
      "setCoGatewayAddress(address)": {
        "params": {
          "_coGatewayAddress": "CoGateway address."
        }
      },
      "setTotalSupply(uint256)": {
        "params": {
          "_amount": "The supply amount."
        }
      },
      "symbol()": {
        "return": "tokenSymbol_ Symbol of the token."
      },
      "totalSupply()": {
        "details": "Get totalTokenSupply as view so that child cannot edit.",
        "return": "totalTokenSupply_ Total token supply."
      },
      "transfer(address,uint256)": {
        "details": "Fires the transfer event, throws if, _from account does not have     enough tokens to spend.",
        "params": {
          "_to": "Address to which tokens are transferred.",
          "_value": "Amount of tokens to be transferred."
        },
        "return": "success_ `true` for a successful transfer, `false` otherwise."
      },
      "transferFrom(address,address,uint256)": {
        "details": "Allows a contract to transfer tokens on behalf of _from address     to _to address, the function caller has to be pre-authorized for     multiple transfers up to the total of _value amount by the _from     address.",
        "params": {
          "_from": "Address from which tokens are transferred.",
          "_to": "Address to which tokens are transferred.",
          "_value": "Amount of tokens transferred."
        },
        "return": "success_ `true` for a successful transfer, `false` otherwise."
      }
    },
    "title": "TestUtilityToken contract"
  },
  "userdoc": {
    "methods": {
      "allowance(address,address)": {
        "notice": "Public function to get the allowance."
      },
      "approve(address,uint256)": {
        "notice": "Public function to approve an account for transfer."
      },
      "balanceOf(address)": {
        "notice": "Get the balance of an account."
      },
      "decimals()": {
        "notice": "Public function to get the decimals of the token."
      },
      "decreaseSupply(uint256)": {
        "notice": "Decreases the token supply."
      },
      "exists(address)": {
        "notice": "Checks if an address exists."
      },
      "increaseSupply(address,uint256)": {
        "notice": "Increases the total token supply. Also, adds the number of        tokens to the beneficiary balance."
      },
      "name()": {
        "notice": "Public function to get the name of the token."
      },
      "setBalance(address,uint256)": {
        "notice": "Set the balance of an account address for testing."
      },
      "setCoGateway(address)": {
        "notice": "Sets the CoGateway contract address. This can be called only by        an organization address. This can be set only once."
      },
      "setCoGatewayAddress(address)": {
        "notice": "Set the CoGateway address for testing."
      },
      "setTotalSupply(uint256)": {
        "notice": "Set the total supply count for testing."
      },
      "symbol()": {
        "notice": "Public function to get the symbol of the token."
      },
      "totalSupply()": {
        "notice": "Public function to get the total supply of the tokens."
      },
      "transfer(address,uint256)": {
        "notice": "Public function to transfer the token."
      },
      "transferFrom(address,address,uint256)": {
        "notice": "Public function transferFrom."
      }
    },
    "notice": "This contract is used to mock certain functions of UtilityToken        contract."
  }
}