{
  "contractName": "TokenRules",
  "abi": [
    {
      "inputs": [
        {
          "internalType": "contract OrganizationInterface",
          "name": "_organization",
          "type": "address"
        },
        {
          "internalType": "contract EIP20TokenInterface",
          "name": "_token",
          "type": "address"
        }
      ],
      "payable": false,
      "stateMutability": "nonpayable",
      "type": "constructor"
    },
    {
      "anonymous": false,
      "inputs": [
        {
          "indexed": false,
          "internalType": "string",
          "name": "_ruleName",
          "type": "string"
        },
        {
          "indexed": false,
          "internalType": "address",
          "name": "_ruleAddress",
          "type": "address"
        }
      ],
      "name": "RuleRegistered",
      "type": "event"
    },
    {
      "constant": true,
      "inputs": [
        {
          "internalType": "address",
          "name": "",
          "type": "address"
        }
      ],
      "name": "allowedTransfers",
      "outputs": [
        {
          "internalType": "bool",
          "name": "",
          "type": "bool"
        }
      ],
      "payable": false,
      "stateMutability": "view",
      "type": "function"
    },
    {
      "constant": true,
      "inputs": [],
      "name": "areDirectTransfersEnabled",
      "outputs": [
        {
          "internalType": "bool",
          "name": "",
          "type": "bool"
        }
      ],
      "payable": false,
      "stateMutability": "view",
      "type": "function"
    },
    {
      "constant": true,
      "inputs": [],
      "name": "organization",
      "outputs": [
        {
          "internalType": "contract OrganizationInterface",
          "name": "",
          "type": "address"
        }
      ],
      "payable": false,
      "stateMutability": "view",
      "type": "function"
    },
    {
      "constant": true,
      "inputs": [
        {
          "internalType": "uint256",
          "name": "",
          "type": "uint256"
        }
      ],
      "name": "rules",
      "outputs": [
        {
          "internalType": "string",
          "name": "ruleName",
          "type": "string"
        },
        {
          "internalType": "address",
          "name": "ruleAddress",
          "type": "address"
        },
        {
          "internalType": "string",
          "name": "ruleAbi",
          "type": "string"
        }
      ],
      "payable": false,
      "stateMutability": "view",
      "type": "function"
    },
    {
      "constant": true,
      "inputs": [
        {
          "internalType": "address",
          "name": "",
          "type": "address"
        }
      ],
      "name": "rulesByAddress",
      "outputs": [
        {
          "internalType": "uint256",
          "name": "index",
          "type": "uint256"
        },
        {
          "internalType": "bool",
          "name": "exists",
          "type": "bool"
        }
      ],
      "payable": false,
      "stateMutability": "view",
      "type": "function"
    },
    {
      "constant": true,
      "inputs": [
        {
          "internalType": "bytes32",
          "name": "",
          "type": "bytes32"
        }
      ],
      "name": "rulesByNameHash",
      "outputs": [
        {
          "internalType": "uint256",
          "name": "index",
          "type": "uint256"
        },
        {
          "internalType": "bool",
          "name": "exists",
          "type": "bool"
        }
      ],
      "payable": false,
      "stateMutability": "view",
      "type": "function"
    },
    {
      "constant": true,
      "inputs": [],
      "name": "token",
      "outputs": [
        {
          "internalType": "contract EIP20TokenInterface",
          "name": "",
          "type": "address"
        }
      ],
      "payable": false,
      "stateMutability": "view",
      "type": "function"
    },
    {
      "constant": false,
      "inputs": [
        {
          "internalType": "string",
          "name": "_ruleName",
          "type": "string"
        },
        {
          "internalType": "address",
          "name": "_ruleAddress",
          "type": "address"
        },
        {
          "internalType": "string",
          "name": "_ruleAbi",
          "type": "string"
        }
      ],
      "name": "registerRule",
      "outputs": [],
      "payable": false,
      "stateMutability": "nonpayable",
      "type": "function"
    },
    {
      "constant": false,
      "inputs": [],
      "name": "allowTransfers",
      "outputs": [],
      "payable": false,
      "stateMutability": "nonpayable",
      "type": "function"
    },
    {
      "constant": false,
      "inputs": [],
      "name": "disallowTransfers",
      "outputs": [],
      "payable": false,
      "stateMutability": "nonpayable",
      "type": "function"
    },
    {
      "constant": false,
      "inputs": [
        {
          "internalType": "address",
          "name": "_from",
          "type": "address"
        },
        {
          "internalType": "address[]",
          "name": "_transfersTo",
          "type": "address[]"
        },
        {
          "internalType": "uint256[]",
          "name": "_transfersAmount",
          "type": "uint256[]"
        }
      ],
      "name": "executeTransfers",
      "outputs": [],
      "payable": false,
      "stateMutability": "nonpayable",
      "type": "function"
    },
    {
      "constant": false,
      "inputs": [],
      "name": "enableDirectTransfers",
      "outputs": [],
      "payable": false,
      "stateMutability": "nonpayable",
      "type": "function"
    },
    {
      "constant": false,
      "inputs": [],
      "name": "disableDirectTransfers",
      "outputs": [],
      "payable": false,
      "stateMutability": "nonpayable",
      "type": "function"
    },
    {
      "constant": false,
      "inputs": [
        {
          "internalType": "address[]",
          "name": "_transfersTo",
          "type": "address[]"
        },
        {
          "internalType": "uint256[]",
          "name": "_transfersAmount",
          "type": "uint256[]"
        }
      ],
      "name": "directTransfers",
      "outputs": [],
      "payable": false,
      "stateMutability": "nonpayable",
      "type": "function"
    }
  ],
  "bytecode": "0x608060405234801561001057600080fd5b506040516114753803806114758339818101604052604081101561003357600080fd5b508051602090910151816001600160a01b0381166100825760405162461bcd60e51b815260040180806020018281038252602f815260200180611446602f913960400191505060405180910390fd5b600080546001600160a01b0319166001600160a01b0392831617905581166100f1576040805162461bcd60e51b815260206004820152601660248201527f546f6b656e2061646472657373206973206e756c6c2e00000000000000000000604482015290519081900360640190fd5b600480546001600160a01b0319166001600160a01b0392909216919091179055506006805460ff191660011790556113188061012e6000396000f3fe608060405234801561001057600080fd5b50600436106100ea5760003560e01c80638486c2231161008c578063aa79376711610066578063aa79376714610508578063b286e04714610510578063d6a7d22614610518578063fc0c546a1461053e576100ea565b80638486c2231461037457806394ac7a3f1461037c578063a6a192da1461043a576100ea565b806322f468ea116100c857806322f468ea1461021557806323bd4d7a1461024b5780633e290e5c1461026f578063661309ac1461033a576100ea565b806304d6ded4146100ef578063212c8157146102035780632185810b1461020d575b600080fd5b61010c6004803603602081101561010557600080fd5b5035610546565b6040518080602001846001600160a01b03166001600160a01b0316815260200180602001838103835286818151815260200191508051906020019080838360005b8381101561016557818101518382015260200161014d565b50505050905090810190601f1680156101925780820380516001836020036101000a031916815260200191505b50838103825284518152845160209182019186019080838360005b838110156101c55781810151838201526020016101ad565b50505050905090810190601f1680156101f25780820380516001836020036101000a031916815260200191505b509550505050505060405180910390f35b61020b61069a565b005b61020b6106b3565b6102326004803603602081101561022b57600080fd5b50356106cf565b6040805192835290151560208301528051918290030190f35b6102536106eb565b604080516001600160a01b039092168252519081900360200190f35b61020b6004803603606081101561028557600080fd5b810190602081018135600160201b81111561029f57600080fd5b8201836020820111156102b157600080fd5b803590602001918460018302840111600160201b831117156102d257600080fd5b919390926001600160a01b0383351692604081019060200135600160201b8111156102fc57600080fd5b82018360208201111561030e57600080fd5b803590602001918460018302840111600160201b8311171561032f57600080fd5b5090925090506106fa565b6103606004803603602081101561035057600080fd5b50356001600160a01b0316610b80565b604080519115158252519081900360200190f35b61020b610b95565b61020b6004803603604081101561039257600080fd5b810190602081018135600160201b8111156103ac57600080fd5b8201836020820111156103be57600080fd5b803590602001918460208302840111600160201b831117156103df57600080fd5b919390929091602081019035600160201b8111156103fc57600080fd5b82018360208201111561040e57600080fd5b803590602001918460208302840111600160201b8311171561042f57600080fd5b509092509050610c56565b61020b6004803603606081101561045057600080fd5b6001600160a01b038235169190810190604081016020820135600160201b81111561047a57600080fd5b82018360208201111561048c57600080fd5b803590602001918460208302840111600160201b831117156104ad57600080fd5b919390929091602081019035600160201b8111156104ca57600080fd5b8201836020820111156104dc57600080fd5b803590602001918460208302840111600160201b831117156104fd57600080fd5b509092509050610d0b565b61020b610dd1565b610360610e8f565b6102326004803603602081101561052e57600080fd5b50356001600160a01b0316610e98565b610253610eb4565b6001818154811061055357fe5b60009182526020918290206003919091020180546040805160026001841615610100026000190190931692909204601f8101859004850283018501909152808252919350918391908301828280156105ec5780601f106105c1576101008083540402835291602001916105ec565b820191906000526020600020905b8154815290600101906020018083116105cf57829003601f168201915b505050506001838101546002808601805460408051602061010097841615979097026000190190921693909304601f810186900486028201860190935282815295966001600160a01b039093169592945091928301828280156106905780601f1061066557610100808354040283529160200191610690565b820191906000526020600020905b81548152906001019060200180831161067357829003601f168201915b5050505050905083565b336000908152600560205260409020805460ff19169055565b336000908152600560205260409020805460ff19166001179055565b6003602052600090815260409020805460019091015460ff1682565b6000546001600160a01b031681565b6000546040805163aa15664560e01b815233600482015290516001600160a01b039092169163aa15664591602480820192602092909190829003018186803b15801561074557600080fd5b505afa158015610759573d6000803e3d6000fd5b505050506040513d602081101561076f57600080fd5b50516107ac5760405162461bcd60e51b81526004018080602001828103825260398152602001806112ab6039913960400191505060405180910390fd5b836107f4576040805162461bcd60e51b8152602060048201526013602482015272293ab632903730b6b29034b99032b6b83a3c9760691b604482015290519081900360640190fd5b6001600160a01b038316610847576040805162461bcd60e51b8152602060048201526015602482015274293ab6329030b2323932b9b99034b990373ab6361760591b604482015290519081900360640190fd5b8061088e576040805162461bcd60e51b8152602060048201526012602482015271293ab6329020a1249034b99032b6b83a3c9760711b604482015290519081900360640190fd5b60008585604051602001808383808284376040805191909301818103601f190182528352805160209182012060008181526003909252929020600101549195505060ff161592506109139150505760405162461bcd60e51b815260040180806020018281038252602c81526020018061117b602c913960400191505060405180910390fd5b6001600160a01b03841660009081526002602052604090206001015460ff161561096e5760405162461bcd60e51b815260040180806020018281038252602f815260200180611243602f913960400191505060405180910390fd5b61097661109e565b604051806060016040528088888080601f0160208091040260200160405190810160405280939291908181526020018383808284376000920191909152505050908252506001600160a01b03871660208083019190915260408051601f8801839004830281018301825287815292019190879087908190840183828082843760009201919091525050509152509050610a0d6110c8565b5060408051808201825260018054825260208083018281526001600160a01b038a16600090815260028352858120855181558251908501805491151560ff1992831617905588825260038085529682208651815592519285018054931515939091169290921790915582548084018085559390915285518051949593948794929092027fb10e2d527612073b26eecdfd717e6a320cf44b4afac2b0732d9fcbe2b7fa0cf60192610ac2928492909101906110df565b506020828101516001830180546001600160a01b0319166001600160a01b0390921691909117905560408301518051610b0192600285019201906110df565b5050604080516001600160a01b038a1660208201528181529081018a90527f4d39292a7c76562755f38e419d757d846579699af484d88be86a1811dca7321592508a9150899089908060608101858580828437600083820152604051601f909101601f1916909201829003965090945050505050a15050505050505050565b60056020526000908152604090205460ff1681565b6000546040805163aa15664560e01b815233600482015290516001600160a01b039092169163aa15664591602480820192602092909190829003018186803b158015610be057600080fd5b505afa158015610bf4573d6000803e3d6000fd5b505050506040513d6020811015610c0a57600080fd5b5051610c475760405162461bcd60e51b81526004018080602001828103825260398152602001806112ab6039913960400191505060405180910390fd5b6006805460ff19166001179055565b60065460ff16610c975760405162461bcd60e51b81526004018080602001828103825260218152602001806111f76021913960400191505060405180910390fd5b610d053385858080602002602001604051908101604052809392919081815260200183836020028082843760009201919091525050604080516020808902828101820190935288825290935088925087918291850190849080828437600092019190915250610ec392505050565b50505050565b3360009081526002602052604090206001015460ff16610d5c5760405162461bcd60e51b81526004018080602001828103825260288152602001806111cf6028913960400191505060405180910390fd5b610dca8585858080602002602001604051908101604052809392919081815260200183836020028082843760009201919091525050604080516020808902828101820190935288825290935088925087918291850190849080828437600092019190915250610ec392505050565b5050505050565b6000546040805163aa15664560e01b815233600482015290516001600160a01b039092169163aa15664591602480820192602092909190829003018186803b158015610e1c57600080fd5b505afa158015610e30573d6000803e3d6000fd5b505050506040513d6020811015610e4657600080fd5b5051610e835760405162461bcd60e51b81526004018080602001828103825260398152602001806112ab6039913960400191505060405180910390fd5b6006805460ff19169055565b60065460ff1681565b6002602052600090815260409020805460019091015460ff1682565b6004546001600160a01b031681565b6001600160a01b03831660009081526005602052604090205460ff16610f1a5760405162461bcd60e51b815260040180806020018281038252602b815260200180611218602b913960400191505060405180910390fd5b6001600160a01b0383166000908152600560205260409020805460ff191690558051825114610f7a5760405162461bcd60e51b81526004018080602001828103825260398152602001806112726039913960400191505060405180910390fd5b60005b8251811015610d055760045483516001600160a01b03909116906323b872dd908690869085908110610fab57fe5b6020026020010151858581518110610fbf57fe5b60200260200101516040518463ffffffff1660e01b815260040180846001600160a01b03166001600160a01b03168152602001836001600160a01b03166001600160a01b031681526020018281526020019350505050602060405180830381600087803b15801561102f57600080fd5b505af1158015611043573d6000803e3d6000fd5b505050506040513d602081101561105957600080fd5b50516110965760405162461bcd60e51b81526004018080602001828103825260288152602001806111a76028913960400191505060405180910390fd5b600101610f7d565b60405180606001604052806060815260200160006001600160a01b03168152602001606081525090565b604080518082019091526000808252602082015290565b828054600181600116156101000203166002900490600052602060002090601f016020900481019282601f1061112057805160ff191683800117855561114d565b8280016001018555821561114d579182015b8281111561114d578251825591602001919060010190611132565b5061115992915061115d565b5090565b61117791905b808211156111595760008155600101611163565b9056fe52756c6520776974682074686520737065636966696564206e616d6520616c7265616479206578697374732e4661696c656420746f207472616e736665722066726f6d20275f66726f6d2720616464726573732e4f6e6c7920726567697374657265642072756c6520697320616c6c6f77656420746f2063616c6c2e446972656374207472616e736665727320617265206e6f7420616c6c6f7765642e5472616e73666572732066726f6d20746865206164647265737320617265206e6f7420616c6c6f7765642e52756c6520776974682074686520737065636966696564206164647265737320616c7265616479206578697374732e27746f2720616e642027616d6f756e7427207472616e736665722061727261797327206c656e6774687320617265206e6f7420657175616c2e4f6e6c792077686974656c697374656420776f726b6572732061726520616c6c6f77656420746f2063616c6c2074686973206d6574686f642ea265627a7a723158208ad71d6a8d3db247274e22cf9bb14b190de2e9ffca7b079a5b2fb7b6f3b44bd864736f6c634300051000324f7267616e697a6174696f6e20636f6e74726163742061646472657373206d757374206e6f74206265207a65726f2e",
  "source": "pragma solidity ^0.5.0;\n\n// Copyright 2019 OpenST Ltd.\n//\n// Licensed under the Apache License, Version 2.0 (the \"License\");\n// you may not use this file except in compliance with the License.\n// You may obtain a copy of the License at\n//\n//    http://www.apache.org/licenses/LICENSE-2.0\n//\n// Unless required by applicable law or agreed to in writing, software\n// distributed under the License is distributed on an \"AS IS\" BASIS,\n// WITHOUT WARRANTIES OR CONDITIONS OF ANY KIND, either express or implied.\n// See the License for the specific language governing permissions and\n// limitations under the License.\n\nimport \"./EIP20TokenInterface.sol\";\nimport \"../organization/contracts/Organized.sol\";\n\n/**\n * @notice Register of whitelisted rules that are allowed to initiate transfers\n *         from a token holder accounts.\n *\n * @dev TokenHolder.executeRule() function will execute any rule that are\n *      signed by an authorized and non-expired session key.\n *      However, only the rules, that are registered in TokenRules\n *      can initiate transfers of token from TokenHolder to other beneficiaries.\n *      TokenHolder is going to allow TokenRules as a spender before\n *      execution of the rule (amount is limited by spendingLimit registered\n *      during an authorizaiton of an session key.). TokenHolder will\n *      clear this allowance after execution.\n *      Before execution of transfers from TokenHolder.\n *      During a execution, rule can call TokenRules.executeTransfers()\n *      function only once.\n */\ncontract TokenRules is Organized {\n\n    /* Events */\n\n    event RuleRegistered(\n        string _ruleName,\n        address _ruleAddress\n    );\n\n    /* Structs */\n\n    struct TokenRule {\n        string ruleName;\n        address ruleAddress;\n        string ruleAbi;\n    }\n\n    /**\n     * RuleIndex struct is going to be used in 'rulesByAddress' and\n     * 'rulesByNameHash' mappings for pointing to the index with 'rules' array.\n     * Simple usage of uint256 in those mappings does not work, because\n     * for non existing rule name and address it defaults to 0 index,\n     * which is obviously wrong. Before accessing 'rules' array by index\n     * one should check 'exists' field of the struct.\n     */\n    struct RuleIndex {\n        uint256 index;\n        bool exists;\n    }\n\n    /* Storage */\n\n    /** Contains all registered rule in the order of registration. */\n    TokenRule[] public rules;\n\n    /** Mapping from a rule address to the index in the `rules` array. */\n    mapping (address => RuleIndex) public rulesByAddress;\n\n    /** Mapping from a rule name hash to the index in the `rules` array. */\n    mapping (bytes32 => RuleIndex) public rulesByNameHash;\n\n    EIP20TokenInterface public token;\n\n    /**\n     * TokenHolder contract before a rule execution will set the flag\n     * on (true) for itself. TokenRules.executeTransfers will set the flag to\n     * off (false) for _from (TokenHolder) after execution. This will restrict\n     * a rule to make a call to TokenRules.executeTransfers only *once*.\n     */\n    mapping (address => bool) public allowedTransfers;\n\n    bool public areDirectTransfersEnabled;\n\n\n    /* Modifiers */\n\n\n    modifier onlyRule {\n        require(\n            rulesByAddress[msg.sender].exists,\n            \"Only registered rule is allowed to call.\"\n        );\n        _;\n    }\n\n    modifier directTransfersAreEnabled {\n\n        require(\n            areDirectTransfersEnabled,\n            \"Direct transfers are not allowed.\"\n        );\n\n        _;\n    }\n\n\n    /* Special Functions */\n\n    /**\n     * @dev Function requires:\n     *          - Token address is not null.\n     */\n    constructor(\n        OrganizationInterface _organization,\n        EIP20TokenInterface _token\n    )\n        Organized(_organization)\n        public\n    {\n        require(address(_token) != address(0), \"Token address is null.\");\n\n        token = _token;\n\n        areDirectTransfersEnabled = true;\n    }\n\n\n    /* External Functions */\n\n    /**\n     * @dev Function requires:\n     *          - Only worker can call.\n     *          - Rule name is not empty.\n     *          - Rule with the specified name does not exist.\n     *          - Rule address is not null.\n     *          - Rule with the specified address does not exist.\n     *          - Rule abi is not empty.\n     *\n     * @param _ruleName The name of a rule to register.\n     * @param _ruleAddress The address of a rule to register.\n     * @param _ruleAbi The abi of the rule to register.\n     */\n    function registerRule(\n        string calldata _ruleName,\n        address _ruleAddress,\n        string calldata _ruleAbi\n    )\n        external\n        onlyWorker\n    {\n        require(bytes(_ruleName).length != 0, \"Rule name is empty.\");\n        require(_ruleAddress != address(0), \"Rule address is null.\");\n        require(bytes(_ruleAbi).length != 0, \"Rule ABI is empty.\");\n\n        bytes32 ruleNameHash = keccak256(abi.encodePacked(_ruleName));\n\n        require(\n            !rulesByNameHash[ruleNameHash].exists,\n            \"Rule with the specified name already exists.\"\n        );\n        require(\n            !rulesByAddress[_ruleAddress].exists,\n            \"Rule with the specified address already exists.\"\n        );\n\n        TokenRule memory rule = TokenRule({\n            ruleName: _ruleName,\n            ruleAddress: _ruleAddress,\n            ruleAbi: _ruleAbi\n        });\n\n        RuleIndex memory ruleIndex = RuleIndex({\n            index: rules.length,\n            exists: true\n        });\n\n        rulesByAddress[_ruleAddress] = ruleIndex;\n        rulesByNameHash[ruleNameHash] = ruleIndex;\n        rules.push(rule);\n\n        emit RuleRegistered(_ruleName, _ruleAddress);\n    }\n\n    /** @dev See documentation for allowedTransfers storage variable. */\n    function allowTransfers()\n        external\n    {\n        allowedTransfers[msg.sender] = true;\n    }\n\n    /** @dev See documentation for allowedTransfers storage variable. */\n    function disallowTransfers()\n        external\n    {\n        allowedTransfers[msg.sender] = false;\n    }\n\n    /**\n     * @dev Transfers from the specified account to all beneficiary\n     *      accounts corresponding amounts.\n     *      Function requires:\n     *          - Only registered rule can call.\n     *\n     * @param _from An address from which transfer is done.\n     * @param _transfersTo List of addresses to transfer.\n     * @param _transfersAmount List of amounts to transfer.\n     */\n    function executeTransfers(\n        address _from,\n        address[] calldata _transfersTo,\n        uint256[] calldata _transfersAmount\n    )\n        external\n        onlyRule\n    {\n        _executeTransfers(_from, _transfersTo, _transfersAmount);\n    }\n\n    /**\n     * @notice Enables direct transfers from token rules.\n     *\n     * @dev Function requires:\n     *          - Only organization worker is allowed to call.\n     *\n     * \\see directTransfers()\n     */\n    function enableDirectTransfers()\n        external\n        onlyWorker\n    {\n        areDirectTransfersEnabled = true;\n    }\n\n    /**\n     * @notice Disables direct transfers from token rules.\n     *\n     * @dev Function requires:\n     *          - Only organization worker is allowed to call.\n     *\n     * \\see directTransfers()\n     */\n    function disableDirectTransfers()\n        external\n        onlyWorker\n    {\n        areDirectTransfersEnabled = false;\n    }\n\n    /**\n     * @dev Transfers from the caller's account to all beneficiary\n     *      accounts corresponding amounts.\n     *\n     * @param _transfersTo List of addresses to transfer.\n     * @param _transfersAmount List of amounts to transfer.\n     */\n    function directTransfers(\n        address[] calldata _transfersTo,\n        uint256[] calldata _transfersAmount\n    )\n        external\n        directTransfersAreEnabled\n    {\n        _executeTransfers(msg.sender, _transfersTo, _transfersAmount);\n    }\n\n\n    /* Private Functions */\n\n    /**\n     * @dev Transfers from the specified account to all beneficiary\n     *      accounts corresponding amounts.\n     *      Function requires:\n     *          - An account from which (_from) transfer will be done should\n     *            allow this transfer by calling to TokenRules.allowTransfers().\n     *            TokenRules will set this allowance back, hence, only\n     *            one call is allowed per execution session.\n     *          - _transfersTo and _transfersAmount arrays length should match.\n     *\n     * @param _from An address from which transfer is done.\n     * @param _transfersTo List of addresses to transfer.\n     * @param _transfersAmount List of amounts to transfer.\n     */\n    function _executeTransfers(\n        address _from,\n        address[] memory _transfersTo,\n        uint256[] memory _transfersAmount\n    )\n        private\n    {\n        require(\n            allowedTransfers[_from],\n            \"Transfers from the address are not allowed.\"\n        );\n\n        // prevent possible re-entry by the external call to token\n        // by early-on setting the stateful check to false.\n        allowedTransfers[_from] = false;\n\n        require(\n            _transfersTo.length == _transfersAmount.length,\n            \"'to' and 'amount' transfer arrays' lengths are not equal.\"\n        );\n\n        for(uint256 i = 0; i < _transfersTo.length; ++i) {\n            require(\n                token.transferFrom(\n                    _from,\n                    _transfersTo[i],\n                    _transfersAmount[i]\n                ),\n                \"Failed to transfer from '_from' address.\"\n            );\n        }\n    }\n}\n",
  "sourcePath": "/Users/OST/Documents/dj/ost-opt-contracts/contracts/openst-contracts/contracts/token/TokenRules.sol",
  "compiler": {
    "name": "solc",
    "version": "0.5.16+commit.9c3226ce.Emscripten.clang"
  },
  "schemaVersion": "3.0.21",
  "updatedAt": "2020-01-21T06:50:59.753Z",
  "devdoc": {
    "details": "TokenHolder.executeRule() function will execute any rule that are     signed by an authorized and non-expired session key.     However, only the rules, that are registered in TokenRules     can initiate transfers of token from TokenHolder to other beneficiaries.     TokenHolder is going to allow TokenRules as a spender before     execution of the rule (amount is limited by spendingLimit registered     during an authorizaiton of an session key.). TokenHolder will     clear this allowance after execution.     Before execution of transfers from TokenHolder.     During a execution, rule can call TokenRules.executeTransfers()     function only once.",
    "methods": {
      "allowTransfers()": {
        "details": "See documentation for allowedTransfers storage variable. "
      },
      "constructor": {
        "details": "Function requires:         - Token address is not null."
      },
      "directTransfers(address[],uint256[])": {
        "details": "Transfers from the caller's account to all beneficiary     accounts corresponding amounts.",
        "params": {
          "_transfersAmount": "List of amounts to transfer.",
          "_transfersTo": "List of addresses to transfer."
        }
      },
      "disableDirectTransfers()": {
        "details": "Function requires:         - Only organization worker is allowed to call.     * \\see directTransfers()"
      },
      "disallowTransfers()": {
        "details": "See documentation for allowedTransfers storage variable. "
      },
      "enableDirectTransfers()": {
        "details": "Function requires:         - Only organization worker is allowed to call.     * \\see directTransfers()"
      },
      "executeTransfers(address,address[],uint256[])": {
        "details": "Transfers from the specified account to all beneficiary     accounts corresponding amounts.     Function requires:         - Only registered rule can call.",
        "params": {
          "_from": "An address from which transfer is done.",
          "_transfersAmount": "List of amounts to transfer.",
          "_transfersTo": "List of addresses to transfer."
        }
      },
      "registerRule(string,address,string)": {
        "details": "Function requires:         - Only worker can call.         - Rule name is not empty.         - Rule with the specified name does not exist.         - Rule address is not null.         - Rule with the specified address does not exist.         - Rule abi is not empty.",
        "params": {
          "_ruleAbi": "The abi of the rule to register.",
          "_ruleAddress": "The address of a rule to register.",
          "_ruleName": "The name of a rule to register."
        }
      }
    }
  },
  "userdoc": {
    "methods": {
      "disableDirectTransfers()": {
        "notice": "Disables direct transfers from token rules."
      },
      "enableDirectTransfers()": {
        "notice": "Enables direct transfers from token rules."
      }
    },
    "notice": "Register of whitelisted rules that are allowed to initiate transfers        from a token holder accounts."
  }
}