{
  "contractName": "TokenRulesSpy",
  "abi": [
    {
      "constant": true,
      "inputs": [
        {
          "internalType": "address",
          "name": "",
          "type": "address"
        }
      ],
      "name": "allowedTransfers",
      "outputs": [
        {
          "internalType": "bool",
          "name": "",
          "type": "bool"
        }
      ],
      "payable": false,
      "stateMutability": "view",
      "type": "function"
    },
    {
      "constant": true,
      "inputs": [],
      "name": "recordedFrom",
      "outputs": [
        {
          "internalType": "address",
          "name": "",
          "type": "address"
        }
      ],
      "payable": false,
      "stateMutability": "view",
      "type": "function"
    },
    {
      "constant": true,
      "inputs": [
        {
          "internalType": "uint256",
          "name": "",
          "type": "uint256"
        }
      ],
      "name": "recordedTransfersAmount",
      "outputs": [
        {
          "internalType": "uint256",
          "name": "",
          "type": "uint256"
        }
      ],
      "payable": false,
      "stateMutability": "view",
      "type": "function"
    },
    {
      "constant": true,
      "inputs": [],
      "name": "recordedTransfersAmountLength",
      "outputs": [
        {
          "internalType": "uint256",
          "name": "",
          "type": "uint256"
        }
      ],
      "payable": false,
      "stateMutability": "view",
      "type": "function"
    },
    {
      "constant": true,
      "inputs": [
        {
          "internalType": "uint256",
          "name": "",
          "type": "uint256"
        }
      ],
      "name": "recordedTransfersTo",
      "outputs": [
        {
          "internalType": "address",
          "name": "",
          "type": "address"
        }
      ],
      "payable": false,
      "stateMutability": "view",
      "type": "function"
    },
    {
      "constant": true,
      "inputs": [],
      "name": "recordedTransfersToLength",
      "outputs": [
        {
          "internalType": "uint256",
          "name": "",
          "type": "uint256"
        }
      ],
      "payable": false,
      "stateMutability": "view",
      "type": "function"
    },
    {
      "constant": false,
      "inputs": [],
      "name": "allowTransfers",
      "outputs": [],
      "payable": false,
      "stateMutability": "nonpayable",
      "type": "function"
    },
    {
      "constant": false,
      "inputs": [],
      "name": "disallowTransfers",
      "outputs": [],
      "payable": false,
      "stateMutability": "nonpayable",
      "type": "function"
    },
    {
      "constant": false,
      "inputs": [
        {
          "internalType": "address",
          "name": "_from",
          "type": "address"
        },
        {
          "internalType": "address[]",
          "name": "_transfersTo",
          "type": "address[]"
        },
        {
          "internalType": "uint256[]",
          "name": "_transfersAmount",
          "type": "uint256[]"
        }
      ],
      "name": "executeTransfers",
      "outputs": [],
      "payable": false,
      "stateMutability": "nonpayable",
      "type": "function"
    }
  ],
  "bytecode": "0x608060405234801561001057600080fd5b50610443806100206000396000f3fe608060405234801561001057600080fd5b50600436106100935760003560e01c8063661309ac11610066578063661309ac146100fd57806387da540e14610137578063a6a192da14610154578063b466d01314610226578063f49a30c01461022e57610093565b8063212c8157146100985780632185810b146100a25780632aeac3b2146100aa5780635838421c146100ce575b600080fd5b6100a0610236565b005b6100a061024f565b6100b261026b565b604080516001600160a01b039092168252519081900360200190f35b6100eb600480360360208110156100e457600080fd5b503561027a565b60408051918252519081900360200190f35b6101236004803603602081101561011357600080fd5b50356001600160a01b0316610298565b604080519115158252519081900360200190f35b6100b26004803603602081101561014d57600080fd5b50356102ad565b6100a06004803603606081101561016a57600080fd5b6001600160a01b03823516919081019060408101602082013564010000000081111561019557600080fd5b8201836020820111156101a757600080fd5b803590602001918460208302840111640100000000831117156101c957600080fd5b9193909290916020810190356401000000008111156101e757600080fd5b8201836020820111156101f957600080fd5b8035906020019184602083028401116401000000008311171561021b57600080fd5b5090925090506102d4565b6100eb610317565b6100eb61031d565b336000908152602081905260409020805460ff19169055565b336000908152602081905260409020805460ff19166001179055565b6001546001600160a01b031681565b6004818154811061028757fe5b600091825260209091200154905081565b60006020819052908152604090205460ff1681565b600281815481106102ba57fe5b6000918252602090912001546001600160a01b0316905081565b600180546001600160a01b0319166001600160a01b0387161790556102fb60028585610323565b50600383905561030d60048383610386565b5060055550505050565b60035481565b60055481565b828054828255906000526020600020908101928215610376579160200282015b828111156103765781546001600160a01b0319166001600160a01b03843516178255602090920191600190910190610343565b506103829291506103cd565b5090565b8280548282559060005260206000209081019282156103c1579160200282015b828111156103c15782358255916020019190600101906103a6565b506103829291506103f4565b6103f191905b808211156103825780546001600160a01b03191681556001016103d3565b90565b6103f191905b8082111561038257600081556001016103fa56fea265627a7a72315820c45a735756244eb97c2b5fa9ff14d45983d856e89f83f5c5968ce68b818ba1b864736f6c63430005100032",
  "source": "pragma solidity ^0.5.0;\n\n// Copyright 2019 OpenST Ltd.\n//\n// Licensed under the Apache License, Version 2.0 (the \"License\");\n// you may not use this file except in compliance with the License.\n// You may obtain a copy of the License at\n//\n//    http://www.apache.org/licenses/LICENSE-2.0\n//\n// Unless required by applicable law or agreed to in writing, software\n// distributed under the License is distributed on an \"AS IS\" BASIS,\n// WITHOUT WARRANTIES OR CONDITIONS OF ANY KIND, either express or implied.\n// See the License for the specific language governing permissions and\n// limitations under the License.\n\ncontract TokenRulesSpy {\n\n    /* Storage */\n\n    mapping (address => bool) public allowedTransfers;\n\n    address public recordedFrom;\n\n    address[] public recordedTransfersTo;\n    uint256 public recordedTransfersToLength;\n\n    uint256[] public recordedTransfersAmount;\n    uint256 public recordedTransfersAmountLength;\n\n\n    /* External Functions */\n\n    function allowTransfers()\n        external\n    {\n        allowedTransfers[msg.sender] = true;\n    }\n\n    function disallowTransfers()\n        external\n    {\n        allowedTransfers[msg.sender] = false;\n    }\n\n    function executeTransfers(\n        address _from,\n        address[] calldata _transfersTo,\n        uint256[] calldata _transfersAmount\n    )\n        external\n    {\n        recordedFrom = _from;\n\n        recordedTransfersTo = _transfersTo;\n        recordedTransfersToLength = _transfersTo.length;\n\n        recordedTransfersAmount = _transfersAmount;\n        recordedTransfersAmountLength = _transfersAmount.length;\n    }\n\n}\n",
  "sourcePath": "/Users/OST/Documents/dj/ost-opt-contracts/contracts/openst-contracts/contracts/test_doubles/unit_tests/TokenRulesSpy.sol",
  "compiler": {
    "name": "solc",
    "version": "0.5.16+commit.9c3226ce.Emscripten.clang"
  },
  "schemaVersion": "3.0.21",
  "updatedAt": "2020-01-19T09:48:26.143Z",
  "devdoc": {
    "methods": {}
  },
  "userdoc": {
    "methods": {}
  }
}