{
  "contractName": "TokenHolder",
  "abi": [
    {
      "anonymous": false,
      "inputs": [
        {
          "indexed": false,
          "internalType": "bytes32",
          "name": "_messageHash",
          "type": "bytes32"
        },
        {
          "indexed": false,
          "internalType": "bool",
          "name": "_status",
          "type": "bool"
        }
      ],
      "name": "RedemptionExecuted",
      "type": "event"
    },
    {
      "anonymous": false,
      "inputs": [
        {
          "indexed": false,
          "internalType": "bytes32",
          "name": "_messageHash",
          "type": "bytes32"
        },
        {
          "indexed": false,
          "internalType": "bool",
          "name": "_status",
          "type": "bool"
        }
      ],
      "name": "RuleExecuted",
      "type": "event"
    },
    {
      "anonymous": false,
      "inputs": [
        {
          "indexed": false,
          "internalType": "address",
          "name": "_sessionKey",
          "type": "address"
        }
      ],
      "name": "SessionAuthorized",
      "type": "event"
    },
    {
      "anonymous": false,
      "inputs": [
        {
          "indexed": false,
          "internalType": "address",
          "name": "_sessionKey",
          "type": "address"
        }
      ],
      "name": "SessionRevoked",
      "type": "event"
    },
    {
      "anonymous": false,
      "inputs": [
        {
          "indexed": false,
          "internalType": "uint256",
          "name": "_sessionWindow",
          "type": "uint256"
        }
      ],
      "name": "SessionsLoggedOut",
      "type": "event"
    },
    {
      "constant": true,
      "inputs": [],
      "name": "EXECUTE_REDEMPTION_CALLPREFIX",
      "outputs": [
        {
          "internalType": "bytes4",
          "name": "",
          "type": "bytes4"
        }
      ],
      "payable": false,
      "stateMutability": "view",
      "type": "function"
    },
    {
      "constant": true,
      "inputs": [],
      "name": "EXECUTE_RULE_CALLPREFIX",
      "outputs": [
        {
          "internalType": "bytes4",
          "name": "",
          "type": "bytes4"
        }
      ],
      "payable": false,
      "stateMutability": "view",
      "type": "function"
    },
    {
      "constant": true,
      "inputs": [],
      "name": "owner",
      "outputs": [
        {
          "internalType": "address",
          "name": "",
          "type": "address"
        }
      ],
      "payable": false,
      "stateMutability": "view",
      "type": "function"
    },
    {
      "constant": true,
      "inputs": [
        {
          "internalType": "address",
          "name": "",
          "type": "address"
        }
      ],
      "name": "sessionKeys",
      "outputs": [
        {
          "internalType": "uint256",
          "name": "spendingLimit",
          "type": "uint256"
        },
        {
          "internalType": "uint256",
          "name": "expirationHeight",
          "type": "uint256"
        },
        {
          "internalType": "uint256",
          "name": "nonce",
          "type": "uint256"
        },
        {
          "internalType": "uint256",
          "name": "session",
          "type": "uint256"
        }
      ],
      "payable": false,
      "stateMutability": "view",
      "type": "function"
    },
    {
      "constant": true,
      "inputs": [],
      "name": "sessionWindow",
      "outputs": [
        {
          "internalType": "uint256",
          "name": "",
          "type": "uint256"
        }
      ],
      "payable": false,
      "stateMutability": "view",
      "type": "function"
    },
    {
      "constant": true,
      "inputs": [],
      "name": "token",
      "outputs": [
        {
          "internalType": "contract EIP20TokenInterface",
          "name": "",
          "type": "address"
        }
      ],
      "payable": false,
      "stateMutability": "view",
      "type": "function"
    },
    {
      "constant": true,
      "inputs": [],
      "name": "tokenRules",
      "outputs": [
        {
          "internalType": "address",
          "name": "",
          "type": "address"
        }
      ],
      "payable": false,
      "stateMutability": "view",
      "type": "function"
    },
    {
      "constant": false,
      "inputs": [
        {
          "internalType": "contract EIP20TokenInterface",
          "name": "_token",
          "type": "address"
        },
        {
          "internalType": "address",
          "name": "_tokenRules",
          "type": "address"
        },
        {
          "internalType": "address",
          "name": "_owner",
          "type": "address"
        },
        {
          "internalType": "address[]",
          "name": "_sessionKeys",
          "type": "address[]"
        },
        {
          "internalType": "uint256[]",
          "name": "_sessionKeysSpendingLimits",
          "type": "uint256[]"
        },
        {
          "internalType": "uint256[]",
          "name": "_sessionKeysExpirationHeights",
          "type": "uint256[]"
        }
      ],
      "name": "setup",
      "outputs": [],
      "payable": false,
      "stateMutability": "nonpayable",
      "type": "function"
    },
    {
      "constant": false,
      "inputs": [
        {
          "internalType": "address",
          "name": "_sessionKey",
          "type": "address"
        },
        {
          "internalType": "uint256",
          "name": "_spendingLimit",
          "type": "uint256"
        },
        {
          "internalType": "uint256",
          "name": "_expirationHeight",
          "type": "uint256"
        }
      ],
      "name": "authorizeSession",
      "outputs": [],
      "payable": false,
      "stateMutability": "nonpayable",
      "type": "function"
    },
    {
      "constant": false,
      "inputs": [
        {
          "internalType": "address",
          "name": "_sessionKey",
          "type": "address"
        }
      ],
      "name": "revokeSession",
      "outputs": [],
      "payable": false,
      "stateMutability": "nonpayable",
      "type": "function"
    },
    {
      "constant": false,
      "inputs": [],
      "name": "logout",
      "outputs": [],
      "payable": false,
      "stateMutability": "nonpayable",
      "type": "function"
    },
    {
      "constant": false,
      "inputs": [
        {
          "internalType": "address",
          "name": "_to",
          "type": "address"
        },
        {
          "internalType": "bytes",
          "name": "_data",
          "type": "bytes"
        },
        {
          "internalType": "uint256",
          "name": "_nonce",
          "type": "uint256"
        },
        {
          "internalType": "bytes32",
          "name": "_r",
          "type": "bytes32"
        },
        {
          "internalType": "bytes32",
          "name": "_s",
          "type": "bytes32"
        },
        {
          "internalType": "uint8",
          "name": "_v",
          "type": "uint8"
        }
      ],
      "name": "executeRule",
      "outputs": [
        {
          "internalType": "bool",
          "name": "executionStatus_",
          "type": "bool"
        }
      ],
      "payable": true,
      "stateMutability": "payable",
      "type": "function"
    },
    {
      "constant": false,
      "inputs": [
        {
          "internalType": "address",
          "name": "_to",
          "type": "address"
        },
        {
          "internalType": "bytes",
          "name": "_data",
          "type": "bytes"
        },
        {
          "internalType": "uint256",
          "name": "_nonce",
          "type": "uint256"
        },
        {
          "internalType": "bytes32",
          "name": "_r",
          "type": "bytes32"
        },
        {
          "internalType": "bytes32",
          "name": "_s",
          "type": "bytes32"
        },
        {
          "internalType": "uint8",
          "name": "_v",
          "type": "uint8"
        }
      ],
      "name": "executeRedemption",
      "outputs": [
        {
          "internalType": "bool",
          "name": "executionStatus_",
          "type": "bool"
        }
      ],
      "payable": true,
      "stateMutability": "payable",
      "type": "function"
    }
  ],
  "bytecode": "0x608060405234801561001057600080fd5b506118eb806100206000396000f3fe6080604052600436106100c25760003560e01c806389aa2af01161007f5780639c144d5e116100595780639c144d5e14610450578063a2d2ff6814610465578063b7b8d6041461047a578063fc0c546a146104d3576100c2565b806389aa2af0146103655780638da5cb5b1461038c57806397ebe030146103bd576100c2565b8063028c979d146100c75780631f3c99c3146101085780631fa5d6a41461011d57806351491e0c146101505780635c0a60f91461018257806360c30e8f146102be575b600080fd5b3480156100d357600080fd5b50610106600480360360608110156100ea57600080fd5b506001600160a01b0381351690602081013590604001356104e8565b005b34801561011457600080fd5b50610106610557565b34801561012957600080fd5b506101066004803603602081101561014057600080fd5b50356001600160a01b0316610604565b34801561015c57600080fd5b50610165610727565b604080516001600160e01b03199092168252519081900360200190f35b34801561018e57600080fd5b50610106600480360360c08110156101a557600080fd5b6001600160a01b0382358116926020810135821692604082013590921691810190608081016060820135600160201b8111156101e057600080fd5b8201836020820111156101f257600080fd5b803590602001918460208302840111600160201b8311171561021357600080fd5b919390929091602081019035600160201b81111561023057600080fd5b82018360208201111561024257600080fd5b803590602001918460208302840111600160201b8311171561026357600080fd5b919390929091602081019035600160201b81111561028057600080fd5b82018360208201111561029257600080fd5b803590602001918460208302840111600160201b831117156102b357600080fd5b509092509050610742565b610351600480360360c08110156102d457600080fd5b6001600160a01b038235169190810190604081016020820135600160201b8111156102fe57600080fd5b82018360208201111561031057600080fd5b803590602001918460018302840111600160201b8311171561033157600080fd5b91935091508035906020810135906040810135906060013560ff166109e4565b604080519115158252519081900360200190f35b34801561037157600080fd5b5061037a610db3565b60408051918252519081900360200190f35b34801561039857600080fd5b506103a1610db9565b604080516001600160a01b039092168252519081900360200190f35b610351600480360360c08110156103d357600080fd5b6001600160a01b038235169190810190604081016020820135600160201b8111156103fd57600080fd5b82018360208201111561040f57600080fd5b803590602001918460018302840111600160201b8311171561043057600080fd5b91935091508035906020810135906040810135906060013560ff16610dc8565b34801561045c57600080fd5b506103a16111cf565b34801561047157600080fd5b506101656111de565b34801561048657600080fd5b506104ad6004803603602081101561049d57600080fd5b50356001600160a01b03166111f9565b604080519485526020850193909352838301919091526060830152519081900360800190f35b3480156104df57600080fd5b506103a1611222565b6005546001600160a01b03163314610547576040805162461bcd60e51b815260206004820152601e60248201527f4f6e6c79206f776e657220697320616c6c6f77656420746f2063616c6c2e0000604482015290519081900360640190fd5b610552838383611231565b505050565b6005546001600160a01b031633146105b6576040805162461bcd60e51b815260206004820152601e60248201527f4f6e6c79206f776e657220697320616c6c6f77656420746f2063616c6c2e0000604482015290519081900360640190fd5b60025460408051918252517f4fdc3ae5b88cfb88e6fd0018782bd67575d1f425d78385735194b2607f7eda739181900360200190a16002546105ff90600163ffffffff61139516565b600255565b6005546001600160a01b03163314610663576040805162461bcd60e51b815260206004820152601e60248201527f4f6e6c79206f776e657220697320616c6c6f77656420746f2063616c6c2e0000604482015290519081900360640190fd5b8060016001600160a01b03821660009081526003602081905260409091200154116106ce576040805162461bcd60e51b815260206004820152601660248201527525b2bc9034b9903737ba1030baba3437b934bd32b21760511b604482015290519081900360640190fd5b6001600160a01b0382166000818152600360208181526040928390206001920191909155815192835290517f2991ab7bfda4556c9e662762b3dfa89a1df391084c4278286d466c1c187e55239281900390910190a15050565b60405180603861180082396038019050604051809103902081565b6001546001600160a01b031615801561076457506005546001600160a01b0316155b801561077957506004546001600160a01b0316155b6107ca576040805162461bcd60e51b815260206004820181905260248201527f436f6e747261637420686173206265656e20616c72656164792073657475702e604482015290519081900360640190fd5b6001600160a01b038916610825576040805162461bcd60e51b815260206004820152601f60248201527f546f6b656e20636f6e74726163742061646472657373206973206e756c6c2e00604482015290519081900360640190fd5b6001600160a01b03881661086a5760405162461bcd60e51b81526004018080602001828103825260248152602001806118386024913960400191505060405180910390fd5b6001600160a01b0387166108be576040805162461bcd60e51b815260206004820152601660248201527527bbb732b91030b2323932b9b99034b990373ab6361760511b604482015290519081900360640190fd5b8483146108fc5760405162461bcd60e51b815260040180806020018281038252603e8152602001806116cf603e913960400191505060405180910390fd5b84811461093a5760405162461bcd60e51b81526004018080602001828103825260418152602001806116386041913960600191505060405180910390fd5b600180546001600160a01b03808c166001600160a01b031992831617909255600480548b841690831617905560058054928a16929091169190911790556002805560005b858110156109d8576109d087878381811061099557fe5b905060200201356001600160a01b03168686848181106109b157fe5b905060200201358585858181106109c457fe5b90506020020135611231565b60010161097e565b50505050505050505050565b600080600160009054906101000a90046001600160a01b03166001600160a01b03166384f48d6a6040518163ffffffff1660e01b815260040160206040518083038186803b158015610a3557600080fd5b505afa158015610a49573d6000803e3d6000fd5b505050506040513d6020811015610a5f57600080fd5b505190506001600160a01b0389811690821614610aad5760405162461bcd60e51b81526004018080602001828103825260268152602001806117766026913960400191505060405180910390fd5b600080610b0f6040518080611738603e9139603e01905060405180910390208c8c8c8080601f0160208091040260200160405190810160405280939291908181526020018383808284376000920191909152508e92508d91508c90508b6113ae565b91509150600060036000836001600160a01b03166001600160a01b031681526020019081526020016000209050600160009054906101000a90046001600160a01b03166001600160a01b031663095ea7b38d83600001546040518363ffffffff1660e01b815260040180836001600160a01b03166001600160a01b0316815260200182815260200192505050602060405180830381600087803b158015610bb557600080fd5b505af1158015610bc9573d6000803e3d6000fd5b505050506040513d6020811015610bdf57600080fd5b5051610c1c5760405162461bcd60e51b815260040180806020018281038252602c8152602001806117d4602c913960400191505060405180910390fd5b60608c6001600160a01b0316348d8d604051808383808284376040519201945060009350909150508083038185875af1925050503d8060008114610c7c576040519150601f19603f3d011682016040523d82523d6000602084013e610c81565b606091505b508092508197505050600160009054906101000a90046001600160a01b03166001600160a01b031663095ea7b38e60006040518363ffffffff1660e01b815260040180836001600160a01b03166001600160a01b0316815260200182815260200192505050602060405180830381600087803b158015610d0057600080fd5b505af1158015610d14573d6000803e3d6000fd5b505050506040513d6020811015610d2a57600080fd5b5051610d675760405162461bcd60e51b815260040180806020018281038252602b81526020018061170d602b913960400191505060405180910390fd5b60408051858152871515602082015281517f23a87d3083eafe50e6f601373e38cd7afe8a0725d15d3f8b097a83f03acdb064929181900390910190a15050505050979650505050505050565b60025481565b6005546001600160a01b031681565b6001546000906001600160a01b0389811691161415610e185760405162461bcd60e51b815260040180806020018281038252602681526020018061185c6026913960400191505060405180910390fd5b6001600160a01b038816301415610e605760405162461bcd60e51b815260040180806020018281038252602b815260200180611679602b913960400191505060405180910390fd5b600080610ec2604051808061180060389139603801905060405180910390208b8b8b8080601f0160208091040260200160405190810160405280939291908181526020018383808284376000920191909152508d92508c91508b90508a6113ae565b6001600160a01b03808216600090815260036020526040808220600480548351632185810b60e01b8152935197995095975090959490931693632185810b93828101939282900301818387803b158015610f1b57600080fd5b505af1158015610f2f573d6000803e3d6000fd5b50506001546004805485546040805163095ea7b360e01b81526001600160a01b03938416948101949094526024840191909152519216935063095ea7b392506044808201926020929091908290030181600087803b158015610f9057600080fd5b505af1158015610fa4573d6000803e3d6000fd5b505050506040513d6020811015610fba57600080fd5b5051610ff75760405162461bcd60e51b815260040180806020018281038252602b8152602001806116a4602b913960400191505060405180910390fd5b60608b6001600160a01b0316348c8c604051808383808284376040519201945060009350909150508083038185875af1925050503d8060008114611057576040519150601f19603f3d011682016040523d82523d6000602084013e61105c565b606091505b50600154600480546040805163095ea7b360e01b81526001600160a01b03928316938101939093526000602484018190529051959a509395509091169263095ea7b392604480840193602093929083900390910190829087803b1580156110c257600080fd5b505af11580156110d6573d6000803e3d6000fd5b505050506040513d60208110156110ec57600080fd5b50516111295760405162461bcd60e51b815260040180806020018281038252602a81526020018061160e602a913960400191505060405180910390fd5b600480546040805163212c815760e01b815290516001600160a01b039092169263212c815792828201926000929082900301818387803b15801561116c57600080fd5b505af1158015611180573d6000803e3d6000fd5b505060408051878152881515602082015281517f36cd2662860eb4ad66890c2d0ac0af9dde2f8927a7190e1eaed43ce9d43682b19450908190039091019150a150505050979650505050505050565b6004546001600160a01b031681565b60405180603e6117388239603e019050604051809103902081565b600360208190526000918252604090912080546001820154600283015492909301549092919084565b6001546001600160a01b031681565b826001600160a01b038116611284576040805162461bcd60e51b815260206004820152601460248201527325b2bc9030b2323932b9b99034b990373ab6361760611b604482015290519081900360640190fd5b8360006001600160a01b03821660009081526003602081905260409091200154146112e4576040805162461bcd60e51b815260206004820152600b60248201526a25b2bc9032bc34b9ba399760a91b604482015290519081900360640190fd5b4383116113225760405162461bcd60e51b81526004018080602001828103825260358152602001806118826035913960400191505060405180910390fd5b6001600160a01b0385166000818152600360208181526040808420898155600181018990556002808201959095559354928401929092558151938452905191927faaf20b4ab9461ac8240a308f4bae35956040be348d648df2aa88137418189887929081900390910190a1505050505050565b6000828201838110156113a757600080fd5b9392505050565b6000806113c48989898051906020012089611569565b915060018284878760405160008152602001604052604051808581526020018460ff1660ff1681526020018381526020018281526020019450505050506020604051602081039080840390855afa158015611423573d6000803e3d6000fd5b505060408051601f1901516001600160a01b0381166000908152600360208190529290206002549281015491945092501461148f5760405162461bcd60e51b815260040180806020018281038252603881526020018061179c6038913960400191505060405180910390fd5b438160010154116114e7576040805162461bcd60e51b815260206004820152601860248201527f53657373696f6e206b65792077617320657870697265642e0000000000000000604482015290519081900360640190fd5b8060020154871461153f576040805162461bcd60e51b815260206004820152601d60248201527f496e636f7272656374206e6f6e6365206973207370656369666965642e000000604482015290519081900360640190fd5b600281015461155590600163ffffffff61139516565b600290910155909890975095505050505050565b60408051601960f81b60208083019190915260006021830181905230606090811b60228501529690961b6bffffffffffffffffffffffff19166036830152604a8201869052604b820194909452606b810192909252608b8201849052608c8201849052608d82018490526001600160e01b031994909416608e820152609281018390526093808201939093528351808203909301835260b30190925280519101209056fe4661696c656420746f2072656d6f766520746f6b656e2072756c65732061732061207370656e6465722e53657373696f6e206b65797320616e642065787069726174696f6e206865696768747320617272617973206c656e677468732061726520646966666572656e742e27746f27206164647265737320697320546f6b656e486f6c646572206164647265737320697473656c662e4661696c656420746f20617070726f766520746f6b656e2072756c65732061732061207370656e6465722e53657373696f6e206b65797320616e64207370656e64696e67206c696d69747320617272617973206c656e677468732061726520646966666572656e742e4661696c656420746f2072656d6f7665206120636f2d676174657761792061732061207370656e6465722e65786563757465526564656d7074696f6e28616464726573732c62797465732c75696e743235362c627974657333322c627974657333322c75696e74382927746f272061646472657373206973206e6f7420636f4761746577617920616464726573732e4b657927732073657373696f6e206973206e6f7420657175616c20746f20636f6e747261637427732073657373696f6e2077696e646f772e4661696c656420746f20617070726f7665206120636f2d676174657761792061732061207370656e6465722e6578656375746552756c6528616464726573732c62797465732c75696e743235362c627974657333322c627974657333322c75696e743829546f6b656e52756c657320636f6e74726163742061646472657373206973206e756c6c2e27746f272061646472657373206973207574696c69747920746f6b656e20616464726573732e45787069726174696f6e20686569676874206973206c746520746f207468652063757272656e7420626c6f636b206865696768742ea265627a7a723158205d4de5484f9c0c59af99d13297651b774c5b64d5e35d4a4e60e2d4b4172dde2764736f6c63430005100032",
  "source": "pragma solidity ^0.5.0;\n\n// Copyright 2019 OpenST Ltd.\n//\n// Licensed under the Apache License, Version 2.0 (the \"License\");\n// you may not use this file except in compliance with the License.\n// You may obtain a copy of the License at\n//\n//    http://www.apache.org/licenses/LICENSE-2.0\n//\n// Unless required by applicable law or agreed to in writing, software\n// distributed under the License is distributed on an \"AS IS\" BASIS,\n// WITHOUT WARRANTIES OR CONDITIONS OF ANY KIND, either express or implied.\n// See the License for the specific language governing permissions and\n// limitations under the License.\n\nimport \"./EIP20TokenInterface.sol\";\nimport \"../proxies/MasterCopyNonUpgradable.sol\";\nimport \"openzeppelin-solidity/contracts/math/SafeMath.sol\";\nimport \"./TokenRules.sol\";\nimport \"./UtilityTokenRequiredInterface.sol\";\n\n/**\n * @title TokenHolder contract.\n *\n * @notice Implements executable transactions (EIP-1077) for users to interact\n *         with token rules. It enables users to authorise sessions for\n *         session keys that dapps and mainstream applications can use to\n *         generate token events on-chain.\n */\ncontract TokenHolder is MasterCopyNonUpgradable\n{\n\n    /* Usings */\n\n    using SafeMath for uint256;\n\n\n    /* Events */\n\n    event SessionAuthorized(\n        address _sessionKey\n    );\n\n    event SessionRevoked(\n        address _sessionKey\n    );\n\n    event SessionsLoggedOut(\n        uint256 _sessionWindow\n    );\n\n    /**\n     * @param _messageHash Executed rule message hash according to EIP-1077.\n     * @param _status Rule execution's status.\n     */\n    event RuleExecuted(\n        bytes32 _messageHash,\n        bool _status\n    );\n\n    /**\n     * @param _messageHash Executed redemption request message hash according\n     *                 to EIP-1077.\n     * @param _status Redemption execution's status.\n     */\n    event RedemptionExecuted(\n        bytes32 _messageHash,\n        bool _status\n    );\n\n\n    /* Enums */\n\n    enum AuthorizationStatus {\n        NOT_AUTHORIZED,\n        REVOKED\n    }\n\n\n    /* Structs */\n\n    /** expirationHeight is the block number at which sessionKey expires. */\n    struct SessionKeyData {\n        uint256 spendingLimit;\n        uint256 expirationHeight;\n        uint256 nonce;\n        uint256 session;\n    }\n\n\n    /* Constants */\n\n    bytes4 public constant EXECUTE_RULE_CALLPREFIX = bytes4(\n        keccak256(\n            \"executeRule(address,bytes,uint256,bytes32,bytes32,uint8)\"\n        )\n    );\n\n    bytes4 public constant EXECUTE_REDEMPTION_CALLPREFIX = bytes4(\n        keccak256(\n            \"executeRedemption(address,bytes,uint256,bytes32,bytes32,uint8)\"\n        )\n    );\n\n\n    /* Storage */\n\n    EIP20TokenInterface public token;\n\n    uint256 public sessionWindow;\n\n    mapping(address /* key */ => SessionKeyData) public sessionKeys;\n\n    address public tokenRules;\n\n    address public owner;\n\n\n    /* Modifiers */\n\n    modifier onlyOwner()\n    {\n        require(msg.sender == owner, \"Only owner is allowed to call.\");\n\n        _;\n    }\n\n    modifier keyIsNotNull(address _key)\n    {\n        require(_key != address(0), \"Key address is null.\");\n        _;\n    }\n\n    /** Requires that key is in authorized state. */\n    modifier keyIsAuthorized(address _key)\n    {\n        require(\n            sessionKeys[_key].session > uint256(AuthorizationStatus.REVOKED),\n            \"Key is not authorized.\"\n        );\n        _;\n    }\n\n    /** Requires that key was not authorized. */\n    modifier keyDoesNotExist(address _key)\n    {\n        require(\n            sessionKeys[_key].session == uint256(\n                AuthorizationStatus.NOT_AUTHORIZED\n            ),\n            \"Key exists.\"\n        );\n        _;\n    }\n\n\n    /* External Functions */\n\n    /**\n     * @notice Setups an already deployed contract.\n     *\n     * @dev The function acts as a \"constructor\" to the contract and initializes\n     *      the proxy's storage layout.\n     *\n     *      Function requires:\n     *          - It can be called only once for this contract.\n     *          - Token address is not null.\n     *          - Token rules address is not null.\n     *          - Owner address is not null.\n     *          - Session key addresses, spending limits and expiration height\n     *            arrays lengths are equal.\n     *\n     * @param _token EIP20 token contract address deployed for an economy.\n     * @param _tokenRules Token rules contract address.\n     * @param _owner The contract's owner address.\n     * @param _sessionKeys Session key addresses to authorize.\n     * @param _sessionKeysSpendingLimits Session keys' spending limits.\n     * @param _sessionKeysExpirationHeights Session keys' expiration heights.\n     */\n    function setup(\n        EIP20TokenInterface _token,\n        address _tokenRules,\n        address _owner,\n        address[] calldata _sessionKeys,\n        uint256[] calldata _sessionKeysSpendingLimits,\n        uint256[] calldata _sessionKeysExpirationHeights\n    )\n        external\n    {\n        // Assures that function can be called only once.\n        require(\n            address(token) == address(0) &&\n            address(owner) == address(0) &&\n            address(tokenRules) == address(0),\n            \"Contract has been already setup.\"\n        );\n\n        require(\n            address(_token) != address(0),\n            \"Token contract address is null.\"\n        );\n        require(\n            _tokenRules != address(0),\n            \"TokenRules contract address is null.\"\n        );\n        require(\n            _owner != address(0),\n            \"Owner address is null.\"\n        );\n\n        require(\n            _sessionKeys.length == _sessionKeysSpendingLimits.length,\n            \"Session keys and spending limits arrays lengths are different.\"\n        );\n\n        require(\n            _sessionKeys.length == _sessionKeysExpirationHeights.length,\n            \"Session keys and expiration heights arrays lengths are different.\"\n        );\n\n        token = _token;\n        tokenRules = _tokenRules;\n        owner = _owner;\n\n        sessionWindow = 2;\n\n        for (uint256 i = 0; i < _sessionKeys.length; ++i) {\n            _authorizeSession(\n                _sessionKeys[i],\n                _sessionKeysSpendingLimits[i],\n                _sessionKeysExpirationHeights[i]\n            );\n        }\n    }\n\n    /**\n     * @notice Authorizes a session.\n     *\n     * @dev Function requires:\n     *          - Only owner address can call.\n     *          - The key is not null.\n     *          - The key does not exist.\n     *          - Expiration height is bigger than the current block height.\n     *\n     * @param _sessionKey Session key address to authorize.\n     * @param _spendingLimit Spending limit of the session key.\n     * @param _expirationHeight Expiration height of the session key.\n     */\n    function authorizeSession(\n        address _sessionKey,\n        uint256 _spendingLimit,\n        uint256 _expirationHeight\n    )\n        external\n        onlyOwner\n    {\n        _authorizeSession(_sessionKey, _spendingLimit, _expirationHeight);\n    }\n\n    /**\n     * @notice Revokes session for the specified session key.\n     *\n     * @dev Function revokes the key even if it has expired.\n     *      Function requires:\n     *          - Only owner can call.\n     *          - The key is authorized.\n     *\n     * @param _sessionKey Session key to revoke.\n     */\n    function revokeSession(address _sessionKey)\n        external\n        onlyOwner\n        keyIsAuthorized(_sessionKey)\n    {\n        sessionKeys[_sessionKey].session = uint256(AuthorizationStatus.REVOKED);\n\n        emit SessionRevoked(_sessionKey);\n    }\n\n    /**\n     * @notice Logout all authorized sessions.\n     *\n     * @dev Function requires:\n     *          - Only owner is allowed to call.\n     */\n    function logout()\n        external\n        onlyOwner\n    {\n        emit SessionsLoggedOut(sessionWindow);\n\n        sessionWindow = sessionWindow.add(1);\n    }\n\n    /**\n     * @notice Evaluates executable transaction signed by a session key.\n     *\n     * @dev As a first step, function validates executable transaction by\n     *      checking that the specified signature matches one of the\n     *      authorized (non-expired) session keys.\n     *\n     *      On success, function executes transaction by calling:\n     *          _to.call(_data);\n     *\n     *      Before execution, it approves the tokenRules as a spender\n     *      for sessionKey.spendingLimit amount. This allowance is cleared\n     *      after execution.\n     *\n     *      Function requires:\n     *          - _to address cannot be EIP20 Token.\n     *          - key used to sign data is authorized and have not expired.\n     *          - nonce is equal to the stored nonce value.\n     *\n     * @param _to The target contract address the transaction will be executed\n     *            upon.\n     * @param _data The payload of a function to be executed in the target\n     *              contract.\n     * @param _nonce The nonce of an session key that was used to sign\n     *               the transaction.\n     *\n     * @return executeStatus_ True in case of successfull execution of the\n     *                        executable transaction, otherwise, false.\n     */\n    function executeRule(\n        address _to,\n        bytes calldata _data,\n        uint256 _nonce,\n        bytes32 _r,\n        bytes32 _s,\n        uint8 _v\n    )\n        external\n        payable\n        returns (bool executionStatus_)\n    {\n        require(\n            _to != address(token),\n            \"'to' address is utility token address.\"\n        );\n\n        require(\n            _to != address(this),\n            \"'to' address is TokenHolder address itself.\"\n        );\n\n        (bytes32 messageHash, address sessionKey) = verifyExecutableTransaction(\n            EXECUTE_RULE_CALLPREFIX,\n            _to,\n            _data,\n            _nonce,\n            _r,\n            _s,\n            _v\n        );\n\n        SessionKeyData storage sessionKeyData = sessionKeys[sessionKey];\n\n        TokenRules(tokenRules).allowTransfers();\n\n        require(\n            token.approve(\n                tokenRules,\n                sessionKeyData.spendingLimit\n            ),\n            \"Failed to approve token rules as a spender.\"\n        );\n\n        bytes memory returnData;\n        // solium-disable-next-line security/no-call-value\n        (executionStatus_, returnData) = _to.call.value(msg.value)(_data);\n\n        require(\n            token.approve(tokenRules, 0),\n            \"Failed to remove token rules as a spender.\"\n        );\n\n\n        TokenRules(tokenRules).disallowTransfers();\n\n        emit RuleExecuted(\n            messageHash,\n            executionStatus_\n        );\n    }\n\n    function executeRedemption(\n        address _to,\n        bytes calldata _data,\n        uint256 _nonce,\n        bytes32 _r,\n        bytes32 _s,\n        uint8 _v\n    )\n        external\n        payable\n        returns (bool executionStatus_)\n    {\n        address coGateway = UtilityTokenRequiredInterface(\n            address(token)\n        ).coGateway();\n\n        require(_to == coGateway,\"'to' address is not coGateway address.\");\n\n        (bytes32 messageHash, address sessionKey) = verifyExecutableTransaction(\n            EXECUTE_REDEMPTION_CALLPREFIX,\n            _to,\n            _data,\n            _nonce,\n            _r,\n            _s,\n            _v\n        );\n\n        SessionKeyData storage sessionKeyData = sessionKeys[sessionKey];\n\n        require(\n            token.approve(_to, sessionKeyData.spendingLimit),\n            \"Failed to approve a co-gateway as a spender.\"\n        );\n\n        bytes memory returnData;\n        // solium-disable-next-line security/no-call-value\n        (executionStatus_, returnData) = _to.call.value(msg.value)(_data);\n\n        require(\n            token.approve(_to, 0),\n            \"Failed to remove a co-gateway as a spender.\"\n        );\n\n        emit RedemptionExecuted(\n            messageHash,\n            executionStatus_\n        );\n    }\n\n\n    /* Private Functions */\n\n    function _authorizeSession(\n        address _sessionKey,\n        uint256 _spendingLimit,\n        uint256 _expirationHeight\n    )\n        private\n        keyIsNotNull(_sessionKey)\n        keyDoesNotExist(_sessionKey)\n    {\n        require(\n            _expirationHeight > block.number,\n            \"Expiration height is lte to the current block height.\"\n        );\n\n        SessionKeyData storage keyData = sessionKeys[_sessionKey];\n\n        keyData.spendingLimit = _spendingLimit;\n        keyData.expirationHeight = _expirationHeight;\n        keyData.nonce = 0;\n        keyData.session = sessionWindow;\n\n        emit SessionAuthorized(_sessionKey);\n    }\n\n    function verifyExecutableTransaction(\n        bytes4 _callPrefix,\n        address _to,\n        bytes memory _data,\n        uint256 _nonce,\n        bytes32 _r,\n        bytes32 _s,\n        uint8 _v\n    )\n        private\n        returns (bytes32 messageHash_, address key_)\n    {\n        messageHash_ = getMessageHash(\n            _callPrefix,\n            _to,\n            keccak256(_data),\n            _nonce\n        );\n\n        key_ = ecrecover(messageHash_, _v, _r, _s);\n\n        SessionKeyData storage keyData = sessionKeys[key_];\n\n        // The following checks appears here and not higher in the stack,\n        // as session key is only retrieved here, after calculation\n        // of message hash according EIP-1077 and retriving the key\n        // from the signature (_r, _s, _v).\n        require(\n            keyData.session == sessionWindow,\n            \"Key's session is not equal to contract's session window.\"\n        );\n\n        require(\n            keyData.expirationHeight > block.number,\n            \"Session key was expired.\"\n        );\n\n        require(\n            _nonce == keyData.nonce,\n            \"Incorrect nonce is specified.\"\n        );\n\n        keyData.nonce = keyData.nonce.add(1);\n    }\n\n    /**\n     * @notice The hashed message format is compliant with EIP-1077.\n     *\n     * @dev EIP-1077 enables user to sign messages to show intent of execution,\n     *      but allows a third party relayer to execute them.\n     *      https://github.com/ethereum/EIPs/blob/master/EIPS/eip-1077.md\n     */\n    function getMessageHash(\n        bytes4 _callPrefix,\n        address _to,\n        bytes32 _dataHash,\n        uint256 _nonce\n    )\n        private\n        view\n        returns (bytes32 messageHash_)\n    {\n        messageHash_ = keccak256(\n            abi.encodePacked(\n                byte(0x19), // Starting a transaction with byte(0x19) ensure\n                            // the signed data from being a valid ethereum\n                            // transaction.\n                byte(0), // The version control byte.\n                address(this), // The from field will always be the contract\n                               // executing the code.\n                _to,\n                uint8(0), // The amount in ether to be sent.\n                _dataHash,\n                _nonce,\n                uint8(0), // gasPrice\n                uint8(0), // gasLimit\n                uint8(0), // gasToken\n                _callPrefix, // 4 byte standard call prefix of the\n                             // function to be called in the 'from' contract.\n                             // This guarantees that signed message can\n                             // be only executed in a single instance.\n                uint8(0), // 0 for a standard call, 1 for a DelegateCall and 2\n                          // for a create opcode\n                bytes32(0) // extraHash is always hashed at the end. This is\n                           // done to increase future compatibility of the\n                           // standard.\n            )\n        );\n    }\n}\n",
  "sourcePath": "/Users/OST/Documents/dj/ost-opt-contracts/contracts/openst-contracts/contracts/token/TokenHolder.sol",
  "compiler": {
    "name": "solc",
    "version": "0.5.16+commit.9c3226ce.Emscripten.clang"
  },
  "schemaVersion": "3.0.21",
  "updatedAt": "2020-01-19T09:48:26.155Z",
  "devdoc": {
    "methods": {
      "authorizeSession(address,uint256,uint256)": {
        "details": "Function requires:         - Only owner address can call.         - The key is not null.         - The key does not exist.         - Expiration height is bigger than the current block height.",
        "params": {
          "_expirationHeight": "Expiration height of the session key.",
          "_sessionKey": "Session key address to authorize.",
          "_spendingLimit": "Spending limit of the session key."
        }
      },
      "executeRule(address,bytes,uint256,bytes32,bytes32,uint8)": {
        "details": "As a first step, function validates executable transaction by     checking that the specified signature matches one of the     authorized (non-expired) session keys.     *      On success, function executes transaction by calling:         _to.call(_data);     *      Before execution, it approves the tokenRules as a spender     for sessionKey.spendingLimit amount. This allowance is cleared     after execution.     *      Function requires:         - _to address cannot be EIP20 Token.         - key used to sign data is authorized and have not expired.         - nonce is equal to the stored nonce value.",
        "params": {
          "_data": "The payload of a function to be executed in the target             contract.",
          "_nonce": "The nonce of an session key that was used to sign              the transaction.",
          "_to": "The target contract address the transaction will be executed           upon."
        },
        "return": "executeStatus_ True in case of successfull execution of the                       executable transaction, otherwise, false."
      },
      "logout()": {
        "details": "Function requires:         - Only owner is allowed to call."
      },
      "revokeSession(address)": {
        "details": "Function revokes the key even if it has expired.     Function requires:         - Only owner can call.         - The key is authorized.",
        "params": {
          "_sessionKey": "Session key to revoke."
        }
      },
      "setup(address,address,address,address[],uint256[],uint256[])": {
        "details": "The function acts as a \"constructor\" to the contract and initializes     the proxy's storage layout.     *      Function requires:         - It can be called only once for this contract.         - Token address is not null.         - Token rules address is not null.         - Owner address is not null.         - Session key addresses, spending limits and expiration height           arrays lengths are equal.",
        "params": {
          "_owner": "The contract's owner address.",
          "_sessionKeys": "Session key addresses to authorize.",
          "_sessionKeysExpirationHeights": "Session keys' expiration heights.",
          "_sessionKeysSpendingLimits": "Session keys' spending limits.",
          "_token": "EIP20 token contract address deployed for an economy.",
          "_tokenRules": "Token rules contract address."
        }
      }
    },
    "title": "TokenHolder contract."
  },
  "userdoc": {
    "methods": {
      "authorizeSession(address,uint256,uint256)": {
        "notice": "Authorizes a session."
      },
      "executeRule(address,bytes,uint256,bytes32,bytes32,uint8)": {
        "notice": "Evaluates executable transaction signed by a session key."
      },
      "logout()": {
        "notice": "Logout all authorized sessions."
      },
      "revokeSession(address)": {
        "notice": "Revokes session for the specified session key."
      },
      "setup(address,address,address,address[],uint256[],uint256[])": {
        "notice": "Setups an already deployed contract."
      }
    },
    "notice": "Implements executable transactions (EIP-1077) for users to interact        with token rules. It enables users to authorise sessions for        session keys that dapps and mainstream applications can use to        generate token events on-chain."
  }
}