{
  "contractName": "UserWalletFactory",
  "abi": [
    {
      "anonymous": false,
      "inputs": [
        {
          "indexed": false,
          "internalType": "contract Proxy",
          "name": "_gnosisSafeProxy",
          "type": "address"
        },
        {
          "indexed": false,
          "internalType": "contract Proxy",
          "name": "_tokenHolderProxy",
          "type": "address"
        }
      ],
      "name": "UserWalletCreated",
      "type": "event"
    },
    {
      "constant": true,
      "inputs": [],
      "name": "TOKENHOLDER_SETUP_CALLPREFIX",
      "outputs": [
        {
          "internalType": "bytes4",
          "name": "",
          "type": "bytes4"
        }
      ],
      "payable": false,
      "stateMutability": "view",
      "type": "function"
    },
    {
      "constant": false,
      "inputs": [
        {
          "internalType": "address",
          "name": "_gnosisSafeMasterCopy",
          "type": "address"
        },
        {
          "internalType": "bytes",
          "name": "_gnosisSafeData",
          "type": "bytes"
        },
        {
          "internalType": "address",
          "name": "_tokenHolderMasterCopy",
          "type": "address"
        },
        {
          "internalType": "address",
          "name": "_token",
          "type": "address"
        },
        {
          "internalType": "address",
          "name": "_tokenRules",
          "type": "address"
        },
        {
          "internalType": "address[]",
          "name": "_sessionKeys",
          "type": "address[]"
        },
        {
          "internalType": "uint256[]",
          "name": "_sessionKeysSpendingLimits",
          "type": "uint256[]"
        },
        {
          "internalType": "uint256[]",
          "name": "_sessionKeysExpirationHeights",
          "type": "uint256[]"
        }
      ],
      "name": "createUserWallet",
      "outputs": [
        {
          "internalType": "contract Proxy",
          "name": "gnosisSafeProxy_",
          "type": "address"
        },
        {
          "internalType": "contract Proxy",
          "name": "tokenHolderProxy_",
          "type": "address"
        }
      ],
      "payable": false,
      "stateMutability": "nonpayable",
      "type": "function"
    }
  ],
  "bytecode": "0x608060405234801561001057600080fd5b506106aa806100206000396000f3fe608060405234801561001057600080fd5b50600436106100365760003560e01c8063d94c25291461003b578063f6b48b13146101f0575b600080fd5b6101ca600480360361010081101561005257600080fd5b6001600160a01b038235169190810190604081016020820135600160201b81111561007c57600080fd5b82018360208201111561008e57600080fd5b803590602001918460018302840111600160201b831117156100af57600080fd5b919390926001600160a01b038335811693602081013582169360408201359092169290608081019060600135600160201b8111156100ec57600080fd5b8201836020820111156100fe57600080fd5b803590602001918460208302840111600160201b8311171561011f57600080fd5b919390929091602081019035600160201b81111561013c57600080fd5b82018360208201111561014e57600080fd5b803590602001918460208302840111600160201b8311171561016f57600080fd5b919390929091602081019035600160201b81111561018c57600080fd5b82018360208201111561019e57600080fd5b803590602001918460208302840111600160201b831117156101bf57600080fd5b509092509050610215565b604080516001600160a01b03938416815291909216602082015281519081900390910190f35b6101f8610471565b604080516001600160e01b03199092168252519081900360200190f35b6000808d604051610225906104b2565b6001600160a01b03909116815260405190819003602001906000f080158015610252573d6000803e3d6000fd5b509150610295828e8e8080601f01602080910402602001604051908101604052809392919081815260200183838082843760009201919091525061048c92505050565b8a6040516102a2906104b2565b6001600160a01b03909116815260405190819003602001906000f0801580156102cf573d6000803e3d6000fd5b5090506060604051808061063a603c9139603c01905060405180910390208b8b858c8c8c8c8c8c604051602401808a6001600160a01b03166001600160a01b03168152602001896001600160a01b03166001600160a01b03168152602001886001600160a01b03166001600160a01b0316815260200180602001806020018060200184810384528a8a82818152602001925060200280828437600083820152601f01601f19169091018581038452888152602090810191508990890280828437600083820152601f01601f19169091018581038352868152602090810191508790870280828437600081840152601f19601f8201169050808301925050509c50505050505050505050505050604051602081830303815290604052906001600160e01b0319166020820180516001600160e01b038381831617835250505050905061041a828261048c565b604080516001600160a01b0380861682528416602082015281517f3760dde36ca0d14503ddc7d9cf7b88cc01aa497561b9a3c2bc94bb77812c8cf7929181900390910190a1509c509c9a5050505050505050505050565b60405180603c61063a8239603c019050604051809103902081565b8051156104ae5760008060008351602085016000875af114156104ae57600080fd5b5050565b61017a806104c08339019056fe608060405234801561001057600080fd5b5060405161017a38038061017a8339818101604052602081101561003357600080fd5b50516001600160a01b038116610090576040805162461bcd60e51b815260206004820152601c60248201527f4d617374657220636f70792061646472657373206973206e756c6c2e00000000604482015290519081900360640190fd5b600080546001600160a01b039092166001600160a01b031990921691909117905560bb806100bf6000396000f3fe608060405260043610601c5760003560e01c8063a619486e146049575b6001600160a01b03600054163660008037600080366000845af43d6000803e806044573d6000fd5b3d6000f35b348015605457600080fd5b50605b6077565b604080516001600160a01b039092168252519081900360200190f35b6000546001600160a01b03168156fea265627a7a723158201ea608687391c03804c66c93753f0afed2559773272c0221615d53769d91fe7c64736f6c63430005100032736574757028616464726573732c616464726573732c616464726573732c616464726573735b5d2c75696e743235365b5d2c75696e743235365b5d29a265627a7a723158205d86a84c448bef86826546fbe4815898b04a586cb15b58f36e76747f65e28d9c64736f6c63430005100032",
  "source": "pragma solidity ^0.5.0;\n\n// Copyright 2019 OpenST Ltd.\n//\n// Licensed under the Apache License, Version 2.0 (the \"License\");\n// you may not use this file except in compliance with the License.\n// You may obtain a copy of the License at\n//\n//    http://www.apache.org/licenses/LICENSE-2.0\n//\n// Unless required by applicable law or agreed to in writing, software\n// distributed under the License is distributed on an \"AS IS\" BASIS,\n// WITHOUT WARRANTIES OR CONDITIONS OF ANY KIND, either express or implied.\n// See the License for the specific language governing permissions and\n// limitations under the License.\n\nimport \"./Proxy.sol\";\n\n\n/**\n * @title Allows to create a new gnosis safe proxy and executes a\n *        message call to the newly created proxy. Afterwards, in the same\n *        transaction, creates a new token holder proxy by specifying\n *        as an owner the newly created gnosis safe proxy contract.\n */\ncontract UserWalletFactory {\n\n    /* Events */\n\n    /**\n     * @notice The event is emitted the from UserWalletFactory::createUserWallet\n     *         function on success.\n     *\n     * @param _gnosisSafeProxy A newly created gnosis safe's proxy.\n     * @param _tokenHolderProxy A newly created token holder's proxy.\n     */\n    event UserWalletCreated(\n        Proxy _gnosisSafeProxy,\n        Proxy _tokenHolderProxy\n    );\n\n\n    /* Constants */\n\n    /** The callprefix of the TokenHolder::setup function. */\n    bytes4 public constant TOKENHOLDER_SETUP_CALLPREFIX = bytes4(\n        keccak256(\n            \"setup(address,address,address,address[],uint256[],uint256[])\"\n        )\n    );\n\n\n    /* External Functions  */\n\n    /**\n    * @notice Create a new gnosis safe proxy and executes a\n    *         message call to the newly created proxy. Afterwards, in the same\n    *         transaction, creates a new token holder proxy by specifying\n    *         as an owner the newly created gnosis safe proxy contract.\n    *\n    * @param _gnosisSafeMasterCopy The address of a master copy of gnosis safe.\n    * @param _gnosisSafeData The message data to be called on a newly created\n    *                        gnosis safe proxy.\n    * @param _tokenHolderMasterCopy The address of a master copy of token\n    *                               holder.\n    * @param _token The address of the economy token.\n    * @param _tokenRules The address of the token rules.\n    * @param _sessionKeys Session key addresses to authorize.\n    * @param _sessionKeysSpendingLimits Session keys' spending limits.\n    * @param _sessionKeysExpirationHeights Session keys' expiration heights.\n    *\n    * @return gnosisSafeProxy_ A newly created gnosis safe's proxy address.\n    * @return tokenHolderProxy_ A newly created token holder's proxy address.\n    */\n    function createUserWallet(\n        address _gnosisSafeMasterCopy,\n        bytes calldata _gnosisSafeData,\n        address _tokenHolderMasterCopy,\n        address _token,\n        address _tokenRules,\n        address[] calldata _sessionKeys,\n        uint256[] calldata _sessionKeysSpendingLimits,\n        uint256[] calldata _sessionKeysExpirationHeights\n    )\n        external\n        returns (Proxy gnosisSafeProxy_, Proxy tokenHolderProxy_)\n    {\n        gnosisSafeProxy_ = new Proxy(_gnosisSafeMasterCopy);\n        callProxyData(gnosisSafeProxy_, _gnosisSafeData);\n\n        tokenHolderProxy_ = new Proxy(_tokenHolderMasterCopy);\n\n        bytes memory tokenHolderData = abi.encodeWithSelector(\n            TOKENHOLDER_SETUP_CALLPREFIX,\n            _token,\n            _tokenRules,\n            gnosisSafeProxy_,\n            _sessionKeys,\n            _sessionKeysSpendingLimits,\n            _sessionKeysExpirationHeights\n        );\n        callProxyData(tokenHolderProxy_, tokenHolderData);\n\n        emit UserWalletCreated(gnosisSafeProxy_, tokenHolderProxy_);\n    }\n\n\n    /* Private Functions */\n\n    function callProxyData(\n        Proxy _proxy,\n        bytes memory _data\n    )\n        private\n    {\n        if (_data.length > 0) {\n            // solium-disable-next-line security/no-inline-assembly\n            assembly {\n                if eq(call(gas, _proxy, 0, add(_data, 0x20), mload(_data), 0, 0), 0) {\n                    revert(0, 0)\n                }\n            }\n        }\n    }\n}\n",
  "sourcePath": "/Users/OST/Documents/dj/ost-opt-contracts/contracts/openst-contracts/contracts/proxies/UserWalletFactory.sol",
  "compiler": {
    "name": "solc",
    "version": "0.5.16+commit.9c3226ce.Emscripten.clang"
  },
  "schemaVersion": "3.0.21",
  "updatedAt": "2020-01-24T12:21:06.950Z",
  "devdoc": {
    "methods": {
      "createUserWallet(address,bytes,address,address,address,address[],uint256[],uint256[])": {
        "params": {
          "_gnosisSafeData": "The message data to be called on a newly created                       gnosis safe proxy.",
          "_gnosisSafeMasterCopy": "The address of a master copy of gnosis safe.",
          "_sessionKeys": "Session key addresses to authorize.",
          "_sessionKeysExpirationHeights": "Session keys' expiration heights.",
          "_sessionKeysSpendingLimits": "Session keys' spending limits.",
          "_token": "The address of the economy token.",
          "_tokenHolderMasterCopy": "The address of a master copy of token                              holder.",
          "_tokenRules": "The address of the token rules."
        },
        "return": "gnosisSafeProxy_ A newly created gnosis safe's proxy address.tokenHolderProxy_ A newly created token holder's proxy address."
      }
    },
    "title": "Allows to create a new gnosis safe proxy and executes a       message call to the newly created proxy. Afterwards, in the same       transaction, creates a new token holder proxy by specifying       as an owner the newly created gnosis safe proxy contract."
  },
  "userdoc": {
    "methods": {
      "createUserWallet(address,bytes,address,address,address,address[],uint256[],uint256[])": {
        "notice": "Create a new gnosis safe proxy and executes a        message call to the newly created proxy. Afterwards, in the same        transaction, creates a new token holder proxy by specifying        as an owner the newly created gnosis safe proxy contract."
      }
    }
  }
}