{
  "contractName": "UtilityBrandedToken",
  "abi": [
    {
      "inputs": [
        {
          "internalType": "address",
          "name": "_token",
          "type": "address"
        },
        {
          "internalType": "string",
          "name": "_symbol",
          "type": "string"
        },
        {
          "internalType": "string",
          "name": "_name",
          "type": "string"
        },
        {
          "internalType": "uint8",
          "name": "_decimals",
          "type": "uint8"
        },
        {
          "internalType": "contract OrganizationInterface",
          "name": "_organization",
          "type": "address"
        }
      ],
      "payable": false,
      "stateMutability": "nonpayable",
      "type": "constructor"
    },
    {
      "anonymous": false,
      "inputs": [
        {
          "indexed": true,
          "internalType": "address",
          "name": "_owner",
          "type": "address"
        },
        {
          "indexed": true,
          "internalType": "address",
          "name": "_spender",
          "type": "address"
        },
        {
          "indexed": false,
          "internalType": "uint256",
          "name": "_value",
          "type": "uint256"
        }
      ],
      "name": "Approval",
      "type": "event"
    },
    {
      "anonymous": false,
      "inputs": [
        {
          "indexed": false,
          "internalType": "address",
          "name": "_coGateway",
          "type": "address"
        }
      ],
      "name": "CoGatewaySet",
      "type": "event"
    },
    {
      "anonymous": false,
      "inputs": [
        {
          "indexed": false,
          "internalType": "address",
          "name": "_actor",
          "type": "address"
        }
      ],
      "name": "InternalActorRegistered",
      "type": "event"
    },
    {
      "anonymous": false,
      "inputs": [
        {
          "indexed": true,
          "internalType": "address",
          "name": "_from",
          "type": "address"
        },
        {
          "indexed": true,
          "internalType": "address",
          "name": "_to",
          "type": "address"
        },
        {
          "indexed": false,
          "internalType": "uint256",
          "name": "_value",
          "type": "uint256"
        }
      ],
      "name": "Transfer",
      "type": "event"
    },
    {
      "constant": true,
      "inputs": [
        {
          "internalType": "address",
          "name": "_owner",
          "type": "address"
        },
        {
          "internalType": "address",
          "name": "_spender",
          "type": "address"
        }
      ],
      "name": "allowance",
      "outputs": [
        {
          "internalType": "uint256",
          "name": "allowance_",
          "type": "uint256"
        }
      ],
      "payable": false,
      "stateMutability": "view",
      "type": "function"
    },
    {
      "constant": false,
      "inputs": [
        {
          "internalType": "address",
          "name": "_spender",
          "type": "address"
        },
        {
          "internalType": "uint256",
          "name": "_value",
          "type": "uint256"
        }
      ],
      "name": "approve",
      "outputs": [
        {
          "internalType": "bool",
          "name": "success_",
          "type": "bool"
        }
      ],
      "payable": false,
      "stateMutability": "nonpayable",
      "type": "function"
    },
    {
      "constant": true,
      "inputs": [
        {
          "internalType": "address",
          "name": "_owner",
          "type": "address"
        }
      ],
      "name": "balanceOf",
      "outputs": [
        {
          "internalType": "uint256",
          "name": "balance_",
          "type": "uint256"
        }
      ],
      "payable": false,
      "stateMutability": "view",
      "type": "function"
    },
    {
      "constant": true,
      "inputs": [],
      "name": "coGateway",
      "outputs": [
        {
          "internalType": "address",
          "name": "",
          "type": "address"
        }
      ],
      "payable": false,
      "stateMutability": "view",
      "type": "function"
    },
    {
      "constant": true,
      "inputs": [],
      "name": "decimals",
      "outputs": [
        {
          "internalType": "uint8",
          "name": "tokenDecimals_",
          "type": "uint8"
        }
      ],
      "payable": false,
      "stateMutability": "view",
      "type": "function"
    },
    {
      "constant": false,
      "inputs": [
        {
          "internalType": "uint256",
          "name": "_amount",
          "type": "uint256"
        }
      ],
      "name": "decreaseSupply",
      "outputs": [
        {
          "internalType": "bool",
          "name": "success_",
          "type": "bool"
        }
      ],
      "payable": false,
      "stateMutability": "nonpayable",
      "type": "function"
    },
    {
      "constant": true,
      "inputs": [
        {
          "internalType": "address",
          "name": "",
          "type": "address"
        }
      ],
      "name": "isInternalActor",
      "outputs": [
        {
          "internalType": "bool",
          "name": "",
          "type": "bool"
        }
      ],
      "payable": false,
      "stateMutability": "view",
      "type": "function"
    },
    {
      "constant": true,
      "inputs": [],
      "name": "name",
      "outputs": [
        {
          "internalType": "string",
          "name": "tokenName_",
          "type": "string"
        }
      ],
      "payable": false,
      "stateMutability": "view",
      "type": "function"
    },
    {
      "constant": true,
      "inputs": [],
      "name": "organization",
      "outputs": [
        {
          "internalType": "contract OrganizationInterface",
          "name": "",
          "type": "address"
        }
      ],
      "payable": false,
      "stateMutability": "view",
      "type": "function"
    },
    {
      "constant": true,
      "inputs": [],
      "name": "symbol",
      "outputs": [
        {
          "internalType": "string",
          "name": "tokenSymbol_",
          "type": "string"
        }
      ],
      "payable": false,
      "stateMutability": "view",
      "type": "function"
    },
    {
      "constant": true,
      "inputs": [],
      "name": "token",
      "outputs": [
        {
          "internalType": "address",
          "name": "",
          "type": "address"
        }
      ],
      "payable": false,
      "stateMutability": "view",
      "type": "function"
    },
    {
      "constant": true,
      "inputs": [],
      "name": "totalSupply",
      "outputs": [
        {
          "internalType": "uint256",
          "name": "totalTokenSupply_",
          "type": "uint256"
        }
      ],
      "payable": false,
      "stateMutability": "view",
      "type": "function"
    },
    {
      "constant": false,
      "inputs": [
        {
          "internalType": "address[]",
          "name": "_internalActors",
          "type": "address[]"
        }
      ],
      "name": "registerInternalActors",
      "outputs": [],
      "payable": false,
      "stateMutability": "nonpayable",
      "type": "function"
    },
    {
      "constant": false,
      "inputs": [
        {
          "internalType": "address",
          "name": "_coGateway",
          "type": "address"
        }
      ],
      "name": "setCoGateway",
      "outputs": [
        {
          "internalType": "bool",
          "name": "success_",
          "type": "bool"
        }
      ],
      "payable": false,
      "stateMutability": "nonpayable",
      "type": "function"
    },
    {
      "constant": false,
      "inputs": [
        {
          "internalType": "address payable",
          "name": "_beneficiary",
          "type": "address"
        },
        {
          "internalType": "uint256",
          "name": "_amount",
          "type": "uint256"
        }
      ],
      "name": "increaseSupply",
      "outputs": [
        {
          "internalType": "bool",
          "name": "success_",
          "type": "bool"
        }
      ],
      "payable": false,
      "stateMutability": "nonpayable",
      "type": "function"
    },
    {
      "constant": false,
      "inputs": [
        {
          "internalType": "address",
          "name": "account",
          "type": "address"
        }
      ],
      "name": "exists",
      "outputs": [
        {
          "internalType": "bool",
          "name": "exists_",
          "type": "bool"
        }
      ],
      "payable": false,
      "stateMutability": "nonpayable",
      "type": "function"
    },
    {
      "constant": false,
      "inputs": [
        {
          "internalType": "address",
          "name": "_to",
          "type": "address"
        },
        {
          "internalType": "uint256",
          "name": "_value",
          "type": "uint256"
        }
      ],
      "name": "transfer",
      "outputs": [
        {
          "internalType": "bool",
          "name": "",
          "type": "bool"
        }
      ],
      "payable": false,
      "stateMutability": "nonpayable",
      "type": "function"
    },
    {
      "constant": false,
      "inputs": [
        {
          "internalType": "address",
          "name": "_from",
          "type": "address"
        },
        {
          "internalType": "address",
          "name": "_to",
          "type": "address"
        },
        {
          "internalType": "uint256",
          "name": "_value",
          "type": "uint256"
        }
      ],
      "name": "transferFrom",
      "outputs": [
        {
          "internalType": "bool",
          "name": "",
          "type": "bool"
        }
      ],
      "payable": false,
      "stateMutability": "nonpayable",
      "type": "function"
    }
  ],
  "bytecode": "0x60806040523480156200001157600080fd5b506040516200149a3803806200149a833981810160405260a08110156200003757600080fd5b8151602083018051604051929492938301929190846401000000008211156200005f57600080fd5b9083019060208201858111156200007557600080fd5b82516401000000008111828201881017156200009057600080fd5b82525081516020918201929091019080838360005b83811015620000bf578181015183820152602001620000a5565b50505050905090810190601f168015620000ed5780820380516001836020036101000a031916815260200191505b50604052602001805160405193929190846401000000008211156200011157600080fd5b9083019060208201858111156200012757600080fd5b82516401000000008111828201881017156200014257600080fd5b82525081516020918201929091019080838360005b838110156200017157818101518382015260200162000157565b50505050905090810190601f1680156200019f5780820380516001836020036101000a031916815260200191505b5060405260200180519060200190929190805190602001909291905050508484848484808484848260019080519060200190620001de929190620002e3565b508151620001f4906000906020850190620002e3565b506002805460ff191660ff92909216919091179055505060006003556001600160a01b038116620002575760405162461bcd60e51b815260040180806020018281038252602f8152602001806200144a602f913960400191505060405180910390fd5b600680546001600160a01b0319166001600160a01b039283161790558516620002b25760405162461bcd60e51b8152600401808060200182810382526021815260200180620014796021913960400191505060405180910390fd5b5050600780546001600160a01b0319166001600160a01b039490941693909317909255506200038895505050505050565b828054600181600116156101000203166002900490600052602060002090601f016020900481019282601f106200032657805160ff191683800117855562000356565b8280016001018555821562000356579182015b828111156200035657825182559160200191906001019062000339565b506200036492915062000368565b5090565b6200038591905b808211156200036457600081556001016200036f565b90565b6110b280620003986000396000f3fe608060405234801561001057600080fd5b50600436106101165760003560e01c806384f48d6a116100a2578063a9059cbb11610071578063a9059cbb14610381578063ac908e4c146103ad578063dd62ed3e146103d3578063f6a3d24e14610401578063fc0c546a1461042757610116565b806384f48d6a146102e257806390869370146102ea57806395d89b411461035c57806398e52f9a1461036457610116565b806323b872dd116100e957806323b872dd1461021857806323bd4d7a1461024e578063313ce5671461027257806370a082311461029057806379fcd8ee146102b657610116565b806306fdde031461011b578063095ea7b3146101985780631087955d146101d857806318160ddd146101fe575b600080fd5b61012361042f565b6040805160208082528351818301528351919283929083019185019080838360005b8381101561015d578181015183820152602001610145565b50505050905090810190601f16801561018a5780820380516001836020036101000a031916815260200191505b509250505060405180910390f35b6101c4600480360360408110156101ae57600080fd5b506001600160a01b0381351690602001356104c5565b604080519115158252519081900360200190f35b6101c4600480360360208110156101ee57600080fd5b50356001600160a01b031661052b565b610206610540565b60408051918252519081900360200190f35b6101c46004803603606081101561022e57600080fd5b506001600160a01b03813581169160208101359091169060400135610546565b6102566105b0565b604080516001600160a01b039092168252519081900360200190f35b61027a6105bf565b6040805160ff9092168252519081900360200190f35b610206600480360360208110156102a657600080fd5b50356001600160a01b03166105c8565b6101c4600480360360408110156102cc57600080fd5b506001600160a01b0381351690602001356105e3565b610256610697565b61035a6004803603602081101561030057600080fd5b81019060208101813564010000000081111561031b57600080fd5b82018360208201111561032d57600080fd5b8035906020019184602083028401116401000000008311171561034f57600080fd5b5090925090506106a6565b005b610123610854565b6101c46004803603602081101561037a57600080fd5b50356108b4565b6101c46004803603604081101561039757600080fd5b506001600160a01b03813516906020013561090f565b6101c4600480360360208110156103c357600080fd5b50356001600160a01b0316610970565b610206600480360360408110156103e957600080fd5b506001600160a01b0381358116916020013516610a56565b6101c46004803603602081101561041757600080fd5b50356001600160a01b0316610a81565b610256610a9f565b60008054604080516020601f60026000196101006001881615020190951694909404938401819004810282018101909252828152606093909290918301828280156104bb5780601f10610490576101008083540402835291602001916104bb565b820191906000526020600020905b81548152906001019060200180831161049e57829003601f168201915b5050505050905090565b3360008181526005602090815260408083206001600160a01b038716808552908352818420869055815186815291519394909390927f8c5be1e5ebec7d5bd14f71427d1e84f3dd0314c0f7b2291e5b200ac8c7c3b925928290030190a350600192915050565b60096020526000908152604090205460ff1681565b60035490565b6001600160a01b03821660009081526009602052604081205460ff1661059d5760405162461bcd60e51b815260040180806020018281038252602481526020018061105a6024913960400191505060405180910390fd5b6105a8848484610aae565b949350505050565b6006546001600160a01b031681565b60025460ff1690565b6001600160a01b031660009081526004602052604090205490565b6008546000906001600160a01b0316331461062f5760405162461bcd60e51b8152600401808060200182810382526025815260200180610f7f6025913960400191505060405180910390fd5b6001600160a01b03831660009081526009602052604090205460ff166106865760405162461bcd60e51b8152600401808060200182810382526025815260200180610fc96025913960400191505060405180910390fd5b6106908383610b11565b9392505050565b6008546001600160a01b031681565b6006546040805163aa15664560e01b815233600482015290516001600160a01b039092169163aa15664591602480820192602092909190829003018186803b1580156106f157600080fd5b505afa158015610705573d6000803e3d6000fd5b505050506040513d602081101561071b57600080fd5b50516107585760405162461bcd60e51b81526004018080602001828103825260398152602001806110216039913960400191505060405180910390fd5b60005b8181101561084f576009600084848481811061077357fe5b602090810292909201356001600160a01b03168352508101919091526040016000205460ff16610847576001600960008585858181106107af57fe5b905060200201356001600160a01b03166001600160a01b03166001600160a01b0316815260200190815260200160002060006101000a81548160ff0219169083151502179055507fa1190929be3e4871f526a381fbb79d77723e52f98e193174057586438ea8bd6483838381811061082357fe5b60408051602092830294909401356001600160a01b03168452519283900301919050a15b60010161075b565b505050565b60018054604080516020601f600260001961010087891615020190951694909404938401819004810282018101909252828152606093909290918301828280156104bb5780601f10610490576101008083540402835291602001916104bb565b6008546000906001600160a01b031633146109005760405162461bcd60e51b8152600401808060200182810382526025815260200180610f7f6025913960400191505060405180910390fd5b61090982610bb3565b92915050565b6001600160a01b03821660009081526009602052604081205460ff166109665760405162461bcd60e51b815260040180806020018281038252602481526020018061105a6024913960400191505060405180910390fd5b6106908383610c95565b6006546040805163b1ce8eab60e01b815233600482015290516000926001600160a01b03169163b1ce8eab916024808301926020929190829003018186803b1580156109bb57600080fd5b505afa1580156109cf573d6000803e3d6000fd5b505050506040513d60208110156109e557600080fd5b5051610a225760405162461bcd60e51b8152600401808060200182810382526035815260200180610f4a6035913960400191505060405180910390fd5b610a2b82610ca2565b6008546001600160a01b03166000908152600960205260409020805460ff1916600117905592915050565b6001600160a01b03918216600090815260056020908152604080832093909416825291909152205490565b6001600160a01b031660009081526009602052604090205460ff1690565b6007546001600160a01b031681565b6001600160a01b0383166000908152600560209081526040808320338452909152812054610ae2908363ffffffff610e4216565b6001600160a01b03851660009081526005602090815260408083203384529091529020556105a8848484610e57565b6001600160a01b038216600090815260046020526040812054610b3a908363ffffffff610f1616565b6001600160a01b038416600090815260046020526040902055600354610b66908363ffffffff610f1616565b6003556040805183815290516001600160a01b038516916000917fddf252ad1be2c89b69c2b068fc378daa952ba7f163c4a11628f55a4df523b3ef9181900360200190a350600192915050565b33600090815260046020526040812054821115610c0f576040805162461bcd60e51b815260206004820152601560248201527424b739bab33334b1b4b2b73a103130b630b731b29760591b604482015290519081900360640190fd5b33600090815260046020526040902054610c2f908363ffffffff610e4216565b33600090815260046020526040902055600354610c52908363ffffffff610e4216565b60035560408051838152905160009133917fddf252ad1be2c89b69c2b068fc378daa952ba7f163c4a11628f55a4df523b3ef9181900360200190a3506001919050565b6000610690338484610e57565b6008546000906001600160a01b031615610ced5760405162461bcd60e51b8152600401808060200182810382526021815260200180610f296021913960400191505060405180910390fd5b6001600160a01b038216610d325760405162461bcd60e51b8152600401808060200182810382526025815260200180610fa46025913960400191505060405180910390fd5b600880546001600160a01b0319166001600160a01b0384169081179091556040805163ae86ed8960e01b8152905130929163ae86ed899160048083019260209291908290030181600087803b158015610d8a57600080fd5b505af1158015610d9e573d6000803e3d6000fd5b505050506040513d6020811015610db457600080fd5b50516001600160a01b031614610dfb5760405162461bcd60e51b8152600401808060200182810382526033815260200180610fee6033913960400191505060405180910390fd5b600854604080516001600160a01b039092168252517f95bef3949e28dc0675de862971632152312163efcf79d8d22314cae6bdd28f479181900360200190a1506001919050565b600082821115610e5157600080fd5b50900390565b6001600160a01b038316600090815260046020526040812054610e80908363ffffffff610e4216565b6001600160a01b038086166000908152600460205260408082209390935590851681522054610eb5908363ffffffff610f1616565b6001600160a01b0380851660008181526004602090815260409182902094909455805186815290519193928816927fddf252ad1be2c89b69c2b068fc378daa952ba7f163c4a11628f55a4df523b3ef92918290030190a35060019392505050565b60008282018381101561069057600080fdfe436f47617465776179206164647265737320697320616c7265616479207365742e4f6e6c7920746865206f7267616e697a6174696f6e20697320616c6c6f77656420746f2063616c6c2074686973206d6574686f642e4f6e6c7920436f476174657761792063616e2063616c6c207468652066756e6374696f6e2e436f4761746577617920616464726573732073686f756c64206e6f74206265207a65726f2e42656e6566696369617279206973206e6f7420616e20696e7465726e616c206163746f722e436f476174657761792073686f756c64206265206c696e6b656420776974682074686973207574696c69747920746f6b656e2e4f6e6c792077686974656c697374656420776f726b6572732061726520616c6c6f77656420746f2063616c6c2074686973206d6574686f642e546f2061646472657373206973206e6f7420616e20696e7465726e616c206163746f722ea265627a7a72315820da94e235343ca1e109135023beca00162dddb20e7cc32eea97c6209e1eb307d664736f6c634300051000324f7267616e697a6174696f6e20636f6e74726163742061646472657373206d757374206e6f74206265207a65726f2e546f6b656e20616464726573732073686f756c64206e6f74206265207a65726f2e",
  "source": "pragma solidity ^0.5.0;\n\n// Copyright 2018 OpenST Ltd.\n//\n// Licensed under the Apache License, Version 2.0 (the \"License\");\n// you may not use this file except in compliance with the License.\n// You may obtain a copy of the License at\n//\n//    http://www.apache.org/licenses/LICENSE-2.0\n//\n// Unless required by applicable law or agreed to in writing, software\n// distributed under the License is distributed on an \"AS IS\" BASIS,\n// WITHOUT WARRANTIES OR CONDITIONS OF ANY KIND, either express or implied.\n// See the License for the specific language governing permissions and\n// limitations under the License.\n\nimport \"./utilitytoken/contracts/UtilityToken.sol\";\n\n\n/**\n * @title UtilityBrandedToken contract.\n *\n * @notice UtilityBrandedToken is an EIP20 token which implements\n *         UtilityTokenInterface.\n *\n * @dev UtilityBrandedToken are designed to be used within a decentralised\n *      application and support increaseSupply and decreaseSupply of tokens.\n */\ncontract UtilityBrandedToken is UtilityToken {\n\n    /* Events */\n\n    event InternalActorRegistered(\n        address _actor\n    );\n\n\n    /* Storage */\n\n    /** Mapping stores addresses which are registered as internal actor. */\n    mapping (address /* internal actor */ => bool) public isInternalActor;\n\n\n    /* Special Functions */\n\n    /**\n     * @notice Contract constructor.\n     *\n     * @dev Creates an utility branded token contract with arguments passed\n     *      in the contract constructor.\n     *\n     * @param _token Address of branded token on origin chain.\n     *               It acts as an identifier.\n     * @param _symbol Symbol of the token.\n     * @param _name Name of the token.\n     * @param _decimals Decimal places of the token.\n     * @param _organization Address of the Organization contract.\n     */\n    constructor(\n        address _token,\n        string memory _symbol,\n        string memory _name,\n        uint8 _decimals,\n        OrganizationInterface _organization\n    )\n        public\n        UtilityToken(_token, _symbol, _name, _decimals, _organization)\n    {\n    }\n\n\n    /* External functions */\n\n    /**\n     * @notice Registers internal actors.\n     *\n     * @param _internalActors Array of addresses of the internal actors\n     *        to register.\n     */\n    function registerInternalActors(address[] calldata _internalActors)\n        external\n        onlyWorker\n    {\n        for (uint256 i = 0; i < _internalActors.length; i++) {\n            if (!isInternalActor[_internalActors[i]]) {\n                isInternalActor[_internalActors[i]] = true;\n                emit InternalActorRegistered(_internalActors[i]);\n            }\n        }\n    }\n\n    /**\n     * @notice Sets the CoGateway contract address.\n     *\n     * @dev Function requires:\n     *          - Caller is organization.\n     *          - coGateway address is not set.\n     *          - coGateway.utilityToken is equal to this contract address.\n     *\n     * @param _coGateway CoGateway contract address.\n     */\n    function setCoGateway(address _coGateway)\n        external\n        onlyOrganization\n        returns (bool success_)\n    {\n        success_ = super.setCoGatewayInternal(_coGateway);\n\n        // Registers co-gateway as an internal actor.\n        isInternalActor[coGateway] = true;\n    }\n\n    /**\n     * @notice Increases the total token supply. Also, adds the number of\n     *         tokens to the beneficiary balance.\n     *\n     * @param _beneficiary Account address for which the balance will be\n     *                     increased. This is payable so that it provides\n     *                     flexibility of transferring base token to account\n     *                     on increase supply.\n     * @param _amount Amount of tokens.\n     *\n     * @return success_ `true` if increase supply is successful, false otherwise.\n     */\n    function increaseSupply(\n        address payable _beneficiary,\n        uint256 _amount\n    )\n        external\n        onlyCoGateway\n        returns (bool success_)\n    {\n        require(\n            isInternalActor[_beneficiary],\n            \"Beneficiary is not an internal actor.\"\n        );\n\n        success_ = super.increaseSupplyInternal(_beneficiary, _amount);\n    }\n\n    /**\n     * @notice Checks if an address is an internal actor.\n     *\n     * @return exists_ `true` if the specified account is an internal actor,\n     *                 otherwise `false`.\n     */\n    function exists(address account) external returns (bool exists_) {\n        exists_ = isInternalActor[account];\n    }\n\n\n    /* Public functions */\n\n    /**\n     * @notice Public function transfer.\n     *\n     * @dev Function requires:\n     *         - _to address is an internal actor\n     *\n     * @param _to Address to which BT needs to transfer.\n     * @param _value Number of BTs that needs to transfer.\n     *\n     * @return Success/failure status of transfer.\n     */\n    function transfer(\n        address _to,\n        uint256 _value\n    )\n        public\n        returns (bool)\n    {\n        require(\n            isInternalActor[_to],\n            \"To address is not an internal actor.\"\n        );\n\n        return super.transfer(_to, _value);\n    }\n\n    /**\n     * @notice Public function transferFrom.\n     *\n     * @dev Function requires:\n     *         - _to address is an internal actor\n     *\n     * @param _from Address from which BT needs to transfer.\n     * @param _to Address to which BT needs to transfer.\n     * @param _value Number of BTs that needs to transfer.\n     *\n     * @return Success/failure status of transferFrom.\n     */\n    function transferFrom(\n        address _from,\n        address _to,\n        uint256 _value\n    )\n        public\n        returns (bool)\n    {\n        require(\n            isInternalActor[_to],\n            \"To address is not an internal actor.\"\n        );\n\n        return super.transferFrom(_from, _to, _value);\n    }\n}\n",
  "sourcePath": "/Users/OST/Documents/dj/ost-opt-contracts/contracts/brandedtoken-contracts/contracts/UtilityBrandedToken.sol",
  "compiler": {
    "name": "solc",
    "version": "0.5.16+commit.9c3226ce.Emscripten.clang"
  },
  "schemaVersion": "3.0.21",
  "updatedAt": "2020-01-24T12:21:06.860Z",
  "devdoc": {
    "details": "UtilityBrandedToken are designed to be used within a decentralised     application and support increaseSupply and decreaseSupply of tokens.",
    "methods": {
      "allowance(address,address)": {
        "params": {
          "_owner": "Address of the owner account.",
          "_spender": "Address of the spender account."
        },
        "return": "allowance_ Remaining allowance for the spender to spend from                   owner's account."
      },
      "approve(address,uint256)": {
        "details": "Allows _spender address to withdraw from function caller's account,     multiple times up to the _value amount, if this function is called     again it overwrites the current allowance with _value.",
        "params": {
          "_spender": "Address authorized to spend from the function caller's                 address.",
          "_value": "Amount up to which spender is authorized to spend."
        },
        "return": "bool `true` for a successful approval, `false` otherwise."
      },
      "balanceOf(address)": {
        "params": {
          "_owner": "Address of the owner account."
        },
        "return": "balance_ Account balance of the owner account."
      },
      "constructor": {
        "details": "Creates an utility branded token contract with arguments passed     in the contract constructor.",
        "params": {
          "_decimals": "Decimal places of the token.",
          "_name": "Name of the token.",
          "_organization": "Address of the Organization contract.",
          "_symbol": "Symbol of the token.",
          "_token": "Address of branded token on origin chain.              It acts as an identifier."
        }
      },
      "decimals()": {
        "return": "tokenDecimals Decimals of the token."
      },
      "decreaseSupply(uint256)": {
        "params": {
          "_amount": "Amount of tokens."
        },
        "return": "success_ `true` if decrease supply is successful, false otherwise."
      },
      "exists(address)": {
        "return": "exists_ `true` if the specified account is an internal actor,                otherwise `false`."
      },
      "increaseSupply(address,uint256)": {
        "params": {
          "_amount": "Amount of tokens.",
          "_beneficiary": "Account address for which the balance will be                    increased. This is payable so that it provides                    flexibility of transferring base token to account                    on increase supply."
        },
        "return": "success_ `true` if increase supply is successful, false otherwise."
      },
      "name()": {
        "return": "tokenName_ Name of the token."
      },
      "registerInternalActors(address[])": {
        "params": {
          "_internalActors": "Array of addresses of the internal actors       to register."
        }
      },
      "setCoGateway(address)": {
        "details": "Function requires:         - Caller is organization.         - coGateway address is not set.         - coGateway.utilityToken is equal to this contract address.",
        "params": {
          "_coGateway": "CoGateway contract address."
        }
      },
      "symbol()": {
        "return": "tokenSymbol_ Symbol of the token."
      },
      "totalSupply()": {
        "details": "Get totalTokenSupply as view so that child cannot edit.",
        "return": "totalTokenSupply_ Total token supply."
      },
      "transfer(address,uint256)": {
        "details": "Function requires:        - _to address is an internal actor",
        "params": {
          "_to": "Address to which BT needs to transfer.",
          "_value": "Number of BTs that needs to transfer."
        },
        "return": "Success/failure status of transfer."
      },
      "transferFrom(address,address,uint256)": {
        "details": "Function requires:        - _to address is an internal actor",
        "params": {
          "_from": "Address from which BT needs to transfer.",
          "_to": "Address to which BT needs to transfer.",
          "_value": "Number of BTs that needs to transfer."
        },
        "return": "Success/failure status of transferFrom."
      }
    },
    "title": "UtilityBrandedToken contract."
  },
  "userdoc": {
    "methods": {
      "allowance(address,address)": {
        "notice": "Public function to get the allowance."
      },
      "approve(address,uint256)": {
        "notice": "Public function to approve an account for transfer."
      },
      "balanceOf(address)": {
        "notice": "Get the balance of an account."
      },
      "constructor": "Contract constructor.",
      "decimals()": {
        "notice": "Public function to get the decimals of the token."
      },
      "decreaseSupply(uint256)": {
        "notice": "Decreases the token supply."
      },
      "exists(address)": {
        "notice": "Checks if an address is an internal actor."
      },
      "increaseSupply(address,uint256)": {
        "notice": "Increases the total token supply. Also, adds the number of        tokens to the beneficiary balance."
      },
      "name()": {
        "notice": "Public function to get the name of the token."
      },
      "registerInternalActors(address[])": {
        "notice": "Registers internal actors."
      },
      "setCoGateway(address)": {
        "notice": "Sets the CoGateway contract address."
      },
      "symbol()": {
        "notice": "Public function to get the symbol of the token."
      },
      "totalSupply()": {
        "notice": "Public function to get the total supply of the tokens."
      },
      "transfer(address,uint256)": {
        "notice": "Public function transfer."
      },
      "transferFrom(address,address,uint256)": {
        "notice": "Public function transferFrom."
      }
    },
    "notice": "UtilityBrandedToken is an EIP20 token which implements        UtilityTokenInterface."
  }
}