{
  "contractName": "UtilityToken",
  "abi": [
    {
      "inputs": [
        {
          "internalType": "address",
          "name": "_token",
          "type": "address"
        },
        {
          "internalType": "string",
          "name": "_symbol",
          "type": "string"
        },
        {
          "internalType": "string",
          "name": "_name",
          "type": "string"
        },
        {
          "internalType": "uint8",
          "name": "_decimals",
          "type": "uint8"
        },
        {
          "internalType": "contract OrganizationInterface",
          "name": "_organization",
          "type": "address"
        }
      ],
      "payable": false,
      "stateMutability": "nonpayable",
      "type": "constructor"
    },
    {
      "anonymous": false,
      "inputs": [
        {
          "indexed": true,
          "internalType": "address",
          "name": "_owner",
          "type": "address"
        },
        {
          "indexed": true,
          "internalType": "address",
          "name": "_spender",
          "type": "address"
        },
        {
          "indexed": false,
          "internalType": "uint256",
          "name": "_value",
          "type": "uint256"
        }
      ],
      "name": "Approval",
      "type": "event"
    },
    {
      "anonymous": false,
      "inputs": [
        {
          "indexed": false,
          "internalType": "address",
          "name": "_coGateway",
          "type": "address"
        }
      ],
      "name": "CoGatewaySet",
      "type": "event"
    },
    {
      "anonymous": false,
      "inputs": [
        {
          "indexed": true,
          "internalType": "address",
          "name": "_from",
          "type": "address"
        },
        {
          "indexed": true,
          "internalType": "address",
          "name": "_to",
          "type": "address"
        },
        {
          "indexed": false,
          "internalType": "uint256",
          "name": "_value",
          "type": "uint256"
        }
      ],
      "name": "Transfer",
      "type": "event"
    },
    {
      "constant": true,
      "inputs": [
        {
          "internalType": "address",
          "name": "_owner",
          "type": "address"
        },
        {
          "internalType": "address",
          "name": "_spender",
          "type": "address"
        }
      ],
      "name": "allowance",
      "outputs": [
        {
          "internalType": "uint256",
          "name": "allowance_",
          "type": "uint256"
        }
      ],
      "payable": false,
      "stateMutability": "view",
      "type": "function"
    },
    {
      "constant": false,
      "inputs": [
        {
          "internalType": "address",
          "name": "_spender",
          "type": "address"
        },
        {
          "internalType": "uint256",
          "name": "_value",
          "type": "uint256"
        }
      ],
      "name": "approve",
      "outputs": [
        {
          "internalType": "bool",
          "name": "success_",
          "type": "bool"
        }
      ],
      "payable": false,
      "stateMutability": "nonpayable",
      "type": "function"
    },
    {
      "constant": true,
      "inputs": [
        {
          "internalType": "address",
          "name": "_owner",
          "type": "address"
        }
      ],
      "name": "balanceOf",
      "outputs": [
        {
          "internalType": "uint256",
          "name": "balance_",
          "type": "uint256"
        }
      ],
      "payable": false,
      "stateMutability": "view",
      "type": "function"
    },
    {
      "constant": true,
      "inputs": [],
      "name": "coGateway",
      "outputs": [
        {
          "internalType": "address",
          "name": "",
          "type": "address"
        }
      ],
      "payable": false,
      "stateMutability": "view",
      "type": "function"
    },
    {
      "constant": true,
      "inputs": [],
      "name": "decimals",
      "outputs": [
        {
          "internalType": "uint8",
          "name": "tokenDecimals_",
          "type": "uint8"
        }
      ],
      "payable": false,
      "stateMutability": "view",
      "type": "function"
    },
    {
      "constant": true,
      "inputs": [],
      "name": "name",
      "outputs": [
        {
          "internalType": "string",
          "name": "tokenName_",
          "type": "string"
        }
      ],
      "payable": false,
      "stateMutability": "view",
      "type": "function"
    },
    {
      "constant": true,
      "inputs": [],
      "name": "organization",
      "outputs": [
        {
          "internalType": "contract OrganizationInterface",
          "name": "",
          "type": "address"
        }
      ],
      "payable": false,
      "stateMutability": "view",
      "type": "function"
    },
    {
      "constant": true,
      "inputs": [],
      "name": "symbol",
      "outputs": [
        {
          "internalType": "string",
          "name": "tokenSymbol_",
          "type": "string"
        }
      ],
      "payable": false,
      "stateMutability": "view",
      "type": "function"
    },
    {
      "constant": true,
      "inputs": [],
      "name": "token",
      "outputs": [
        {
          "internalType": "address",
          "name": "",
          "type": "address"
        }
      ],
      "payable": false,
      "stateMutability": "view",
      "type": "function"
    },
    {
      "constant": true,
      "inputs": [],
      "name": "totalSupply",
      "outputs": [
        {
          "internalType": "uint256",
          "name": "totalTokenSupply_",
          "type": "uint256"
        }
      ],
      "payable": false,
      "stateMutability": "view",
      "type": "function"
    },
    {
      "constant": false,
      "inputs": [
        {
          "internalType": "address",
          "name": "_to",
          "type": "address"
        },
        {
          "internalType": "uint256",
          "name": "_value",
          "type": "uint256"
        }
      ],
      "name": "transfer",
      "outputs": [
        {
          "internalType": "bool",
          "name": "success_",
          "type": "bool"
        }
      ],
      "payable": false,
      "stateMutability": "nonpayable",
      "type": "function"
    },
    {
      "constant": false,
      "inputs": [
        {
          "internalType": "address",
          "name": "_from",
          "type": "address"
        },
        {
          "internalType": "address",
          "name": "_to",
          "type": "address"
        },
        {
          "internalType": "uint256",
          "name": "_value",
          "type": "uint256"
        }
      ],
      "name": "transferFrom",
      "outputs": [
        {
          "internalType": "bool",
          "name": "success_",
          "type": "bool"
        }
      ],
      "payable": false,
      "stateMutability": "nonpayable",
      "type": "function"
    },
    {
      "constant": false,
      "inputs": [
        {
          "internalType": "address",
          "name": "_coGatewayAddress",
          "type": "address"
        }
      ],
      "name": "setCoGateway",
      "outputs": [
        {
          "internalType": "bool",
          "name": "success_",
          "type": "bool"
        }
      ],
      "payable": false,
      "stateMutability": "nonpayable",
      "type": "function"
    },
    {
      "constant": false,
      "inputs": [
        {
          "internalType": "address payable",
          "name": "_account",
          "type": "address"
        },
        {
          "internalType": "uint256",
          "name": "_amount",
          "type": "uint256"
        }
      ],
      "name": "increaseSupply",
      "outputs": [
        {
          "internalType": "bool",
          "name": "success_",
          "type": "bool"
        }
      ],
      "payable": false,
      "stateMutability": "nonpayable",
      "type": "function"
    },
    {
      "constant": false,
      "inputs": [
        {
          "internalType": "uint256",
          "name": "_amount",
          "type": "uint256"
        }
      ],
      "name": "decreaseSupply",
      "outputs": [
        {
          "internalType": "bool",
          "name": "success_",
          "type": "bool"
        }
      ],
      "payable": false,
      "stateMutability": "nonpayable",
      "type": "function"
    },
    {
      "constant": false,
      "inputs": [
        {
          "internalType": "address",
          "name": "",
          "type": "address"
        }
      ],
      "name": "exists",
      "outputs": [
        {
          "internalType": "bool",
          "name": "exists_",
          "type": "bool"
        }
      ],
      "payable": false,
      "stateMutability": "nonpayable",
      "type": "function"
    }
  ],
  "bytecode": "0x60806040523480156200001157600080fd5b506040516200103738038062001037833981810160405260a08110156200003757600080fd5b8151602083018051604051929492938301929190846401000000008211156200005f57600080fd5b9083019060208201858111156200007557600080fd5b82516401000000008111828201881017156200009057600080fd5b82525081516020918201929091019080838360005b83811015620000bf578181015183820152602001620000a5565b50505050905090810190601f168015620000ed5780820380516001836020036101000a031916815260200191505b50604052602001805160405193929190846401000000008211156200011157600080fd5b9083019060208201858111156200012757600080fd5b82516401000000008111828201881017156200014257600080fd5b82525081516020918201929091019080838360005b838110156200017157818101518382015260200162000157565b50505050905090810190601f1680156200019f5780820380516001836020036101000a031916815260200191505b5060409081526020828101519290910151865192945092508291869186918691620001d091600191860190620002d0565b508151620001e6906000906020850190620002d0565b506002805460ff191660ff92909216919091179055505060006003556001600160a01b038116620002495760405162461bcd60e51b815260040180806020018281038252602f81526020018062000fe7602f913960400191505060405180910390fd5b600680546001600160a01b0319166001600160a01b039283161790558516620002a45760405162461bcd60e51b8152600401808060200182810382526021815260200180620010166021913960400191505060405180910390fd5b5050600780546001600160a01b0319166001600160a01b03949094169390931790925550620003759050565b828054600181600116156101000203166002900490600052602060002090601f016020900481019282601f106200031357805160ff191683800117855562000343565b8280016001018555821562000343579182015b828111156200034357825182559160200191906001019062000326565b506200035192915062000355565b5090565b6200037291905b808211156200035157600081556001016200035c565b90565b610c6280620003856000396000f3fe608060405234801561001057600080fd5b50600436106101005760003560e01c806384f48d6a11610097578063ac908e4c11610066578063ac908e4c146102ff578063dd62ed3e14610325578063f6a3d24e14610353578063fc0c546a1461037957610100565b806384f48d6a146102a657806395d89b41146102ae57806398e52f9a146102b6578063a9059cbb146102d357610100565b806323bd4d7a116100d357806323bd4d7a14610212578063313ce5671461023657806370a082311461025457806379fcd8ee1461027a57610100565b806306fdde0314610105578063095ea7b31461018257806318160ddd146101c257806323b872dd146101dc575b600080fd5b61010d610381565b6040805160208082528351818301528351919283929083019185019080838360005b8381101561014757818101518382015260200161012f565b50505050905090810190601f1680156101745780820380516001836020036101000a031916815260200191505b509250505060405180910390f35b6101ae6004803603604081101561019857600080fd5b506001600160a01b038135169060200135610417565b604080519115158252519081900360200190f35b6101ca61047d565b60408051918252519081900360200190f35b6101ae600480360360608110156101f257600080fd5b506001600160a01b03813581169160208101359091169060400135610483565b61021a6104ee565b604080516001600160a01b039092168252519081900360200190f35b61023e6104fd565b6040805160ff9092168252519081900360200190f35b6101ca6004803603602081101561026a57600080fd5b50356001600160a01b0316610506565b6101ae6004803603604081101561029057600080fd5b506001600160a01b038135169060200135610521565b61021a61057e565b61010d61058d565b6101ae600480360360208110156102cc57600080fd5b50356105ed565b6101ae600480360360408110156102e957600080fd5b506001600160a01b038135169060200135610648565b6101ae6004803603602081101561031557600080fd5b50356001600160a01b0316610655565b6101ca6004803603604081101561033b57600080fd5b506001600160a01b0381358116916020013516610710565b6101ae6004803603602081101561036957600080fd5b50356001600160a01b031661073b565b61021a610741565b60008054604080516020601f600260001961010060018816150201909516949094049384018190048102820181019092528281526060939092909183018282801561040d5780601f106103e25761010080835404028352916020019161040d565b820191906000526020600020905b8154815290600101906020018083116103f057829003601f168201915b5050505050905090565b3360008181526005602090815260408083206001600160a01b038716808552908352818420869055815186815291519394909390927f8c5be1e5ebec7d5bd14f71427d1e84f3dd0314c0f7b2291e5b200ac8c7c3b925928290030190a350600192915050565b60035490565b6001600160a01b03831660009081526005602090815260408083203384529091528120546104b7908363ffffffff61075016565b6001600160a01b03851660009081526005602090815260408083203384529091529020556104e6848484610765565b949350505050565b6006546001600160a01b031681565b60025460ff1690565b6001600160a01b031660009081526004602052604090205490565b6008546000906001600160a01b0316331461056d5760405162461bcd60e51b8152600401808060200182810382526025815260200180610bb16025913960400191505060405180910390fd5b6105778383610824565b9392505050565b6008546001600160a01b031681565b60018054604080516020601f6002600019610100878916150201909516949094049384018190048102820181019092528281526060939092909183018282801561040d5780601f106103e25761010080835404028352916020019161040d565b6008546000906001600160a01b031633146106395760405162461bcd60e51b8152600401808060200182810382526025815260200180610bb16025913960400191505060405180910390fd5b610642826108c6565b92915050565b6000610577338484610765565b6006546040805163b1ce8eab60e01b815233600482015290516000926001600160a01b03169163b1ce8eab916024808301926020929190829003018186803b1580156106a057600080fd5b505afa1580156106b4573d6000803e3d6000fd5b505050506040513d60208110156106ca57600080fd5b50516107075760405162461bcd60e51b8152600401808060200182810382526035815260200180610b7c6035913960400191505060405180910390fd5b610642826109a8565b6001600160a01b03918216600090815260056020908152604080832093909416825291909152205490565b50600190565b6007546001600160a01b031681565b60008282111561075f57600080fd5b50900390565b6001600160a01b03831660009081526004602052604081205461078e908363ffffffff61075016565b6001600160a01b0380861660009081526004602052604080822093909355908516815220546107c3908363ffffffff610b4816565b6001600160a01b0380851660008181526004602090815260409182902094909455805186815290519193928816927fddf252ad1be2c89b69c2b068fc378daa952ba7f163c4a11628f55a4df523b3ef92918290030190a35060019392505050565b6001600160a01b03821660009081526004602052604081205461084d908363ffffffff610b4816565b6001600160a01b038416600090815260046020526040902055600354610879908363ffffffff610b4816565b6003556040805183815290516001600160a01b038516916000917fddf252ad1be2c89b69c2b068fc378daa952ba7f163c4a11628f55a4df523b3ef9181900360200190a350600192915050565b33600090815260046020526040812054821115610922576040805162461bcd60e51b815260206004820152601560248201527424b739bab33334b1b4b2b73a103130b630b731b29760591b604482015290519081900360640190fd5b33600090815260046020526040902054610942908363ffffffff61075016565b33600090815260046020526040902055600354610965908363ffffffff61075016565b60035560408051838152905160009133917fddf252ad1be2c89b69c2b068fc378daa952ba7f163c4a11628f55a4df523b3ef9181900360200190a3506001919050565b6008546000906001600160a01b0316156109f35760405162461bcd60e51b8152600401808060200182810382526021815260200180610b5b6021913960400191505060405180910390fd5b6001600160a01b038216610a385760405162461bcd60e51b8152600401808060200182810382526025815260200180610bd66025913960400191505060405180910390fd5b600880546001600160a01b0319166001600160a01b0384169081179091556040805163ae86ed8960e01b8152905130929163ae86ed899160048083019260209291908290030181600087803b158015610a9057600080fd5b505af1158015610aa4573d6000803e3d6000fd5b505050506040513d6020811015610aba57600080fd5b50516001600160a01b031614610b015760405162461bcd60e51b8152600401808060200182810382526033815260200180610bfb6033913960400191505060405180910390fd5b600854604080516001600160a01b039092168252517f95bef3949e28dc0675de862971632152312163efcf79d8d22314cae6bdd28f479181900360200190a1506001919050565b60008282018381101561057757600080fdfe436f47617465776179206164647265737320697320616c7265616479207365742e4f6e6c7920746865206f7267616e697a6174696f6e20697320616c6c6f77656420746f2063616c6c2074686973206d6574686f642e4f6e6c7920436f476174657761792063616e2063616c6c207468652066756e6374696f6e2e436f4761746577617920616464726573732073686f756c64206e6f74206265207a65726f2e436f476174657761792073686f756c64206265206c696e6b656420776974682074686973207574696c69747920746f6b656e2ea265627a7a723158201b0d618ce59915d8911f054a82c57cad2e6b30c0d4d174d294e88f307dbbefee64736f6c634300051000324f7267616e697a6174696f6e20636f6e74726163742061646472657373206d757374206e6f74206265207a65726f2e546f6b656e20616464726573732073686f756c64206e6f74206265207a65726f2e",
  "source": "pragma solidity ^0.5.0;\n\n// Copyright 2019 OpenST Ltd.\n//\n// Licensed under the Apache License, Version 2.0 (the \"License\");\n// you may not use this file except in compliance with the License.\n// You may obtain a copy of the License at\n//\n//    http://www.apache.org/licenses/LICENSE-2.0\n//\n// Unless required by applicable law or agreed to in writing, software\n// distributed under the License is distributed on an \"AS IS\" BASIS,\n// WITHOUT WARRANTIES OR CONDITIONS OF ANY KIND, either express or implied.\n// See the License for the specific language governing permissions and\n// limitations under the License.\n//\n// ----------------------------------------------------------------------------\n//\n// http://www.simpletoken.org/\n//\n// ----------------------------------------------------------------------------\n\nimport \"./UtilityTokenInterface.sol\";\nimport \"./EIP20Token.sol\";\nimport \"./CoGatewayUtilityTokenInterface.sol\";\nimport \"./organization/contracts/OrganizationInterface.sol\";\nimport \"./organization/contracts/Organized.sol\";\n\n/**\n *  @title UtilityToken is an EIP20Token and implements UtilityTokenInterface.\n *\n *  @notice This contract has increaseSupply and decreaseSupply functions that\n *          can be called only by CoGateway.\n *\n */\ncontract UtilityToken is EIP20Token, Organized, UtilityTokenInterface {\n\n    /* events */\n\n    /** Emitted whenever a CoGateway address is set */\n    event CoGatewaySet(address _coGateway);\n\n\n    /* Storage */\n\n    /** Address of the EIP20 token (branded token) in origin chain. */\n    address public token;\n\n    /** Address of CoGateway contract. */\n    address public coGateway;\n\n\n    /* Modifiers */\n\n    /** Checks that only CoGateway can call a particular function. */\n    modifier onlyCoGateway() {\n\n        require(\n            msg.sender == address(coGateway),\n            \"Only CoGateway can call the function.\"\n        );\n\n        _;\n    }\n\n\n    /* Constructor */\n\n    /**\n     * @notice Contract constructor.\n     *\n     * @param _token Address of branded token.\n     * @param _symbol Symbol of token.\n     * @param _name Name of token.\n     * @param _decimals Decimal of token.\n     * @param _organization Address of a contract that manages organization.\n     */\n    constructor(\n        address _token,\n        string memory _symbol,\n        string memory _name,\n        uint8 _decimals,\n        OrganizationInterface _organization\n    )\n        public\n        Organized(_organization)\n        EIP20Token(_symbol, _name, _decimals)\n    {\n        require(\n            _token != address(0),\n            \"Token address should not be zero.\"\n        );\n\n        token = _token;\n    }\n\n\n    /* External functions */\n\n    /**\n     * @notice Sets the CoGateway contract address. This can be called only by\n     *         an organization address. This can be set only once.\n     *\n     * @param _coGatewayAddress CoGateway contract address\n     *\n     * @return success_ `true` if CoGateway address was set\n     */\n    function setCoGateway(\n        address _coGatewayAddress\n    )\n        external\n        onlyOrganization\n        returns (bool success_)\n    {\n        success_ = setCoGatewayInternal(_coGatewayAddress);\n    }\n\n    /**\n     * @notice Increases the total token supply. Also, adds the number of\n     *         tokens to the beneficiary balance.\n     *\n     * @param _account Account address for which the balance will be increased.\n                       This is payable so that it provides flexibility of\n     *                 transferring base token to account on increase supply.\n     * @param _amount Amount of tokens.\n     *\n     * @return success_ `true` if increase supply is successful, false otherwise.\n     */\n    function increaseSupply(\n        address payable _account,\n        uint256 _amount\n    )\n        external\n        onlyCoGateway\n        returns (bool success_)\n    {\n        success_ = increaseSupplyInternal(_account, _amount);\n    }\n\n    /**\n     * @notice Decreases the token supply.\n     *\n     * @param _amount Amount of tokens.\n     *\n     * @return success_ `true` if decrease supply is successful, false otherwise.\n     */\n    function decreaseSupply(\n        uint256 _amount\n    )\n        external\n        onlyCoGateway\n        returns (bool success_)\n    {\n        success_ = decreaseSupplyInternal(_amount);\n    }\n\n    /**\n     * @notice Checks if an address exists.\n     *\n     * @dev For standard ethereum all account addresses exist by default,\n     *      so it returns true for all addresses.\n     *\n     * @return exists_ `true` for all given address\n     */\n    function exists(address) external returns (bool exists_) {\n        exists_ = true;\n    }\n\n\n    /* Internal functions. */\n\n    /**\n     * @notice Sets the CoGateway contract address. This can be called by\n     *         UtilityToken contract or contract inheriting it. This can be\n     *         set only once.\n     * @param _coGateway CoGateway contract address\n     *\n     * @return success_ `true` if CoGateway address was set\n     */\n    function setCoGatewayInternal(\n        address _coGateway\n    )\n        internal\n        returns (bool success_)\n    {\n        require(\n            coGateway == address(0),\n            \"CoGateway address is already set.\"\n        );\n\n        require(\n            _coGateway != address(0),\n            \"CoGateway address should not be zero.\"\n        );\n\n        // protect against reentrancy by setting the coGateway\n        // before querying the contract.\n        coGateway = _coGateway;\n\n        require(\n            CoGatewayUtilityTokenInterface(_coGateway).utilityToken()\n                == address(this),\n            \"CoGateway should be linked with this utility token.\"\n        );\n\n        emit CoGatewaySet(coGateway);\n\n        success_ = true;\n    }\n\n    /**\n     * @notice Internal function to increase the total token supply.\n     *\n     * @dev Adds number of tokens to beneficiary balance and increases the\n     *      total token supply.\n     *\n     * @param _account Account address for which the balance will be increased.\n     * @param _amount Amount of tokens.\n     *\n     * @return success_ `true` if increase supply is successful, false otherwise.\n     */\n    function increaseSupplyInternal(\n        address _account,\n        uint256 _amount\n    )\n        internal\n        returns (bool success_)\n    {\n        // Increase the balance of the _account\n        balances[_account] = balances[_account].add(_amount);\n        totalTokenSupply = totalTokenSupply.add(_amount);\n\n        /*\n         * Creation of the new tokens should trigger a Transfer event with\n         * _from as 0x0.\n         */\n        emit Transfer(address(0), _account, _amount);\n\n        success_ = true;\n    }\n\n    /**\n     * @notice Internal function to decrease the token supply.\n     *\n     * @dev Decreases the token balance from the msg.sender address and\n     *      decreases the total token supply count.\n     *\n     * @param _amount Amount of tokens.\n     *\n     * @return success_ `true` if decrease supply is successful, false otherwise.\n     */\n    function decreaseSupplyInternal(\n        uint256 _amount\n    )\n        internal\n        returns (bool success_)\n    {\n        require(\n            balances[msg.sender] >= _amount,\n            \"Insufficient balance.\"\n        );\n\n        // Decrease the balance of the msg.sender account.\n        balances[msg.sender] = balances[msg.sender].sub(_amount);\n        totalTokenSupply = totalTokenSupply.sub(_amount);\n\n        /*\n         * Burning of the tokens should trigger a Transfer event with _to\n         * as 0x0.\n         */\n        emit Transfer(msg.sender, address(0), _amount);\n\n        success_ = true;\n    }\n}\n",
  "sourcePath": "/Users/OST/Documents/dj/ost-opt-contracts/contracts/brandedtoken-contracts/contracts/utilitytoken/contracts/UtilityToken.sol",
  "compiler": {
    "name": "solc",
    "version": "0.5.16+commit.9c3226ce.Emscripten.clang"
  },
  "schemaVersion": "3.0.21",
  "updatedAt": "2020-01-22T10:54:09.780Z",
  "devdoc": {
    "methods": {
      "allowance(address,address)": {
        "params": {
          "_owner": "Address of the owner account.",
          "_spender": "Address of the spender account."
        },
        "return": "allowance_ Remaining allowance for the spender to spend from                   owner's account."
      },
      "approve(address,uint256)": {
        "details": "Allows _spender address to withdraw from function caller's account,     multiple times up to the _value amount, if this function is called     again it overwrites the current allowance with _value.",
        "params": {
          "_spender": "Address authorized to spend from the function caller's                 address.",
          "_value": "Amount up to which spender is authorized to spend."
        },
        "return": "bool `true` for a successful approval, `false` otherwise."
      },
      "balanceOf(address)": {
        "params": {
          "_owner": "Address of the owner account."
        },
        "return": "balance_ Account balance of the owner account."
      },
      "constructor": {
        "params": {
          "_decimals": "Decimal of token.",
          "_name": "Name of token.",
          "_organization": "Address of a contract that manages organization.",
          "_symbol": "Symbol of token.",
          "_token": "Address of branded token."
        }
      },
      "decimals()": {
        "return": "tokenDecimals Decimals of the token."
      },
      "decreaseSupply(uint256)": {
        "params": {
          "_amount": "Amount of tokens."
        },
        "return": "success_ `true` if decrease supply is successful, false otherwise."
      },
      "exists(address)": {
        "details": "For standard ethereum all account addresses exist by default,     so it returns true for all addresses.",
        "return": "exists_ `true` for all given address"
      },
      "increaseSupply(address,uint256)": {
        "params": {
          "_account": "Account address for which the balance will be increased. This is payable so that it provides flexibility of                transferring base token to account on increase supply.",
          "_amount": "Amount of tokens."
        },
        "return": "success_ `true` if increase supply is successful, false otherwise."
      },
      "name()": {
        "return": "tokenName_ Name of the token."
      },
      "setCoGateway(address)": {
        "params": {
          "_coGatewayAddress": "CoGateway contract address"
        },
        "return": "success_ `true` if CoGateway address was set"
      },
      "symbol()": {
        "return": "tokenSymbol_ Symbol of the token."
      },
      "totalSupply()": {
        "details": "Get totalTokenSupply as view so that child cannot edit.",
        "return": "totalTokenSupply_ Total token supply."
      },
      "transfer(address,uint256)": {
        "details": "Fires the transfer event, throws if, _from account does not have     enough tokens to spend.",
        "params": {
          "_to": "Address to which tokens are transferred.",
          "_value": "Amount of tokens to be transferred."
        },
        "return": "success_ `true` for a successful transfer, `false` otherwise."
      },
      "transferFrom(address,address,uint256)": {
        "details": "Allows a contract to transfer tokens on behalf of _from address     to _to address, the function caller has to be pre-authorized for     multiple transfers up to the total of _value amount by the _from     address.",
        "params": {
          "_from": "Address from which tokens are transferred.",
          "_to": "Address to which tokens are transferred.",
          "_value": "Amount of tokens transferred."
        },
        "return": "success_ `true` for a successful transfer, `false` otherwise."
      }
    },
    "title": "UtilityToken is an EIP20Token and implements UtilityTokenInterface."
  },
  "userdoc": {
    "methods": {
      "allowance(address,address)": {
        "notice": "Public function to get the allowance."
      },
      "approve(address,uint256)": {
        "notice": "Public function to approve an account for transfer."
      },
      "balanceOf(address)": {
        "notice": "Get the balance of an account."
      },
      "constructor": "Contract constructor.",
      "decimals()": {
        "notice": "Public function to get the decimals of the token."
      },
      "decreaseSupply(uint256)": {
        "notice": "Decreases the token supply."
      },
      "exists(address)": {
        "notice": "Checks if an address exists."
      },
      "increaseSupply(address,uint256)": {
        "notice": "Increases the total token supply. Also, adds the number of        tokens to the beneficiary balance."
      },
      "name()": {
        "notice": "Public function to get the name of the token."
      },
      "setCoGateway(address)": {
        "notice": "Sets the CoGateway contract address. This can be called only by        an organization address. This can be set only once."
      },
      "symbol()": {
        "notice": "Public function to get the symbol of the token."
      },
      "totalSupply()": {
        "notice": "Public function to get the total supply of the tokens."
      },
      "transfer(address,uint256)": {
        "notice": "Public function to transfer the token."
      },
      "transferFrom(address,address,uint256)": {
        "notice": "Public function transferFrom."
      }
    },
    "notice": "This contract has increaseSupply and decreaseSupply functions that         can be called only by CoGateway. "
  }
}