{
  "contractName": "WhitelistModule",
  "abi": [
    {
      "constant": true,
      "inputs": [],
      "name": "NAME",
      "outputs": [
        {
          "internalType": "string",
          "name": "",
          "type": "string"
        }
      ],
      "payable": false,
      "stateMutability": "view",
      "type": "function"
    },
    {
      "constant": true,
      "inputs": [],
      "name": "VERSION",
      "outputs": [
        {
          "internalType": "string",
          "name": "",
          "type": "string"
        }
      ],
      "payable": false,
      "stateMutability": "view",
      "type": "function"
    },
    {
      "constant": false,
      "inputs": [
        {
          "internalType": "address",
          "name": "_masterCopy",
          "type": "address"
        }
      ],
      "name": "changeMasterCopy",
      "outputs": [],
      "payable": false,
      "stateMutability": "nonpayable",
      "type": "function"
    },
    {
      "constant": true,
      "inputs": [
        {
          "internalType": "address",
          "name": "",
          "type": "address"
        }
      ],
      "name": "isWhitelisted",
      "outputs": [
        {
          "internalType": "bool",
          "name": "",
          "type": "bool"
        }
      ],
      "payable": false,
      "stateMutability": "view",
      "type": "function"
    },
    {
      "constant": true,
      "inputs": [],
      "name": "manager",
      "outputs": [
        {
          "internalType": "contract ModuleManager",
          "name": "",
          "type": "address"
        }
      ],
      "payable": false,
      "stateMutability": "view",
      "type": "function"
    },
    {
      "constant": false,
      "inputs": [
        {
          "internalType": "address[]",
          "name": "accounts",
          "type": "address[]"
        }
      ],
      "name": "setup",
      "outputs": [],
      "payable": false,
      "stateMutability": "nonpayable",
      "type": "function"
    },
    {
      "constant": false,
      "inputs": [
        {
          "internalType": "address",
          "name": "account",
          "type": "address"
        }
      ],
      "name": "addToWhitelist",
      "outputs": [],
      "payable": false,
      "stateMutability": "nonpayable",
      "type": "function"
    },
    {
      "constant": false,
      "inputs": [
        {
          "internalType": "address",
          "name": "account",
          "type": "address"
        }
      ],
      "name": "removeFromWhitelist",
      "outputs": [],
      "payable": false,
      "stateMutability": "nonpayable",
      "type": "function"
    },
    {
      "constant": false,
      "inputs": [
        {
          "internalType": "address",
          "name": "to",
          "type": "address"
        },
        {
          "internalType": "uint256",
          "name": "value",
          "type": "uint256"
        },
        {
          "internalType": "bytes",
          "name": "data",
          "type": "bytes"
        }
      ],
      "name": "executeWhitelisted",
      "outputs": [
        {
          "internalType": "bool",
          "name": "",
          "type": "bool"
        }
      ],
      "payable": false,
      "stateMutability": "nonpayable",
      "type": "function"
    }
  ],
  "bytecode": "0x608060405234801561001057600080fd5b50610ac8806100206000396000f3fe608060405234801561001057600080fd5b50600436106100935760003560e01c80638ab1d681116100665780638ab1d681146101d9578063a3f4df7e146101ff578063bd5b853b1461027c578063e43252d71461031f578063ffa1ad741461034557610093565b80632f2f3be1146100985780633af32abf14610167578063481c6a751461018d5780637de7edef146101b1575b600080fd5b610153600480360360608110156100ae57600080fd5b6001600160a01b03823516916020810135918101906060810160408201356401000000008111156100de57600080fd5b8201836020820111156100f057600080fd5b8035906020019184600183028401116401000000008311171561011257600080fd5b91908080601f01602080910402602001604051908101604052809392919081815260200183838082843760009201919091525092955061034d945050505050565b604080519115158252519081900360200190f35b6101536004803603602081101561017d57600080fd5b50356001600160a01b03166105aa565b6101956105bf565b604080516001600160a01b039092168252519081900360200190f35b6101d7600480360360208110156101c757600080fd5b50356001600160a01b03166105ce565b005b6101d7600480360360208110156101ef57600080fd5b50356001600160a01b031661067e565b610207610755565b6040805160208082528351818301528351919283929083019185019080838360005b83811015610241578181015183820152602001610229565b50505050905090810190601f16801561026e5780820380516001836020036101000a031916815260200191505b509250505060405180910390f35b6101d76004803603602081101561029257600080fd5b8101906020810181356401000000008111156102ad57600080fd5b8201836020820111156102bf57600080fd5b803590602001918460208302840111640100000000831117156102e157600080fd5b919080806020026020016040519081016040528093929190818152602001838360200280828437600092019190915250929550610781945050505050565b6101d76004803603602081101561033557600080fd5b50356001600160a01b031661083f565b610207610970565b600154604080516317aa5fb760e11b815233600482015290516000926001600160a01b031691632f54bf6e916024808301926020929190829003018186803b15801561039857600080fd5b505afa1580156103ac573d6000803e3d6000fd5b505050506040513d60208110156103c257600080fd5b50516103ff5760405162461bcd60e51b8152600401808060200182810382526025815260200180610a286025913960400191505060405180910390fd5b6001600160a01b03841660009081526002602052604090205460ff166104565760405162461bcd60e51b8152600401808060200182810382526021815260200180610a4d6021913960400191505060405180910390fd5b60015460405163468721a760e01b81526001600160a01b03868116600483019081526024830187905292169163468721a79187918791879160009160448101906064018360ff168152602001828103825284818151815260200191508051906020019080838360005b838110156104d75781810151838201526020016104bf565b50505050905090810190601f1680156105045780820380516001836020036101000a031916815260200191505b5095505050505050602060405180830381600087803b15801561052657600080fd5b505af115801561053a573d6000803e3d6000fd5b505050506040513d602081101561055057600080fd5b50516105a3576040805162461bcd60e51b815260206004820152601d60248201527f436f756c64206e6f742065786563757465207472616e73616374696f6e000000604482015290519081900360640190fd5b9392505050565b60026020526000908152604090205460ff1681565b6001546001600160a01b031681565b6001546001600160a01b031633146106175760405162461bcd60e51b8152600401808060200182810382526026815260200180610a6e6026913960400191505060405180910390fd5b6001600160a01b03811661065c5760405162461bcd60e51b8152600401808060200182810382526024815260200180610a046024913960400191505060405180910390fd5b600080546001600160a01b0319166001600160a01b0392909216919091179055565b6001546001600160a01b031633146106c75760405162461bcd60e51b8152600401808060200182810382526026815260200180610a6e6026913960400191505060405180910390fd5b6001600160a01b03811660009081526002602052604090205460ff16610734576040805162461bcd60e51b815260206004820152601a60248201527f4163636f756e74206973206e6f742077686974656c6973746564000000000000604482015290519081900360640190fd5b6001600160a01b03166000908152600260205260409020805460ff19169055565b6040518060400160405280601081526020016f57686974656c697374204d6f64756c6560801b81525081565b610789610991565b60005b815181101561083b5760008282815181106107a357fe5b6020026020010151905060006001600160a01b0316816001600160a01b03161415610810576040805162461bcd60e51b8152602060048201526018602482015277125b9d985b1a59081858d8dbdd5b9d081c1c9bdd9a59195960421b604482015290519081900360640190fd5b6001600160a01b03166000908152600260205260409020805460ff191660019081179091550161078c565b5050565b6001546001600160a01b031633146108885760405162461bcd60e51b8152600401808060200182810382526026815260200180610a6e6026913960400191505060405180910390fd5b6001600160a01b0381166108de576040805162461bcd60e51b8152602060048201526018602482015277125b9d985b1a59081858d8dbdd5b9d081c1c9bdd9a59195960421b604482015290519081900360640190fd5b6001600160a01b03811660009081526002602052604090205460ff161561094c576040805162461bcd60e51b815260206004820152601e60248201527f4163636f756e7420697320616c72656164792077686974656c69737465640000604482015290519081900360640190fd5b6001600160a01b03166000908152600260205260409020805460ff19166001179055565b604051806040016040528060058152602001640302e312e360dc1b81525081565b6001546001600160a01b0316156109ef576040805162461bcd60e51b815260206004820152601c60248201527f4d616e616765722068617320616c7265616479206265656e2073657400000000604482015290519081900360640190fd5b600180546001600160a01b0319163317905556fe496e76616c6964206d617374657220636f707920616464726573732070726f76696465644d6574686f642063616e206f6e6c792062652063616c6c656420627920616e206f776e6572546172676574206163636f756e74206973206e6f742077686974656c69737465644d6574686f642063616e206f6e6c792062652063616c6c65642066726f6d206d616e61676572a265627a7a72315820195a79fbad6ef85e9e0f9c4fac95f8d8c8b5bee055022b6e8c8b146f9394da1364736f6c63430005100032",
  "source": "pragma solidity ^0.5.0;\nimport \"../base/Module.sol\";\nimport \"../base/ModuleManager.sol\";\nimport \"../base/OwnerManager.sol\";\nimport \"../common/Enum.sol\";\n\n\n/// @title Whitelist Module - Allows to execute transactions to whitelisted addresses without confirmations.\n/// @author Stefan George - <stefan@gnosis.pm>\ncontract WhitelistModule is Module {\n\n    string public constant NAME = \"Whitelist Module\";\n    string public constant VERSION = \"0.1.0\";\n\n    // isWhitelisted mapping maps destination address to boolean.\n    mapping (address => bool) public isWhitelisted;\n\n    /// @dev Setup function sets initial storage of contract.\n    /// @param accounts List of whitelisted accounts.\n    function setup(address[] memory accounts)\n        public\n    {\n        setManager();\n        for (uint256 i = 0; i < accounts.length; i++) {\n            address account = accounts[i];\n            require(account != address(0), \"Invalid account provided\");\n            isWhitelisted[account] = true;\n        }\n    }\n\n    /// @dev Allows to add destination to whitelist. This can only be done via a Safe transaction.\n    /// @param account Destination address.\n    function addToWhitelist(address account)\n        public\n        authorized\n    {\n        require(account != address(0), \"Invalid account provided\");\n        require(!isWhitelisted[account], \"Account is already whitelisted\");\n        isWhitelisted[account] = true;\n    }\n\n    /// @dev Allows to remove destination from whitelist. This can only be done via a Safe transaction.\n    /// @param account Destination address.\n    function removeFromWhitelist(address account)\n        public\n        authorized\n    {\n        require(isWhitelisted[account], \"Account is not whitelisted\");\n        isWhitelisted[account] = false;\n    }\n\n    /// @dev Returns if Safe transaction is to a whitelisted destination.\n    /// @param to Whitelisted destination address.\n    /// @param value Not checked.\n    /// @param data Not checked.\n    /// @return Returns if transaction can be executed.\n    function executeWhitelisted(address to, uint256 value, bytes memory data)\n        public\n        returns (bool)\n    {\n        // Only Safe owners are allowed to execute transactions to whitelisted accounts.\n        require(OwnerManager(address(manager)).isOwner(msg.sender), \"Method can only be called by an owner\");\n        require(isWhitelisted[to], \"Target account is not whitelisted\");\n        require(manager.execTransactionFromModule(to, value, data, Enum.Operation.Call), \"Could not execute transaction\");\n    }\n}\n",
  "sourcePath": "/Users/OST/Documents/dj/ost-opt-contracts/contracts/openst-contracts/external/gnosis/safe-contracts/contracts/modules/WhitelistModule.sol",
  "compiler": {
    "name": "solc",
    "version": "0.5.16+commit.9c3226ce.Emscripten.clang"
  },
  "schemaVersion": "3.0.21",
  "updatedAt": "2020-01-22T10:54:09.879Z",
  "devdoc": {
    "author": "Stefan George - <stefan@gnosis.pm>",
    "methods": {
      "addToWhitelist(address)": {
        "details": "Allows to add destination to whitelist. This can only be done via a Safe transaction.",
        "params": {
          "account": "Destination address."
        }
      },
      "changeMasterCopy(address)": {
        "details": "Allows to upgrade the contract. This can only be done via a Safe transaction.",
        "params": {
          "_masterCopy": "New contract address."
        }
      },
      "executeWhitelisted(address,uint256,bytes)": {
        "details": "Returns if Safe transaction is to a whitelisted destination.",
        "params": {
          "data": "Not checked.",
          "to": "Whitelisted destination address.",
          "value": "Not checked."
        },
        "return": "Returns if transaction can be executed."
      },
      "removeFromWhitelist(address)": {
        "details": "Allows to remove destination from whitelist. This can only be done via a Safe transaction.",
        "params": {
          "account": "Destination address."
        }
      },
      "setup(address[])": {
        "details": "Setup function sets initial storage of contract.",
        "params": {
          "accounts": "List of whitelisted accounts."
        }
      }
    },
    "title": "Whitelist Module - Allows to execute transactions to whitelisted addresses without confirmations."
  },
  "userdoc": {
    "methods": {}
  }
}